:020000040800F2
:10000000E0CC0024E102000801370108B90D010825
:10001000A9350108010F000851A7010800000000E0
:10002000000000000000000000000000F144010892
:10003000011C000800000000F13E010869450108AC
:10004000FB020008FB020008FB020008FB0200089C
:10005000FB020008FB020008FB020008FB0200088C
:10006000FB020008FB020008FB02000871110008F7
:10007000FB020008FB020008FB020008FB0200086C
:10008000FB020008FB020008FB020008191C000824
:10009000391C0008291C0008491C0008FB02000844
:1000A000FB020008FB020008FB020008FB0200083C
:1000B000FB020008FB020008FB020008FB0200082C
:1000C000FB020008FB020008FB020008FB0200081C
:1000D000FB020008696B0108796B0108896B010854
:1000E000FB020008FB02000800000000FB02000801
:1000F000FB020008FB020008FB020008FB020008EC
:10010000FB020008FB020008FB020008FB020008DB
:10011000FB020008FB020008FB020008FB020008CB
:10012000FB020008FB020008FB020008FB020008BB
:10013000FB020008FB020008FB020008FB020008AB
:1001400000000000000000000000000000000000AF
:10015000FB020008FB020008FB020008FB0200088B
:10016000FB020008FB020008FB020008FB0200087B
:10017000FB020008B1390108FB0200080000000082
:10018000FB020008FB02000891500108FB02000876
:10019000FB020008FB020008FB020008FB0200084B
:1001A000FB020008FB020008FB0200080000000040
:1001B000FB020008FB020008FB020008FB0200082B
:1001C000FB020008FB020008000000000000000025
:1001D0000000000000000000FB020008000000001A
:1001E000000000000000000000000000000000000F
:1001F0000000000000000000FB020008FB020008F5
:10020000FB020008FB02000800000000FB020008DF
:10021000FB020008FB020008FB020008FB020008CA
:10022000FB02000800000000FB02000800000000C4
:10023000FB020008FB02000800000000FB020008AF
:10024000FB020008FB020008FB020008FB0200089A
:10025000FB020008FB020008FB020008FB0200088A
:10026000FB020008FB020008FB020008FB0200087A
:10027000FB020008FB020008FB020008000000006F
:10028000FB020008FB020008FB020008FB0200085A
:1002900000000000FB020008FB0200080000000054
:1002A00000000000FB020008FB020008FB0200083F
:1002B000596B0108FB020008FB020008591C0008EA
:1002C000691C0008D1470108FB020008DFF80CD0C8
:1002D00000F09AF80048004791B20108E0CC0024F1
:1002E0000648804706480047FEE7FEE7FEE7FEE7D0
:1002F000FEE7FEE7FEE7FEE7FEE7FEE791460108C0
:10030000CD0200082DE9F05F0546002092469B468D
:1003100088460646814640241BE02846414647461B
:10032000224600F060F853465A46C01A914110D355
:1003300011461846224600F047F82D1A67EB0108CF
:100340004F4622460120002100F03EF817EB00093D
:100350004E41201EA4F10104DFDC484631462A4606
:100360004346BDE8F09F40EA01039B0703D009E044
:1003700008C9121F08C0042AFAD203E011F8013B91
:1003800000F8013B521EF9D27047D2B201E000F8EA
:10039000012B491EFBD270470022F6E710B5134629
:1003A0000A4604461946FFF7F0FF204610BD30B557
:1003B00004460020034600E05B1C934203D2E05C4D
:1003C000CD5C401BF8D030BD202A04DB203A00FA77
:1003D00002F1002070479140C2F1200320FA03F39C
:1003E000194390407047202A04DB203A21FA02F09A
:1003F0000021704721FA02F3D040C2F1200291405F
:1004000008431946704700001CB509480090094888
:1004100001900546009C06E0E06840F0010394E886
:10042000070098471034AC42F6D3FFF753FF0000A3
:10043000BC9D0208DC9D020880B584B0039003983F
:10044000006842F20001C4F20201884209D0FFE7CD
:100450000398006842F20011C4F20201884209D1F7
:10046000FFE742F20830C4F20200006810F4403F97
:1004700009D129E046F20830C5F60200006810F400
:10048000403F21D0FFE70CF0F3FE02900398406854
:100490000190B0F5803F0AD0FFE70198B0F5003F2A
:1004A00005D0FFE70198B0F5403F07D00AE0039878
:1004B000C1880298B0FBF1F0029004E00298800835
:1004C000029000E0FFE75FE04FF4002000210AF017
:1004D000DBFE0290039840680090B0F5802F32D088
:1004E000FFE70098B0F5002F2DD0FFE70098B0F59A
:1004F000402F28D0FFE70098B0F5801F23D0FFE7FA
:100500000098B0F5A01F1ED0FFE70098B0F5C01FFF
:1005100019D0FFE70098B0F5E01F1FD0FFE7009863
:10052000B0F5001F1ED0FFE70098B0F5101F1DD0DA
:10053000FFE70098B0F5201F1CD0FFE70098B0F54A
:10054000301F1BD01EE0039841686FF0010000EAE5
:1005500051410298B0FBF1F0029014E002980009BA
:10056000029010E00298400902900CE00298800985
:10057000029008E00298C009029004E00298000A84
:10058000029000E0FFE7FFE702984008029002981F
:1005900045F61061C0F25F01884209D8FFE7039871
:1005A0000068806820F440700399096888602EE034
:1005B00002984BF62041C0F2BE0188420AD8FFE7FC
:1005C000039800688068012161F309200399096894
:1005D00088601BE0029847F64001C0F27D11884216
:1005E0000AD8FFE7039800688068022161F30920B8
:1005F00003990968886008E003980068806840F4FF
:100600004070039909688860FFE7FFE7FFE704B0DF
:1006100080BD00000000000080B582B0019001980C
:10062000806B00900098006E10F0500F4AD1FFE7E9
:100630000099086E40F40070086600980068006831
:100640000007002821D5FFE70098006811F0F0FAB4
:10065000D0B1FFE700980068C0688004002812D479
:10066000FFE70099086E20F4807008660098006E1D
:10067000C004002806D4FFE70099086E40F001008E
:100680000866FFE7FFE7FFE718E000980068C0682A
:10069000800790B9FFE70099086E20F48070086623
:1006A0000098006EC004002806D4FFE70099086E89
:1006B00040F001000866FFE7FFE7FFE7009802F05F
:1006C00027FD10E00098006EC006002804D5FFE763
:1006D000009802F025FD05E00098806DC16C01983E
:1006E0008847FFE7FFE702B080BD00000000000080
:1006F00080B582B001900198806B00900099086EDF
:1007000040F0400008660099486E40F004004866DA
:10071000009802F005FD02B080BD0000000000005E
:1007200080B582B001900198806B0090009802F033
:10073000F3FC02B080BD000080B584B00290029846
:10074000006811F045FA00900298006811F048FA2C
:1007500000284BD0FFE70098002847D1FFE7029818
:100760000068806800F00D00012809D1FFE70298B9
:10077000006811F0ADF902980168032008600DE0EF
:100780000299086E40F0100008660299486E40F029
:100790000100486601208DF80F002BE007F0C4FF30
:1007A0000190FFE7029800688068C007E8B1FFE7A2
:1007B00007F0BAFF0199401A032815D3FFE7029802
:1007C00000688068C00770B1FFE70299086E40F0CA
:1007D000100008660299486E40F00100486601204A
:1007E0008DF80F0006E0FFE7DCE7FFE700208DF85B
:1007F0000F00FFE79DF80F0004B080BD000000006F
:1008000080B586B004900498006811F0E9F90028DA
:1008100040F09280FFE70498006880683F21C8F2AA
:10082000000108420ED0FFE70499086E40F0100066
:1008300008660499486E40F00100486601208DF872
:1008400017007DE00498006811F05EF907F06CFF76
:10085000039004980168012042F20002C4F20202EF
:10086000914201900CD0FFE7049800684DF60071AA
:10087000CBF6FD710844B0FA80F040090190FFE723
:100880000198C10746F20030C5F6020000291CBFDE
:1008900042F20030C4F2020011F06AF902900498AA
:1008A000006842F20011C4F20201884206D1FFE75B
:1008B00042F20000C4F20200009003E004980068D5
:1008C0000090FFE7009804990968884203D0FFE789
:1008D000029880BBFFE7FFE7049800680068C00744
:1008E00040BBFFE70498006811F07AF928B9FFE7E8
:1008F0000498006811F008F9FFE707F015FF039965
:10090000401A032815D3FFE7049800680068C00761
:1009100070B9FFE70499086E40F01000086604996A
:10092000486E40F00100486601208DF8170007E08E
:10093000FFE7D1E7FFE7FFE700208DF81700FFE7AB
:100940009DF8170006B080BD81B0009000994FF06F
:100950007E500860009900204860009988600099E6
:10096000C86001B07047000080B586B00590049162
:100970000392049890ED000A46F67010C2F200400F
:1009800090ED001A30EE410A8DED000A049991EDC8
:10099000010A90ED011A30EE410A8DED010A049929
:1009A00091ED020A90ED021A30EE410A8DED020A35
:1009B00005989DED000ADDED010A9DED021A0399EF
:1009C000D1ED001A91ED012AD1ED022A12F0F8FBC7
:1009D00006B080BD0000000080B582B00190FFE746
:1009E00001201BF051F8FBE780B540F60000C5F68A
:1009F00002000122114607F07FFE80BD00000000CA
:100A000080B540F60000C5F602000121002207F083
:100A100073FE80BD00000000704700000000000071
:100A200080B540F60000C5F602000821012207F05B
:100A300063FE80BD0000000080B540F60000C5F6F2
:100A400002000821002207F057FE80BD00000000D0
:100A5000704700000000000080B582B0ADF80600CD
:100A6000FFE7BDF80600411EADF8061028B1FFE70C
:100A70004FF47A7000F004F8F3E702B080BD000094
:100A800086B0ADF81600002004900390029001900B
:100A900000904EF21400CEF2000000680090BDF805
:100AA0001600C0EB0010400104904EF21800CEF288
:100AB000000000680390FFE74EF21800CEF200003D
:100AC000006802900298039988421ED0FFE70298BE
:100AD0000399884207D2FFE703980299411A0198C7
:100AE0000844019008E000980299401A03990144D3
:100AF000019808440190FFE7029803900198049937
:100B0000884201D3FFE701E0FFE7D5E706B0704771
:100B100080B582B000208DF80700FFF77DFFFFF75A
:100B200097FF19F0F5FF01469DF8070008438DF87F
:100B300007001AF0B5F801469DF8070008438DF844
:100B400007009DF8070002B080BD00000000000013
:100B500080B588B00790069105920020009004901F
:100B60000390FFF74DFF922000F00AF9122003A92D
:100B70000191062200F0CCF8FFF736FF9DF80C003B
:100B80009DF80D1040EA0120ADF80A00BDF90A00F9
:100B900000EE100AB8EEC00A40F20400C2F20040B3
:100BA00090ED001A20EE010A069981ED000A9DF8E9
:100BB0000E109DF80F2041EA0221ADF80A10BDF990
:100BC0000A1000EE101AB8EEC00A90ED001A20EEDE
:100BD000010A069981ED010A9DF810109DF8112077
:100BE00041EA0221ADF80A10BDF90A1000EE101A10
:100BF000B8EEC00A90ED001A20EE010A069880EDCA
:100C0000020AFFF719FF00980199082200F080F806
:100C1000FFF706FF9DF80C000F2844D1FFE79DF871
:100C20000E009DF80F1040EA0120ADF80A00BDF952
:100C30000A0000EE100AB8EEC00A40F20800C2F244
:100C4000004090ED001A20EE010A079981ED000A9C
:100C50009DF810109DF8112041EA0221ADF80A100C
:100C6000BDF90A1000EE101AB8EEC00A90ED001A95
:100C700020EE010A079981ED010A9DF812109DF8F6
:100C8000132041EA0221ADF80A10BDF90A1000EE66
:100C9000101AB8EEC00A90ED001A20EE010A07986B
:100CA00080ED020AFFE7FFF7ABFEA22000F068F834
:100CB000222003A9022200F02BF8FFF795FE9DF8F1
:100CC0000C009DF80D10C00040EA5110ADF80A006C
:100CD000BDF90A00B0F5806F07DBFFE7BDF80A0039
:100CE000A0F50060ADF80A00FFE7BDF90A0000EECC
:100CF000100AB8EEC01AB4EE002AB3EE070AA1EE4D
:100D0000020A059880ED000A08B080BD00000000CE
:100D100080B584B08DF80F0002918DF807209DF802
:100D20000F0040F0800000F02BF8FFE79DF807006F
:100D300070B1FFE7552000F023F80299087002987F
:100D4000013002909DF8070001388DF80700EDE7AB
:100D500004B080BD0000000080B582B08DF80700AF
:100D600000919DF8070040F0800000F009F8552040
:100D700000F006F80099087002B080BD0000000085
:100D800080B582B08DF8070069464FF47A7008602C
:100D900047F21050C2F200400DF107010DF10602BA
:100DA00001230DF0D1FE9DF8060002B080BD0000C9
:100DB00080B582B08DF807008DF806109DF8070009
:100DC000FFF7DEFF9DF80600FFF7DAFF02B080BDF7
:100DD00080B547F26C60C2F2004004210EF030FF93
:100DE00080BD00000000000041F63801C4F200019F
:100DF0003220086046F64011C2F20041012008701E
:100E0000704700000000000080B582B007F08CFC45
:100E100000900020C5F602004FF4004107F054FC9A
:100E20008DF8060047F6A820C2F200400078B0B95D
:100E3000FFE79DF8060070B9FFE747F6A821C2F268
:100E40000041012008700098643047F6E821C2F2A2
:100E500000410860FFE700208DF8070049E047F6F1
:100E6000A820C2F200400078012824D1FFE70098B2
:100E700047F6E821C2F200410968884217D3FFE72C
:100E80009DF8060050B9FFE747F6A821C2F20041DD
:100E90000220087001208DF807002AE047F6A821FB
:100EA000C2F20041002008708DF8070021E0002008
:100EB0008DF807001DE047F6A820C2F20040007838
:100EC000022810D1FFE79DF80600012807D1FFE7AF
:100ED00047F6A821C2F2004100200870FFE7002079
:100EE0008DF8070005E0FFE7FFE700208DF8070019
:100EF000FFE79DF9070002B080BD00000000000080
:100F0000FFE7FEE70000000084B08DF80F000291BB
:100F1000ADF806209DF80F000146009123281DD84A
:100F20000099DFE801F012131415161B1B1B1B1B85
:100F30001B1B1B1B1B1B1B1B1B1B1B1B1B1B1B1B01
:100F40001B1B1B1B1B1B1718191A08E007E006E0E8
:100F500005E004E003E002E001E000E0FFE700203C
:100F600004B070470000000000207047000000003F
:100F700080B582B046F67C10C2F20040009045F683
:100F8000D001C2F200410022019216F0ADF90098A2
:100F900045F2D001C2F2004116F086F9019802B084
:100FA00080BD00000000000080B586B0059004916F
:100FB000059946F67C10C2F20040019016F074F9D3
:100FC000019816F015F90020029003904BF6F440BA
:100FD000C2F20040006803A91DF03AF90298049992
:100FE000096844F26C02C2F20042118006B080BD72
:100FF00083B0029001918DF8032000208DF802004B
:101000009DF9020003B0704780B586B00490ADF83A
:101010000E1000208DF80D0046F67C10C2F2004044
:10102000D0F8BC0202900298D0F8140220B1FFE779
:1010300001208DF8170013E00499BDF80E2046F644
:101040007C10C2F20040019016F04EF9019816F0A3
:1010500057FA8DF80D009DF80D008DF81700FFE789
:101060009DF8170006B080BD80B586B000200590C1
:10107000049003904FF47A7102910190FFE7019878
:101080000299884230DAFFE746F66410C2F2004067
:10109000009046F63011C2F2004148F2D402C2F28A
:1010A0000042FFF755FD009890ED001A9DED030AF0
:1010B00030EE010A8DED030A90ED011A9DED040A50
:1010C00030EE010A8DED040A90ED021A9DED050A3D
:1010D00030EE010A8DED050A01201AF0D5FCFFE77C
:1010E000019801300190CAE79DED030A9DED021AB7
:1010F000B8EEC11A80EE010A46F67010C2F2004046
:1011000080ED000A9DED040A9DED021AB8EEC11AA9
:1011100080EE010A80ED010A9DED050A9DED021A9F
:10112000B8EEC11A80EE010A80ED020A06B080BD59
:1011300080B582B08DF8070030208DF806009DF84C
:10114000070048B9FFE732208DF806000DF10600D0
:101150000121FFF759FF08E031208DF806000DF15D
:1011600006000121FFF750FFFFE702B080BD00003D
:1011700080B546F6C840C2F2004003F021FC80BDB5
:1011800083B002900298016801201022C4F202028A
:101190009142009000F0A380FFE7029801680120CF
:1011A0002822C4F202029142009000F09880FFE7EA
:1011B0000298016801204022C4F20202914200908C
:1011C00000F08D80FFE70298016801205822C4F2E8
:1011D00002029142009000F08280FFE702980168CD
:1011E00001207022C4F202029142009077D0FFE702
:1011F0000298016801208822C4F202029142009004
:101200006DD0FFE7029801680120A022C4F202021B
:101210009142009063D0FFE7029801680120B82254
:10122000C4F202029142009059D0FFE7029801688F
:10123000012040F21042C4F20202914200904ED0CE
:10124000FFE702980168012040F22842C4F202023E
:101250009142009043D0FFE702980168012040F2DC
:101260004042C4F202029142009038D0FFE7029857
:101270000168012040F25842C4F2020291420090FB
:101280002DD0FFE702980168012040F27042C4F2BD
:1012900002029142009022D0FFE7029801680120EB
:1012A00040F28842C4F202029142009017D0FFE758
:1012B00002980168012040F2A042C4F20202914269
:1012C00000900CD0FFE7029800684FF64831CBF64B
:1012D000FD710844B0FA80F040090090FFE70098E3
:1012E000C00740B3FFE70298007810384AF6AB21F8
:1012F000CAF6AA21A0FB011000090190019800F094
:1013000007014FF63000C0F60100405C0299C86545
:101310000198042807D3FFE702990868042262F3C2
:101320000900886506E00299086840F2FF329043A0
:101330008865FFE705E00299086820F0FF008865EE
:10134000FFE70298806D03B07047000000000000C6
:1013500084B003900398006801900398016801200D
:1013600045F20842C5F60202914200904ED0FFE7D6
:1013700003980168012045F21C42C5F60202914221
:10138000009043D0FFE703980168012045F2304206
:10139000C5F602029142009038D0FFE70398016839
:1013A000012045F24442C5F60202914200902DD040
:1013B000FFE703980168012045F25842C5F6020292
:1013C0009142009022D0FFE703980168012045F286
:1013D0006C42C5F602029142009017D0FFE70398D5
:1013E0000168012045F28042C5F602029142009058
:1013F0000CD0FFE7039800684AF66C31CAF2FD7121
:101400000844B0FA80F040090090FFE70098C00758
:1014100010B3FFE70398007808384CF6CD41CCF6BE
:10142000CC41A0FB011000090290029945F6000092
:10143000C5F6020000EB810003990866039945F6A2
:101440008000C5F602004866029800F01F010120E6
:1014500088400399886635E00398007810384AF68A
:10146000AB21CAF6AA21A0FB011000090290019845
:1014700040F2B841C4F2020188420CD8FFE701985B
:1014800040F21041C4F20201884204D3FFE70298FF
:1014900008300290FFE7029940F60000C4F2020013
:1014A00000EB810003990866039940F68000C4F2BE
:1014B00002004866029800F01F010120884003994D
:1014C0008866FFE704B0704783B002900298007905
:1014D00001900198002800F08A80FFE70198082811
:1014E00000F28580FFE702980168012045F208427A
:1014F000C5F60202914200904ED0FFE702980168C3
:10150000012045F21C42C5F602029142009043D0F0
:10151000FFE702980168012045F23042C5F6020259
:101520009142009038D0FFE702980168012045F20F
:101530004442C5F60202914200902DD0FFE7029886
:101540000168012045F25842C5F60202914200901E
:1015500022D0FFE702980168012045F26C42C5F6EF
:1015600002029142009017D0FFE702980168012023
:1015700045F28042C5F60202914200900CD0FFE78E
:10158000029800684AF66C31CAF2FD710844B0FA5C
:1015900080F040090090FFE70098C00780B1FFE7A6
:1015A000019945F6FC00C5F6020000EB81000299A6
:1015B000C866029945F64010C5F6020008670FE0BC
:1015C000019940F6FC00C4F2020000EB8100029990
:1015D000C866029940F64010C4F202000867FFE7AF
:1015E0000198411E0120884002994867FFE703B037
:1015F000704700000000000085B0049000208DF8C6
:101600000F000498806918BBFFE70498806A029075
:1016100003281BD80299DFE801F0020D0218049894
:1016200090F82F00C00720B1FFE701208DF80F00D0
:10163000FFE70CE00498C06AB0F1C07F04D1FFE777
:1016400001208DF80F00FFE701E000E0FFE747E031
:1016500004988069B0F5005F26D1FFE70498806A9E
:10166000019003281ED80199DFE801F0020602115B
:1016700001208DF80F0016E0049890F82F00C007A5
:1016800020B1FFE701208DF80F00FFE70BE0049881
:10169000C06AB0F1C07F04D1FFE701208DF80F00D0
:1016A000FFE700E0FFE71AE00498806A0090032853
:1016B00004D3FFE70098032804D00EE001208DF842
:1016C0000F000BE0049890F82F00C00720B1FFE74F
:1016D00001208DF80F00FFE700E0FFE7FFE7FFE7DD
:1016E0009DF80F0005B0704789B0089007910692E9
:1016F00005930898806D04900898806D0390089871
:10170000016801201022C4F202029142029000F00E
:101710000381FFE70898016801202822C4F2020231
:101720009142029000F0F880FFE7089801680120DC
:101730004022C4F202029142029000F0ED80FFE7E5
:101740000898016801205822C4F2020291420290D6
:1017500000F0E280FFE70898016801207022C4F2DF
:1017600002029142029000F0D780FFE708980168DA
:1017700001208822C4F202029142029000F0CC8043
:10178000FFE7089801680120A022C4F202029142FA
:10179000029000F0C180FFE7089801680120B8229C
:1017A000C4F202029142029000F0B680FFE708986E
:1017B0000168012040F21042C4F2020291420290FC
:1017C00000F0AA80FFE708980168012040F2284253
:1017D000C4F202029142029000F09E80FFE7089856
:1017E0000168012040F24042C4F20202914202909C
:1017F00000F09280FFE708980168012040F258420B
:10180000C4F202029142029000F08680FFE708983D
:101810000168012040F27042C4F20202914202903B
:101820007AD0FFE708980168012040F28842C4F2AC
:101830000202914202906FD0FFE7089801680120F0
:1018400040F2A042C4F202029142029064D0FFE74B
:1018500008980168012040F2B842C4F202029142A5
:10186000029059D0FFE708980168012045F208422C
:10187000C5F60202914202904ED0FFE70898016837
:10188000012045F21C42C5F602029142029043D06B
:10189000FFE708980168012045F23042C5F60202D0
:1018A0009142029038D0FFE708980168012045F284
:1018B0004442C5F60202914202902DD0FFE70898FB
:1018C0000168012045F25842C5F602029142029099
:1018D00022D0FFE708980168012045F26C42C5F666
:1018E00002029142029017D0FFE708980168012098
:1018F00045F28042C5F60202914202900CD0FFE709
:10190000089800684AF66C31CAF2FD710844B0FAD2
:1019100080F040090290FFE70298C00770B1FFE72E
:101920000898416E806E48600898C06E28B1FFE745
:101930000898016F406F4860FFE7FFE7089801686B
:1019400001201022C4F202029142019000F0A38013
:10195000FFE70898016801202822C4F202029142A0
:10196000019000F09880FFE708980168012040226C
:10197000C4F202029142019000F08D80FFE70898C6
:10198000016801205822C4F202029142019000F045
:101990008280FFE70898016801207022C4F20202E9
:1019A0009142019077D0FFE70898016801208822D2
:1019B000C4F20202914201906DD0FFE708980168DD
:1019C0000120A022C4F202029142019063D0FFE7FD
:1019D000089801680120B822C4F2020291420190E5
:1019E00059D0FFE708980168012040F21042C4F284
:1019F0000202914201904ED0FFE708980168012051
:101A000040F22842C4F202029142019043D0FFE723
:101A100008980168012040F24042C4F2020291425B
:101A2000019038D0FFE708980168012040F2584241
:101A3000C4F20202914201902DD0FFE7089801689C
:101A4000012040F27042C4F202029142019022D081
:101A5000FFE708980168012040F28842C4F20202C0
:101A60009142019017D0FFE708980168012040F2E9
:101A7000A042C4F20202914201900CD0FFE7089804
:101A800000684FF64831CBF6FD710844B0FA80F09B
:101A900040090190FFE70198C00750B3FFE708989D
:101AA000C06D00F01F013F208840049988600898AD
:101AB0000168086820F48020086005980899096882
:101AC000486008988068402809D1FFE7069808997F
:101AD00009688860079808990968C86008E007984D
:101AE000089909688860069808990968C860FFE73E
:101AF00082E008980168012045F20842C5F602021A
:101B0000914200904ED0FFE708980168012045F20D
:101B10001C42C5F602029142009043D0FFE70898AC
:101B20000168012045F23042C5F602029142009060
:101B300038D0FFE708980168012045F24442C5F615
:101B40000202914200902DD0FFE708980168012021
:101B500045F25842C5F602029142009022D0FFE7BA
:101B600008980168012045F26C42C5F602029142D4
:101B7000009017D0FFE708980168012045F28042E5
:101B8000C5F60202914200900CD0FFE70898006869
:101B90004AF66C31CAF2FD710844B0FA80F040098F
:101BA0000090FFE70098C00720B3FFE70898C06DDA
:101BB00000F01F01012088400399486005980899AA
:101BC0000968486008988068402809D1FFE70698AE
:101BD000089909688860079808990968C86008E04A
:101BE0000798089909688860069808990968C86084
:101BF000FFE700E0FFE7FFE709B0704700000000E3
:101C0000704700000000000081B0EFF3108072B652
:101C10000090FFE7FEE7000080B546F64050C2F2B4
:101C2000004005F095FB80BD80B546F64050C2F2FD
:101C3000004005F08DFB80BD80B546F6E050C2F255
:101C4000004005F085FB80BD80B546F6E050C2F24D
:101C5000004005F07DFB80BD80B546F68060C2F295
:101C6000004005F075FB80BD80B546F68060C2F28D
:101C7000004005F06DFB80BD84B002900298406B7F
:101C8000009002980068D0F884004FF6FC718843F9
:101C9000009940EA810002990968C1F8840002981D
:101CA0000068D0F8840020F47F00029A1168926BDB
:101CB00040EA0240C1F884000298816B0098084411
:101CC000009002980068D0F888006FF38F000099A8
:101CD00040EA810002990968C1F88800029800680A
:101CE000D0F8880020F4FE00029A1168D26B40EA16
:101CF0000240C1F888000298C16B009800EB4100D7
:101D0000009002980068D0F8A0006FF38F0000994F
:101D100040EA810002990968C1F8A00002980068B1
:101D2000D0F8A00020F4FE00029A1168126C40EA7C
:101D30000240C1F8A0000299086C496C009A00FBAF
:101D40000120009002980068D0F8B0006FF38F0077
:101D5000009940EA810002990968C1F8B000029830
:101D60000068D0F8B00020F4FE00029A1168926C6E
:101D700040EA0240C1F8B0000299886CC96C009A30
:101D800000FB0120009002980068D0F8AC006FF3CF
:101D90008F00009940EA810002990968C1F8AC00FF
:101DA0000299086D496D009A00FB0120009002988D
:101DB0000068D0F8F0006FF38F00009940EA8100CE
:101DC00002990968C1F8F00002980068D0F8F000A4
:101DD00020F47C10029A1168926D40EA0240C1F82A
:101DE000F0000298816D009800EB4100009002988D
:101DF0000068D0F8C0006FF38F00009940EA8100BE
:101E000002990968C1F8C00002980068D0F8C000C3
:101E100020F47C10029A1168D26D40EA0240C1F8A9
:101E2000C00002980068D0F8C00020F07C50029AF0
:101E30001168126E40EA0260C1F8C00002994A6B54
:101E40004AF60040C4F2000000EB8200C866029926
:101E50008A6BC86E00EB820008670299CA6B086F34
:101E600000EBC200486702990A6C4B6C486F5A43FA
:101E700000EB8200886702998A6CCB6C886F5A43AA
:101E800000EB8200C86702990A6D4B6DC86F5A4318
:101E900000EB8200C1F8800002998A6DD1F88000C1
:101EA00000EBC200C1F884000299CA6D8B6ED1F8B4
:101EB00084005A4300EB8200C1F8880002990A6E40
:101EC0008B6ED1F888005A4300EB8200C1F8900075
:101ED0000298D0F890004DF2FD31C4F20001884222
:101EE0000FD3FFE70299D1F89C0040F02000C1F821
:101EF0009C000299032081F8980001208DF80F00C2
:101F000017E00298C06E0190FFE701980299D1F89E
:101F10009010884208D2FFE7019900200860FFE78F
:101F2000019804300190F0E7FFE700208DF80F00E2
:101F3000FFE79DF80F0004B07047000000000000AC
:101F400088B007900691059204930698406848B9B6
:101F5000FFE70698016882680069104340EA814003
:101F6000039009E0069801688268006910430843FD
:101F700040F080400390FFE70698D0F820C0C16889
:101F800042698369C06940EA0C6018431043084302
:101F900002900798826ED0F884000499514300EBB8
:101FA0008100019003980199086001980430019024
:101FB0000298019908600198043001900020009077
:101FC000FFE700980699CA894FF62001C0F6010183
:101FD000895C88420DD2FFE7059800994058019925
:101FE0000860019804300190FFE7009804300090E9
:101FF000E7E708B07047000080B586B0059047F26B
:102000009C70C2F2004048F2E201C2F20041052297
:1020100000920EF0FDFD009A47F6EC10C2F200406F
:1020200048F2E801C2F200410EF0F2FD009A47F6D4
:102030003000C2F2004048F2DC01C2F200410EF072
:10204000E7FD47F22060C2F20040019000210291BA
:102050000DF0F6FD0198082103910DF0F1FD0299B4
:1020600047F2B860C2F2004004900DF0E9FD039918
:1020700004980DF0E5FD3422C4F2010241F28830EB
:1020800010603C21C4F20101086010600860FFE7A5
:10209000642019F0F9FCFBE780B588B00790069141
:1020A00005920493079890ED002A90ED011A90EDA7
:1020B000020A90ED033A21EE000AA2EE030A30EE86
:1020C000000A21EE011AA2EE021AB0EE002A8DEDEE
:1020D000012AFFEE000ACDED000AE1EE020A1DF032
:1020E00001F99FED2A1A8DED021A20EE010A9FEDEB
:1020F000281A8DED031A80EE010A069880ED000A79
:10210000079890ED000A90ED011A90ED023A90EDDB
:10211000032A20EE030A91EE020AB8EE001A20EE1E
:10212000010A1DF049F8DDED000A9DED012A9DED43
:10213000023A9DED031A20EE030A80EE010A05988B
:1021400080ED000A079890ED003A90ED014A90ED7D
:10215000020A90ED031A20EE010AA3EE040A30EE03
:10216000000A21EE011AA3EE031AE1EE020A1DF0A5
:10217000B9F89DED022A9DED031A20EE020A80EEC9
:10218000010A049880ED000A08B080BD00003443C5
:10219000560E49400000000080B584B04EF60000A5
:1021A000C1F6F170006803904EF60400C1F6F170BC
:1021B000006802904EF60800C1F6F17000680190C8
:1021C0000199039808440390039888B1FFE70398A6
:1021D00040F2EC01C2F200410091023108220EF0FF
:1021E000C7FE00990298123104220EF0C1FEFFE7EB
:1021F00004B080BD0000000080B586B0049003915B
:10220000029200200090FFE7049890F85C000128FB
:1022100004D1FFE702208DF817005BE0049901204C
:1022200081F85C00FFE7FFE70498FEF785FA8DF878
:1022300007009DF80700E0BBFFE70498006E40F040
:10224000020020F4885004990866049800680399F5
:10225000029A0FF091FEFFE7049800680FF0A8FCC7
:10226000F0B1FFE700980130009000984FF60001B0
:10227000C2F2C351884212D3FFE70498006E40F0C7
:10228000100020F0020004990866FFE7049900207E
:1022900081F85C00FFE701208DF817001AE0DBE70A
:1022A0000498006E40F0010020F0020004990866D6
:1022B00005E00499086E40F010000866FFE7FFE7AC
:1022C0000499002081F85C00FFE79DF807008DF875
:1022D0001700FFE79DF8170006B080BD0000000062
:1022E00080B5AAB02890279100208DF89B002798F0
:1022F000006808B1FFE7FFE7FFE7289890F85C0067
:10230000012804D1FFE702208DF8A7002DE12899CC
:10231000012081F85C00FFE7FFE700202190229078
:102320002898006842F20001C4F20201884206D1F6
:10233000FFE742F20010C4F20200099002E0002020
:102340000990FFE7099878B9FFE72899086E40F0EF
:1023500020000866FFE72899002081F85C00FFE76D
:1023600001208DF8A70000E109980FF059FC0890B2
:10237000289800680FF054FC002840F0E280FFE746
:102380000898002840F0DD80FFE7289801680120C8
:1023900042F20002C4F20202914207900CD0FFE721
:1023A000289800684DF60071CBF6FD710844B0FA2C
:1023B00080F040090790FFE70798C10746F2003018
:1023C000C5F6020000291CBF42F20030C4F2020030
:1023D00025902798006800285ED0FFE72598806840
:1023E00020F4404027994968084325998860289837
:1023F0000168012042F20002C4F2020291420690FA
:102400000CD0FFE7289800684DF60071CBF6FD71FF
:102410000844B0FA80F040090690FFE70698C1072B
:1024200046F20030C5F6020000291CBF42F200301F
:10243000C4F2020042F20031C4F20201884212D119
:10244000FFE742F20000C4F202000FF0D1FB04905B
:1024500042F20010C4F202000FF0CAFB01460498D9
:102460000843059007E046F20000C5F602000FF0B1
:10247000BFFB0590FFE7059868B9FFE725988068DE
:1024800040F61F718843279A1168926811430843E8
:1024900025998860FFE753E02599886820F440403B
:1024A000886028980168012042F20002C4F202020A
:1024B000914203900CD0FFE7289800684DF6007118
:1024C000CBF6FD710844B0FA80F040090390FFE7B5
:1024D0000398C10746F20030C5F6020000291CBF70
:1024E00042F20030C4F2020042F20031C4F20201B2
:1024F000884212D1FFE742F20000C4F202000FF05E
:1025000077FB019042F20010C4F202000FF070FB62
:10251000014601980843029007E046F20000C5F624
:1025200002000FF065FB0290FFE7029838B9FFE761
:102530002599886840F61F7290438860FFE7FFE79F
:1025400008E02899086E40F02000086601208DF808
:102550009B00FFE7FFE72899002081F85C00FFE778
:102560009DF89B008DF8A700FFE79DF8A7002AB013
:1025700080BD00000000000080B5CCB02A902991F9
:1025800000208DF8A30025902A9890F84400012897
:1025900001D1FFE70BE02A98006846F20001C5F67A
:1025A0000201884201D1FFE700E0FFE7FFE7299839
:1025B000C0680021C4F2FF71884201D0FFE71EE02D
:1025C0002A98006842F20001C4F20201884201D157
:1025D000FFE7FFE72A98006842F20011C4F2020107
:1025E000884201D1FFE7FFE72A98006846F2000120
:1025F000C5F60201884201D1FFE7FFE7FFE7FFE7E9
:102600002A9890F85C00012805D1FFE702208DF898
:10261000AF0000F076BD2A99012081F85C00FFE749
:10262000FFE72A9800680FF0F3FA002840F055857C
:10263000FFE72A98006846F20001C5F602018842C9
:102640002DD0FFE729980068000330B9FFE72998EB
:102650000068C0F38460229015E02998006890FA21
:10266000A0F04A904A9820B9FFE720208DF82F016A
:1026700005E04A98B0FA80F08DF82F01FFE79DF849
:102680002F012290FFE7229800F01F01012000FA9D
:1026900001F22A980168C8691043C861FFE72A98C7
:1026A000006829990A6849680FF0F6FA2A980068C4
:1026B0000FF0AEFA24902A9800680FF071FA239078
:1026C0002498002840F05A82FFE72398002840F021
:1026D0005582FFE72A980068299A116892680FF0DE
:1026E0000BFB2A98006846F20001C5F602018842F9
:1026F0000BD1FFE7299840692A990968C96801F058
:10270000180189088840279038E041F20000C5F69A
:102710000040006800F07040B0F1805F0BD1FFE72F
:10272000299840692A990968C96801F01C0149087B
:10273000884021901FE02A980068C068C0060028E1
:102740000BD4FFE7299840692A990968C96801F004
:102750001C014908884020900AE0299840692A997C
:102760000968C96801F01001490888402090FFE716
:1027700020982190FFE721982790FFE7299800698A
:10278000042841D0FFE72A98006829990A68096956
:10279000279B0FF039FB2A98006846F20001C5F626
:1027A0000201884215D1FFE72A980068299A116929
:1027B000D2690FF079FB2A980068299A116992F87A
:1027C0002020013AB2FA82F2520952060FF04CFB75
:1027D00019E02A980068299A116992F82120013A93
:1027E000B2FA82F25209D2070FF07EFB2A980068F3
:1027F000299A1169127E013AB2FA82F25209D20282
:102800000FF0EEFAFFE7B8E12A98006846F20001FF
:10281000C5F60201884240F06681FFE72A98006809
:1028200000210FF0ADF9000348B9FFE72A980068CE
:1028300000210FF0A5F9C0F384601F9018E02A98DA
:10284000006800210FF09CF990FAA0F04890489899
:1028500020B9FFE720208DF8270105E04898B0FA5D
:1028600080F08DF82701FFE79DF827011F90FFE713
:102870001F981E9029980068000330B9FFE7299837
:102880000068C0F384601D9015E02998006890FAF4
:10289000A0F04690469820B9FFE720208DF81F0150
:1028A00005E04698B0FA80F08DF81F01FFE79DF82B
:1028B0001F011D90FFE71E981D99884207D1FFE771
:1028C0002A980068002211460FF02EFBFFE72A9895
:1028D000006801210FF054F9000348B9FFE72A9876
:1028E000006801210FF04CF9C0F384601C9018E0DF
:1028F0002A98006801210FF043F990FAA0F0449063
:10290000449820B9FFE720208DF8170105E044988E
:10291000B0FA80F08DF81701FFE79DF817011C90C1
:10292000FFE71C981B9029980068000330B9FFE767
:1029300029980068C0F384601A9015E0299800680F
:1029400090FAA0F04290429820B9FFE720208DF83D
:102950000F0105E04298B0FA80F08DF80F01FFE713
:102960009DF80F011A90FFE71B981A99884207D12A
:10297000FFE72A980068012100220FF0D5FAFFE74F
:102980002A98006802210FF0FBF8000348B9FFE71E
:102990002A98006802210FF0F3F8C0F384601990C0
:1029A00018E02A98006802210FF0EAF890FAA0F0E7
:1029B0004090409820B9FFE720208DF8070105E0FE
:1029C0004098B0FA80F08DF80701FFE79DF8070105
:1029D0001990FFE71998189029980068000330B9FA
:1029E000FFE729980068C0F38460179015E02998E4
:1029F000006890FAA0F03E903E9820B9FFE72020B2
:102A00008DF8FF0005E03E98B0FA80F08DF8FF00E9
:102A1000FFE79DF8FF001790FFE718981799884285
:102A200007D1FFE72A980068022100220FF07CFA04
:102A3000FFE72A98006803210FF0A2F8000348B9C5
:102A4000FFE72A98006803210FF09AF8C0F384602A
:102A5000169018E02A98006803210FF091F890FA78
:102A6000A0F03C903C9820B9FFE720208DF8F700BB
:102A700005E03C98B0FA80F08DF8F700FFE79DF88C
:102A8000F7001690FFE71698159029980068000344
:102A900030B9FFE729980068C0F38460149015E00E
:102AA0002998006890FAA0F03A903A9820B9FFE788
:102AB00020208DF8EF0005E03A98B0FA80F08DF80C
:102AC000EF00FFE79DF8EF001490FFE715981499C9
:102AD000884207D1FFE72A980068032100220FF0FF
:102AE00023FAFFE748E02A980068006E00F0F840FB
:102AF00029990968B0EB816F07D1FFE72A9801682F
:102B0000086E20F000400866FFE72A980068406ED3
:102B100000F0F84029990968B0EB816F07D1FFE711
:102B20002A980168486E20F000404866FFE72A981E
:102B30000068806E00F0F84029990968B0EB816F59
:102B400007D1FFE72A980168886E20F00040886668
:102B5000FFE72A980068C06E00F0F84029990968DC
:102B6000B0EB816F07D1FFE72A980168C86E20F0AB
:102B70000040C866FFE7FFE7FFE7FFE72A98006825
:102B80000FF02EF8002840F0A782FFE72A9800688F
:102B9000299A1168D2680FF0CBF82998C0680021F3
:102BA000C4F2FF71884240F03381FFE72A98006841
:102BB000139029980068000330B9FFE7299800684E
:102BC000C0F38460129015E02998006890FAA0F094
:102BD0003890389820B9FFE720208DF8E70005E00D
:102BE0003898B0FA80F08DF8E700FFE79DF8E7002D
:102BF0001290FFE71298013000F01F0009287DD8DD
:102C0000FFE729980068000330B9FFE729980068BA
:102C1000C0F38460119015E02998006890FAA0F044
:102C20003690369820B9FFE720208DF8DF0005E0C8
:102C30003698B0FA80F08DF8DF00FFE79DF8DF00EE
:102C40001190FFE71198013000F01F0080061090EE
:102C500029980068000330B9FFE729980068C0F39D
:102C600084600F9015E02998006890FAA0F03490E5
:102C7000349820B9FFE720208DF8D70005E034987C
:102C8000B0FA80F08DF8D700FFE79DF8D7000F90DD
:102C9000FFE710980F99013101F01F0201219140C7
:102CA00008430E9029980068000330B9FFE729987F
:102CB0000068C0F384600D9015E02998006890FAD0
:102CC000A0F03290329820B9FFE720208DF8CF0095
:102CD00005E03298B0FA80F08DF8CF00FFE79DF85C
:102CE000CF000D90FFE70E980D99013101F01F0103
:102CF00001EB410140EA01500C9082E02998006804
:102D0000000330B9FFE729980068C0F384600B9096
:102D100015E02998006890FAA0F03090309820B91A
:102D2000FFE720208DF8C70005E03098B0FA80F06A
:102D30008DF8C700FFE79DF8C7000B90FFE70B98E1
:102D4000013000F01F0080060A90299800680003F7
:102D500030B9FFE729980068C0F38460099015E056
:102D60002998006890FAA0F02E902E9820B9FFE7DD
:102D700020208DF8BF0005E02E98B0FA80F08DF885
:102D8000BF00FFE79DF8BF000990FFE70A98099987
:102D9000013101F01F020121914008430890299858
:102DA0000068000330B9FFE729980068C0F3846029
:102DB000079015E02998006890FAA0F02C902C98C4
:102DC00020B9FFE720208DF8B70005E02C98B0FA75
:102DD00080F08DF8B700FFE79DF8B7000790FFE798
:102DE00008990798013000F01F0000EB4002002016
:102DF000CFF6206000EB0250084340F000700C90CA
:102E0000FFE713980C99299A92680EF075FFFFE777
:102E10002998C0780006002840F15D81FFE72A98D4
:102E20000168012042F20002C4F2020291420690BF
:102E30000CD0FFE72A9800684DF60071CBF6FD71C3
:102E40000844B0FA80F040090690FFE70698C107F1
:102E500046F20030C5F6020000291CBF42F20030E5
:102E6000C4F202000EF07CFE26902A9801684FF012
:102E7000010042F20002C4F20202914205900CD01D
:102E8000FFE72A9800684DF60071CBF6FD71084403
:102E9000B0FA80F040090590FFE70598C10746F2B7
:102EA0000030C5F6020000291CBF42F20030C4F217
:102EB000020042F20031C4F20201884212D1FFE75F
:102EC00042F20000C4F202000EF08AFE039042F2C9
:102ED0000010C4F202000EF083FE0146039808437E
:102EE000049007E046F20000C5F602000EF078FEFE
:102EF0000490FFE70498002840F0E380FFE729985A
:102F000000680021CCF25271884255D1FFE79DF84C
:102F10009A00000600284FD4FFE72A98006846F27E
:102F20000001C5F60201884245D1FFE72A980168F1
:102F3000012042F20002C4F20202914202900CD03F
:102F4000FFE72A9800684DF60071CBF6FD71084442
:102F5000B0FA80F040090290FFE70298C10746F2FC
:102F60000030C5F6020000291CBF42F20030C4F256
:102F70000200269941F400010EF022FF40F23000D9
:102F8000C2F2004000684FEA901042F66351C0F26E
:102F90003E51A0FB01104FEA90114FF0020000EBF0
:102FA00041002590FFE7259820B1FFE725980138DB
:102FB0002590F8E7FFE783E0299800680021CCF22C
:102FC0002131884238D1FFE79DF89B00C00798BBAC
:102FD000FFE72A98006846F20001C5F60201884220
:102FE00029D1FFE72A980168012042F20002C4F2C9
:102FF0000202914201900CD0FFE72A9800684DF63A
:103000000071CBF6FD710844B0FA80F040090190E0
:10301000FFE70198C10746F20030C5F6020000291B
:103020001CBF42F20030C4F20200269941F08071C8
:103030000EF0C6FEFFE742E0299800680021CCF6BA
:103040008431884239D1FFE79DF89A004006002874
:1030500033D4FFE72A98006846F20001C5F6020162
:10306000884229D1FFE72A980168012042F2000234
:10307000C4F20202914200900CD0FFE72A98006847
:103080004DF60071CBF6FD710844B0FA80F04009AE
:103090000090FFE70098C10746F20030C5F6020035
:1030A00000291CBF42F20030C4F20200269941F40C
:1030B00080010EF085FEFFE700E0FFE7FFE7FFE796
:1030C00008E02A99086E40F02000086601208DF87B
:1030D000A300FFE7FFE7FFE708E02A99086E40F04A
:1030E0002000086601208DF8A300FFE7FFE72A997A
:1030F000002081F85C00FFE79DF8A3008DF8AF0089
:10310000FFE79DF8AF004CB080BD0000000000005C
:1031100081B0009001B0704781B0009001B070475D
:1031200081B0009001B0704710B590B00E900020B3
:103130008DF837000A900E9820B9FFE701208DF82E
:103140003F006EE20E98006940B1FFE70E9890F8DC
:103150002000012801D1FFE7FFE7FFE70E98006E8E
:1031600050B9FFE70E9800F063FA0E990020486608
:103170000E9981F85C00FFE70E9800680EF020FDC4
:1031800028B1FFE70E9800680EF0B2FCFFE70E983A
:1031900000680EF035FDE8B9FFE70E9800680EF004
:1031A000CFFC40F23000C2F200400068800942F6D5
:1031B0006351C0F23E51A0FB0101012000EB9110D0
:1031C0000A90FFE70A9820B1FFE70A9801380A90B1
:1031D000F8E7FFE70E9800680EF012FD70B9FFE700
:1031E0000E99086E40F0100008660E99486E40F087
:1031F0000100486601208DF83700FFE70E9800684F
:103200000EF006FD0B900E98006EC006002800F12F
:10321000FA81FFE70B98002840F0F581FFE70E9850
:10322000006E40F0020020F480700E9908660E983F
:1032300000680EF0D5FC002870D1FFE70E980168F9
:10324000012042F20002C4F20202914207900CD027
:10325000FFE70E9800684DF60071CBF6FD7108444B
:10326000B0FA80F040090790FFE70798C10746F2DF
:103270000030C5F6020000291CBF42F20030C4F243
:10328000020042F20031C4F20201884212D1FFE78B
:1032900042F20000C4F202000EF0A2FC059042F2DD
:1032A0000010C4F202000EF09BFC01460598084392
:1032B000069007E046F20000C5F602000EF090FC12
:1032C0000690FFE7069840BBFFE70E9801680120D3
:1032D00042F20002C4F20202914204900CD0FFE7D5
:1032E0000E9800684DF60071CBF6FD710844B0FAF7
:1032F00080F040090490FFE70498C10746F20030CF
:10330000C5F6020000291CBF42F20030C4F20200E0
:103310000E9949680EF044FDFFE7FFE70E9800683C
:1033200046F20001C5F6020188423AD1FFE70E9A43
:10333000517ED06B40EA41319068D26811430391CD
:10334000082803D1FFE7002002901DE00E98806856
:103350000C2803D1FFE70420019012E00E9880684A
:103360001C2803D1FFE70820009007E00E98816831
:103370000020182908BF1C200090FFE7009801904A
:10338000FFE701980290FFE70398029901F00C0112
:1033900040EA41000E9991F8201040EA01400C905B
:1033A0000CE00E994A7EC86B40EA42308A681043AE
:1033B00091F8201040EA01400C90FFE70E9890F839
:1033C000200001280BD1FFE70E98416A0020CFF6BC
:1033D000FE7000EB41410C9808430C90FFE70E98FB
:1033E000806A50B1FFE70E99886AC96A00F4787064
:1033F00001430C9808430C90FFE70E98006846F2D2
:103400000001C5F60201884218D1FFE70E98006856
:10341000C06844F20701CFF6F07108400C990843E8
:103420000E990968C8600E980068006920F0406035
:103430000E9A1168526B104308610DE00E980068F7
:10344000C0684CF20301CFF6F07108400C990843B4
:103450000E990968C860FFE70E9800680EF0D8FB67
:1034600009900E9800680EF09BFB089009980028C0
:1034700040F0A880FFE70898002840F0A380FFE70D
:103480000E98006846F20001C5F60201884209D193
:10349000FFE70E99087E91F83810800340EA41005A
:1034A0000C9006E00E98017E006B40EA81300C9093
:1034B000FFE70E980068C06844F2030188430C9946
:1034C00008430E990968C8600E9890F844000128D6
:1034D00059D1FFE70E98006846F20001C5F60201D7
:1034E000884201D1FFE700E0FFE70E98806A20B133
:1034F000FFE70E98C06A08B9FFE7FFE70E9800687B
:1035000046F20001C5F6020188421BD1FFE70E9882
:10351000006800694FF61E01CFF6004100EA010283
:103520000E9B1968986CD3F84CE0D3F850C040EA71
:103530000E0040EA0C005B6D1843104340F00100A0
:1035400008611FE00E98006800694FF61E01CFF673
:10355000004100EA01020E9B19689C6CD3F84CE014
:10356000D3F850C00020CFF6FF7000EB044040EAD3
:103570000E0040EA0C005B6D1843104340F0010060
:103580000861FFE706E00E980168086920F0010075
:103590000861FFE70E980068006920F070400E9AFD
:1035A0001168126C104308610E98006846F2000121
:1035B000C5F60201884204D0FFE70E98FCF73CFFF5
:1035C000FFE7FFE70E98006901280CD1FFE70E988E
:1035D0000068006B20F00F000E9A1168D269013A62
:1035E0001043086306E00E980168086B20F00F0096
:1035F0000863FFE70E98006E40F0010020F0020023
:103600000E99086608E00E99086E40F010000866F2
:1036100001208DF83700FFE79DF837008DF83F0057
:10362000FFE79DF83F0010B010BD00000000000053
:1036300080B5BCB03B9000203A90399038903790DC
:10364000369008A8B821FCF7A7FE3B98006842F224
:103650000001C4F20201884240F09180FFE700209F
:1036600009904FF40021089102210A9110220B9237
:103670000C910D910E91C0210F91109011903090EE
:1036800008A808F06DFB18B1FFE7FEF7BDFAFFE7E9
:10369000FFE744F2D840C5F60200016841F020017E
:1036A0000160006800F0200007900798FFE7FFE73F
:1036B00044F2E040C5F60200016841F001010160FA
:1036C000006800F0010006900698FFE7FFE744F26B
:1036D000E040C5F60200016841F0040101600068A5
:1036E00000F0040005900598FFE7202036900320A5
:1036F000019037900020039038900020C5F602001A
:1037000036A9029104F00CFE019A02990398102345
:1037100036933792389040F60000C5F6020004F068
:10372000FFFD039946F6C840C2F200400490102203
:10373000C4F202020260092242608160C1604FF45B
:10374000806202614FF4006242614FF40052826174
:103750004FF48072C2610162416202F011FA18B145
:10376000FFE7FEF751FAFFE7FFE73B9846F6C8414F
:10377000C2F2004181653B988863FFE7FFE73CB0F8
:1037800080BD00000000000080B588B00690059163
:10379000049206980168012042F20002C4F202027B
:1037A000914201900CD0FFE7069800684DF6007139
:1037B000CBF6FD710844B0FA80F040090190FFE7B4
:1037C0000198C10746F20030C5F6020000291CBF6F
:1037D00042F20030C4F202000EF0CAF902900698DC
:1037E00000680EF015FA002840F0C680FFE7FFE7FA
:1037F000069890F85C00012804D1FFE702208DF8BC
:103800001F00C2E00699012081F85C00FFE7FFE796
:10381000029848B1FFE70298052805D0FFE7029813
:10382000092840F09E80FFE70698FCF7E9FF8DF835
:103830000F009DF80F00002840F08B80FFE70698EE
:10384000006E40F4807040F6016188430699086676
:103850000698006842F20011C4F20201884206D1C3
:10386000FFE742F20000C4F20200009003E0069875
:1038700000680090FFE7009806990968884203D025
:10388000FFE7029830B9FFE70699086E20F4801030
:103890000866FFE70698006EC004002806D5FFE71B
:1038A0000699486E20F00600486603E0069900205D
:1038B0004866FFE70698816D40F21960C0F6000087
:1038C000C8630698816D40F22170C0F6000008645C
:1038D0000698816D40F2F160C0F60000C864069859
:1038E00001681C200860FFE70699002081F85C0051
:1038F000FFE706980168486840F0100048600698A5
:10390000006846F20001C5F6020188420CD1FFE7CB
:103910000699086891F8381049000EF095F9069854
:1039200000680EF001F905E006990868096B0EF0D1
:10393000A3F9FFE706980168806D4031059A049B62
:1039400002F0CEFD8DF80F00069800680EF0C4F965
:1039500006E0FFE70699002081F85C00FFE7FFE73B
:1039600009E001208DF80F00FFE70699002081F89B
:103970005C00FFE7FFE703E002208DF80F00FFE7A0
:103980009DF80F008DF81F00FFE79DF81F0008B09D
:1039900080BD00000000000080B58AB0089004F0EF
:1039A000C3FE0490089828B9FFE701208DF827008E
:1039B00000F0AABC089890F8350002280ED0FFE766
:1039C000089980204865FFE70899002081F83400B5
:1039D000FFE701208DF8270000F096BC08980168E9
:1039E00001201022C4F202029142039000F0A38051
:1039F000FFE70898016801202822C4F202029142E0
:103A0000039000F09880FFE70898016801204022A9
:103A1000C4F202029142039000F08D80FFE7089803
:103A2000016801205822C4F202029142039000F082
:103A30008280FFE70898016801207022C4F2020228
:103A40009142039077D0FFE708980168012088220F
:103A5000C4F20202914203906DD0FFE7089801681A
:103A60000120A022C4F202029142039063D0FFE73A
:103A7000089801680120B822C4F202029142039022
:103A800059D0FFE708980168012040F21042C4F2C3
:103A90000202914203904ED0FFE70898016801208E
:103AA00040F22842C4F202029142039043D0FFE761
:103AB00008980168012040F24042C4F2020291429B
:103AC000039038D0FFE708980168012040F258427F
:103AD000C4F20202914203902DD0FFE708980168DA
:103AE000012040F27042C4F202029142039022D0BF
:103AF000FFE708980168012040F28842C4F2020200
:103B00009142039017D0FFE708980168012040F226
:103B1000A042C4F20202914203900CD0FFE7089841
:103B200000684FF64831CBF6FD710844B0FA80F0DA
:103B300040090390FFE70398C00780B1FFE70898AA
:103B40000168086820F01E0008600898016848694C
:103B500020F08000486108980068059009E0089806
:103B60000168086820F00E00086008980068059059
:103B7000FFE70898016801201022C4F20202914276
:103B8000029000F00381FFE70898016801202822D5
:103B9000C4F202029142029000F0F880FFE7089818
:103BA000016801204022C4F202029142029000F01A
:103BB000ED80FFE70898016801205822C4F2020254
:103BC0009142029000F0E280FFE70898016801202E
:103BD0007022C4F202029142029000F0D780FFE707
:103BE0000898016801208822C4F2020291420290E2
:103BF00000F0CC80FFE7089801680120A022C4F201
:103C000002029142029000F0C180FFE7089801682B
:103C10000120B822C4F202029142029000F0B68064
:103C2000FFE708980168012040F21042C4F2020246
:103C30009142029000F0AA80FFE7089801680120F5
:103C400040F22842C4F202029142029000F09E80AB
:103C5000FFE708980168012040F24042C4F20202E6
:103C60009142029000F09280FFE7089801680120DD
:103C700040F25842C4F202029142029000F0868063
:103C8000FFE708980168012040F27042C4F2020286
:103C9000914202907AD0FFE708980168012040F233
:103CA0008842C4F20202914202906FD0FFE7089866
:103CB0000168012040F2A042C4F202029142029047
:103CC00064D0FFE708980168012040F2B842C4F2CE
:103CD00002029142029059D0FFE708980168012042
:103CE00045F20842C5F60202914202904ED0FFE72B
:103CF00008980168012045F21C42C5F60202914273
:103D0000029043D0FFE708980168012045F2304255
:103D1000C5F602029142029038D0FFE70898016888
:103D2000012045F24442C5F60202914202902DD094
:103D3000FFE708980168012045F25842C5F60202E3
:103D40009142029022D0FFE708980168012045F2D5
:103D50006C42C5F602029142029017D0FFE7089824
:103D60000168012045F28042C5F6020291420290AC
:103D70000CD0FFE7089800684AF66C31CAF2FD7172
:103D80000844B0FA80F040090290FFE70298C007AB
:103D900038B1FFE70898016E086820F48070086069
:103DA000FFE7089800681021C4F20201884200F081
:103DB0008180FFE7089800682821C4F20201884248
:103DC00078D0FFE7089800684021C4F202018842D9
:103DD00070D0FFE7089800685821C4F202018842B9
:103DE00068D0FFE7089800687021C4F20201884299
:103DF00060D0FFE7089800688821C4F20201884279
:103E000058D0FFE708980068A021C4F20201884258
:103E100050D0FFE708980068B821C4F20201884238
:103E200048D0FFE70898006840F21041C4F2020150
:103E300088423FD0FFE70898006840F22841C4F26A
:103E40000201884236D0FFE70898006840F24041FE
:103E5000C4F2020188422DD0FFE70898006840F2C2
:103E60005841C4F20201884224D0FFE70898006854
:103E700040F27041C4F2020188421BD0FFE708986B
:103E8000006840F28841C4F20201884212D0FFE784
:103E90000898006840F2A041C4F20201884209D0AB
:103EA000FFE70898006840F2B841C4F20201884276
:103EB00007D1FFE708980168086820F00100086052
:103EC00006E008980168086820F001000860FFE734
:103ED000FFE705980068C007C8B1FFE704F024FCBD
:103EE0000499401A062811D3FFE708992020486555
:103EF0000899032081F83500FFE70899002081F830
:103F00003400FFE701208DF82700FDE1E1E7089884
:103F1000016801201022C4F202029142019000F0D7
:103F2000A380FFE70898016801202822C4F202025A
:103F30009142019000F09880FFE708980168012005
:103F40004022C4F202029142019000F08D80FFE70E
:103F50000898016801205822C4F20202914201909F
:103F600000F08280FFE70898016801207022C4F207
:103F700002029142019077D0FFE708980168012082
:103F80008822C4F20202914201906DD0FFE70898A6
:103F900001680120A022C4F202029142019063D084
:103FA000FFE7089801680120B822C4F2020291429A
:103FB000019059D0FFE708980168012040F21042B3
:103FC000C4F20202914201904ED0FFE708980168C6
:103FD000012040F22842C4F202029142019043D0F3
:103FE000FFE708980168012040F24042C4F2020253
:103FF0009142019038D0FFE708980168012040F213
:104000005842C4F20202914201902DD0FFE7089875
:104010000168012040F27042C4F202029142019014
:1040200022D0FFE708980168012040F28842C4F2DC
:1040300002029142019017D0FFE708980168012021
:1040400040F2A042C4F20202914201900CD0FFE77C
:10405000089800684FF64831CBF6FD710844B0FA75
:1040600080F040090190FFE70198C00760B1FFE7C9
:104070000898806D07900898C06D00F01F013F20E0
:104080008840079988600BE00898806D0690089832
:10409000C06D00F01F010120884006994860FFE7CD
:1040A0000898016801201022C4F202029142009097
:1040B00000F00381FFE70898016801202822C4F27C
:1040C00002029142009000F0F880FFE70898016832
:1040D00001204022C4F202029142009000F0ED80E3
:1040E000FFE70898016801205822C4F202029142B9
:1040F000009000F0E280FFE708980168012070223C
:10410000C4F202029142009000F0D780FFE70898C5
:10411000016801208822C4F202029142009000F05E
:10412000CC80FFE7089801680120A022C4F20202B7
:104130009142009000F0C180FFE7089801680120DB
:10414000B822C4F202029142009000F0B680FFE76C
:1041500008980168012040F21042C4F20202914224
:10416000009000F0AA80FFE708980168012040F263
:104170002842C4F202029142009000F09E80FFE7C4
:1041800008980168012040F24042C4F202029142C4
:10419000009000F09280FFE708980168012040F24B
:1041A0005842C4F202029142009000F08680FFE77C
:1041B00008980168012040F27042C4F20202914264
:1041C00000907AD0FFE708980168012040F2884209
:1041D000C4F20202914200906FD0FFE70898016894
:1041E000012040F2A042C4F202029142009064D049
:1041F000FFE708980168012040F2B842C4F20202C9
:104200009142009059D0FFE708980168012045F2DB
:104210000842C5F60202914200904ED0FFE708988E
:104220000168012045F21C42C5F60202914200904D
:1042300043D0FFE708980168012045F23042C5F6F7
:1042400002029142009038D0FFE7089801680120EF
:1042500045F24442C5F60202914200902DD0FFE79C
:1042600008980168012045F25842C5F602029142C1
:10427000009022D0FFE708980168012045F26C42C7
:10428000C5F602029142009017D0FFE70898016836
:10429000012045F28042C5F60202914200900CD006
:1042A000FFE7089800684AF66C31CAF2FD710844CD
:1042B000B0FA80F040090090FFE70098C007A0B175
:1042C000FFE70898416E806E48600898C06E58B14C
:1042D000FFE70898C16E086820F4807008600898AD
:1042E000016F406F4860FFE7FFE70899012081F800
:1042F0003500FFE70899002081F83400FFE7FFE769
:1043000000208DF82700FFE79DF827000AB080BD48
:1043100080B586B00490049820B9FFE701208DF89D
:10432000170046E3049890F83500022807D0FFE70D
:1043300004998020486501208DF8170039E304981E
:10434000016801201022C4F202029142029000F0A2
:10435000A380FFE70498016801202822C4F202022A
:104360009142029000F09880FFE7049801680120D4
:104370004022C4F202029142029000F08D80FFE7D9
:104380000498016801205822C4F20202914202906E
:1043900000F08280FFE70498016801207022C4F2D7
:1043A00002029142029077D0FFE704980168012051
:1043B0008822C4F20202914202906DD0FFE7049875
:1043C00001680120A022C4F202029142029063D04F
:1043D000FFE7049801680120B822C4F2020291426A
:1043E000029059D0FFE704980168012040F2104282
:1043F000C4F20202914202904ED0FFE70498016895
:10440000012040F22842C4F202029142029043D0BD
:10441000FFE704980168012040F24042C4F2020222
:104420009142029038D0FFE704980168012040F2E1
:104430005842C4F20202914202902DD0FFE7049844
:104440000168012040F27042C4F2020291420290DF
:1044500022D0FFE704980168012040F28842C4F2AC
:1044600002029142029017D0FFE7049801680120F0
:1044700040F2A042C4F20202914202900CD0FFE747
:10448000049800684FF64831CBF6FD710844B0FA45
:1044900080F040090290FFE70298C007002800F072
:1044A0009D80FFE70499042081F835000498006896
:1044B0001021C4F20201884200F08180FFE70498D5
:1044C00000682821C4F20201884278D0FFE70498EE
:1044D00000684021C4F20201884270D0FFE70498CE
:1044E00000685821C4F20201884268D0FFE70498AE
:1044F00000687021C4F20201884260D0FFE704988E
:1045000000688821C4F20201884258D0FFE704986D
:104510000068A021C4F20201884250D0FFE704984D
:104520000068B821C4F20201884248D0FFE704982D
:10453000006840F21041C4F2020188423FD0FFE718
:104540000498006840F22841C4F20201884236D043
:10455000FFE70498006840F24041C4F2020188423B
:104560002DD0FFE70498006840F25841C4F20201E0
:10457000884224D0FFE70498006840F27041C4F2FA
:10458000020188421BD0FFE70498006840F288418E
:10459000C4F20201884212D0FFE70498006840F29A
:1045A000A041C4F20201884209D0FFE704980068E4
:1045B00040F2B841C4F20201884207D1FFE70498F3
:1045C0000168086820F00100086006E004980168AE
:1045D000086820F001000860FFE7E5E10498016841
:1045E000086820F00E000860049800681021C4F2EA
:1045F0000201884200F08180FFE7049800682821CA
:10460000C4F20201884278D0FFE704980068402194
:10461000C4F20201884270D0FFE704980068582174
:10462000C4F20201884268D0FFE704980068702154
:10463000C4F20201884260D0FFE704980068882134
:10464000C4F20201884258D0FFE704980068A02114
:10465000C4F20201884250D0FFE704980068B821F4
:10466000C4F20201884248D0FFE70498006840F293
:104670001041C4F2020188423FD0FFE7049800686D
:1046800040F22841C4F20201884236D0FFE7049884
:10469000006840F24041C4F2020188422DD0FFE799
:1046A0000498006840F25841C4F20201884224D0C4
:1046B000FFE70498006840F27041C4F202018842AA
:1046C0001BD0FFE70498006840F28841C4F2020161
:1046D000884212D0FFE70498006840F2A041C4F27B
:1046E0000201884209D0FFE70498006840F2B8410F
:1046F000C4F20201884207D1FFE704980168086804
:1047000020F00100086006E004980168086820F0C5
:1047100001000860FFE70498016801201022C4F23C
:1047200002029142019000F00381FFE704980168C2
:1047300001202822C4F202029142019000F0F88088
:10474000FFE70498016801204022C4F2020291426E
:10475000019000F0ED80FFE70498016801205822E5
:10476000C4F202029142019000F0E280FFE7049857
:10477000016801207022C4F202029142019000F00F
:10478000D780FFE70498016801208822C4F2020262
:104790009142019000F0CC80FFE70498016801206D
:1047A000A022C4F202029142019000F0C180FFE712
:1047B000049801680120B822C4F2020291420190DB
:1047C00000F0B680FFE704980168012040F2104233
:1047D000C4F202029142019000F0AA80FFE704981F
:1047E0000168012040F22842C4F202029142019085
:1047F00000F09E80FFE704980168012040F24042EB
:10480000C4F202029142019000F09280FFE7049806
:104810000168012040F25842C4F202029142019024
:1048200000F08680FFE704980168012040F27042A2
:10483000C4F20202914201907AD0FFE70498016825
:10484000012040F28842C4F20202914201906FD0EE
:10485000FFE704980168012040F2A042C4F202027E
:104860009142019064D0FFE704980168012040F272
:10487000B842C4F202029142019059D0FFE7049875
:104880000168012045F20842C5F6020291420190FA
:104890004ED0FFE704980168012045F21C42C5F69E
:1048A00002029142019043D0FFE704980168012081
:1048B00045F23042C5F602029142019038D0FFE73E
:1048C00004980168012045F24442C5F60202914273
:1048D00001902DD0FFE704980168012045F258426D
:1048E000C5F602029142019022D0FFE704980168C8
:1048F000012045F26C42C5F602029142019017D0A8
:10490000FFE704980168012045F28042C5F60202E3
:10491000914201900CD0FFE7049800684AF66C3190
:10492000CAF2FD710844B0FA80F040090190FFE737
:104930000198C00728B3FFE70498016E086820F4C7
:10494000807008600498806D03900498C06D00F03A
:104950001F0101208840039948600498416E806ED1
:1049600048600498C06E58B1FFE70498C16E0868AB
:1049700020F4807008600498016F406F4860FFE782
:10498000FFE70499012081F83500FFE70499002032
:1049900081F83400FFE70498006D20B1FFE7049828
:1049A000016D8847FFE7FFE7FFE700208DF817005C
:1049B000FFE79DF8170006B080BD00000000000072
:1049C00080B590B00F9000200B9040F23000C2F202
:1049D0000040006848F2B511C1F64E31A0FB01104D
:1049E000800A0A900F98806D09900F98806D08904A
:1049F000099800680E90089800680D900F9801685B
:104A000001201022C4F202029142079000F0A3801C
:104A1000FFE70F98016801202822C4F202029142A8
:104A2000079000F09880FFE70F980168012040226E
:104A3000C4F202029142079000F08D80FFE70F98C8
:104A4000016801205822C4F202029142079000F04E
:104A50008280FFE70F98016801207022C4F20202F1
:104A60009142079077D0FFE70F98016801208822D4
:104A7000C4F20202914207906DD0FFE70F980168DF
:104A80000120A022C4F202029142079063D0FFE706
:104A90000F9801680120B822C4F2020291420790E7
:104AA00059D0FFE70F980168012040F21042C4F28C
:104AB0000202914207904ED0FFE70F980168012053
:104AC00040F22842C4F202029142079043D0FFE72D
:104AD0000F980168012040F24042C4F20202914264
:104AE000079038D0FFE70F980168012040F2584244
:104AF000C4F20202914207902DD0FFE70F9801689F
:104B0000012040F27042C4F202029142079022D08A
:104B1000FFE70F980168012040F28842C4F20202C8
:104B20009142079017D0FFE70F980168012040F2EB
:104B3000A042C4F20202914207900CD0FFE70F9806
:104B400000684FF64831CBF6FD710844B0FA80F0AA
:104B500040090790FFE70798C007002800F0138579
:104B6000FFE70E980F99C96D01F01F01C8400007BB
:104B7000002840F1B080FFE70F9800681021C4F2D0
:104B80000201884200F08180FFE70F980068282129
:104B9000C4F20201884278D0FFE70F9800684021F4
:104BA000C4F20201884270D0FFE70F9800685821D4
:104BB000C4F20201884268D0FFE70F9800687021B4
:104BC000C4F20201884260D0FFE70F980068882194
:104BD000C4F20201884258D0FFE70F980068A02174
:104BE000C4F20201884250D0FFE70F980068B82154
:104BF000C4F20201884248D0FFE70F98006840F2F3
:104C00001041C4F2020188423FD0FFE70F980068CC
:104C100040F22841C4F20201884236D0FFE70F98E3
:104C2000006840F24041C4F2020188422DD0FFE703
:104C30000F98006840F25841C4F20201884224D023
:104C4000FFE70F98006840F27041C4F20201884209
:104C50001BD0FFE70F98006840F28841C4F20201C0
:104C6000884212D0FFE70F98006840F2A041C4F2DA
:104C70000201884209D0FFE70F98006840F2B8416E
:104C8000C4F20201884207D1FFE70F98006800686C
:104C900000F00400069006E00F980068006800F03D
:104CA00008000690FFE70698A0B1FFE70F9801689B
:104CB000086820F0040008600F98C06D00F01F0124
:104CC00008208840099988600F99486D40F00100DC
:104CD0004865FFE7FFE70E980F99C96D01F01F01C6
:104CE000C840C007002800F0A980FFE70F980068BF
:104CF0001021C4F20201884200F08180FFE70F9882
:104D000000682821C4F20201884278D0FFE70F989A
:104D100000684021C4F20201884270D0FFE70F987A
:104D200000685821C4F20201884268D0FFE70F985A
:104D300000687021C4F20201884260D0FFE70F983A
:104D400000688821C4F20201884258D0FFE70F981A
:104D50000068A021C4F20201884250D0FFE70F98FA
:104D60000068B821C4F20201884248D0FFE70F98DA
:104D7000006840F21041C4F2020188423FD0FFE7D0
:104D80000F98006840F22841C4F20201884236D0F0
:104D9000FFE70F98006840F24041C4F202018842E8
:104DA0002DD0FFE70F98006840F25841C4F202018D
:104DB000884224D0FFE70F98006840F27041C4F2A7
:104DC000020188421BD0FFE70F98006840F288413B
:104DD000C4F20201884212D0FFE70F98006840F247
:104DE000A041C4F20201884209D0FFE70F98006891
:104DF00040F2B841C4F20201884207D1FFE70F98A0
:104E00000068406900F08000059005E00F98006898
:104E1000006800200590FFE7059870B1FFE70F9844
:104E2000C06D00F01F0101208840099988600F992A
:104E3000486D40F002004865FFE7FFE70E980F99C4
:104E4000C96D01F01F01C8404007002840F1A9804A
:104E5000FFE70F9800681021C4F20201884200F0B9
:104E60008180FFE70F9800682821C4F20201884280
:104E700078D0FFE70F9800684021C4F20201884211
:104E800070D0FFE70F9800685821C4F202018842F1
:104E900068D0FFE70F9800687021C4F202018842D1
:104EA00060D0FFE70F9800688821C4F202018842B1
:104EB00058D0FFE70F980068A021C4F20201884291
:104EC00050D0FFE70F980068B821C4F20201884271
:104ED00048D0FFE70F98006840F21041C4F2020189
:104EE00088423FD0FFE70F98006840F22841C4F2A3
:104EF0000201884236D0FFE70F98006840F2404137
:104F0000C4F2020188422DD0FFE70F98006840F2FA
:104F10005841C4F20201884224D0FFE70F9800688C
:104F200040F27041C4F2020188421BD0FFE70F98A3
:104F3000006840F28841C4F20201884212D0FFE7C3
:104F40000F98006840F2A041C4F20201884209D0E3
:104F5000FFE70F98006840F2B841C4F202018842AE
:104F600007D1FFE70F980068006800F00200049086
:104F700005E00F980068006800200490FFE704989F
:104F800070B1FFE70F98C06D00F01F01042088404A
:104F9000099988600F99486D40F004004865FFE763
:104FA000FFE70E980F99C96D01F01F01C840C006B8
:104FB000002840F1DE80FFE70F9800681021C4F25E
:104FC0000201884200F08180FFE70F9800682821E5
:104FD000C4F20201884278D0FFE70F9800684021B0
:104FE000C4F20201884270D0FFE70F980068582190
:104FF000C4F20201884268D0FFE70F980068702170
:10500000C4F20201884260D0FFE70F98006888214F
:10501000C4F20201884258D0FFE70F980068A0212F
:10502000C4F20201884250D0FFE70F980068B8210F
:10503000C4F20201884248D0FFE70F98006840F2AE
:105040001041C4F2020188423FD0FFE70F98006888
:1050500040F22841C4F20201884236D0FFE70F989F
:10506000006840F24041C4F2020188422DD0FFE7BF
:105070000F98006840F25841C4F20201884224D0DF
:10508000FFE70F98006840F27041C4F202018842C5
:105090001BD0FFE70F98006840F28841C4F202017C
:1050A000884212D0FFE70F98006840F2A041C4F296
:1050B0000201884209D0FFE70F98006840F2B8412A
:1050C000C4F20201884207D1FFE70F980068006828
:1050D00000F00800039006E00F980068006800F0F8
:1050E00004000390FFE70398002841D0FFE70F98E2
:1050F000C06D00F01F0110208840099988600F984A
:1051000000680068400300281AD5FFE70F98006880
:1051100000680003002809D4FFE70F98006C20B155
:10512000FFE70F98016C8847FFE708E00F98806C55
:1051300020B1FFE70F98816C8847FFE7FFE716E093
:105140000F9800680068C005002807D4FFE70F9893
:105150000168086820F008000860FFE70F98006CFD
:1051600020B1FFE70F98016C8847FFE7FFE7FFE7F3
:10517000FFE70E980F99C96D01F01F01C840800626
:10518000002840F12681FFE70F9800681021C4F243
:105190000201884200F08180FFE70F980068282113
:1051A000C4F20201884278D0FFE70F9800684021DE
:1051B000C4F20201884270D0FFE70F9800685821BE
:1051C000C4F20201884268D0FFE70F98006870219E
:1051D000C4F20201884260D0FFE70F98006888217E
:1051E000C4F20201884258D0FFE70F980068A0215E
:1051F000C4F20201884250D0FFE70F980068B8213E
:10520000C4F20201884248D0FFE70F98006840F2DC
:105210001041C4F2020188423FD0FFE70F980068B6
:1052200040F22841C4F20201884236D0FFE70F98CD
:10523000006840F24041C4F2020188422DD0FFE7ED
:105240000F98006840F25841C4F20201884224D00D
:10525000FFE70F98006840F27041C4F202018842F3
:105260001BD0FFE70F98006840F28841C4F20201AA
:10527000884212D0FFE70F98006840F2A041C4F2C4
:105280000201884209D0FFE70F98006840F2B84158
:10529000C4F20201884207D1FFE70F980068006856
:1052A00000F01000029006E00F980068006800F01F
:1052B00002000290FFE70298002800F08980FFE7D3
:1052C0000F98C06D00F01F01202088400999886068
:1052D0000F9890F83500042837D1FFE70F98016840
:1052E000086820F0160008600F980168486920F0EF
:1052F000800048610F98006C20B9FFE70F98806C20
:1053000038B1FFE70F980168086820F008000860CE
:10531000FFE70F98C06D00F01F013F2088400999FA
:1053200088600F99012081F83500FFE70F99002070
:1053300081F83400FFE70F98006D20B1FFE70F9868
:10534000016D8847FFE700F019BC0F9800680068FE
:10535000400300281AD5FFE70F9800680068000393
:10536000002809D4FFE70F98406C20B1FFE70F98A1
:10537000416C8847FFE708E00F98C06B20B1FFE75A
:105380000F98C16B8847FFE7FFE720E00F980068A0
:105390000068C005002811D4FFE70F98016808686D
:1053A00020F0100008600F99012081F83500FFE718
:1053B0000F99002081F83400FFE7FFE70F98C06BDA
:1053C00020B1FFE70F98C16B8847FFE7FFE7FFE7D2
:1053D000FFE70F98406D002800F0D480FFE70F989A
:1053E000406DC007002800F0C480FFE70F9904203B
:1053F00081F835000F9800681021C4F2020188423C
:1054000000F08180FFE70F9800682821C4F20201B4
:10541000884278D0FFE70F9800684021C4F202016B
:10542000884270D0FFE70F9800685821C4F202014B
:10543000884268D0FFE70F9800687021C4F202012B
:10544000884260D0FFE70F9800688821C4F202010B
:10545000884258D0FFE70F980068A021C4F20201EB
:10546000884250D0FFE70F980068B821C4F20201CB
:10547000884248D0FFE70F98006840F21041C4F21C
:10548000020188423FD0FFE70F98006840F22841B0
:10549000C4F20201884236D0FFE70F98006840F25C
:1054A0004041C4F2020188422DD0FFE70F98006806
:1054B00040F25841C4F20201884224D0FFE70F981D
:1054C000006840F27041C4F2020188421BD0FFE73D
:1054D0000F98006840F28841C4F20201884212D05D
:1054E000FFE70F98006840F2A041C4F20201884231
:1054F00009D0FFE70F98006840F2B841C4F20201FA
:10550000884207D1FFE70F980168086820F0010082
:10551000086006E00F980168086820F00100086044
:10552000FFE7FFE70B9801300B900A99884201D9F9
:10553000FFE707E0FFE70F9800680068C007002852
:10554000F0D1FFE70F9800680068C00728B1FFE7B7
:105550000F99032081F8350004E00F99012081F8AC
:105560003500FFE7FFE70F99002081F83400FFE7DF
:10557000FFE70F98C06C20B1FFE70F98C16C884718
:10558000FFE7FFE7FAE20F980168012045F20842C1
:10559000C5F60202914201904ED0FFE70F980168D4
:1055A000012045F21C42C5F602029142019043D00F
:1055B000FFE70F980168012045F23042C5F602026C
:1055C0009142019038D0FFE70F980168012045F221
:1055D0004442C5F60202914201902DD0FFE70F9898
:1055E0000168012045F25842C5F60202914201903D
:1055F00022D0FFE70F980168012045F26C42C5F602
:1056000002029142019017D0FFE70F980168012034
:1056100045F28042C5F60202914201900CD0FFE7AC
:105620000F9800684AF66C31CAF2FD710844B0FA6E
:1056300080F040090190FFE70198C007002800F0C2
:105640009B82FFE70F98006800680C900D980F99F7
:10565000C96D01F01F01C8404007002840F1D78004
:10566000FFE79DF830004007002840F1D080FFE7B9
:105670000F98C06D00F01F01042088400899486011
:105680009DF831000006002818D5FFE79DF832008C
:10569000C00748B9FFE70F98806C20B1FFE70F986B
:1056A000816C8847FFE708E00F98006C20B1FFE7A6
:1056B0000F98016C8847FFE7FFE7A7E09DF83000EF
:1056C0008006002800F19980FFE70F9800681021FC
:1056D000C4F20201884200F08180FFE70F98006861
:1056E0002821C4F20201884278D0FFE70F980068B1
:1056F0004021C4F20201884270D0FFE70F98006891
:105700005821C4F20201884268D0FFE70F98006870
:105710007021C4F20201884260D0FFE70F98006850
:105720008821C4F20201884258D0FFE70F98006830
:10573000A021C4F20201884250D0FFE70F98006810
:10574000B821C4F20201884248D0FFE70F980068F0
:1057500040F21041C4F2020188423FD0FFE70F98A7
:10576000006840F22841C4F20201884236D0FFE7C7
:105770000F98006840F24041C4F2020188422DD0E7
:10578000FFE70F98006840F25841C4F202018842D6
:1057900024D0FFE70F98006840F27041C4F2020184
:1057A00088421BD0FFE70F98006840F28841C4F29E
:1057B0000201884212D0FFE70F98006840F2A04132
:1057C000C4F20201884209D0FFE70F98006840F256
:1057D000B841C4F20201884207D1FFE70F9801687F
:1057E000086820F00800086006E00F980168086863
:1057F00020F004000860FFE7FFE70F98006C20B17D
:10580000FFE70F98016C8847FFE7FFE7B3E10D98CA
:105810000F99C96D01F01F01C8408007002840F1B1
:10582000E180FFE79DF830008007002840F1DA8032
:10583000FFE70F98C06D00F01F0102208840089913
:1058400048609DF831000006002818D5FFE79DF854
:105850003200C00748B9FFE70F98406C20B1FFE75E
:105860000F98416C8847FFE708E00F98C06B20B1A4
:10587000FFE70F98C16B8847FFE7FFE7B1E09DF8AE
:1058800030008006002800F1A380FFE70F98006831
:105890001021C4F20201884200F08180FFE70F98D6
:1058A00000682821C4F20201884278D0FFE70F98EF
:1058B00000684021C4F20201884270D0FFE70F98CF
:1058C00000685821C4F20201884268D0FFE70F98AF
:1058D00000687021C4F20201884260D0FFE70F988F
:1058E00000688821C4F20201884258D0FFE70F986F
:1058F0000068A021C4F20201884250D0FFE70F984F
:105900000068B821C4F20201884248D0FFE70F982E
:10591000006840F21041C4F2020188423FD0FFE724
:105920000F98006840F22841C4F20201884236D044
:10593000FFE70F98006840F24041C4F2020188423C
:105940002DD0FFE70F98006840F25841C4F20201E1
:10595000884224D0FFE70F98006840F27041C4F2FB
:10596000020188421BD0FFE70F98006840F288418F
:10597000C4F20201884212D0FFE70F98006840F29B
:10598000A041C4F20201884209D0FFE70F980068E5
:1059900040F2B841C4F20201884207D1FFE70F98F4
:1059A0000168086820F01400086006E00F9801689C
:1059B000086820F00A000860FFE70F99012081F8CD
:1059C0003500FFE70F99002081F83400FFE7FFE77B
:1059D0000F98C06B20B1FFE70F98C16B8847FFE7B6
:1059E000FFE7C7E00D980F99C96D01F01F01C8408E
:1059F0000007002840F1BC80FFE79DF83000000759
:105A0000002840F1B580FFE70F9800681021C4F22C
:105A10000201884200F08180FFE70F98006828218A
:105A2000C4F20201884278D0FFE70F980068402155
:105A3000C4F20201884270D0FFE70F980068582135
:105A4000C4F20201884268D0FFE70F980068702115
:105A5000C4F20201884260D0FFE70F9800688821F5
:105A6000C4F20201884258D0FFE70F980068A021D5
:105A7000C4F20201884250D0FFE70F980068B821B5
:105A8000C4F20201884248D0FFE70F98006840F254
:105A90001041C4F2020188423FD0FFE70F9800682E
:105AA00040F22841C4F20201884236D0FFE70F9845
:105AB000006840F24041C4F2020188422DD0FFE765
:105AC0000F98006840F25841C4F20201884224D085
:105AD000FFE70F98006840F27041C4F2020188426B
