:020000040800F2
:1000000058CC0024E1020008DB940008BF7E000801
:10001000D194000881090008E9C30008000000002D
:1000200000000000000000000000000081980008AF
:10003000590E00080000000051950008B198000812
:10004000FB020008FB020008FB020008FB0200089C
:10005000FB020008FB020008FB020008FB0200088C
:10006000FB020008FB020008FB020008990A0008D6
:10007000FB020008FB020008FB020008FB0200086C
:10008000FB020008FB020008FB020008650E0008E6
:10009000750E00086D0E00087D0E0008FB020008BA
:1000A000FB020008FB020008FB020008FB0200083C
:1000B000FB020008FB020008FB020008FB0200082C
:1000C000FB020008FB020008FB020008FB0200081C
:1000D000FB02000869AA000875AA000881AA0008A6
:1000E000FB020008FB02000800000000FB02000801
:1000F000FB020008FB020008FB020008FB020008EC
:10010000FB020008FB020008FB020008FB020008DB
:10011000FB020008FB020008FB020008FB020008CB
:10012000FB020008FB020008FB020008FB020008BB
:10013000FB020008FB020008FB020008FB020008AB
:1001400000000000000000000000000000000000AF
:10015000FB020008FB020008FB020008FB0200088B
:10016000FB020008FB020008FB020008FB0200087B
:10017000FB02000831950008FB02000800000000A7
:10018000FB020008FB020008D59D0008FB020008E6
:10019000FB020008FB020008FB020008FB0200084B
:1001A000FB020008FB020008FB0200080000000040
:1001B000FB020008FB020008FB020008FB0200082B
:1001C000FB020008FB020008000000000000000025
:1001D0000000000000000000FB020008000000001A
:1001E000000000000000000000000000000000000F
:1001F0000000000000000000FB020008FB020008F5
:10020000FB020008FB02000800000000FB020008DF
:10021000FB020008FB020008FB020008FB020008CA
:10022000FB02000800000000FB02000800000000C4
:10023000FB020008FB02000800000000FB020008AF
:10024000FB020008FB020008FB020008FB0200089A
:10025000FB020008FB020008FB020008FB0200088A
:10026000FB020008FB020008FB020008FB0200087A
:10027000FB020008FB020008FB020008000000006F
:10028000FB020008FB020008FB020008FB0200085A
:1002900000000000FB020008FB0200080000000054
:1002A00000000000FB020008FB020008FB0200083F
:1002B0005DAA0008FB020008FB020008890E000886
:1002C000910E0008319A0008FB020008DFF80CD0FC
:1002D00000F09AF80048004705C9000858CC0024EF
:1002E0000648804706480047FEE7FEE7FEE7FEE7D0
:1002F000FEE7FEE7FEE7FEE7FEE7FEE79999000866
:10030000CD0200082DE9F05F0546002092469B468D
:1003100088460646814640241BE02846414647461B
:10032000224600F060F853465A46C01A914110D355
:1003300011461846224600F047F82D1A67EB0108CF
:100340004F4622460120002100F03EF817EB00093D
:100350004E41201EA4F10104DFDC484631462A4606
:100360004346BDE8F09F40EA01039B0703D009E044
:1003700008C9121F08C0042AFAD203E011F8013B91
:1003800000F8013B521EF9D27047D2B201E000F8EA
:10039000012B491EFBD270470022F6E710B5134629
:1003A0000A4604461946FFF7F0FF204610BD30B557
:1003B00004460020034600E05B1C934203D2E05C4D
:1003C000CD5C401BF8D030BD202A04DB203A00FA77
:1003D00002F1002070479140C2F1200320FA03F39C
:1003E000194390407047202A04DB203A21FA02F09A
:1003F0000021704721FA02F3D040C2F1200291405F
:100400000843194670470000064C074D06E0E068B7
:1004100040F0010394E8070098471034AC42F6D34B
:10042000FFF758FFF89001081891010810B504462D
:1004300000682F4940F48070884214BF2E482D4830
:10044000006810F4403F0DD005F02CFE6168B1F556
:10045000803F05D0B1F5403F1FD0B1F5003F1DD121
:10046000090C17E04FF40020002104F033FF61680D
:10047000A1F580224FEAB2420A2A0FD8DFE802F043
:100480000606060606062E30323436006FF00102EC
:1004900002EA5141B0FBF1F000E0800817498842C0
:1004A00004D82068816821F4407107E0144988422B
:1004B00006D820680122816862F30921816010BD9D
:1004C0002168104B98428A6887BF42F44070886068
:1004D000022060F3092298BF8A6010BD0009DDE7A1
:1004E0004009DBE78009D9E7C009D7E7000AD5E76B
:1004F00000210240082302400863025821BCBE00CC
:1005000041787D0181F0FA020146806B036E026E34
:1005100013F0500F05D0D2060FD4806DC26C084680
:10052000104742F40071016601680B68CA681B0736
:1005300005D4910709D001F075B801F075B812F42F
:10054000406FF8D1C9688904F5D4016E21F4807137
:100550000166016EC904EED4016E41F0010101662D
:1005600001F060B8806B016E41F040010166416EA0
:1005700041F00401416601F057B8806B01F053B8B7
:10058000B0B50168044688688A6880074FF00000AB
:1005900027D412F0010224D0886800F00D00012851
:1005A00016D188683B4A10400230886003200860FA
:1005B00003F0FAF9054620688068C00712D003F0FE
:1005C000F3F9401B0328F6D320688068C007F2D0F7
:1005D000206E40F010002066606E40F00100606602
:1005E0000120B0BD0020B0BD2DE9F84304460068ED
:1005F0008168C9074AD1274B816803F17F02114204
:100600000AD0206E40F010002066606E40F00100BD
:1006100060660120BDE8F88381689846194041F082
:10062000010181601C4800F5807700F54076814625
:1006300003F0BAF9054620681849B84208BF3146A8
:100640000246484508BF3146B842896804BF42F2B5
:100650000002C4F20202824218BF11F01F0115D13C
:1006600046460168C90711D18168C90704D181686C
:10067000314041F00101816003F096F9411B20688F
:100680000329EED30168C907EBD1BAE70020BDE822
:10069000F88300BFC0FFFF7F0020024000630258C4
:1006A00000214FF07E52C0E90021C0E902117047DD
:1006B000F74B91ED003A91ED014A91ED025A93ED1D
:1006C0000E0A93ED0F1A93ED102A74EE410A35EEDF
:1006D000421A33EE400AD2EC031A08F0FFBD00BF05
:1006E00001200CF046F9FBE70C480121012203F040
:1006F00056B900BF09480121002203F050B900BFDC
:100700007047000005480821012203F048B900BFE6
:1007100002480821002203F042B900BF0008025835
:10072000704710B50446200405D04FF47A7000F0ED
:1007300003F8013CF7E710BDB0B50A49C0EB001063
:10074000002340010A684C684D68AC42FCD0234449
:10075000AC422C46A3EB050398BF13448342F3D36A
:10076000B0BD00BF14E000E010B5FFF7C9FFFFF710
:10077000D7FF0BF0EDFE04460BF060FF204310BDE9
:100780002DE9FE434FF0000990460E460546CDE99F
:100790000099FFF7AFFF922000F0A0F86F461220FB
:1007A0000622394600F07EF8FFF79EFFBDF90000F3
:1007B0003A4CBDF90210BDF9042001EE100A94ED87
:1007C000000AB8EEC11A20EE010A86ED000A00EE1A
:1007D000101AB8EEC00A94ED001A21EE000A86ED58
:1007E000010A00EE102AB8EEC00A21EE000A86EDDA
:1007F000020AFFF78DFF00203946082200F052F868
:10080000FFF780FF9DF800000F2821D1BDF90200FD
:1008100094ED010ABDF90410BDF9062001EE100A9D
:10082000B8EEC11A20EE010A85ED000A00EE101A9A
:10083000B8EEC00A94ED011A21EE000A85ED010A16
:1008400000EE102AB8EEC00A21EE000A85ED020A79
:10085000FFF750FFA22000F041F869462220022253
:1008600000F020F8FFF740FF9DF800009DF8011010
:10087000B4EE001AB3EE072AC00040EA511008494E
:10088000B9EB902F18BF084300EE100AB8EEC00A6B
:1008900000EE012A88ED002ABDE8FE830400002452
:1008A00000F8FFFFB0B540F0800014460D4600F0A0
:1008B00015F8200606D0552000F010F805F8010BB9
:1008C000013CF6E7B0BD10B540F080000C4600F0EA
:1008D00005F8552000F002F8207010BDE0B58DF845
:1008E00007004FF47A7000900DF107010DF1060238
:1008F0000123034806F047FA9DF806008CBD00BFAF
:100900006C76002410B50C46FFF7E8FF2046BDE8E2
:100910001040FFF7E3BF00000148042106F066BE67
:10092000C877002410B503F03FF8044612484FF48E
:10093000004103F02FF8114A01461078022809D02F
:1009400001280BD068B961B90120107004F164006E
:10095000906006E00020012907D010BD9068844215
:1009600001D2002010BD11B10020107010BD022076
:100970001070012010BD00BF0000025820010024AB
:10098000FEE70020704700207047000010B5204CA3
:100990000549002220460AF018FA044920460AF0C8
:1009A00007FA002010BD00BF6C5A00246C520024CE
:1009B000BCB5174D0C46014628460AF0F9F9284601
:1009C0000AF0D4F90020019001A9044800680DF054
:1009D00074F90349206808800020BCBDBC010024D4
:1009E0000C4200240020704710B50A460146084812
:1009F000D0F8BC02D0F8140208B1012010BD044C9C
:100A000020460AF0E2F92046BDE810400AF050BA4C
:100A1000D86A00242DE9F0412DED0C8B9FED1B8A47
:100A20001B4F4FF47A74B0EE48AAB0EE489A07F123
:100A3000140807F1200507F11006ACB1404629461D
:100A40003246FFF79DFE012097ED05BA97ED06CAE5
:100A500097ED07DA0BF08DFF3AEE0DAA38EE0C8A0F
:100A600039EE0B9A013CE8E79FED0A0A8AEE001A7C
:100A700088EE002A89EE000A87ED0E0A87ED0F2A1C
:100A800087ED101ABDEC0C8BBDE8F0810000000072
:100A90005401002400007A44014801F0B7BA00BFB5
:100AA000246E002410B50168244A914223D0244AC0
:100AB00091421CBF234A91421DD0234A91421CBF40
:100AC000224A914217D0224A91421CBF214A9142A8
:100AD00011D0214A91421CBF204A91420BD0204A9A
:100AE00091421CBF1F4A914205D01F4A91421CBF30
:100AF0001E4A914215D16FF00F0218231FA452FA1B
:100B000081F2B2FBF3F35F2A03F00703E35CC365F2
:100B100040F2FF3321EA030188BF043181650846B2
:100B200010BD134A9142E6D0124A9142E3D0124AD4
:100B30009142E0D021F0FF01F0E700BF1000024039
:100B4000280002404000024058000240700002406D
:100B500088000240A0000240B80002401004024099
:100B6000280402404004024058040240700402403D
:100B700088040240B8040240A00402400006101697
:100B80000006101610B50268AB4B1E499A421CBFF6
:100B9000AA4B9A4205D0AA4B9A421CBFA94B9A4233
:100BA00011D1D3B2A3F108021423B2FBF3F36030E6
:100BB00001F1800201EB830103F01F03012404FA19
:100BC00003F30EC010BDA04B9A42EAD0A14B9A424B
:100BD000E7D09E4B9A42E4D0A1F55B74D3B2A24217
:100BE000E0D0A3F110011823074CB1FBF3F1A242AE
:100BF00004F1AA040B4688BF0833A24228BF0B4663
:100C00000249D4E7005802580F040240000802408D
:100C100010B501790139072917D80268864B9A4225
:100C20001CBF864B9A4205D0854B9A421CBF854B10
:100C30009A420BD18B000E4C1A1904F14003012487
:100C4000C0E91B2304FA01F1416710BD7E4B9A42B3
:100C5000F0D0804B9A42EDD07C4B9A42EAD07C4C4B
:100C60008B00A242E7D0014CE6E700BF000902403A
:100C700000590258F0B5964604685F4AD0F858C04B
:100C800094423BD05D4FBC421CBF5D4FBC4235D04F
:100C90005C4FBC421CBF5C4FBC422FD05B4FBC4280
:100CA0001CBF5B4FBC4229D05A4FBC421CBF5A4F9D
:100CB000BC4223D0594FBC421CBF594FBC421DD02F
:100CC000584FBC421CBF584FBC4217D0574FBC4274
:100CD0001CBF574FBC4211D0564FBC421CBF564F91
:100CE000BC420BD0554FBC421CBF554FBC4205D037
:100CF000544FBC421CBF544FBC4267D1C66ED0E9B2
:100D000019757D6016B1D0E91C566E60944229D0E9
:100D10003A4A94421CBF3A4A944223D0394A9442F8
:100D20001CBF394A94421DD0384A94421CBF384AED
:100D3000944217D0374A94421CBF374A944211D08C
:100D4000364A94421CBF364A94420BD0354A9442EC
:100D50001CBF354A944205D0344A94421CBF344AE1
:100D6000944217D18268C06D3F2500F01F0005FA3C
:100D700000F0CCF80800206820F480202060402A91
:100D8000636003D1C4F808E0E160F0BDA160C4F87D
:100D90000CE0F0BD2E4A94421CBF274A94420BD06F
:100DA000264A94421CBF264A944205D0254A9442C2
:100DB0001CBF254A944214D18268C06D012500F001
:100DC0001F0005FA00F0CCF80400D8E71F4FBC4222
:100DD00094D01F4FBC4291D01E4FBC423FF48EAF07
:100DE000D7E71A4A9442E7D01A4A9442E4D0114A0B
:100DF0009442B7D0CDE700BF100002402800024067
:100E0000400002405800024070000240880002404A
:100E1000A0000240B8000240100402402804024032
:100E2000400402405804024070040240880402401A
:100E3000A0040240B8040240085402581C5402584E
:100E40003054025844540258585402586C540258B2
:100E500094540258805402587047EFF3108072B6D1
:100E6000FEE700004B4802F027B800BF494802F0F7
:100E700023B800BF034802F01FB800BF014802F0CA
:100E80001BB800BF3C6F0024034802F015B800BF38
:100E9000014802F011B800BFDC6F00242DE9F043D7
:100EA00091E87010D1E9047ED1E90689002D46EA67
:100EB000070644EA060747F0804708BF46EA84472A
:100EC000846ED0F8840063430C6A40F8237000EB12
:100ED000830049EA04630A4C43EA080343EA0E0329
:100EE00043EA0C03436008300023CD89655DAB42C3
:100EF00003D2D558C5500433F7E7BDE8F08300BFEF
:100F0000C01F01080BF00CFC194C1A481A4D0522A1
:100F1000E11CA84704F1080118480522A84704F17C
:100F20000D0117480522A847164C174D00212046F1
:100F3000A84720460821A847144C00212046A8476E
:100F400020460821A8471248124C134D41F288311F
:100F5000016081600160816020464FF480712A4603
:100F600008230BF073FC64200BF003FDF4E700BFD3
:100F7000A8010024F8780024F17D0008487B0024B3
:100F80008C7900247C770024ED7500081478002407
:100F9000340001409C6E002410010024F8B52DEDB2
:100FA000068B90ED011A90ED000A90ED022A90ED6B
:100FB000033ABFEE008A1C4616460F46054621EE50
:100FC000014A21EE021A00EE004A00EE031A34EE46
:100FD000044A31EE010A74EE080A0DF07DFB9FED24
:100FE000229A9FED22AA20EE090A80EE0A0A87EDD6
:100FF000000A95ED011A95ED033A95ED000A95ED7D
:10100000022A21EE031A00EE421AB8EE000A21EE7F
:10101000000A0DF0CBFA20EE090A80EE0A0A86EDEE
:10102000000A95ED033A95ED000A95ED022A95ED3B
:10103000011A23EE034A22EE032A00EE004A00EED4
:10104000012A34EE044A32EE020A74EE080A0DF068
:1010500043FB20EE090A80EE0A0A84ED000ABDEC8B
:10106000068B01B0F0BD00BF00003443560E49406E
:101070007CB504460020019094F85C00012801D161
:1010800002207CBD012084F85C0016460D462046F7
:10109000FFF776FA216E10B141F0100127E041F21E
:1010A0000212914305F48032134D0231216606F09D
:1010B00080410A4421688B682B401A4402F10042A7
:1010C0008A600E4A8B68B3F1FF3F0CDC019B013351
:1010D0000193019B9342F5D3206E40F0100020F065
:1010E0000201012003E0216E012262F301010022CE
:1010F00084F85C2021667CBDC0FFFE3F00F8C3255C
:10110000BCB590F85C20012A01D1022130E0012217
:1011100080F85C2000220192009203681E4A9342EC
:101120001ED1D2F80831946823435B0718D40B68AA
:10113000D2F8084324F44044E3B14D682C43C2F88C
:1011400008439468D2F808512C43E40721D1D2F81F
:101150000843896840F61F75AC431943214316E0E4
:10116000016E41F0200101660121002280F85C201F
:101170000846BCBDC2F808439168D2F8083119434B
:10118000C90706D1D2F8081340F61F739943C2F875
:1011900008130021E9E700BF002002402DE9F843D1
:1011A00004460020009094F85C00012802D102203F
:1011B000BDE8F883012084F85C000D462068816852
:1011C000490700F1F581DA4ADA4B296890429046E6
:1011D00099460FD091FAA1F219424FF00103B2FAE9
:1011E00082F208BF8A0E02F01F0203FA02F2C369FC
:1011F0001A43C2616A68890E1F2602F01F0301F0BC
:101200001F01C2F301229E40994000EB8202176B3E
:1012100027EA06063143116381688268D20842EAF0
:101220009101C90713D12968AA6807F03BFA206821
:10123000474640450DD0C049096801F07041B1F101
:10124000805F0CD1C1680E2202EA510205E04746D8
:10125000EFE0F968062202EA9102696909E069692A
:10126000C368C2685208DB064CBF02F0080202F0F5
:101270000E022B69042B2AD1B84259D02A68036E7A
:1012800003F0F8439106B3EB826F03D1026E22F0B4
:1012900000420266426E02F0F8428A4203D1426E78
:1012A00022F000424266826E02F0F8428A4203D186
:1012B000826E22F000428266C26E02F0F8428A42DA
:1012C00040F0B780C16E21F00041C166B1E001FA83
:1012D00002F200F16001BC462F68604551F82360BE
:1012E00000F0868007F0F84706F000463A433243A4
:1012F00041F823202A6951F8223095F821702E7E7A
:1013000023F00043012F08BF03F1004341F82230CE
:10131000711E6746B1FA81F12A69490902F01F027C
:10132000C9029140026922F4F0421143016180E058
:10133000386E3B6E2A6812EA0900C2F3846192FAA1
:10134000A2F2B2FA82F2164608BF0E46C3F38463D5
:10135000B3420DD1386ECC4620F0004038662A6882
:1013600002EA0900C2F3846192FAA2F2B2FA82F2AE
:101370001346002808BF0B467E6E7E6EC6F3846659
:101380009E420DD1786E20F0004078662A6848466B
:1013900002EA0900C2F3846192FAA2F2B2FA82F27E
:1013A0001346002808BF0B46BE6EBE6EC6F38466A9
:1013B0009E420DD1B86E20F00040B8662A684846BB
:1013C00002EA0900C2F3846192FAA2F2B2FA82F24E
:1013D000FB6E002808BF0A46F86EC0F38460904296
:1013E000384626D1F86E20F00040F866384620E0F6
:1013F00007F0F840674610430CF1600240F00040EF
:1014000041F823002869E96952F8203023F08073FD
:10141000194342F82010286952F8201095F820301E
:1014200021F00071012B08BF01F1007142F820107A
:1014300060468168C90778D1EA682968B8424F4692
:1014400002F0180601EA090329FA06F606EA03067D
:101450001FBFD0F8C07027EA03034746334311BFCC
:10146000C0F8C030D8F8B07027EA0303474604BF7D
:101470003343C8F8B030664B9A4253D191FAA1F287
:1014800011EA0907B2FA82F2134608BF8B0E013344
:1014900003F01E068B0E092E0CD8C7B1511C4FF05D
:1014A000806606EB826201F01F030121994002F081
:1014B000F84217E0EFB1511C4FF0806606EB8262F4
:1014C00001F01F030121994002F0F8421CE05A1C70
:1014D00001F0F84101F1806102F01F0301229A40FE
:1014E00001F0F841114303EB4302474641EA025140
:1014F00014E05A1C01F0F84101F1806102F01F0371
:1015000001229A4001F0F841114303EB4302414BA1
:10151000474603EB0252114341F00071AA6807F0FD
:10152000C1F82968B1F1FF3F08DD002045E000BFA8
:1015300000600258FFFF0F000010005CCE482268D8
:10154000CE4E00F5807300F540759A422B4618BFC9
:1015500007F54073824208BF2B4642F480759B68B2
:10156000B54211BFB8688568D0F808012843C007A4
:101570001ED1294803F0E075814208BF13F4000032
:1015800020D02648814208BF13F0807034D000205C
:10159000BA4212D1224A914208BF13F480010CD101
:1015A000D7F8080320F0E070284340F480002CE0D6
:1015B000206E40F0200020660120002184F85C109D
:1015C000BDE8F883BA42B0D1D7F80803A94920F0A2
:1015D000E070284340F40000C7F80803A4480068FE
:1015E000B0FBF1F0022101EB4000009000980028D0
:1015F0009BD000980138F8E7BA4296D1D7F8080393
:1016000020F0E070284340F08070C7F808038CE7B2
:101610000000FF47000020FE000052C7000021C369
:10162000000084CB7047704770470000F8B504464F
:1016300000200090A4B3206E30B9204600F02AF9B3
:10164000002084F85C00606620688168890003D50A
:101650008168864A114081608168C90013D483493A
:10166000826801F180511140824A01F1805181600C
:101670007F490968B1FBF2F101310091009911B184
:1016800000990139F9E78168C9000BD4216E012561
:1016900041F010012166616E41F00101616602E0D6
:1016A0000125E1E000258168C1F38001226E02F08E
:1016B00010028918216E03D041F010000125D2E0FC
:1016C00021F48171023121668168C907F94922D16B
:1016D00040F48073694EF64AB34211BF8B68936839
:1016E000D2F808613343DB0715D102F58073861AFF
:1016F000C31AB6FA86F6B3FA83F376095B09334365
:1017000001F5407318BF02F540739A68666822F4C9
:101710007C1232439A60627EE36B884243EA423233
:1017200002D0A3681A4312E0D4E902363243082BF0
:1017300005D00C2B05D01C2B05D1102306E000236F
:1017400004E0082302E0182B18BF00231A4394F882
:101750002030012B42EA034204D1636A484E06EB73
:1017600043431A43A36A23B103F478731A43E36A29
:101770001A43C368884204D0424E33401A43C260C1
:1017800009E0414E33401A43C260626B0B6923F09B
:1017900040631A430A6182688368DB0843EA920265
:1017A000D2072DD1227E884212BF236B94F83830A5
:1017B0005B0044F2030692031A43C368B3431A431F
:1017C000C260026994F84430012B1BD12F4B884230
:1017D00002EA0302A36C26D02D4904F14C0701EB69
:1017E0000341C8CF1143226C19433143394341F0BF
:1017F00001010161016921F07041114301610DE0B6
:10180000014622E022F0010202618842226C036953
:1018100023F0704342EA0302026116D02046FEF72D
:1018200005FE216811E01A43D4E91367636DD4F80B
:1018300040C032433A431A4342F001020261026956
:1018400022F0704242EA0C020261086B226920F029
:101850000F00012A02D1E269013A10430863012115
:10186000206E61F3010020662846F8BDC0FFFF5FCF
:1018700014000024400D030000200240002102401B
:101880000000FEFF03C0F0FF0740F0FF1EF800FC61
:101890000000FFFF2DE9F043B5B0044630A8142145
:1018A000FEF77AFD02A8B821FEF776FD2068804990
:1018B000884265D14FF400200290002703972A97B1
:1018C000CDE90A774FF01008C02009900220089057
:1018D000CDE90600CDE9040802A803F031FE08B105
:1018E000FFF7BBFA2848294D30AE4FF003090168D5
:1018F00041F020010160016801F02001019101998E
:10190000816841F001018160816801F0010101916C
:101910000199816841F0040181608068314600F0DE
:101920000400019001983297CDF8C49020203090A7
:10193000284601F067FF05F5006031463297CDE992
:10194000308901F05FFF124D124809264FF4807C68
:101950004FF400514FF400624FF48063C5E90877FB
:1019600085E8C1002846C5E90373C5E90521C5F826
:101970001CC000F001FE08B1FFF76FFAAC63A5656B
:1019800035B0BDE8F08300BFD844025800000258CB
:10199000246E0024100002402DE9F047444D894692
:1019A000044601689046434F05F5407005F5807682
:1019B0000246B14218BF07F54072A94208BF02466D
:1019C00090688968490703D494F85C10012902D112
:1019D0000220BDE8F08700F01F0A012084F85C00B7
:1019E000BAF1090F44D800FA0AF040F22121084266
:1019F0003ED02046FEF7F8FD20B1002184F85C10AF
:101A0000BDE8F0872168206E40F601729043B14234
:101A100000F58070206618BF0D46BAF1000F18BFA0
:101A20008D4203D1206E20F480102066206E0022AB
:101A3000234BC00444BF626E22F0060262661C2281
:101A40000A60002084F85C00B942A06D1A4AC264A2
:101A50001A4AC0E90F324A6842F010024A600DD0BB
:101A60000F46226B57F80C3F23F003031A4311E093
:101A7000002084F85C000120BDE8F08794F838204D
:101A800057F80C3F23F0030343EA42023A603A68F6
:101A900042F001023A6040314A46434600F02AFFD4
:101AA0002168084B8A681A4004328A60BDE8F087D2
:101AB0000020024000600258650500087B05000810
:101AC00009050008C0FFFF7FF8B5044601F06CFF70
:101AD000002C00F0B380054694F83500022840F051
:101AE000AF802768BF4EB7421CBFBF4887421ED099
:101AF000BE4887421CBFBE48874218D0BD488742B7
:101B00001CBFBD48874212D0BC4887421CBFBC489E
:101B100087420CD0BB4887421CBFBB48874206D0D7
:101B2000BA4887421CBFBA48874240F00B813868E8
:101B3000394620F01E00386051F8140F20F0800064
:101B4000B74208603CD0A84887421CBFA7488742DC
:101B500036D0A74887421CBFA648874230D0A64847
:101B600087421CBFA54887422AD0A54887421CBF90
:101B7000A448874224D0A44887421CBFA348874278
:101B80001ED0A34887421CBFA248874218D0A34852
:101B900087421CBFA048874212D0A14887421CBF81
:101BA000A04887420CD0A04887421CBF9F4887426C
:101BB00006D09F4887421CBF9E48874240F0FB806A
:101BC000206EB742016821F48071016024D0F8488A
:101BD00087421CBFF74887421ED0F74887421CBF88
:101BE000F648874218D0F64887421CBFF54887421E
:101BF00012D0F54887421CBFF44887420CD0F44805
:101C000087421CBFF348874206D0F34887421CBF77
:101C1000F248874240F0AB80386820F0010038601D
:101C20003868C00710D001F0BFFE401B0628F7D36C
:101C300020206065032084F8350003E00120F8BD12
:101C400080206065012079E02068B0421CBFD8493F
:101C500088421DD0D74988421CBFD749884217D037
:101C6000D64988421CBFD649884211D0D5498842FE
:101C70001CBFD54988420BD0D44988421CBFD449E7
:101C8000884205D0D34988421CBFD349884279D1C4
:101C9000A16DE26D3F2302F01F0203FA02F28A6097
:101CA000B0423BD0C24988421CBFC249884235D0AD
:101CB000C14988421CBFC14988422FD0C0498842CF
:101CC0001CBFC049884229D0BF4988421CBFBF49B8
:101CD000884223D0BE4988421CBFBE4988421DD0DD
:101CE000BD4988421CBFBD49884217D0BC498842C3
:101CF0001CBFBD49884211D0BA4988421CBFBB49AC
:101D000088420BD0BA4988421CBFBA49884205D0E4
:101D1000B94988421CBFB949884259D1E06ED4E91B
:101D200019124A6030B1016821F480710160D4E970
:101D30001C014160012084F835000020002184F856
:101D40003410F8BDA54887423FF4F1AEA64887425B
:101D50003FF4EDAEA24887423FF4E9AEA1493868AE
:101D60008F423FF4E5AE20F00E003946E8E69C488D
:101D700087423FF451AF9B4887423FF44DAF9A48AA
:101D8000874249E7954988423FF482AF96498842A5
:101D90003FF47EAF924988423FF47AAF914AA16DF9
:101DA00090423FF476AFE26D012302F01F0203FA86
:101DB00002F24A6074E7924887423FF401AF9148CB
:101DC00087423FF4FDAE904887423FF4F9AE23E7E7
:101DD0008B498842A2D08B4988429FD08A49884249
:101DE0009CD0A7E7100002402800024040000240BB
:101DF000580002407000024088000240A0000240EB
:101E0000B80002401004024028040240400402408E
:101E10005804024070040240A004024088040240BA
:101E2000B8040240085402581C5402583054025856
:101E30004454025858540258B0B500285DD090F868
:101E40003510022957D10168584A914223D0584B86
:101E500099421CBF574B99421DD0574B99421CBF0A
:101E6000564B994217D0564B99421CBF554B99423D
:101E700011D0554B99421CBF544B99420BD0544B37
:101E800099421CBF534B994205D0534B99421CBFFA
:101E9000524B994234D191424FF0040380F83530CF
:101EA00023D0434881421CBF424881421DD0424852
:101EB00081421CBF4148814217D0414881421CBF2A
:101EC0004048814211D0404881421CBF3F48814276
:101ED0000BD03F4881421CBF3E48814205D03E485E
:101EE00081421CBF3D4881424DD1086820F001006D
:101EF0000860002102E08021416501210846B0BD53
:101F0000374B9942C7D0374B9942C4D0364B994290
:101F1000C1D00A6822F00E020A600A6822F00102AB
:101F20000A60324A91420BD0314A91421CBF314A79
:101F3000914205D0304A91421CBF304A91422BD188
:101F400000F158041ECC1D6825F480751D6002F058
:101F50001F02012303FA02F24A60816E6160C16EC2
:101F600031B10A6822F480720A60D0E91C124A601A
:101F7000002180F83410012280F83520026D002AFB
:101F8000BCD09047B5E716488142AED01548814293
:101F9000ABD015488142A8E7194A9142D0D0194ADE
:101FA0009142CDD0184A9142CAD0E1E710000240D8
:101FB00028000240400002405800024070000240E9
:101FC00088000240A0000240B80002401004024015
:101FD00028040240400402405804024070040240B9
:101FE00088040240B8040240A00402400854025889
:101FF0001C54025830540258445402585854025841
:102000006C54025894540258805402582DE9FC41F3
:10201000044600200190D94FDFF8FC04A66DD0F8EB
:102020000080206835683168B8422AD0D44A90428E
:102030001CBFD44A904224D0D34A90421CBFD34AFA
:1020400090421ED0D24A90421CBFD24A904218D031
:10205000D14A90421CBFD14A904212D0D04A9042FD
:102060001CBFD04A90420CD0CF4A90421CBFCF4AEE
:10207000904206D0CE4A90421CBFCE4A904240F0D9
:102080009B81E16D082201F01F018A402A4235D070
:102090000423BC46B84224D0B94FB8421CBFB94F44
:1020A000B8421ED0B84FB8421CBFB84FB84218D083
:1020B000B74FB8421CBFB74FB84212D0B64FB84264
:1020C0001CBFB64FB8420CD0B54FB8421CBFB54F7D
:1020D000B84206D0B44FB8421CBFB44FB84240F02B
:1020E000938107681F42674608D0036823F0040302
:1020F0000360B260626D42F00102626501228A40B3
:102100002A422ED0B84224D09D4B98421CBF9D4BF2
:1021100098421ED09C4B98421CBF9C4B984218D0B2
:102120009B4B98421CBF9B4B984212D09A4B9842B3
:102130001CBF9A4B98420CD0994B98421CBF994BAC
:10214000984206D0984B98421CBF984B984240F05A
:10215000688143691B0604D5B260626D42F00202D9
:10216000626504228A402A422ED0B84224D0844B91
:1021700098421CBF834B98421ED0834B98421CBF91
:10218000824B984218D0824B98421CBF814B984298
:1021900012D0814B98421CBF804B98420CD0804B90
:1021A00098421CBF7F4B984206D07F4B98421CBF81
:1021B0007E4B984240F0438103689B0704D5B26090
:1021C000626D42F004026265102202FA01F12942B6
:1021D0003ED00822B84224D0D04B98421CBFD04BEE
:1021E00098421ED0CF4B98421CBFCF4B984218D07C
:1021F000CE4B98421CBFCE4B984212D0CD4B98424A
:102200001CBFCD4B98420CD0CC4B98421CBFCC4B42
:10221000984206D0CB4B98421CBFCB4B984240F023
:102220001C810368134213D0B16002680168520335
:1022300006D4C90506D4016821F00801016001E057
:10224000080301D4216C00E0A16C09B12046884745
:10225000E06D00F01F01202000FA01F22A4263D055
:1022600020681023B84224D0AC4DA8421CBFAC4D0E
:10227000A8421ED0AB4DA8421CBFAB4DA84218D0FF
:10228000AA4DA8421CBFAA4DA84212D0A94DA842EF
:102290001CBFA94DA8420CD0A84DA8421CBFA84DF8
:1022A000A84206D0A74DA8421CBFA74DA84240F0A7
:1022B000E18005681D4237D0B26094F8353002687D
:1022C000042B19D122F016020260426922F080022A
:1022D0004261226C0AB9A26C1AB1026822F00802AB
:1022E00002603F208840B060002084F83400012064
:1022F00084F83500216D3CE0016852030CD4C90517
:102300000ED4016821F010010160002084F834002F
:10231000012084F8350003E0080301D4616C00E07B
:10232000E16B09B120468847606D28B3606DC00736
:102330001ED04FF41650B8FBF0F1042084F835009D
:102340002068026822F001020260019A01320192C3
:102350008A4202D80268D207F7D1002184F83410EB
:102360000068C0074FF0030008BF012084F8350063
:10237000E16C09B120468847BDE8FC8110000240AD
:102380002800024040000240580002407000024015
:1023900088000240A0000240B80002401004024041
:1023A00028040240400402405804024070040240E5
:1023B00088040240A0040240664A90421CBF664A5C
:1023C00090420CD0654A90421CBF654A904206D0AC
:1023D000644A90421CBF644A904240F09080E26D93
:1023E00002F01F030268550751D504259D4015EAE8
:1023F00001074CD01104756060D4910662D4016865
:1024000021F0040101605DE0504FB8423FF469AE35
:102410004F4FB8423FF465AE564FB84218BF08233D
:102420005FE64A4B98423FF494AE494B98423FF4E2
:1024300090AE504B98423FF48CAE026891E6434B0D
:1024400098423FF4B9AE424B98423FF4B5AE494B87
:1024500098423FF4B1AE0268B6E63C4B98423FF476
:10246000E0AE3B4B98423FF4DCAE424B984218BF83
:102470000422D6E6354DA8423FF41BAF344DA842A6
:102480003FF417AF3B4DA84218BF022311E7950751
:102490001AD502259D4015EA010715D01104756073
:1024A00027D4910629D4016821F00A010160002097
:1024B00084F83400012084F835001EE0D00301D4F4
:1024C000A16C56E7216C54E712077FF555AF08223F
:1024D0009A4011403FF450AF016821F00E010160B5
:1024E000012000FA03F171606065002184F8341066
:1024F0003CE7D00301D4616C3BE7E16B39E71B4A51
:1025000090423FF46CAF1A4A90423FF468AF1949C9
:1025100088423FF4B6AD2FE71400002428000240A3
:102520004000024058000240700002408800024013
:10253000A0000240B80002401004024028040240FB
:1025400040040240580402407004024088040240E3
:10255000A004024094540258085402581C540258D3
:102560003054025844540258585402586C5402587B
:1025700080540258B80402402DE9F843044601F0A3
:1025800013FA002C00F0A18005462068C94FB8421C
:102590002AD0C94988421CBFC849884224D0C849AA
:1025A00088421CBFC74988421ED0C74988421CBF09
:1025B000C649884218D0C64988421CBFC5498842CE
:1025C00012D0C54988421CBFC44988420CD0C449B6
:1025D00088421CBFC349884206D0C34988421CBFF9
:1025E000C249884240F0FF80022184F83510002162
:1025F00084F83410016821F0010101600168C90705
:1026000006D001F0D1F9401B052859D82068F5E71C
:102610000168B74AB946D4E90257D4E906C301EACA
:102620000208D4E90462D4E9081E45EA0805BEF1AF
:10263000040F45EA070545EA060542EA050242EAB3
:102640000C0242EA030241EA020103D1D4E90B235E
:1026500011431943636841F480124F46A3F13F05CB
:10266000042D38BF1146A3F12905062D38BF1146A8
:10267000A3F14705022DA3F14F0538BF114623F002
:102680000303042D38BF1146742B08BF11460160A7
:102690004169BEF1040F21F0070141EA0E0130D17A
:1026A000D4E90A53294363B3BCF5005F10D0BCF1F1
:1026B000000F19D1022D1AD0012D0FD0BDB120E08D
:1026C00020206065032084F835000120BDE8F883F0
:1026D000032D16D8DFE805F00E0B0E02A3F1C07231
:1026E000B2FA82F2520904E0032D03D309D1C3F3F5
:1026F000006232B140206065012084F83500BDE8F9
:10270000F88341612046FEF7CDF9E16D3F2201F0EB
:102710001F0102FA01F181602068B8423CD066498D
:1027200088421CBF6549884236D0F64988421CBFA2
:10273000F549884230D0F54988421CBFF4498842A7
:102740002AD0F44988421CBFF349884224D0F34977
:1027500088421CBFF24988421ED0F24988421CBF01
:10276000F149884218D0F24988421CBFEF4988429B
:1027700012D0F04988421CBFEF4988420CD0EF4983
:1027800088421CBFEE49884206D0EE4988421CBFF1
:10279000ED49884240F080802046FEF7F3F9A068BA
:1027A00004F16003802806BF002060606068C5B245
:1027B0000ECB013807280D60536009D82046FEF77C
:1027C00027FA04F16C02002307CA03604A6003E0A1
:1027D0000020C4E91B00606700206065012184F8C7
:1027E0003510BDE8F883DA4988421CBFD2498842D7
:1027F0000BD0D24988421CBFD149884205D0D1496B
:1028000088421CBFD04988423AD1022104F1080510
:1028100084F83510002184F834102ECD06686FF34B
:102820001016402946EAD202A1F18006B6FA86F6D1
:102830004FEA56164FEA863608BF102642EA0601CE
:10284000A26941EAD30141EAD50141EAD201E26934
:1028500041EAD201226A41EA121140F80819C0B2D5
:102860001421B0FBF1F08000E0652046FEF71AF974
:10287000E16D012201F01F0102FA01F141604BE715
:10288000B2498842C1D0B3498842BED0A9498842E2
:102890003FF4AAAE402014E7AC4988423FF47CAF35
:1028A000AB4988423FF478AFAA4988423FF474AFFD
:1028B00092E700BF100002402800024040000240A2
:1028C000580002407000024088000240A000024010
:1028D000B8000240100402402804024040040240B4
:1028E000580402407004024088040240A0040240E0
:1028F0003F8010FEB0B5002800F0CB80044690F871
:102900003400012801D10220B0BD012084F8340038
:1029100094F83500012840F0B680022084F8350094
:10292000002060652068056825F0010505602046E7
:10293000FEF7A0F92068704988421CBF6F4A904298
:102940001ED06F4A90421CBF6E4A904218D06E4A09
:1029500090421CBF6D4A904212D06D4A90421CBFFB
:102960006C4A90420CD06C4A90421CBF6B4A904219
:1029700006D06B4A90421CBF6A4A904240F08B805E
:1029800002680B2363F344020260226C1AB10268EE
:1029900042F00802026088423BD0584A90421CBF75
:1029A000574A904235D0574A90421CBF564A9042EF
:1029B0002FD0564A90421CBF554A904229D0554AC2
:1029C00090421CBF544A904223D0544A90421CBFAC
:1029D000534A90421DD0534A90421CBF524A9042E3
:1029E00017D0534A90421CBF504A904211D0514ACE
:1029F00090421CBF504A90420BD0504A90421CBF9C
:102A00004F4A904205D04F4A90421CBF4E4A9042D6
:102A100067D1226E1368DB0303D5136843F4807318
:102A20001360E26E1AB1136843F480731360884236
:102A300023D0324988421CBF314988421DD03149D8
:102A400088421CBF3049884217D0304988421CBF99
:102A50002F49884211D02F4988421CBF2E498842F5
:102A60000BD02E4988421CBF2D49884205D02D49E4
:102A700088421CBF2C4988422AD1016841F00101DB
:102A800001600020B0BD002084F834004FF40060E5
:102A900060650120B0BD244A90423FF471AF234AE3
:102AA00090423FF46DAF224A90423FF469AF214B10
:102AB000026898423FF465AF052363F34302026066
:102AC000226C002A3FF467AF026842F0040261E71B
:102AD00017498842D1D017498842CED0134988423D
:102AE000CBE71A4A904294D0194A904291D0194AA1
:102AF00090423FF48EAFC0E7100002402800024031
:102B0000400002405800024070000240880002402D
:102B1000A0000240B8000240100402402804024015
:102B2000400402405804024070040240A0040240E5
:102B300088040240B8040240085402581C54025849
:102B40003054025844540258585402586C54025895
:102B50009454025880540258B0B5044600F024FF43
:102B600005460548611C007818BF044400F01CFFAE
:102B7000401BA042FAD3B0BD0C00002490F898305E
:102B8000013B012B0CD80068836D0B420DD0836D87
:102B90000B408B4212BF0323C36D43F0020307E0D7
:102BA00000F19C010120022219E0C36D43F00103F2
:102BB000C3658B0504D5D0F8E0301343C0F8E0308E
:102BC0004B0504D5D0F8E4301A43C0F8E420064A97
:102BD000436D0A401A43426500208A0F03490B687F
:102BE0001A430A60704700BFFFFFCF3F14A80040A0
:102BF000B0B5044690F8980002281AD12068D0F8A1
:102C0000C03013F07C5F19D0D0F8C4309B021AD4C6
:102C1000D0F8C400C0F3044520462B46FEF73EF929
:102C200001202168A840C4F89400C1F8D000002019
:102C3000B0BDD4F89C0040F0080008E0D4F89C0037
:102C400040F0200003E0D4F89C0040F40070C4F889
:102C50009C000120B0BD704790F89830012B0AD13C
:102C600079B1006801290CBF50F8A01F50F8B01FBF
:102C700021F0FE410AE050F89C1F41F004020121BE
:102C800007E0006850F8F01F21F07C5141EA026231
:102C90000021026008467047B0B590F89820013ACC
:102CA000012A14D80A68CB68CAB10A69072B42EA1C
:102CB00043720FBF8B698B684C6944EA8373496820
:102CC000006F40F8312000EBC100436020E0D0F8F5
:102CD0009C1041F00201C0F89C100120B0BD072BF0
:102CE00009D10A69D1E90634120442EA04221A43DE
:102CF00042F0605208E08A68D1E90445920742EA4E
:102D0000C36242EA04422A434968C06E40F8212067
:102D10000020B0BD10B590F89840012C0BD1920066
:102D20000068029C42EA011141EA43012143C0F8D4
:102D30008010002010BDD0F89C1041F00401C0F8B4
:102D40009C10012010BD704770470000F0B590F84E
:102D50009840022C18D140291BD10468D4F8A05007
:102D600015F4FE0F7DD0D4F8A4506D0600F08480D9
:102D7000D4F8A450ED0148BFD4F8A050466CD4F864
:102D8000A44000F174051BE0D0F89C1041F008014C
:102D900076E0412918D10468D4F8B05015F4FE0F3C
:102DA0005FD0D4F8B4506D0666D0D4F8B450ED01BD
:102DB00048BFD4F8B050C66CD4F8B44000F17805E0
:102DC000C4F30527BC4608E0046D8C4249D9476D21
:102DD00000F17C054FF0000C0E4606FB07F42D6851
:102DE00055F8246016F08046566055F82460C6F306
:102DF0008A4718BF26F06047176055F824600027FF
:102E000006F00056966055F8246005EB840406F041
:102E100000461661A588D561656805F47025D56002
:102E2000666806F480165661666806F400169661B8
:102E3000E67906F07F0616626668F60F566204F1C0
:102E400008061B4C2D0C655DAF4204D2F55DDD55C7
:102E50000137D568F6E7402908D10068C0F8A8C056
:102E600024E0D0F89C1041F0200109E041290BD169
:102E70000068C0F8B8C019E0D0F89C1041F4807127
:102E8000C0F89C100120F0BD1F299FBF012202FA4B
:102E900001F10068C0F8981081BF01F01F01012204
:102EA00002FA01F1006888BFC0F89C100020F0BD54
:102EB000C01F0108704700002DE9F04F87B004469D
:102EC000A748A8490068096801EA000A2068056D5A
:102ED000D0F85480076DD0F854B0016D0291416D67
:102EE0000191016D0691416D0591016D0491416D56
:102EF0000391416D026D02EA01095FEAC95108D5EB
:102F00004FF4807101650020954908602046FFF765
:102F1000D1FF05EA08064FEA8A755FEA49500ED5E7
:102F200020684FF48063D0F8DC10D0F8E42003650B
:102F30008B4B002011401860204600F0EFFB07EAA1
:102F40000B0806F4704655B12068002101658449DC
:102F50000AF00300086020462946FFF77CFEDDE901
:102F6000011008F00F0500EA010746B120687C490E
:102F70000665002008603146204600F0D1FB07F0CE
:102F8000F006774F3DB1206829460565002038607E
:102F9000204600F08DFB3EB12068314606650020DA
:102FA0003860204600F09AFB5FEA095008D5206897
:102FB0004FF40061016500203860204600F0B1FB4D
:102FC0005FEA89500DD520684FF40073D0F8D8100F
:102FD000D0F8E0200365002038601140204600F062
:102FE0009EFB5FEA093008D520684FF40021016597
:102FF00000203860204600F059FB5FEAC93008D550
:1030000020684FF48031016500203860204600F0D0
:1030100084FBDDE9031000EA01055FEA493008D5C9
:1030200020684FF48021016500203860204600F0C0
:1030300073FBDDE905105FEA893200EA010005F063
:1030400060710BD522684FF40033136500223A609B
:10305000D4F89C2042F08002C4F89C2000F0715506
:1030600031B120680165002038602046FFF76CFE12
:1030700020683DB1056500213960D4F89C102943D2
:10308000C4F89C10A7F5016188425DD16068816831
:10309000890759D0016A426A1140026A436A066A86
:1030A000D0F824901A4011F00F0102F03005026AA6
:1030B0000492D0F824B0026A0692426A0592D0F8CF
:1030C0002480D0F820A003D00162204600F021FB2C
:1030D00006EA09072DB1606829460562204600F01E
:1030E0001AFB049807F4C07500EA0B0608EA0A0008
:1030F00040060AD560684023C16BC26B036220465C
:10310000090C02F03F0200F005FBDDE9051006F4B2
:10311000FC4600EA01072DB1606829460562204699
:1031200000F0F6FA07F4F02036B161680E62D4F8C8
:103130009C103143C4F89C1030B161680862D4F827
:103140009C100843C4F89C00D4F89C0028B1204689
:1031500007B0BDE8F04FFFF7F6BD07B0BDE8F08F50
:1031600010A8004014A800402DE9F04F85B0D8B356
:1031700004460068E74EB04202D106F580716160F6
:1031800094F8981031B9002084F89900204600F096
:10319000C9F92068816921F01001816100F004FC07
:1031A000054620688169090705D500F0FDFB401B35
:1031B0000B28F6D30FE0816941F00101816100F035
:1031C000F3FB054620688169C90711D100F0ECFBCB
:1031D000401B0B28F6D3D4F89C0040F00100C4F843
:1031E0009C00032084F89800012005B0BDE8F08F12
:1031F0008169B44641F002018161217C826942F01B
:103200004003012908BF22F040038361617C826989
:1032100022F48043012908BF42F480438361A17CEA
:10322000826942F48053012908BF22F480538361EC
:10323000D4E90212836923F4407343EA01038361F2
:10324000836923F0A4038361036923F010030361FE
:10325000C2B1012A03D1826942F0040211E08369FC
:10326000022A02D143F020020BE043F08003836185
:10327000032A036943F01003036103D1826942F01A
:103280002002826104F11407A34AB1F5407F9646FB
:10329000E8CFA5F1010502EB03426FF0FF0303EB5A
:1032A000062646EA4565A7F1010645EA060542EA13
:1032B0000502C2610FD104F124066FF00F0766CE3C
:1032C00003EB0523013A07EB06161A430EEB014107
:1032D00032431143C160236E2BB1616ED0F8C02020
:1032E0001143C0F8C010D4F85CA01AEB030F0AD049
:1032F000A16E8A4A52F82110D0F8C82022F00702A5
:103300001143C0F8C810D4F840B0BBF1000F0AD088
:10331000616C824A52F82110D0F8BC2022F00702DA
:103320001143C0F8BC10A56C5DB1E16C7B4A52F84A
:103330002110D0F8BC2022F0700242EA0111C0F83E
:10334000BC10216D039159B1616D744A52F821107E
:10335000D0F8BC2022F4E06242EA0121C0F8BC109F
:103360006045049304D161688A6822F003028A6090
:103370004FF0000EC4F89CE0012184F898104FF63D
:10338000FC72D0F88410D4E90D6921EA0203E16BE4
:10339000626C0291019243EA8603C0F88430D0F84F
:1033A000843023F47F0343EA0943C0F88430D0F823
:1033B000887009EB06036FF38F0747EA8307C0F8AD
:1033C000887003EB4103D0F8887027F4FE0747EAC2
:1033D0000147C0F88870D0F8A0706FF38F0747EAF4
:1033E0008307C0F8A070D0F8A07027F4FE0747EA62
:1033F0000B47C0F8A07002FB0B37D0F8B0306FF36A
:103400008F0343EA8703C0F8B030C4F894E0D0F8E3
:10341000B03023F4FE0343EA0543C0F8B030E36C58
:1034200003FB057CD0F8AC706FF38F0747EA8C077D
:10343000C0F8AC700095D4F85480039FD0F8F01019
:1034400008FB07C56FF38F0108FB07F741EA850109
:10345000C0F8F010D0F8F0C0A16D2CF47C1242EA54
:103460000142C0F8F02005EB4102D0F8C0506FF3E4
:103470008F0545EA8202C0F8C0205546D0F8C0202A
:1034800022F47C1242EA0A42C0F8C020D0F8C020E0
:10349000DDF810A022F07C5242EA0A62C0F8C02097
:1034A000019800FB0BF27D4800EB8600029E00F5C0
:1034B000406000EB890909EBC60606EB820C009A16
:1034C0005343A26EC4E91B09C4E91D6C55430CEBC0
:1034D000830303EB8707C4E91F3707EBC10101EB47
:1034E0008505C4E921150AFB02F10D4A05EB8101AE
:1034F000C4F89010914204D9D4F89C0040F0200008
:103500006DE6884204D240F804EBD4F89010F8E756
:1035100000206AE600A000400000FFFF1CEA00084F
:10352000FCD30040B0B5B6B0044631A81421FCF776
:1035300033FF02A8B821FCF72FFF206855498842C5
:1035400030D0554988425BD05449884240F09F8032
:10355000002003904FF4004002904FF080501D90E7
:1035600002A801F0EDFF08B1FDF777FC4C480168B7
:103570004A1C02604B4841B9C16841F48071C16086
:10358000C16801F480710191019901681524132526
:1035900041F0080101600068092100F00800019075
:1035A000032029E0002003904FF4004002904FF0E8
:1035B00080501D9002A801F0C3FF08B1FDF74DFC3B
:1035C000374801684A1C0260364841B9C16841F475
:1035D0008071C160C16801F4807101910199016835
:1035E000A0249F2541F0080101600068052100F03A
:1035F000080001904FF44050319001982A482DE086
:10360000002003904FF4004002904FF080501D9036
:1036100002A801F095FF08B1FDF71FFC20480168E2
:103620004A1C02601F4841B9C16841F48071C16001
:10363000C16801F480710191019901681624142573
:1036400041F0020101600068092100F002000190D0
:103650006020319001981448A0F500603591002158
:10366000CDE933110221329131A900F0CBF828467F
:103670000521002200F03AFA284600F029FA2046F7
:103680000521002200F032FA204600F021FA36B07F
:10369000B0BD00BF00D4004000A4004000A0004026
:1036A000BC0D0024E0440258000C02587047000092
:1036B0000749884208D00749884207D0064988420E
:1036C00018BF704709F07EB809F06AB809F070B801
:1036D0009C6E00243C6F0024DC6F0024704790F83F
:1036E000981001290BD1022180F8981001688A698D
:1036F00022F001028A610021C0F89C1006E0D0F897
:103700009C1041F00401C0F89C100121084670474C
:1037100070477047704770477047704770477047F1
:10372000704770472DE9F84F964A0A244FF0000B76
:103730004FF00F0C4FF0000A00269042924A08BF4B
:10374000092402444FEAB223082B38BF4FEAB224BF
:10375000009431FA06F252D0012202FA06F717EA73
:10376000010246D00BF00C08894B0CFA08FE4FEA18
:10377000960C53F82C90009B09EA0E0403FA08F506
:10378000AC4218D1814BDC6F9443DC67D3F88040A6
:103790009443C3F880401C6894431C604FF0B043CE
:1037A0001C6824EA02021A60794B53F82C2022EAA2
:1037B0000E0243F82C2003226FF0030304684FF03D
:1037C0000F0C03EA560502FA0AF21443054404609A
:1037D0000BF01C040CFA04F42B6AA3432B62C3689D
:1037E0009343C3604368BB434360836823EA020298
:1037F00082600BF1040B0AF1020A0136A9E7BDE869
:10380000F88F00BF2DE9FC4F5E4A0A244FF0000AF2
:103810004FF0000990425C4A08BF092402444FEA75
:10382000B223082B38BF4FEAB224002200940E685E
:1038300036FA02F700F0A380012303FA02F716EA32
:10384000070B00F09680D1F804E003230EF0030C80
:10385000ACF10105012D13D803FA09F58468CB6892
:10386000AC4303FA09F36FEA050823438360CEF300
:1038700000134468BC4393405700234343600BE06C
:1038800003FA09F3BCF1030F4F466FEA030803D1B3
:103890004F464FF0030C22E0C3688C68BCF1020F66
:1038A00003EA080304FA07F443EA0403C36016D1E9
:1038B0000AF01C030F2404FA03FC6FF0030404EA6B
:1038C000520505442C6A24EA0C0C0C6904FA03F333
:1038D00043EA0C032B62D1F804E00EF0030C0468F9
:1038E0001EF4403F0CFA07F304EA080443EA040319
:1038F00003603ED0754C264E236843F002032360DC
:1039000023680F2403F002030193019D0AF00C03C6
:1039100022F003059C40AF5927EA0404009F07FAF0
:1039200003F32343AB514FF0B04633684D6843EA8D
:103930000B04EF0258BF23EA0B043460134EAF02AE
:10394000336843EA0B0458BF23EA0B043460AF0327
:10395000D6F8803043EA0B0458BF23EA0B04C6F8BC
:103960008040ED03F36F43EA0B0458BF23EA0B04D6
:10397000F4670AF1040A09F10209013257E7BDE8C8
:10398000FC8F00BF002402580000FEA7040000586E
:10399000080400580069084018BF01207047002A39
:1039A00008BF09048161704706480068704700BF7E
:1039B0000348044900780A6810440860704700BF53
:1039C0000C00002458BD002480B5032000F0AAF8A4
:1039D00002F0A6FB0E490F4B0A68C2F303220968E6
:1039E00001F00F019A5C595C02F01F02D0400A4AB4
:1039F00001F01F011060C840084908600F2000F066
:103A00000FF808B1012080BD00F04EF8002080BD05
:103A100018440258A4EB00081400002418000024E5
:103A2000B0B58AB00F282DD80446A1200022002569
:103A3000214600F05BF8A12000F04AF81548046028
:103A40001548016841F080710160006801A900F02B
:103A500080700290029802A802F0FCFA02F04EFB7D
:103A60004000104C0D490E4B40F2E732B0FBF4F031
:103A70000138C1E90030C1E902520D61084603F086
:103A800043FB08B1012002E0044803F06FFB0AB0D9
:103A9000B0BD00BF10000024EC4402586078002440
:103AA00000E0004040420F0081B008480022016859
:103AB00041F00201016000680F2100F00200009057
:103AC00000986FF0010001B000F010B8F444025803
:103AD000002808D400F01F010122400902FA01F178
:103AE000014A42F82010704700E100E070B5134B26
:103AF0004FF0FF351B68C3F30223DC1E83F007037E
:103B000038BF0024042B28BF042305FA04F605FA65
:103B100003F3B2439943A1401143BDE8704008F05C
:103B200005BD00BF05494FF6FF030A681A4060F360
:103B30000A22034810430860704700BF0CED00E004
:103B40000000FA052DE9F04F8FB00068E04F0291B8
:103B500001904FF00008DF490DF10C0BC01BB94676
:103B600018BF012000908A46B8F1020F64D008EB1C
:103B7000480014210BEBC0052846FCF70DFC08F1AA
:103B8000010805F1100C05F10C0E05F108022B1DC2
:103B9000B8F1020F0BD15AF8040C51464FF40076DD
:103BA000C00704BF40F22226C0F2044601E000260E
:103BB00051460027022F3DD051F82740E00705D09D
:103BC00084EA0600800701D4781C2860E00605D549
:103BD00084EA0600800601D4781C1860E00505D54B
:103BE00084EA0600800501D4781C1060E0030ED53D
:103BF00084EA060040030AD4A10307F101005146FC
:103C00004CBF40F0807040F48030CEF80000E001FE
:103C10000ED584EA060040010AD4A10107F1010093
:103C200051464CBF40F0807040F48030CCF800002A
:103C30000137BFE74F4696E7DDF804E03868AEEBA2
:103C40000701C00702D14FF0000C05E038684FF0C3
:103C5000010C20F001003860B1FA81F2E1490298CC
:103C60000B68DB0701D1884606E00B6888460CF13B
:103C7000020C23F001030B600099520901EB41048F
:103C80000BEBC4039D680AEB850555F8046C26F41C
:103C9000807645F8046C5AF8045CED072DD15BF88A
:103CA0003440002C5ED00AEB840454F8045C25F008
:103CB000010544F8045C5C6844B10AEB8404514695
:103CC00054F8045C25F0100544F8045CDC684CB141
:103CD0000125514625EA04045AF8245025F480357C
:103CE0004AF824501B69EBB30124514624EA03032C
:103CF0005AF8234024F0807432E05AF8043CBE4560
:103D0000514623F001034AF8043C2BD1099B0AEBEE
:103D1000830353F8044C44F0020443F8044C0A9B18
:103D200043B10AEB8303514653F8044C44F020049A
:103D300043F8044C0C9B4BB10124514624EA030385
:103D40005AF8234044F480244AF823400D9B4BB199
:103D50000124514624EA03035AF8234044F08064C6
:103D60004AF8234002EB4202D0E900655BF832409A
:103D70000BEBC202A642536811D19D421DD1D568FA
:103D8000C668AE4219D115690669AE4215D15AF816
:103D9000042C514642F001024AF8042C3FE09D42B7
:103DA0000BD095688668AE4207D0D568C668AE422B
:103DB00003D015690669AE4231D10AEB8404564638
:103DC00054F8045C25F0010544F8045C3BB106EBB3
:103DD000830353F8044C24F0100443F8044C936814
:103DE00006EB830353F8044C24F4807443F8044C2A
:103DF000D36843B1012424EA030356F8234024F492
:103E0000803446F8234012694AB10123514623EA1F
:103E100002025AF8223023F080734AF822304FF41D
:103E20004072BE45554608BF4FF4807283680AEB66
:103E3000830353F8044C24F44074224443F8042CC4
:103E40005AF8042CC2F307434269541E9C4209D914
:103E5000AB4B03EB024255F8043C23F47F031A43B7
:103E600045F8042C55F8044C0268013AE40755F86B
:103E7000223023F003032FD10324BE4508BF0124C1
:103E8000234345F82230426862B105EB82023023B9
:103E9000BE4508BF102352F8044C24F020042343ED
:103EA00042F8043CC368DA032ED4002B3ED0012430
:103EB0004FF0A062BE45514624EA030408BF4FF00C
:103EC00080720AEB84035AF8244024F0E0642BE06B
:103ED0000050005204B4005243F0010345F8223070
:103EE000426842B105EB8202012452F8043C64F3BB
:103EF000051342F8043CC268D3032AD4BAB34FF086
:103F000080736FF0E06428E001244FF4A022BE45E6
:103F1000514624EA030408BF4FF480320AEB8403BD
:103F20005AF8244024F4E02422431A600269D3039F
:103F30002AD4002A41D001244FF0E063BE4524EA90
:103F4000020208BF4FF040735AF8224024F0E064A8
:103F500027E04FF480336FF4E0240125514625EA31
:103F600002025AF822502C4023434AF822300269B8
:103F7000D30318D40AB30123032423EA02025AF814
:103F8000223064F31A6316E001244FF4E023BE45A7
:103F900024EA020208BF4FF440335AF8224024F4C6
:103FA000E024234407E00123032423EA02025AF811
:103FB000223064F312434AF822305FEACC7203D015
:103FC0003A6842F001023A605FEA8C7005D5D8F891
:103FD000000040F00100C8F8000000200FB0BDE86C
:103FE000F08F00BF00A0005280B110B504460068F9
:103FF000016821F001010160816821F00201816006
:10400000204600F081F80020206510BD0120704797
:10401000F8B50446FFF7C8FC2CB1054600206065E2
:10402000216D11B1F8BD0120F8BD204600F094F8D3
:1040300004F10C06D4E9000C314F32494CCE07EBA9
:104040000343876839401143626B194311436FF092
:10405000FF0202EB062302EB0C221943E36919432A
:104060008160216AC36823F4E0231943C160216B96
:10407000A36B43EA01410161E16B416141F2883187
:10408000A165036823F4F8531A43026000912046A7
:1040900020212B46002205F021FA0028C2D12068F9
:1040A000636AA269A168013B022AC56825F0FF0581
:1040B00043EA0503C360036823F0400341EA0301B8
:1040C0000160A16AD0F8083123F0A04341EA03015E
:1040D000E36A41EA0301C0F80811016841F00101F7
:1040E000016003D1816841F002018160E068B0F1B4
:1040F000806F14BF0220012020650020F8BD00BFA2
:104100000000FFFFF4F8E0F8B0B5006861498842AC
:1041100018BFB0BD6048614C0E4D016821F400111C
:104120000160016821F40021016020460A21A847AE
:1041300004F580600521A84704F580504FF4006124
:10414000A84704F540604FF400612A46BDE8B0403E
:10415000104700BF253700082DE9F04FB5B00446E1
:1041600030A81421FCF718F902A8B821FCF714F9BB
:1041700020684849884240F08A804FF000700290E1
:104180004FF00009CDF80C90CDF8549002A801F042
:10419000D7F908B1FCF761FE3F4830AC404F4FF013
:1041A000030A0225016841F400110160016801F46D
:1041B000001101910199016841F400210160016839
:1041C00001F4002101910199C16841F00101C16030
:1041D000C16801F0010101910199C16841F002013A
:1041E000C160C16801F0020101910199C16841F00B
:1041F0001001C160C16801F0100101910199C1680D
:1042000041F00801C160C068214600F0080001903B
:10421000019809203490CDE9329ACDE930551F48F4
:104220008046B84706203490214631A880E8200611
:10423000082030904046B84731A84FF0040B08F5ED
:104240008066214680E8200E012030903046B84735
:10425000092034902146CDE9329ACDE930B5304677
:10426000B8470B20349021464FF4006631A880E80F
:10427000200608F580503096B84709203490214632
:10428000CDE9329ACDE9306508F54060B84735B0E0
:10429000BDE8F08F00A00052D4440258000002583C
:1042A0000538000801688A6942F000628A610122CB
:1042B000C0F80025002280F8F424486D024A10431B
:1042C00048650020704700BF030000107047006879
:1042D000416200207047B0B50068436AB1B1846A9A
:1042E000013903EB14430024E5B2A94207D900EBDE
:1042F00085050134D5F8045103EB1543F4E700EBD1
:10430000810043EA0241C0F8041102E043EA02419D
:1043100081620020B0BDD0F8080506F0A2BF01EB15
:10432000C10200EB8202D0F80805926C06F00ABFC9
:1043300001EBC10200EB8202D0F80805D2F8882216
:1043400006F057BFD0F8080506F08DBF01F00F0248
:10435000090602EBC20200EB820303F13C0258BFE4
:1043600003F51F720068114607F03EBE10B5044603
:1043700001F00F00090600EBC00104EB81015DBFF5
:10438000002281F87D2201F51F71012244BF81F8CE
:104390003D203C31087094F8BC04012801D1022072
:1043A00010BD012084F8BC04206807F0D7FB002072
:1043B00084F8BC0410BDB0B5044601F00F0062687B
:1043C000904201D9012521E009064FF0000500EBDC
:1043D000C00104EB81015DBF002281F87D2201F55F
:1043E0001F71012244BF81F83D203C3108708D705F
:1043F00094F8BC04012801D1022507E0012084F8CB
:10440000BC04206807F0FEFC84F8BC542846B0BD0C
:1044100001F00F0101EBC10100EB8100D0F8900227
:104420007047B0B5044601F00F00090600EBC0016B
:1044300004EB81015DBF002581F87D5201F51F71FC
:10444000012544BF81F83D503C318A600B710870F2
:104450004A7802B14883022B01D10020487194F8B8
:10446000BC04012801D10220B0BD012084F8BC04A5
:10447000206807F0BDFA002084F8BC04B0BDB0B5D8
:1044800001F00F01002501EBC10400EB840404F5E9
:1044900022772CC784F87C1284F87D5204F51F71B2
:1044A000C368012B08BFC4F89822DAB2006807F08D
:1044B000DDFC0020B0BDB0B5044601F00F0540683A
:1044C000854201D90120B0BD080609D401EBC10025
:1044D000002104EB800080F87D1200F51F7108E0D8
:1044E00005EBC500012104EB800080F83D1000F1D0
:1044F0003C0194F8BC2401200D708870012A01D180
:104500000220B0BD84F8BC04206807F093FC2DB9EC
:10451000217B206804F2C44207F048FC002084F8A4
:10452000BC04B0BDB0B501F00F0505EBC50100EB53
:104530008104214601F83C5F01F10C0700252CC7DE
:1045400001234B70C368012B08BFA265DAB2006873
:1045500007F08CFC0020B0BD2DE9F04F89B0056854
:104560000646284607F0DAFD10B109B0BDE8F08F25
:10457000306807F0FFFD0028F7D0D5F80808C0F331
:104580000D20C6F8FC04306807F0F4FD01463068E1
:10459000890703D5416901F00201416105F5006118
:1045A000039107F0E7FD0146306808960495C906B7
:1045B0003ED5816921F0100181612C6A04F00F055C
:1045C000C4F3434006281CD002282BD147F6F070D4
:1045D000044027D005EBC500220906EB80050498AE
:1045E000D5F8881207F0CAFDD5F88802D5F89012E0
:1045F00000EB1410C5F8880201EB1410C5F8900206
:1046000010E006F2C4410498082207F0B7FD05EB5C
:10461000C50006EB8000D0F89012C4F30A121144D2
:10462000C0F890123068816941F010018161049DE9
:1046300007F0A0FD000312D4DDF820A0DAF8000096
:1046400007F098FD400300F1DB80DAF8000007F086
:1046500091FD002800F1A181DAF80000B7E1089C83
:10466000206807F066FD064604F5277A4FF43068A7
:104670004FF0000B04F2C4400790002EDCD0F0078E
:1046800000F0B48008985FFA8BF94946006807F09B
:1046900069FD0746C00757D005EB0800012181607E
:1046A000089C206808EB0001036C8A68E468012C10
:1046B00024D114072DD4940644D412F0280F43D1EA
:1046C000E04CA34202D312F4004228D1DAF80020D1
:1046D0000969B8F5306F6FF3DF41A2EB01014AF8C9
:1046E0000C1C2AD1089BD3F88C22002A00F086806B
:1046F000D3F888020844C3F888021EE0D14CFF3486
:10470000A3420FD110040AD4900616D52020886049
:1047100013E0CC48834217D312F4004014D04FF476
:10472000004010E0B8F5306F07D10899D1F88C122D
:1047300019B90021079A07F039FB08984946FFF795
:10474000F7FD01E020208860380723D505EB08003D
:10475000082181600898016808EB01000D6C8168F0
:104760000904B849A1F1010404D5A54284BF4FF45E
:1047700000418160089800F0A4FBA542049D09D97E
:104780000898C068012805D108980121079A006897
:1047900007F00CFBF80603D505EB0800102181603B
:1047A000B80716D56869000604D50399486840F42F
:1047B000806048601AF81D0C012806D100200AF814
:1047C0001D0C4946089800F070FA05EB080002211C
:1047D0008160B80603D505EB080020218160B8048C
:1047E00004D505EB08004FF4005181600AF1240A5A
:1047F00008F1200876080BF1010B3EE7012199E74B
:10480000DAF8000007F08EFC03460AF2C44002907A
:1048100005F5106005900020002B3FF416AF0790BF
:10482000D80700F0B680079EDAF800000693F7B2CA
:10483000394607F085FC0446C00727D0039B06F0E5
:104840000F00012202FA00F0596B21EA00005863C0
:10485000059800EB46108260DAF80C00012811D1AF
:1048600006EBC6000AEB8000D0E911121144816406
:1048700046B9DAF84C0028B9DAF800000121029AAA
:1048800007F094FA50463946FFF749FD200704D552
:104890000598082100EB46108160E006069B04D5D0
:1048A0000598102100EB46108160600604D505983C
:1048B000402100EB46108160A00717D528463146FD
:1048C00007F0FAFB06EBC6000AEB800010F83F1F6A
:1048D000012905D1002101705046394600F0E1F967
:1048E0000598022100EB46108160069B200650D5FA
:1048F000079800EBC0000AEB800BD94659F84C0F23
:10490000C84658F8042F904243D35BF8441F851AD9
:10491000DAF800400BF104068D4288BF0D46079976
:1049200004EB411101F5106A18E0089D3168DBF8CD
:1049300000302D7B0095851A20463A469D4288BF5F
:104940001D46ABB207F0EEFC306828443060D8F862
:1049500000004219C8F80020D9F80000DAF8183031
:10496000E91C9BB2B3EB910F28BF9042DDD8904277
:10497000DDF820A0049D069B0BD80798012100F0CC
:104980000F0001FA00F0D4F8341821EA0000C4F84E
:10499000340807985B0801303EE70399486820F027
:1049A000010048609AF8F404012807D100208AF831
:1049B000F40400215046FFF789FC02E0504600F065
:1049C00064FADAF80000416901F00041416107F042
:1049D000D1FB000502D4DAF800000CE003988068EF
:1049E000C00702D0504600F093FADAF8000041699F
:1049F00001F40061416107F0BDFB000118D5DAF850
:104A00000000416901F0006141619AF8F41419B1A4
:104A1000504600F07DFA0BE001218AF8F414406D55
:104A20000121C0F38300CAF8F8045046FFF74EFC9A
:104A3000DAF8000007F09EFBC00405D4DAF80000A5
:104A400058E000BF0B30544FD5F80408102120F077
:104A50000100C5F80408DAF8000007F02DFB05F5A1
:104A60001060DAF804104FF67F32039CA9B182601F
:104A70000139036823F400130360C0F80822D0F85A
:104A8000003223F40013C0F80032D0F8003243F0B3
:104A90000063C0F800322030E8E7E06940F0011020
:104AA000E061DAF8300040B1D4F8840040F00B0047
:104AB000C4F8840004F1440006E0606942F22B016E
:104AC0000843606104F1100001680AF2C44241F039
:104AD0000B010160206820F4FE6020609AF80C1041
:104AE000DAF8000007F062F9DAF80000416901F431
:104AF0008051416107F03EFB0146DAF8000089046D
:104B00001AD506F0B3FFDAF8000007F0F9FACAF890
:104B10001000DAF8004001F0C5FA9AF810200146BA
:104B2000204607F087FB504600F09AF9DAF80000BB
:104B3000416901F40051416107F01CFB000702D4F8
:104B4000DAF8000008E0504600F0A3F9DAF80000B7
:104B5000416901F00801416107F00CFB000608D42F
:104B6000DAF8000007F006FBC00219D4DAF80000FA
:104B700039E00499012440F2A325886920F08000DF
:104B80008861DAF804008442EAD21AF805000128A4
:104B900003D1E1B25046FFF7D9FB24350134F0E7E9
:104BA00004980AF163040126012700F51265DAF87A
:104BB0000400874211D260782968B1F1FF3F08DC18
:104BC000012806D147F080002670C1B25046FFF799
:104BD000BDFB243420350137E9E7DAF800004169EC
:104BE00001F480114161049C07F0C4FA800202D4F0
:104BF000DAF8000031E004F532610AF52970DAF8DC
:104C0000042001230124944221D206780D68B5F1D5
:104C1000FF3F13DC012E11D1DAF8FC6405F4803576
:104C200006F00106B54209D1049EB56945F080053C
:104C3000B56100F8013C75692D0603D5243020319B
:104C40000134E0E70399486840F400704860DAF8FE
:104C50000000416901F40011416107F08BFA400046
:104C600002D4DAF8000008E05046FFF754FBDAF807
:104C70000000416901F08041416107F07BFA400783
:104C80007FF573ACDAF800004468610704D550463C
:104C9000FFF758FBDAF80000416821434160FFF755
:104CA00064BCD0F8080506F039BBD0F8080506F05A
:104CB00048BB2DE9F04F8BB0002800F087800446F8
:104CC000056890F8BD0428B9002084F8BC0420468B
:104CD00000F092F8032084F8BD04E86BC00501D40D
:104CE0000020E060206807F05BF820680A9004F17B
:104CF000040B04F1140E04F1240AD4E90C509BE8CF
:104D00000E089EE8C0509AE80007CDE9085002A8B6
:104D1000CDE900B680E8805005A880E800070A9831
:104D200006F0B4FE00284ED120680021002507F0CF
:104D300040FA616801200022D3B2994210D903EBF6
:104D4000C30604EB860686F83C20A6F8563086F8A3
:104D50003D00C6E91155F56486F840500132EBE795
:104D600000200022D3B299420FD903EBC30304EB16
:104D70008303C3E9A10083F87C22C3F88C0283F883
:104D8000800283F87D020132ECE7A0680A9004F10A
:104D9000140E04F1240A2268D4E90C50D4E9033B30
:104DA0009EE8C0509AE80007CDE9085002A8CDE976
:104DB00000B680E8805005A880E8000710460A9AEF
:104DC00006F02AFF30B1022084F8BD0401200BB0A8
:104DD000BDE8F08F002084F83800012084F8BD047D
:104DE000606A012802D12046FFF75CFA206806F0CD
:104DF00005FF0020EBE7000010B5B0B0044602A8A4
:104E0000B821FBF7C9FA20681349884221D1002054
:104E100003904FF4802002904FF44010239002A89A
:104E200000F08EFB08B1FCF718F800F0ABF80B4867
:104E30000022016841F0007101600068052100F066
:104E40000070019001984D20FEF750FE4D20FEF7B6
:104E50003FFE30B010BD00BF00000440D8440258EF
:104E600010B50446006928B1022801D0FBF7F5FF10
:104E7000012100E00021D4F8080506F0D1FAD4F8A9
:104E80000805BDE8104006F084BAD0F8080506F021
:104E9000B0BAD0F8080506F0B6BA10B5044690F8D6
:104EA000BC04012801D1022010BD84F83810012073
:104EB00084F8BC04206807F0ADF9002084F8BC0435
:104EC00010BDD0F8082500F2C441104606F0B4BA6F
:104ED00010B5044690F8BC04012801D1022010BD91
:104EE0002068012184F8BC14C16BC90506D4A16AED
:104EF000012903D1816B41F48031816307F0B6F859
:104F0000206806F06DFE002084F8BC0410BD00008F
:104F100010B50446D0F8080506F0D0FA2068D0F89D
:104F2000001E41F00101C0F8001E206A20B10348B4
:104F3000016841F00601016010BD00BF10ED00E006
:104F4000B0B5134D2A682968520705D401F007014E
:104F5000081A18BF0120B0BD21F0070108432860DE
:104F6000FEF722FD044655F8080C800407D4FEF72E
:104F70001BFD001BB0F57A7FF5D90120B0BD0020E4
:104F8000B0BD00BF0248016841F080710160704708
:104F90000C48025880B501F085F80549054A0968B2
:104FA000C1F30211515C01F01F01C84080BD00BF78
:104FB00020440258A4EB0008B0B53C498B6A8A6AC9
:104FC000CC6A4D6B04F00104C5F3CC056C4300EED4
:104FD000104AB8EE400AC2F3051262B103F00303AF
:104FE000022B0CD0012B0DD013B90B689B060CD4EF
:104FF0009FED311A13E00021C0E9001153E09FED4D
:105000002D1A0CE09FED2A1A09E00B682B4CC3F314
:10501000C10324FA03F301EE103AB8EE411A0B6B08
:105020009FED273A6FF35F2302EE103AB8EE422A63
:1050300000EE032A03EE102AB7EE000AB8EE433A58
:105040000A6BC2F3462232EE002A81EE031A21EEE9
:10505000021A02EE102AB8EE422A32EE002A81EE3F
:10506000022ABCEEC22A80ED002A0A6BC2F3064275
:1050700002EE102AB8EE422A32EE002A81EE022A0F
:10508000BCEEC22A80ED012A096BC1F3066102EE73
:10509000101AB8EE422A32EE000A81EE000ABCEE87
:1050A000C00A10EE101A8160B0BD00BF0044025863
:1050B0000024744A001BB74B0024744C0090D003AA
:1050C00000000039B0B53B498B6A8A6ACC6AC4F3E8
:1050D0000014CD6BC5F3CC056C4300EE104AB8EE5E
:1050E000400AC2F30532AAB103F00303022B15D024
:1050F000BBB90B689B0651BF9FED311A0B68C3F318
:10510000C103304C42BF24FA03F301EE103AB8EE6B
:10511000411A08E00021C0E9001148E09FED271A7C
:1051200001E09FED251A8B6B9FED273A6FF35F230C
:1051300002EE103AB8EE422A00EE032A03EE102ADD
:10514000B7EE000AB8EE433A8A6BC2F3462232EE5B
:10515000002A81EE031A21EE021A02EE102AB8EE9E
:10516000422A32EE002A81EE022ABCEEC22A80EDEB
:10517000002A8A6BC2F3064202EE102AB8EE422AD7
:1051800032EE002A81EE022ABCEEC22A80ED012A0C
:10519000896BC1F3066102EE101AB8EE422A32EEB4
:1051A000000A81EE000ABCEEC00A10EE101A8160FF
:1051B000B0BD00BF004402580024744A001BB74B26
:1051C0000024744C0090D00300000039B0B53B4976
:1051D0008B6A8A6ACC6AC4F300244D6CC5F3CC0593
:1051E0006C4300EE104AB8EE400AC2F30552AAB171
:1051F00003F00303022B15D0BBB90B689B0651BF0C
:105200009FED311A0B68C3F3C103304C42BF24FA3F
:1052100003F301EE103AB8EE411A08E00021C0E9AC
:10522000001148E09FED271A01E09FED251A0B6C55
:105230009FED273A6FF35F2302EE103AB8EE422A51
:1052400000EE032A03EE102AB7EE000AB8EE433A46
:105250000A6CC2F3462232EE002A81EE031A21EED6
:10526000021A02EE102AB8EE422A32EE002A81EE2D
:10527000022ABCEEC22A80ED002A0A6CC2F3064262
:1052800002EE102AB8EE422A32EE002A81EE022AFD
:10529000BCEEC22A80ED012A096CC1F3066102EE60
:1052A000101AB8EE422A32EE000A81EE000ABCEE75
:1052B000C00A10EE101A8160B0BD00BF0044025851
:1052C0000024744A001BB74B0024744C0090D00398
:1052D00000000039F8B580F400220A435ED080F463
:1052E00080620A4300F06B8080F400620A4300F0A1
:1052F000738080F480520A4325D080F400520A4320
:1053000030D080F480420A4300F0758080F400427F
:105310000A4300F07F8080F480320A4331D080F469
:105320008070084340F0E4808049086D00F0070277
:10533000042A00F2DD808148DFE812F05B007C0087
:105340008300DB008B007949086DC0F30232042A28
:1053500000F2CE807948DFE812F04C006D00740056
:10536000CC007C007148016DC1F30241052900F2B7
:10537000BF80DFE801F003888F96A05B00F0B0FEED
:10538000B7E06A48C16C0068C90340F1AF80000112
:1053900040F1AE8001A8FFF795FEA4E06348816D5F
:1053A00001F44031B1F5003F00F08B80B1F5803F52
:1053B00000F09380002940F09B8000683BE05B494F
:1053C000886DC0F34252042A00F292805B48DFE805
:1053D00002F01031389040005449886DC0F30262E9
:1053E000042A00F285805548DFE802F003242B836D
:1053F000330008687AE04D48816DC1F302710529D8
:1054000000F27680DFE801F0033F464D5712FFF7C8
:10541000C1FD6EE04548016D01F04051B1F1005F02
:1054200031D0B1F1805F60D0002961D1006840497E
:10543000800343E0086800015AD501A8FFF742FE47
:1054400005E00868800053D501A8FFF7BFFE01986A
:105450004FE0C86C0B6810F04052086802D113F09E
:10546000040322D1B2F1805F02D110F480704DD1DB
:10547000086810F400301CBF43F20060C0F26E10E8
:10548000B2F1005F4EE00068000131D501A8FFF7DE
:1054900019FE33E0006880002AD501A8FFF796FEC8
:1054A0002CE00168490723D50068C0F3C1002249F8
:1054B00021FA00F01DE000681E49C00501EAE07015
:1054C00017E0C16C0368026811F0405118D113F065
:1054D000040315D0C2F3C100E9E70068800007D5D6
:1054E00001A8FFF773FE039803E00068800102D46F
:1054F000002004B080BD01A8FFF75EFD0298F8E728
:10550000B1F1805F04D112F4807201D00948F0E754
:10551000006810F400301CBF43F20060C0F26E104F
:10552000B1F1005F18BF0020E3E700BF004402585C
:1055300000366E0100093D000090D0030080BB00E2
:105540002DE9F0470446C078AC4F000722D5606EC5
:105550004FEA3051032908D8DFE801F002090F179C
:10556000F96941F40031F9610FE0012613E004F11B
:105570000800022104F01EF804E004F128000221D2
:1055800004F094F8064630B9606E396C21F440118D
:105590000843386400266078BA46C00701D1354612
:1055A00029E0A06D04280BD83546DFE800F0030C95
:1055B00012181800F869354640F40030F8610EE022
:1055C0000125012718E004F10800002103F0F2FF93
:1055D00004E004F12800002104F068F805462F4695
:1055E00055B9A06DDAF840100025524621F00701A8
:1055F0000843CAF840003746607840072ED5D4F8F3
:10560000A4004FEA705005280CD8DFE800F0030E24
:10561000141A1A1ADAF81C00514640F40030CAF87D
:105620001C000EE00125012619E004F1080000210C
:1056300003F0C0FF04E004F12800002104F036F874
:1056400005462E465DB9D4F8A400DAF848100025C6
:10565000524621F460010843CAF848003E4660788B
:1056600000072ED5D4F8A8004FEA306005280CD8E2
:10567000DFE800F0030E141A1A1ADAF81C0051467B
:1056800040F40030CAF81C000EE00125012719E0A3
:1056900004F10800002103F08DFF04E004F128006C
:1056A000002104F003F805462F465DB9D4F8A800A0
:1056B000DAF848100025524621F0E0610843CAF8A4
:1056C00048003746E078800725D5E06C4FEA301077
:1056D00003280BD8DFE800F013020D13DAF81C00E2
:1056E000514640F40030CAF81C0008E001250126AC
:1056F00012E004F10800022103F05CFF05462E468B
:1057000055B9E06CDAF83C100025524621F0300122
:105710000843CAF83C003E466078C0062CD5E06DD0
:105720004FEA303004280CD8DFE800F0030E141ADA
:105730001A00DAF81C00514640F40030CAF81C0088
:105740000EE00125012718E004F10800002103F014
:1057500031FF04E004F12800002103F0A7FF054613
:105760002F4655B9E06DDAF840100025524621F475
:10577000E0410843CAF8400037466078800624D5E7
:10578000206E4FEA304005280AD8DFE800F0120307
:105790000C12121204F10800012103F00BFF07E0C4
:1057A0000125012612E004F12800012103F07EFF0B
:1057B00005462E4655B9206EDAF8401000255246AF
:1057C00021F4E0210843CAF840003E4660784006D4
:1057D00029D5D4F8AC004FEA307005280AD8DFE8A4
:1057E00000F015030F15151504F10800012103F051
:1057F000E1FE0AE00125012716E000BF104402582F
:1058000004F12800012103F051FF05462F465DB940
:10581000D4F8AC00DAF848100025524621F0E041F7
:105820000843CAF8480037466078000621D5E06E84
:1058300098B1B0F1005F0AD0B0F1805F2DD1DAF8F5
:105840001C00514640F40030CAF81C0005E004F189
:105850000800012103F0AEFE05462E4655B9E06E64
:10586000DAF840100025524621F040510843CAF8AA
:1058700040003E46E078C00702D1B046574623E0DC
:10588000A06C574603280BD8DFE800F014020E1472
:10589000F86940F40030F8610CE001250126E9E7E1
:1058A00001254FF001080FE004F10800022103F088
:1058B00081FE0546A8463DB9A06CF96B0025B046AF
:1058C00021F003010843F863A078400601D447465D
:1058D00016E0D7F8F00340F48070C7F8F003FEF745
:1058E00063F80646D7F8F003C00507D4FEF75CF866
:1058F000801B6428F6D90325032701E02F4695B1C4
:105900002078C0074FD0A06F4FEAF000052835D8A7
:10591000DFE800F03D03373D3D3D04F10800012183
:1059200003F048FE32E0DAF86010D4F8B0005546D3
:10593000414011F4407F0BD0296E2A6E42F4803230
:105940002A6621F440712A6E22F480322A66296682
:10595000B0F5807F40F05D82FEF726F8064641F202
:1059600088390327DAF86000800700F14F82FEF7DC
:105970001BF8801B03254845F4D9C1E70125012602
:1059800012E004F12800012103F090FE05462E46A6
:1059900055B9A06FDAF844100025524621F03801BD
:1059A0000843CAF844003E462078800722D5606F3D
:1059B00005280AD8DFE800F012030C12121204F1D5
:1059C0000800012103F0F6FD07E00125012712E0A0
:1059D00004F12800012103F069FE05462F4655B960
:1059E000606FDAF844100025524621F007010843A1
:1059F000CAF8440037462078400724D5D4F89000F0
:105A000005280AD8DFE800F012030C12121204F184
:105A10000800012103F0CEFD07E00125012613E077
:105A200004F12800012103F041FE05462E465DB930
:105A3000D4F89000DAF848100025524621F007010A
:105A40000843CAF848003E462078800626D5D4F898
:105A50008C004FEA307005280AD8DFE800F0120306
:105A60000C12121204F10800002103F0A3FD07E05C
:105A70000125012713E004F12800022103F016FE9E
:105A800005462F465DB9D4F88C00DAF8441000259D
:105A9000524621F0E0410843CAF8440037462078D6
:105AA000400626D5D4F898004FEAB02005280AD839
:105AB000DFE800F012030C12121204F108000021BA
:105AC00003F078FD07E00125012613E004F128002A
:105AD000022103F0EBFD05462E465DB9D4F898008F
