:020000040800F2
:1000000050CC0024E10200083D880008D7730008A6
:10001000D187000831090008C9BD000800000000B0
:100020000000000000000000000000000196000831
:100030000D0E0008000000004193000831960008F2
:10004000FB020008FB020008FB020008FB0200089C
:10005000FB020008FB020008FB020008FB0200088C
:10006000FB020008FB020008FB020008490A000826
:10007000FB020008FB020008FB020008FB0200086C
:10008000FB020008FB020008FB020008190E000832
:100090002D0E0008210E0008350E0008FB02000896
:1000A000FB020008FB020008FB020008FB0200083C
:1000B000FB020008FB020008FB020008FB0200082C
:1000C000FB020008FB020008FB020008FB0200081C
:1000D000FB02000809A5000815A5000821A50008D5
:1000E000FB020008FB02000800000000FB02000801
:1000F000FB020008FB020008FB020008FB020008EC
:10010000FB020008FB020008FB020008FB020008DB
:10011000FB020008FB020008FB020008FB020008CB
:10012000FB020008FB020008FB020008FB020008BB
:10013000FB020008FB020008FB020008FB020008AB
:1001400000000000000000000000000000000000AF
:10015000FB020008FB020008FB020008FB0200088B
:10016000FB020008FB020008FB020008FB0200087B
:10017000FB02000891880008FB0200080000000054
:10018000FB020008FB0200082D9B0008FB02000890
:10019000FB020008FB020008FB020008FB0200084B
:1001A000FB020008FB020008FB0200080000000040
:1001B000FB020008FB020008FB020008FB0200082B
:1001C000FB020008FB020008000000000000000025
:1001D0000000000000000000FB020008000000001A
:1001E000000000000000000000000000000000000F
:1001F0000000000000000000FB020008FB020008F5
:10020000FB020008FB02000800000000FB020008DF
:10021000FB020008FB020008FB020008FB020008CA
:10022000FB02000800000000FB02000800000000C4
:10023000FB020008FB02000800000000FB020008AF
:10024000FB020008FB020008FB020008FB0200089A
:10025000FB020008FB020008FB020008FB0200088A
:10026000FB020008FB020008FB020008FB0200087A
:10027000FB020008FB020008FB020008000000006F
:10028000FB020008FB020008FB020008FB0200085A
:1002900000000000FB020008FB0200080000000054
:1002A00000000000FB020008FB020008FB0200083F
:1002B000FDA40008FB020008FB020008410E000834
:1002C000490E0008B1970008FB020008DFF80CD0C7
:1002D00000F09AF800480047CDC2000850CC002436
:1002E0000648804706480047FEE7FEE7FEE7FEE7D0
:1002F000FEE7FEE7FEE7FEE7FEE7FEE719970008E8
:10030000CD0200082DE9F05F0546002092469B468D
:1003100088460646814640241BE02846414647461B
:10032000224600F060F853465A46C01A914110D355
:1003300011461846224600F047F82D1A67EB0108CF
:100340004F4622460120002100F03EF817EB00093D
:100350004E41201EA4F10104DFDC484631462A4606
:100360004346BDE8F09F40EA01039B0703D009E044
:1003700008C9121F08C0042AFAD203E011F8013B91
:1003800000F8013B521EF9D27047D2B201E000F8EA
:10039000012B491EFBD270470022F6E710B5134629
:1003A0000A4604461946FFF7F0FF204610BD30B557
:1003B00004460020034600E05B1C934203D2E05C4D
:1003C000CD5C401BF8D030BD202A04DB203A00FA77
:1003D00002F1002070479140C2F1200320FA03F39C
:1003E000194390407047202A04DB203A21FA02F09A
:1003F0000021704721FA02F3D040C2F1200291405F
:1004000008431946704700001CB509480090094888
:1004100001900546009C06E0E06840F0010394E886
:10042000070098471034AC42F6D3FFF753FF0000A3
:10043000708901089089010810B5044600682F49A9
:1004400040F48070884214BF8A482D48006810F438
:10045000403F0DD005F0C6FA6168B1F5803F05D088
:10046000B1F5403F1FD0B1F5003F1DD1090C17E099
:100470004FF40020002104F097FC6168A1F5802270
:100480004FEAB2420A2A0FD8DFE802F00606060653
:1004900006063230362E34006FF0010202EA514176
:1004A000B0FBF1F000E080081649884204D82068CB
:1004B000816821F4407107E01349884206D820681A
:1004C0000122816862F30921816010BD21680F4B10
:1004D00098428A6804D8022060F309228A6010BD1D
:1004E00042F44070886010BDC009DDE74009DBE7D9
:1004F0000009D9E7000AD7E78009D5E700210240C3
:100500000823024021BCBE0041787D0181F0FA023F
:100510000146806B036E026E13F0500F05D0D206B9
:100520000FD4806DC26C0846104742F4007101661A
:1005300001680B68CA681B0705D4910709D001F050
:1005400005B801F005B812F4406FF8D1C968890404
:10055000F5D4016E21F480710166016EC904EED4F8
:10056000016E41F00101016600F0F0BF806B016E89
:1005700041F040010166416E41F00401416600F026
:10058000E7BF806B00F0E3BFB0B5016804468A683E
:100590008868C0074FF0000020D012F002021DD181
:1005A000886800F00D00012816D188682F4A104095
:1005B000023088600320086003F0C0F80546206818
:1005C0008068C0070BD003F0B9F8401B0328F6D3AE
:1005D00020688068C007F2D008F033FAB0BD002070
:1005E000B0BD00BF2DE9F843044600688168C90723
:1005F00039D11E4E816806F17F02114203D008F006
:1006000020FABDE8F8838168314041F00101816042
:10061000174800F5807800F54277814603F08EF8A0
:10062000054620681349404508BF3946484508BF7C
:1006300039460968404514D00168C90713D181685B
:10064000C90704D18168314041F00101816003F0A4
:1006500075F8411B20680329EED30168C907EBD167
:10066000CDE7C906E8D00020BDE8F883C0FFFF7FD2
:10067000002002400863025800214FF07E52C0E97A
:100680000021C0E902117047ED4B91ED003A91ED68
:10069000014A91ED025A93ED0E0A93ED0F1A93ED74
:1006A000102A74EE410A35EE421A33EE400AD2ECBB
:1006B000031A07F0BBBF00BF01200BF03EFEFBE7B3
:1006C0000C480121012203F034B800BF0948012180
:1006D000002203F02EB800BF704700000548082133
:1006E000012203F026B800BF02480821002203F0CF
:1006F00020B800BF00080258704710B50446200417
:1007000008BF10BD4FF47A7000F002F8013CF6E724
:10071000B0B50A49C0EB0010002340010A684C68DC
:100720004D68A542FCD023445B1BA54228BF13445F
:100730002C46834228BFB0BDF2E700BF14E000E0C2
:1007400010B5FFF7C9FFFFF7D7FF0BF0C7FB044653
:100750000BF038FC204310BD2DE9FE434FF000099B
:1007600090460E460546CDE90099FFF7AFFF92206F
:1007700000F08CF86F4612200622394600F06AF825
:10078000FFF79EFFBDF90000304CBDF90420BDF914
:10079000021001EE100A94ED000A08F08FF886EDC1
:1007A000000A00EE101A94ED001A08F0A3FB86ED83
:1007B000010A86ED021AFFF797FF0020394608224A
:1007C00000F048F8FFF78AFF9DF800000F2817D1C6
:1007D000BDF90200BDF9062094ED010ABDF904102F
:1007E00001EE100A08F06AF885ED000A00EE101A12
:1007F00094ED011A08F07EFB85ED010A85ED021AE1
:10080000FFF764FFA22000F041F86946222002228F
:1008100000F020F8FFF754FF9DF800009DF801104C
:100820000B4AB4EE001AB3EE072AC00040EA511199
:10083000B9EB902F18BF114300EE101AB8EEC00AA2
:10084000A0EE012A88ED002ABDE8FE830400002402
:1008500000F8FFFFB0B540F0800014460D4600F0F0
:1008600015F8200608BFB0BD552000F00FF805F8B8
:10087000010B013CF5E710B540F080000C4600F09C
:1008800005F8552000F002F8207010BDE0B58DF895
:1008900007004FF47A7000900DF107010DF1060288
:1008A0000123034805F075FE9DF806008CBD00BFCE
:1008B0006476002410B50C46FFF7E8FF2046BDE83B
:1008C0001040FFF7E3BF00000148042106F0DCB947
:1008D000C077002410B502F031FF044612484FF4EF
:1008E000004102F021FF114A0146107802280ED083
:1008F000012807D048B941B90120107004F1640003
:10090000906002E09068844205D2002010BD002073
:10091000012902D010BD11B10020107010BD0220BD
:100920001070012010BD00BF000002581801002403
:10093000FEE70020704700207047000010B5204CF3
:1009400005490022204609F080FF0449204609F0AD
:100950006FFF002010BD00BF685A002468520024B9
:10096000BCB5174D0C460146284609F061FF2846E4
:1009700009F03CFF002001900448006801A90CF038
:1009800049FE0349206808800020BCBDB80100244E
:1009900008420024002070470A4601460848D0F863
:1009A000BC02D0F8140208B10120704710B5044C05
:1009B000204609F04AFF2046BDE8104009F0BABFC2
:1009C000D06A00242DE9F0412DED0C8B9FED1B8AA0
:1009D0001B4F4FF47A74B0EE48AAB0EE489A07F174
:1009E000140807F1200507F11006ACB1404629466E
:1009F0003246FFF7B1FE012097ED05BA97ED06CA22
:100A000097ED07DA0BF099FC3AEE0DAA38EE0C8A56
:100A100039EE0B9A013CE8E79FED0A0A8AEE001ACC
:100A200088EE002A89EE000A87ED0E0A87ED0F2A6C
:100A300087ED101ABDEC0C8BBDE8F08100000000C2
:100A40005001002400007A44014801F003BA00BFBD
:100A50001C6E00240168254A914223D0244A914209
:100A60001CBF244A91421DD0234A91421CBF234AF5
:100A7000914217D0224A91421CBF224A914211D082
:100A8000214A91421CBF214A91420BD0204A9142F7
:100A90001CBF204A914205D01F4A91421CBF1F4AE9
:100AA000914216D110B501F0F80218231FA4103A94
:100AB000B2FBF3F303F00703E35CC36540F2FF33DB
:100AC00099435F2A88BF0431BDE81040816508461C
:100AD0007047134A9142E5D0124A9142E2D0124A3D
:100AE0009142DFD021F0FF01F0E700BF100002408B
:100AF00028000240400002405800024070000240BE
:100B000088000240A0000240B800024010040240E9
:100B1000280402404004024058040240700402408D
:100B200088040240B8040240A004024000061016E7
:100B30000006101610B50168AC4A91420BD0AC4AC1
:100B400091421CBFAB4A914205D0AB4A91421CBFB7
:100B5000AA4A914213D101F0FC011422154B083925
:100B6000B1FBF2F203F1800103EB820302F01F02FA
:100B70000124C0E9183104FA02F2826610BDA04ACD
:100B80009142E8D09F4A9142E5D09F4A9142E2D0FB
:100B900001F0F8021823084C103AB2FBF3F3A1421B
:100BA0001A4688BF0832AA34A14228BF1A46034B0E
:100BB000D8E700BF005802580F0402400008024066
:100BC00001794A1E072A1DD870B5154B0568874E56
:100BD00003F14404B5420BD0854EB5421CBF854E8F
:100BE000B54205D0844EB5421CBF844EB5420AD1F1
:100BF000012503EB8101C0E91B1405FA02F24267EB
:100C0000BDE8704070477E4EB542F1D07E4EB54291
:100C1000EED07C4EB5421CBF024B03F14404E7E723
:100C2000FC580258FC080240F0B5964604685F4A3A
:100C3000D0F858C094423BD05D4FBC421CBF5D4FC2
:100C4000BC4235D05C4FBC421CBF5C4FBC422FD075
:100C50005B4FBC421CBF5B4FBC4229D05A4FBC42C9
:100C60001CBF5A4FBC4223D0594FBC421CBF594FE6
:100C7000BC421DD0584FBC421CBF584FBC4217D07D
:100C8000574FBC421CBF574FBC4211D0564FBC42BD
:100C90001CBF564FBC420BD0554FBC421CBF554FDA
:100CA000BC4205D0544FBC421CBF544FBC4267D11C
:100CB000C66ED0E919757D6016B1D0E91C566E601C
:100CC000944229D03A4A94421CBF3A4A944223D0D3
:100CD000394A94421CBF394A94421DD0384A944242
:100CE0001CBF384A944217D0374A94421CBF374A37
:100CF000944211D0364A94421CBF364A94420BD0DB
:100D0000354A94421CBF354A944205D0344A944235
:100D10001CBF344A944217D18268C06D3F2500F051
:100D20001F0005FA00F0CCF80800206820F48020AD
:100D30002060402A636003D1C4F808E0E160F0BDA0
:100D4000A160C4F80CE0F0BD2E4A94421CBF274AB3
:100D500094420BD0264A94421CBF264A944205D0A6
:100D6000254A94421CBF254A944214D18268C06D22
:100D7000012500F01F0005FA00F0CCF80400D8E7C8
:100D80001F4FBC4294D01F4FBC4291D01E4FBC425B
:100D90003FF48EAFD7E71A4A9442E7D01A4A9442FA
:100DA000E4D0114A9442B7D0CDE700BF1000024012
:100DB00028000240400002405800024070000240FB
:100DC00088000240A0000240B80002401004024027
:100DD00028040240400402405804024070040240CB
:100DE00088040240A0040240B8040240085402589B
:100DF0001C54025830540258445402585854025853
:100E00006C54025894540258805402587047EFF3BF
:100E1000108072B6FEE70000034801F02FBF00BF4C
:100E2000014801F02BBF00BF946E0024034801F07D
:100E300025BF00BF014801F021BF00BF346F00246F
:100E4000034801F01BBF00BF014801F017BF00BFFE
:100E5000D46F0024F0B5D1E900478D680E6927B141
:100E60002C43344344F0804C03E046EA844444EA93
:100E7000050C856ED0F88400D1F80CE0D1E9056747
:100E80006B43D1E9074540F823C000EB830044EAF7
:100E90000563084C3B43334343EA0E034360083089
:100EA0000023CD89655DAB4228BFF0BDD558C55044
:100EB0000433F6E738180108144C1548154D05227F
:100EC000E11CA84704F1080113480522A84704F1D2
:100ED0000D0112480522A847114C124D0021204651
:100EE000A84720460821A8470F4C00212046A847C4
:100EF00020460821A8470D4841F2883101608160F1
:100F00000160816064200BF018FAFBE7A401002463
:100F1000F078002419730008407B002484790024B1
:100F200074770024896C00080C7800243400014098
:100F3000F8B52DED088B90ED011A90ED022ABFEE69
:100F4000008A90ED000A90ED033AB0EE009A1C463C
:100F500016460F46054621EE014A21EE021AF0EE32
:100F6000480AA0EE004AA0EE031AE4EE090A31EEA8
:100F7000010A0DF031F89FED1BAA9FED1BBA07F097
:100F80009CFD87ED000A07F0A7FC95ED033A20EEE3
:100F9000420AA1EE030AB8EE001A20EE010A0CF094
:100FA00085FF07F08AFD86ED000A95ED033A07F00C
:100FB00093FC23EE034A22EE032AA0EE004AA0EEA1
:100FC000012AA4EE098A32EE020AF0EE480A0DF078
:100FD00003F807F072FD84ED000ABDEC088B01B048
:100FE000F0BD00BF00003443560E49407CB50446B6
:100FF0000020019094F85C00012804BF02207CBD11
:10100000012084F85C0016460D4607F09CFF216E17
:1010100010B141F0100127E041F20212914305F4B2
:101020008032144D0231216606F080410A44216865
:101030008B682B401A4402F100428A600E4A8B688A
:10104000B3F1FF3F0CDC019B01330193019B934201
:10105000F5D3206E40F0100020F00201012003E0E3
:10106000216E012262F30101002284F85C202166D6
:101070007CBD00BFC0FFFE3F00F8C32590F85C2098
:10108000012A01D1022130E0BCB500220192009278
:1010900003681F4A93421ED1D2F808319468234353
:1010A0005B0718D40B68D2F8084324F44044F3B12A
:1010B0004D682C43C2F808439468D2F808512C4379
:1010C000E40723D1D2F8084340F61F758968AC4382
:1010D0002143194318E0016E41F02001016601210E
:1010E000002280F85C20BDE8BC4008467047C2F88A
:1010F00008439168D2F808311943C90706D1D2F8DC
:10110000081340F61F739943C2F808130021E7E75C
:10111000002002402DE9F84304460020009094F896
:101120005C00012802D10220BDE8F883012084F888
:101130005C000D4620688168490700F1C181E44BDD
:101140002A68E44E98424FEA9261984610D092FA8B
:10115000A2F33242B146B3FA83F308BF930E03F011
:101160001F02012303FA02F2C3691A43C26100E0BD
:10117000B1466A681F2701F01F0102F01F03C2F386
:1011800001229F40994000EB8202166BBE4331431F
:10119000116307F073FD16D12968AA6806F0F2FC06
:1011A00021684746414510D0E248006800F0704091
:1011B000B0F1805F30D1C8680E2202EA50006A693F
:1011C00002FA00FC34E04746E3E0F8682A69042AA2
:1011D00059D1386E0E6E2B684A4613EA090CC3F3D8
:1011E000846093FAA3F3C6F38466B3FA83F31F46CD
:1011F00008BF0746BE4240F09880086E914620F036
:10120000004008662B6803EA020CC3F3846093FA7B
:10121000A3F3B3FA83F389E06869CB68CA6852081C
:10122000DB064CBF02F0080202F00E0200FA02FCDC
:101230002A696046042A2ED128680A6E800602F0C8
:10124000F842824203D10A6E22F000420A664A6ED8
:1012500002F0F842824203D14A6E22F000424A660E
:101260008A6E02F0F842824203D18A6E22F0004276
:101270008A66CA6E02F0F84282423BD1C86E20F004
:101280000040C86636E006234FF0004C03EA9000A9
:101290006B6903FA00F02E6801F1600306F0F8466E
:1012A00053F82270414518BF07F0004046EA0C068B
:1012B000304343F82200286941451DD053F82020CF
:1012C00095F821702E7E22F00042012F08BF02F116
:1012D000004243F820204746701E2A69B0FA80F089
:1012E00002F01F024009C00290400A6922F4F04255
:1012F0001043086108464CE008F16002E96947467E
:1013000052F8203023F08073194342F820102869E6
:1013100052F8201095F8203021F00071012B08BF01
:1013200001F1007142F8201032E091461E46BCF1F6
:10133000000F08BF06464F6E4F6EC7F38467B74273
:1013400005D1486E20F00040486607F0DCFE1E46DE
:10135000BCF1000F08BF06468F6E8F6EC7F384671F
:10136000B74205D1886E20F00040886607F0CBFEBA
:10137000BCF1000F08BF0346C86E4746C86EC0F3F5
:1013800084609842404604D1C86E20F00040C86690
:1013900038468168C9075BD100F1C001B84208BF77
:1013A00007F1B001EB682A680E6803F0180302EA3F
:1013B000090729FA03F3BE431A4032430A60E96879
:1013C0005D4A914240D129684F4611EA090F1BD06E
:1013D00091FAA1F1B1FA81F2531C910603F01E06B5
:1013E000092E19D8013201F1806103F01F03012693
:1013F00002F01F0201F0F84106FA03F302EB420289
:1014000041EA025119431CE0012202EB91638A0E6A
:1014100003F01E060A2EE5D3013203F01F03012656
:1014200001F1806102F01F0206FA03F3434E01F05E
:10143000F84102EB420206EB02521143194341F01C
:101440000071AA6806F09EFB2968B1F1FF3F01DD3B
:10145000002037E0C7482268C74E474600F5807332
:1014600042F480759A42434604BF42F20003C4F23C
:101470000203824208BF1346B542D3F8083311BFB6
:10148000B8688568D0F808012843C00718D12C48EF
:1014900003F0E075814208BF13F400001CD0294816
:1014A000814233D10020B0EB156F2FD1BA4209D160
:1014B000D7F8080320F0E070284340F0807035E052
:1014C00007F0D8FE002184F85C10BDE8F88300BF67
:1014D00000600258FFFF0F00BA42B9D1D7F80803E5
:1014E000A34920F0E070284340F40000C7F8080347
:1014F0009E480068B0FBF1F0022101EB4000009033
:1015000000980028A4D000980138F8E70020BA42DB
:10151000D8D10D4A914208BF13F48001D2D1D7F837
:10152000080320F0E070284340F48000C7F8080367
:101530008EE700BF0010005C0000FF47000020FEA7
:10154000000052C7000021C3000084CB70477047E1
:1015500070470000F8B504460020009094B3206E58
:1015600028B9204600F014F907F0FAFB60662068FD
:10157000816889007C4902D582680A40826082685D
:10158000D20012D401F1805182681140784A41F0B2
:101590008051816075490968B1FBF2F10131009118
:1015A000009911B100990139F9E78168C9000BD49C
:1015B000216E012541F010012166616E41F00101AB
:1015C000616602E00125BDE000258168226E01F020
:1015D000040102F010028918216E2DD121F48171CD
:1015E000023121668168C907EA491DD140F4807340
:1015F000614EE74AB34211BF8B689368D2F8086125
:101600003343DB0710D102F5807398420B4608BFC5
:101610001346904208BF0346D3F80823666822F4B5
:101620007C123243C3F80823627EE36B884243EAAC
:10163000423205D0A36815E041F01000012580E09A
:10164000D4E90263082E07D00C2E03D01C2E05D13E
:10165000102606E0082604E0002602E0182E18BF37
:10166000002633431A4394F82030012B42EA034208
:1016700004D1636A414E06EB43431A43A36A23B184
:10168000E66A03F4787333431A43884205D0C3688B
:101690003B4E33401A43C2600AE0CB68394E3340B8
:1016A0001A43CA60626B0B6923F040631A430A61F4
:1016B00007F0B8FA36D1227E44F20306920388423C
:1016C00019BF236B1A4394F8383042EA4302C368C7
:1016D000B3431A43C26094F84420012A13D12A4A22
:1016E000884231D004F1480C9646284A9CE8C8103C
:1016F00002EB0342036903EA0E0333431A433A43FE
:1017000042EA0C0202E0026922F001020261226C4C
:10171000036923F070431A430261884202D02046D5
:10172000FEF78AFE20682269012A016B21F00F0171
:1017300002D1E269013A114301630121206E61F394
:10174000010020662846F8BD04F148070B6903EA4A
:10175000020C626DC8CF43EA0C0333433B431A4388
:1017600042F001020A61D2E7C0FFFF5F14000024CB
:10177000400D030000200240002102400000FEFF57
:1017800003C0F0FF0740F0FF1EF800FC0100FFFF60
:101790002DE9F043B5B0044630A81421FEF7FCFD56
:1017A00002A890212830FEF7F7FD2068784988428A
:1017B00064D14FF40020029000270397CDE90A7707
:1017C0004FF01008C020099002200890CDE90600D3
:1017D000CDE9040802A803F01BFC08B1FFF717FBD2
:1017E00028484FF00309284D016841F020010160AD
:1017F000016801F0200101910199816841F0010126
:101800008160816801F0010101910199816841F0D5
:1018100004018160806800F0040001900198329713
:10182000CDF8C4902020309030AE2846314601F0EB
:10183000AFFE05F5006031463297CDE9308901F001
:10184000A7FE124D124809264FF4807C4FF48063A6
:101850004FF400514FF4006285E8C1002846C5E905
:101860000877C5E90373C5E90521C5F81CC000F078
:1018700097FD08B1FFF7CBFAAC63A56535B0BDE8BD
:10188000F08300BFD8440258000002581C6E0024A8
:10189000100002402DE9F84304463D483D4F904674
:1018A000894600F580753A462168A94204BF42F294
:1018B0000002C4F20202814208BF0A4642F44270AA
:1018C00000688968490703D494F85C10012902D1A3
:1018D0000220BDE8F88310F01F064FF0010084F8E5
:1018E0005C0018BF092E32D12046FEF77BFE80BB7C
:1018F0002168206E40F60172904300F580702066EA
:101900000EB1A94203D0206E20F480102066206E14
:101910000022234BC00444BF626E22F006026266BE
:101920001C220A6007F01CFAA06D1B4AB942C2646F
:101930001A4AC0E90F324A6842F010024A600ED0DB
:10194000226BCB6823F003031A43CA6013E0052E11
:10195000CAD0002084F85C000120BDE8F88394F828
:101960003820FB6823F0030343EA4202FA60FA6876
:1019700042F00102FA6040314A46434600F0C0FEA0
:101980002168084B8A681A4004328A60BDE8F883EF
:1019900000200240006002586D0500088305000821
:1019A00011050008C0FFFF7FF8B5044601F0C6FE30
:1019B000002C00F09080054694F83500022840F095
:1019C0008C802768A04EB74224D0A04887421CBF15
:1019D0009F4887421ED09F4887421CBF9E4887422F
:1019E00018D09E4887421CBF9D48874212D09D4810
:1019F00087421CBF9C4887420CD09C4887421CBF32
:101A00009B48874206D09B4887421CBF9A48874222
:101A100040F0E780386820F01E01384640F8141B7B
:101A20006FF08001026811400160B7423CD0F2487B
:101A300087421CBFF148874236D0F14887421CBF1D
:101A4000F048874230D0F04887421CBFEF488742B9
:101A50002AD0EF4887421CBFEE48874224D0EE4888
:101A600087421CBFED4887421ED0ED4887421CBF0D
:101A7000EC48874218D0EC4887421CBFEC488742AC
:101A800012D0EA4887421CBFEA4887420CD0EA4895
:101A900087421CBFE948874206D0E94887421CBFFD
:101AA000E848874240F0B980206E016821F48071D7
:101AB0000160386820F0010038603868C00710D035
:101AC00001F03CFE401B0628F7D320206065032070
:101AD00084F8350003E00120F8BD80206065012016
:101AE0007CE0206808213F22B04223D0C24B9842BC
:101AF0001CBFC24B98421DD0C14B98421CBFC14B6A
:101B0000984217D0C04B98421CBFC04B984211D08E
:101B1000BF4B98421CBFBF4B98420BD0BE4B984264
:101B20001CBFBE4B984205D0BD4B98421CBFBD4B5D
:101B3000984266D1D4E9163505F01F05AA405A50DF
:101B4000B0423BD0AC4988421CBFAC49884235D03A
:101B5000AB4988421CBFAB4988422FD0AA49884272
:101B60001CBFAA49884229D0A94988421CBFA9495B
:101B7000884223D0A84988421CBFA84988421DD06A
:101B8000A74988421CBFA749884217D0A649884266
:101B90001CBFA749884211D0A44988421CBFA5494F
:101BA00088420BD0A44988421CBFA449884205D072
:101BB000A34988421CBFA34988423BD1E06ED4E9C7
:101BC00019124A6030B1016821F480710160D4E9D2
:101BD0001C014160012084F83500002007F0AFF9B6
:101BE000F8BD914887423FF415AF904887423FF4D3
:101BF00011AF8F4887423FF40DAF6FF00E013846AA
:101C000010E7894B984295D0894B984292D0874BE8
:101C100098421CBF042101228CE78B4887423FF485
:101C200043AF8A4887423FF43FAF894887423FF439
:101C30003BAF3EE784498842C0D084498842BDD04A
:101C400083498842BAD0C5E710000240280002400C
:101C500040000240580002407000024088000240EC
:101C6000A0000240B80002401004024028040240D4
:101C700040040240580402407004024000285FD033
:101C800090F83510022959D1B0B50168594A9142EE
:101C900023D0594B99421CBF584B99421DD0584BE9
:101CA00099421CBF574B994217D0574B99421CBFC2
:101CB000564B994211D0564B99421CBF554B9942F5
:101CC0000BD0554B99421CBF544B994205D0544BF5
:101CD00099421CBF534B994235D1042380F83530CB
:101CE000914223D0444881421CBF444881421DD0C8
:101CF000434881421CBF4348814217D04248814239
:101D00001CBF4248814211D0414881421CBF41481A
:101D100081420BD0404881421CBF4048814205D0DF
:101D20003F4881421CBF3F4881424FD1086820F0A4
:101D3000010008600021BDE8B04002E0802141655B
:101D4000012108467047384B9942C6D0374B99421B
:101D5000C3D0374B9942C0D00A6822F00E020A6005
:101D60000A6822F001020A60324A91420BD0324ADC
:101D700091421CBF314A914205D0314A91421CBF69
:101D8000304A91422BD100F158041ECC1D6825F435
:101D900080751D6002F01F02012303FA02F24A60FF
:101DA000816E6160C16E31B10A6822F480720A608E
:101DB000D0E91C124A60002180F83410012280F81A
:101DC0003520026D002AB6D09047B3E7164881420D
:101DD000ACD016488142A9D015488142A6E71A4ADC
:101DE0009142D0D0194A9142CDD0194A9142CAD0DD
:101DF000E1E700BF1000024028000240400002401E
:101E0000580002407000024088000240A0000240DA
:101E1000B80002401004024028040240400402407E
:101E2000580402407004024088040240B804024092
:101E3000A0040240085402581C540258305402585E
:101E400044540258585402586C540258945402583E
:101E5000805402582DE9FC41044600200190D64FE1
:101E6000DFF8E404A56DD0F8008020682E682968AA
:101E7000B8422AD0D14A90421CBFD14A904224D0C5
:101E8000D04A90421CBFD04A90421ED0CF4A9042C6
:101E90001CBFCF4A904218D0CE4A90421CBFCE4AB7
:101EA000904212D0CD4A90421CBFCD4A90420CD0F5
:101EB000CC4A90421CBFCC4A904206D0CB4A9042BA
:101EC0001CBFCB4A904240F09581E16D082201F0A1
:101ED0001F018A40324235D00423BC46B84224D088
:101EE000B64FB8421CBFB64FB8421ED0B54FB8422D
:101EF0001CBFB54FB84218D0B44FB8421CBFB44F46
:101F0000B84212D0B34FB8421CBFB34FB8420CD046
:101F1000B24FB8421CBFB24FB84206D0B14FB84220
:101F20001CBFB14FB84240F0908107681F4267461E
:101F300008D0036823F004030360AA60626D42F0D6
:101F40000102626501228A4032422ED0B84224D07A
:101F50009A4B98421CBF9A4B98421ED0994B98427C
:101F60001CBF994B984218D0984B98421CBF984B75
:101F7000984212D0974B98421CBF974B98420CD076
:101F8000964B98421CBF964B984206D0954B984270
:101F90001CBF954B984240F0658143691B0604D5F0
:101FA000AA60626D42F00202626504228A403242F7
:101FB0002ED0B84224D0814B98421CBF804B98420F
:101FC0001ED0804B98421CBF7F4B984218D07F4B4D
:101FD00098421CBF7E4B984212D07E4B98421CBF49
:101FE0007D4B98420CD07D4B98421CBF7C4B984255
:101FF00006D07C4B98421CBF7B4B984240F04081FE
:1020000003689B0704D5AA60626D42F00402626512
:10201000102202FA01F131423ED00822B84224D007
:10202000CA4B98421CBFCA4B98421ED0C94B98421B
:102030001CBFC94B984218D0C84B98421CBFC84B14
:10204000984212D0C74B98421CBFC74B98420CD045
:10205000C64B98421CBFC64B984206D0C54B98420F
:102060001CBFC54B984240F019810368134213D03E
:10207000A96002680168520306D4C90506D4016844
:1020800021F00801016001E0080301D4216C00E0A7
:10209000A16C09B120468847E06D00F01F012020A7
:1020A00000FA01F232425BD020681023B84224D0FB
:1020B000A64EB0421CBFA64EB0421ED0A54EB042A6
:1020C0001CBFA54EB04218D0A44EB0421CBFA44EB7
:1020D000B04212D0A34EB0421CBFA34EB0420CD0AF
:1020E000A24EB0421CBFA24EB04206D0A14EB0429A
:1020F0001CBFA14EB04240F0DE8006681E422FD0C9
:10210000AA6094F835300268042B15D122F016022B
:102110000260426922F080024261226C0AB9A26C1C
:102120001AB1026822F0080202603F208840A860CD
:1021300006F016FD216D38E00168520308D4C90588
:102140000AD4016821F01001016006F009FD03E0E6
:10215000080301D4616C00E0E16B09B120468847B7
:10216000606D00286FD0606DC0071DD04FF4165011
:10217000B8FBF0F1042084F835002068026822F0F2
:1021800001020260019A013201928A4202D8026879
:10219000D207F7D106F0D3FE0068C0074FF0030066
:1021A00008BF012084F83500E16C00294BD020469F
:1021B000BDE8FC41084700BF100002402800024073
:1021C0004000024058000240700002408800024077
:1021D000A0000240B800024010040240280402405F
:1021E0004004024058040240700402408804024047
:1021F000A0040240634A90421CBF634A90420CD044
:10220000624A90421CBF624A904206D0614A9042A4
:102210001CBF614A904240F08980E26D02F01F03CA
:10222000042202FA03F602680E4201D057074FD487
:1022300002269E400E4201D0970753D4D940090789
:1022400001D5110760D4BDE8FC814C4FB8423FF482
:102250006CAE4B4FB8423FF468AE504FB84218BF17
:10226000082362E6454B98423FF497AE444B9842B0
:102270003FF493AE494B98423FF48FAE026894E628
:102280003E4B98423FF4BCAE3D4B98423FF4B8AE53
:10229000424B98423FF4B4AE0268B9E6374B9842DD
:1022A0003FF4E3AE364B98423FF4DFAE3B4B9842EF
:1022B00018BF0422D9E6314EB0423FF41EAF304E73
:1022C000B0423FF41AAF354EB04218BF022314E7B4
:1022D00011046E6012D4910614D4016821F0040137
:1022E00001600FE011046E601AD491061CD40168DD
:1022F00021F00A01016006F033FC15E0D00301D49F
:10230000A16C52E7216C50E7016821F00E010160D9
:10231000012000FA03F16960606506F010FE41E7F4
:10232000D00301D4616C40E7E16B3EE7F04A904294
:102330003FF473AFEF4A90423FF46FAFEE498842EB
:102340003FF4C3AD7FE700BF140000242800024023
:1023500040000240580002407000024088000240E5
:10236000A0000240B80002401004024028040240CD
:1023700040040240580402407004024088040240B5
:10238000A004024094540258085402581C540258A5
:10239000305402584454025858540258B804024069
:1023A0002DE9F843044601F0C9F9002C46D0054652
:1023B0002068C04FB8422AD0BF4988421CBFBF49DD
:1023C000884224D0BE4988421CBFBE4988421ED0E4
:1023D000BD4988421CBFBD49884218D0BC498842CB
:1023E0001CBFBC49884212D0BB4988421CBFBB49B4
:1023F00088420CD0BA4988421CBFBA49884206D0EC
:10240000B94988421CBFB949884240F0F380022193
:1024100084F8351006F093FD016821F00101016098
:1024200020680168C9070CD001F088F9401B062814
:10243000F6D320206065032084F835000120BDE834
:10244000F8830168AD4AB946D4E90257D4E906C316
:1024500001EA0208D4E90462D4E9081E45EA080545
:102460003D4335432A431A43114341EA0C01BEF16F
:10247000040F03D1D4E90B231A43114365684F4677
:10248000A5F12902062A0CD3A5F13F02042A08D39C
:10249000A5F14702022A04D3A5F14F02042A80F0D5
:1024A000A18041F480110160BEF1040F416921F067
:1024B000070141EA0E0128D1D4E90A53294323B385
:1024C000BCF5005F08D0BCF1000F11D1022D12D075
:1024D000012D07D07DB118E0032D16D8DFE805F0F7
:1024E0000E0B0E02A3F1C072B2FA82F2520904E09E
:1024F000032D03D309D1C3F3006232B140206065DC
:10250000012084F83500BDE8F88341612046FEF7DC
:10251000A1FAE16D3F2201F01F0102FA01F1816091
:102520002068B8423BD0E94988421CBFE84988424C
:1025300035D0E84988421CBFE74988422FD0E74997
:1025400088421CBFE649884229D0E64988421CBF20
:10255000E549884223D0E54988421CBFE4498842C6
:102560001DD0E44988421CBFE349884217D0E349A3
:1025700088421CBFE349884211D0E14988421CBF10
:10258000E14988420BD0E14988421CBFE0498842BA
:1025900005D0E04988421CBFDF4988427DD12046F2
:1025A000FEF7C8FAA06804F16003802806BF002087
:1025B00060606068C5B20ECB013807280D605360BB
:1025C00005D82046FEF7FCFA06F0FEFD03E00020E9
:1025D000C4E91B00606700206065012184F83510A4
:1025E000BDE8F883732D7FF65EAF782D38BF41F4D8
:1025F000801158E7CA4988421CBFC34988420BD0A2
:10260000C24988421CBFC249884205D0C14988429C
:102610001CBFC149884234D1022104F1080584F865
:10262000351006F08CFC2ECD06686FF3101646EAC6
:10263000D202A1F18006B6FA86F67609B6034029E1
:1026400008BF102642EA0601D4E9066232432A4353
:102650001A4341EAD201226A41EA121140F80819EC
:10266000C0B21421B0FBF1F08000E0652046FEF717
:10267000F1F9E16D012201F01F0102FA01F141605F
:102680004EE7A6498842C7D0A6498842C4D09C4993
:1026900088423FF4BCAE4020CCE6A04988423FF4DB
:1026A0007EAF9F4988423FF47AAF9E4988423FF40B
:1026B00076AF90E710000240280002404000024040
:1026C000580002407000024088000240A000024012
:1026D000B8000240100402402804024040040240B6
:1026E000580402407004024088040240A0040240E2
:1026F0006C54025880540258B80402403F8010FEC7
:1027000028B1B0B506F0B1FD03D10220B0BD012063
:10271000704706F0F1FC40F0AA8006F081F92068CD
:102720006949884224D0694A90421CBF684A904255
:102730001ED0684A90421CBF674A904218D0674A30
:1027400090421CBF664A904212D0664A90421CBF1B
:10275000654A90420CD0654A90421CBF644A904240
:1027600006D0644A90421CBF634A904240F0818088
:1027700002680B2363F344020260226C1AB1082240
:1027800003681A43026088423BD0504A90421CBF03
:102790004F4A904235D04F4A90421CBF4E4A904219
:1027A0002FD04E4A90421CBF4D4A904229D04D4AEC
:1027B00090421CBF4C4A904223D04C4A90421CBFCE
:1027C0004B4A90421DD04B4A90421CBF4A4A90420D
:1027D00017D04A4A90421CBF4A4A904211D0484AF8
:1027E00090421CBF484A90420BD0484A90421CBFBE
:1027F000474A904205D0474A90421CBF464A904201
:1028000057D1226E1368DB0303D5136843F480733A
:102810001360E26E1AB1136843F480731360884248
:1028200023D02A4988421CBF294988421DD0294902
:1028300088421CBF2849884217D0284988421CBFBB
:102840002749884211D0274988421CBF264988421F
:102850000BD0264988421CBF2549884205D025490E
:1028600088421CBF244988421AD106F0FEBB06F0FC
:10287000CCBA224A90423FF47BAF214A90423FF4C7
:1028800077AF204A90423FF473AF0268052363F3A9
:1028900043020260226C002A3FF475AF04226FE706
:1028A00016498842E1D016498842DED0154988424F
:1028B000DBE71A4A9042A4D0194A9042A1D0194AA3
:1028C00090429ED0D1E700BF100002402800024095
:1028D0004000024058000240700002408800024060
:1028E000A0000240B8000240100402402804024048
:1028F0004004024058040240700402408804024030
:10290000B8040240A0040240085402581C54025863
:102910003054025844540258585402586C540258C7
:102920009454025880540258B0B5044600F006FF93
:1029300005460548611C007818BF044400F0FEFEFF
:10294000401BA042FAD3B0BD0C00002490F8983090
:10295000013B012B0CD80068836D0B420DD0836DB9
:102960000B408B4212BF0323C36D43F0020307E009
:1029700000F19C010120022219E0C36D43F0010324
:10298000C3658B0504D5D0F8E0301343C0F8E030C0
:102990004B0504D5D0F8E4301A43C0F8E420054ACA
:1029A000436D0A401A43426500208A0F024906F02F
:1029B00062BB00BFFFFFCF3F14A80040B0B5044684
:1029C00090F8980002281AD12068D0F8C03013F08F
:1029D0007C5F19D0D0F8C4309B021AD4D0F8C40060
:1029E000C0F3044520462B46FEF734FA0120216847
:1029F000A840C4F89400C1F8D0000020B0BDD4F8BD
:102A00009C0040F0080008E0D4F89C0040F0200052
:102A100003E0D4F89C0040F40070C4F89C0001204E
:102A2000B0BD704790F89830012B0CD112060068A9
:102A300001290AD089B9D0F8F01021F07C51114356
:102A4000C0F8F01010E006F095B8D0F8A01021F012
:102A5000FE411143C0F8A01006E0D0F8B01021F0FC
:102A6000FE411143C0F8B0100020704790F8982044
:102A7000013A012A15D8B0B50A68CB68BAB10A691B
:102A8000072B42EA43720FBF8B698B684C6944EA9B
:102A900083734968006F40F8312000EBC100436048
:102AA0001EE0D0F89C1041F0020106F0B6B9072BE9
:102AB00009D10A69D1E90634120442EA04221A4310
:102AC00042F0605208E08A68D1E90445920742EA80
:102AD000C36242EA04422A434968C06E40F821209A
:102AE0000020B0BD10B590F89840012C0BD1920099
:102AF0000068029C42EA011141EA43012143C0F807
:102B00008010002010BD06F0D2BB70477047000057
:102B1000F0B590F89840022C18D140291BD10468D8
:102B2000D4F8A05015F4FE0F7DD0D4F8A4506D0653
:102B300000F08480D4F8A450ED0148BFD4F8A05030
:102B4000466CD4F8A44000F174051BE0D0F89C104A
:102B500041F0080176E0412918D10468D4F8B0505A
:102B600015F4FE0F5FD0D4F8B4506D0666D0D4F8DB
:102B7000B450ED0148BFD4F8B050C66CD4F8B4409E
:102B800000F17805C4F30527BC4608E0046D8C42CB
:102B900049D9476D00F17C054FF0000C0E4606FB4D
:102BA00007F42D6855F8246016F08046566055F8F5
:102BB000246026F0604708BFC6F38A47176055F8BF
:102BC0002460002706F00056966055F8246005EB57
:102BD000840406F000461661A588D561656805F491
:102BE0007025D560666806F480165661666806F43E
:102BF00000169661E67906F07F0616626668F60FA3
:102C0000566204F108061B4C2D0C655DAF4204D2E0
:102C1000F55DDD550137D568F6E7402908D1006834
:102C2000C0F8A8C023E0D0F89C1041F0200109E0D2
:102C300041290BD10068C0F8B8C018E0D0F89C104A
:102C400041F48071C0F89C100120F0BD1F2906D806
:102C50000068012202FA01F1C0F8981007E000684C
:102C600001F01F01012202FA01F1C0F89C100020BE
:102C7000F0BD00BF38180108704700002DE9F04F83
:102C800087B08246B048B1490068096801EA000887
:102C9000DAF80000056DD0F85490076D446D016DB1
:102CA0000191416D0091016D0591416D0491016D9E
:102CB0000391416D0291D0F854B0066D5FEACB519B
:102CC0000AD5F10508D54FF48071016500209E49B1
:102CD00008605046FFF7D0FF069605EA09064FEA5E
:102CE00088755FEA4B5012D5069840050FD5DAF883
:102CF00000004FF48063D0F8DC10D0F8E4200365C6
:102D0000914B002011401860504600F0C9FB27404D
:102D100006F470465DB1DAF80000002101658A49C9
:102D200008F00300086050462946FFF77AFEDDE907
:102D3000001007F00F05844F00EA01041EB105F0F2
:102D400079FF00F0AFFB04F0F00645B1DAF80000BF
:102D50002946056500203860504600F06BFB1EB127
:102D600005F068FF00F07CFB5FEA0B50069C09D57C
:102D7000200507D5DAF800004FF4006106F02BFAC1
:102D800000F091FB5FEA8B5010D5A0050ED5DAF864
:102D900000004FF40073D0F8D810D0F8E02003659D
:102DA000002038601140504600F07BFB5FEA0B309A
:102DB00009D5200307D5DAF800004FF4002106F00A
:102DC0000AFA00F035FB5FEACB3009D5E00307D5FE
:102DD000DAF800004FF4803106F0FDF900F05FFBF7
:102DE000DDE9021000EA01055FEA4B3009D5600316
:102DF00007D5DAF800004FF4802106F0ECF900F076
:102E00004DFBDDE9041000EA010205F060715FEAA4
:102E10008B3002D4DAF800000EE0DAF80000A303E9
:102E20000AD54FF40033036500233B60DAF89C3089
:102E300043F08003CAF89C3002F0715529B106F0C6
:102E4000CAF9FFF763FEDAF800003DB1056500211D
:102E50003960DAF89C102943CAF89C10A7F5016183
:102E6000884209D0DAF89C0000286AD0504607B0A2
:102E7000BDE8F04FFFF749BEDAF804008168890722
:102E8000F0D0016A426A1140026A436AD0F8208099
:102E9000D0F82490D0F820B0466A1A4011F00F0103
:102EA00002F03005026A0692426A0592476A026A97
:102EB000049203D00162504600F0EDFA08EA0904DA
:102EC00035B1DAF8040029460562504600F0E5FA0B
:102ED00006EA0B0604F4C07578060ED50498400681
:102EE0000BD5DAF804004023C16BC26B0362504675
:102EF000090C02F03F0200F0CFFADDE9051006F4FC
:102F0000FC4600EA010435B1DAF8040029460562FE
:102F1000504600F0BFFA04F4F0203EB1DAF8041095
:102F20000E62DAF89C103143CAF89C10002899D040
:102F3000DAF804100862DAF89C100843CAF89C001A
:102F400090E707B0BDE8F08F10A8004014A800403B
:102F500008B32DE9F04F85B004460068E24EB04258
:102F600002D106F58071616094F8981031B90020A3
:102F700084F89900204600F0BFF9206806F0BAF9FD
:102F8000054620688169090707D500F0D7FB401B7B
:102F90000B28F6D311E001207047816941F001014F
:102FA000816100F0CBFB054620688169C90711D11A
:102FB00000F0C4FB401B0B28F6D30120D4F89C1072
:102FC0000843C4F89C00032084F89800012005B051
:102FD000BDE8F08F8169B44641F002018161217C36
:102FE000826922F04002012918BF40328261617C6F
:102FF000826922F48042012908BF02F58042826181
:10300000A17C826922F48052012918BF02F5805206
:103010008261D4E90212836923F440730B43836114
:10302000836923F0A4038361036923F01003036120
:103030009AB1012A0DD0022A09D08369032A43F0EC
:1030400080038361036943F01003036105D12022EB
:1030500000E0042283691A43826104F11407A34A41
:103060009646E8CF013D02EB03426FF0FF0303EB0E
:10307000062646EA45657E1E35432A43C261B1F500
:10308000407F0FD104F124066FF00F0766CE03EBEB
:103090000523013A07EB06161A430EEB01413243B2
:1030A0001143C160236E2BB1616ED0F8C020114373
:1030B000C0F8C010D4F85CB01BEB030F0AD0A16EAF
:1030C0008B4A52F82110D0F8C82022F00702114391
:1030D000C0F8C810D4F840A0BAF1000F0AD0616C53
:1030E000834A52F82110D0F8BC2022F00702114385
:1030F000C0F8BC10D4F84880B8F1000F0BD0E16CD8
:103100007B4A52F82110D0F8BC2022F0700242EA2B
:103110000111C0F8BC10216D039159B1616D744A61
:1031200052F82110D0F8BC2022F4E06242EA0121DA
:10313000C0F8BC100493604504D161688A6822F02D
:1031400003028A604FF0000EC4F89CE0012184F86D
:1031500098104FF6FC72D0F88410656C009521EA47
:103160000203616BD4E90E62029106EB010943EAA6
:103170008103C0F88430D0F8843023F47F0343EA1D
:103180000643C0F88430D0F888306FF38F0343EAE9
:103190008903C0F88830D0F88830019223F4FE0308
:1031A00043EA0243C0F88830D0F8A07009EB42032C
:1031B0006FF38F0747EA8307C0F8A070D0F8A070BC
:1031C00027F4FE0747EA0A47C0F8A07005FB0A3754
:1031D000D0F8B0306FF38F0343EA8703C0F8B03004
:1031E000C4F894E0D0F8B03023F4FE0343EA084377
:1031F000C0F8B030E66C06FB087CD0F8AC706FF31A
:103200008F0747EA8C07C0F8AC70676D039BD0F856
:10321000F02007FB03C56FF38F0242EA8502C0F876
:10322000F020D0F8F0C0A26D2CF47C1141EA0241EC
:10323000C0F8F010D10001EB8501D0F8C0506FF359
:103240008F052943C0F8C0104546D846D0F8C010B5
:1032500021F47C1141EA0B41C0F8C010D0F8C01035
:10326000DDF810B021F07C5141EA0B61C0F8C010CC
:10327000009800FB0AF006FB0501694D07FB0313EC
:1032800005F54065019F05EB890606EBC70707EBCF
:103290008009029807EB810C07EB830303EBC20262
:1032A000C4E9203205EB8000A56E08FB05F104F1AE
:1032B0006C0888E8C11202EB81010BFB05F2C4F82F
:1032C000881001EB82010B4AC4F89010914201D999
:1032D000202073E6884204D240F804EBD4F8901022
:1032E000F8E7002073E600BF00A000400000FFFFE9
:1032F0001CE30008FCD30040B0B5B6B0044631A8CA
:103300001421FDF749F802A8B821FDF745F8206817
:103310004149884244D0414988421FD040498842AF
:1033200077D105F04AFD02A801F072FE08B1FDF761
:103330006EFD3C4801684A1C02603B4809B905F033
:10334000C4FB01681524132541F0080101600068E1
:10335000092100F00800019003203EE005F02DFD5A
:1033600002A801F055FE08B1FDF751FD2D48016896
:103370004A1C02602C4809B905F0A7FB0168162415
:10338000142541F0020101600068092100F00200EB
:1033900001906020319001982448A0F500601FE062
:1033A00005F00BFD02A801F033FE08B1FDF72FFD7B
:1033B0001C4801684A1C02601B4809B905F085FBDE
:1033C0000168A0249F2541F00801016000680521E3
:1033D00000F0080001904FF44050319001981348DC
:1033E00035910021CDE933110221329131A900F04C
:1033F000CFF828460521002200F046FA284600F0C2
:1034000033FA20460521002200F03EFA204600F063
:103410002BFA36B0B0BD00BF00D4004000A400407D
:1034200000A00040B80D0024E0440258000C0258EF
:10343000704700000749884208D00749884207D0F2
:103440000649884218BF704708F09EBE08F08ABE41
:1034500008F090BE946E0024346F0024D46F0024D2
:10346000704790F8981001290BD1022180F898102C
:1034700001688A6922F001028A610021C0F89C106B
:1034800006E0D0F89C1041F00401C0F89C10012126
:1034900008467047704770477047704770477047DD
:1034A00070477047704770472DE9FC4F9A4A0A24CD
:1034B0004FF0000A9042994A08BF092402444FEA9B
:1034C000B223082B38BF4FEAB224019400F1200246
:1034D00000920F240027002631FA06F256D001226E
:1034E00002FA06FB1BEA010E4BD026F0030C8D4AB4
:1034F0000AF00C0904FA09F85CF80250019B05EA8D
:10350000080503FA09F39D421CD1854AB308D56F1B
:1035100025EA0E05D567D2F8805025EA0E05C2F8D7
:103520008050156825EA0E0515604FF0B042156809
:1035300025EA0E0515607B4A52F8235025EA080556
:1035400042F8235003220568BC4602FA07F36FF0E5
:1035500003021D43056002EA5607009A0AF01C05A3
:1035600004FA05F5D459AC43D4516746C4689C436A
:10357000C460446824EA0B0242600F2482689A43C4
:1035800082600AF1040A02370136A5E7BDE8FC8F24
:103590002DE9F04F85B0604A0A244FF0000B9042AD
:1035A0005E4A08BF092402444FEAB223082B38BF01
:1035B0004FEAB22400F1200201940390009202919C
:1035C0000020012400220F6837FA0BF600F0A180DA
:1035D00004FA0BFA17EA0A0800F096800323D1F8E0
:1035E00004E003FA00F60EF003096FEA060CA9F1F5
:1035F0000106012E11D8039B9E68CF6806EA0C06CF
:1036000087403E439E60CEF300165F6806FA0BF6D5
:1036100027EA0A073E435E6005E0B9F1030F02D1D5
:103620004FF0030923E0039BDE68029906EA0C06CB
:103630008F6887403E43DE60B9F1020F17D102F078
:103640001C060F23009D03FA06F76FF0030303EA3D
:103650005B0E55F80E300299BB430F6907FA06F668
:10366000334345F80E30D1F804E00EF00309039916
:1036700009FA00F30D6805EA0C052B430B601EF4F4
:10368000403F029940D0774C236843F00203236007
:1036900023680F2403F00203049302F00C03049E3A
:1036A00004FA03F52BF003061E4C375927EA0505EB
:1036B000019F07FA03F32B4333514FF0B0442368C3
:1036C0004E6843EA0805F70258BF23EA080525605B
:1036D000134CB702236843EA080558BF23EA0805DC
:1036E0002560B703D4F8803043EA080558BF23EAC1
:1036F0000805C4F88050F603E36F43EA080558BF95
:1037000023EA0805E5670124023004320BF1010BBE
:1037100059E705B0BDE8F08F002402580000FEA76D
:1037200004000058080400580069084018BF012030
:103730007047002A08BF0904816170470648006885
:10374000704700BF0348044900780A6810440860C5
:10375000704700BF0C00002450BD002480B503203A
:1037600000F0B8F802F074F90E490F4B0A68C2F382
:1037700003229A5C096801F00F0102F01F02595CF4
:10378000D0400A4A01F01F011060C8400849086093
:103790000F2000F00FF808B1012080BD00F050F8B4
:1037A000002080BD184402581CE4000814000024C6
:1037B000180000240F2831D8B0B58AB00446A120E3
:1037C00000220025214600F05FF8A12000F04CF80F
:1037D000164804601648016841F080710160006875
:1037E00000F080700290029802A801A902F0D2F8BD
:1037F00002F020F94000114C0E490F4B40F2E73225
:10380000B0FBF4F00138C1E90030C1E902520D61AA
:10381000084603F03FF818B1012004E0012070478A
:10382000044803F047F80AB0B0BD00BF1000002400
:10383000EC4402585878002400E0004040420F0059
:1038400081B008480022016841F00201016000686F
:103850000F2100F00200009000986FF0010001B00D
:1038600000F012B8F4440258002809D400F01F01F7
:103870000122C0F34A1002FA01F1024A42F8201074
:10388000704700BF00E100E0F0B5184B4FF0FF3685
:103890001C68C4F30224E51E84F0070438BF002529
:1038A00006FA05F7BA43042C28BF042406FA04F4E8
:1038B000A14300F00F04A940043C1143044A2344EF
:1038C00009010244002848BF03F10C021170F0BD49
:1038D00000E400E005494FF6FF030A681A4060F370
:1038E0000A22034810430860704700BF0CED00E057
:1038F0000000FA052DE9F04F8DB0D0F80090D448C3
:103900008A460024D34ED44F0DF1040BA9EB0000DE
:10391000B0FA80F04FEA5018022C4FD004EB44006C
:1039200014210BEBC0052846FCF736FD0134022CB0
:103930000AD157F8040CC0074FF4007004BF40F2DE
:103940002220C0F2044000E0002000210229E3D040
:1039500057F82120D30705D082EA00039B0701D442
:103960004B1C2B60D30605D582EA00039B0601D4CD
:103970004B1C6B60D30505D582EA00039B0501D47F
:103980004B1CAB60D3030AD582EA00035B0306D469
:103990009303334658BF4FF001130B44EB60D30140
:1039A0000AD582EA00035B0106D49201324658BF71
:1039B0004FF001120A442A610131C7E7C94DB9EB42
:1039C000050218BF01222868C00701D1002004E0C9
:1039D000286820F0010028600120C3490B68DB073C
:1039E00004D00B68023023F001030B6002EB4202AB
:1039F0000BEBC202936805F043FC24F4807443F897
:103A0000044C57F8043CDB0719D11368002B43D052
:103A100005F036FC24F0010443F8044C53682BB144
:103A200005F02EFC24F0100443F8044CD3680BB1CD
:103A300005F08CFA12697AB305F062FC2AE057F8B7
:103A4000042C22F0010247F8042CA94524D1DDE919
:103A5000073207EB830353F8044C44F0020443F8A5
:103A6000044C3AB107EB820252F8043C43F02003C5
:103A700042F8043C0A9A32B1012305F04FFB43F4AB
:103A8000802347F822300B9A32B1012305F046FB20
:103A900043F0806347F8223008EB4802DAE9005629
:103AA0005BF832300BEBC2029D42546814D1A6423F
:103AB000254622D1D468DAF80C50A5421CD11469ED
:103AC000DAF81050A542354617D157F8042C42F0C9
:103AD000010247F8042C34E0A64235460DD0956823
:103AE000DAF80860AE4205D0D568DAF80C60AE426C
:103AF00040F0EF80254600E0354607EB830353F89E
:103B0000044C24F0010443F8044C3DB107EB850359
:103B100053F8044C24F0100443F8044CD2E9024357
:103B200007EB840454F8045C25F4807544F8045CC5
:103B30000BB105F00BFA12691AB105F0E1FB47F879
:103B40002230684E4FF48072B14518BF4FF4407276
:103B5000DAF8083005F094FB24F44074224443F86A
:103B6000042C57F8042CC2F30743DAF81420541E2F
:103B70009C4209D9A04B03EB024257F8043C23F4C2
:103B80007F031A4347F8042C57F8044CDAF8002056
:103B9000013AE40757F8223023F0030324D101242B
:103BA000B14518BF0324234347F82230DAF8042034
:103BB00062B107EB82021023B14518BF302352F8DF
:103BC000044C24F02004234342F8043CDAF80C208F
:103BD000D30323D46AB34FF08073B14518BF4FF0BD
:103BE000A06305F053F821E043F0010347F82230C9
:103BF000DAF8042042B107EB8202012452F8043CB7
:103C000064F3051342F8043CDAF80C20D30325D4FE
:103C10008AB34FF080736FF0E06423E04FF4803399
:103C2000B14518BF4FF4A02305F00CF8234447F822
:103C30002230DAF81020D30329D4D2B34FF04073E6
:103C4000B14518BF4FF0E06305F020F827E000BF52
:103C5000005000520100000104B400524FF48033C0
:103C60006FF4E024012525EA020257F822502C4087
:103C7000234347F82230DAF81020D30311D4C2B11D
:103C80000123032405F04AFA64F31A630FE04FF4AA
:103C90004033B14518BF4FF4E02304F0D3FF234471
:103CA00005E00123032405F039FA64F3124347F8D1
:103CB0002230C20703D0326842F00102326080072E
:103CC00003D5086840F00100086000200DB0BDE891
:103CD000F08F1569DAF81060AE4225463FF40DAF5B
:103CE0002FE700BF0050005200A0005280B110B575
:103CF00004460068016821F001010160816821F03B
:103D000002018160204600F07BF80020206510BD94
:103D100001207047F8B504F035FF002C3ED0054671
:103D200000206065216D01B1F8BD204600F090F8DB
:103D300004F10C06D4E9000C2F4F30494CCE07EBB0
:103D40000343876839401143626B194311436FF095
:103D5000FF0202EB062302EB0C221943E36919432D
:103D60008160216AC36823F4E0231943C160216B99
:103D7000A36B43EA01410161E16B416141F288318A
:103D8000A165036823F4F8531A43026000912046AA
:103D900020212B46002204F052FD08B10120F8BD7D
:103DA0002068636AA168A269013BC56825F0FF0528
:103DB0002B43C360036823F0400319430160A16AE9
:103DC000D0F8083123F0A0431943E36A1943C0F83F
:103DD00008110168022A41F00101016003D18168E4
:103DE00041F002018160E0680221B0F1806F08BFFC
:103DF000012121650020F8BD0000FFFFF4F8E0F884
:103E000000686249884218BF7047B0B56048614C8D
:103E10000E4D016821F400110160016821F40021B8
:103E2000016020460A21A84704F580600521A847C3
:103E300004F580504FF40061A84704F540604FF44A
:103E400000612A46BDE8B040104700BFA934000811
:103E50002DE9F04FB5B0044630A81421FCF79CFAC8
:103E600002A8B0210830FCF797FA20684749884239
:103E700040F088804FF000704FF00009CDF80C90B2
:103E8000029002A801F0C4F808B1FCF7C0FF404856
:103E90004FF0030A0225404F016841F40011016010
:103EA000016801F4001101910199016841F40021B8
:103EB0000160016801F4002101910199C16841F09C
:103EC0000101C160C16801F0010101910199C1685E
:103ED00041F00201C160C16801F002010191019944
:103EE000C16841F01001C160C16801F01001019189
:103EF0000199C16841F00801C160C06800F0080084
:103F000001900198CDE9329ACDE9305509203490DD
:103F100030AC204821468046B847062034902146E0
:103F200031A880E82006082030904046B84731A8E4
:103F30004FF0040B08F58066214680E8200E012032
:103F400030903046B847092034902146CDE9329A66
:103F5000CDE930B53046B8470B20349021464FF4B8
:103F6000006631A8309680E8200608F58050B847F2
:103F7000092034902146CDE9329ACDE9306508F523
:103F80004060B84735B0BDE8F08F00BF00A00052D8
:103F9000D4440258000002589135000801688A692B
:103FA00042F000628A610122C0F80025002280F8F8
:103FB000F424486D024A104348650020704700BF52
:103FC00003000010704700684162002070470068DD
:103FD000436AB9B170B5846A013900F58270002571
:103FE00003EB1443CCB2A54205D250F8256001354D
:103FF00003EB1643F7E743EA024240F82120BDE80D
:10400000704002E043EA0241816200207047D0F82C
:10401000080506F059BE01EBC10200EB8202D0F8A0
:104020000805926C06F0CDBD01EBC10200EB8202E7
:10403000D0F80805D2F8882206F014BED0F808059A
:1040400006F044BE01F00F0249B2002902EBC202A1
:1040500000EB820303F51F7248BF03F13C020068C6
:10406000114607F0FBBCB0B5044601F00F000A464C
:1040700055B200EBC001002D04EB810303F51F7165
:1040800048BF03F13C010870D009487094F8BC04A3
:10409000012804BF0220B0BD04F0CCFF07F082FA73
:1040A00005F017B8B0B504460A4601F00F00616884
:1040B000814201D201251BE000EBC00155B2002D69
:1040C00004EB810303F51F7148BF03F13C01087045
:1040D00094F8BC040025D2098D704A70012801D1E2
:1040E000022505E004F0A6FF07F09CFB84F8BC5411
:1040F0002846B0BD01F00F0101EBC10100EB8100CA
:10410000D0F890027047F8B5044601F00F000D4654
:104110006FB200EBC001002F04EB810606F51F71A2
:1041200048BF06F13C018A60EA0908704A700B71C9
:10413000B7F1FF3FD8BF4883022B01D1002048715F
:1041400094F8BC04012804BF0220F8BD04F072FFFB
:1041500007F074F9002084F8BC04F8BDB0B501F094
:104160000F01002501EBC10400EB840404F5227764
:1041700084F87C1284F87D5204F51F712CC7C36843
:10418000012B08BFCA61DAB2006807F08DFB00207E
:10419000B0BD70B50446426801F00F05012095429C
:1041A00029D805EBC5024EB2002E04EB820301EBC9
:1041B000C10204EB820202F51F7248BF03F13C0208
:1041C0009070C8095070157094F8BC04012804BFA1
:1041D000022070BD012084F8BC041146206807F05D
:1041E00048FB2DB9217B206804F2C44207F0EEFAA7
:1041F000002084F8BC0470BD10B501F00F0404EB7E
:10420000C40100EB810101F83C4F01F10C0C0024CA
:10421000ACE81C0001234B70C368012B08BFCA61C6
:10422000DAB2006807F040FB002010BD2DE9F04F26
:1042300087B005688246284607F09CFC10B107B09D
:10424000BDE8F08F04F0D4FD0028F8D0D5F80808B8
:10425000C0F30D20CAF8FC0404F0CAFD04F097FF77
:10426000890703D5416901F00201416105F500614B
:10427000059107F0ABFC04F08AFF0695C90634D51A
:10428000816921F0100181612C6A04F00F0000EBBC
:10429000C0000AEB800000F51F75C4F343400628F8
:1042A00011D002281AD147F6F07014EA000615D092
:1042B0003409E9680698224607F08CFCE86800EBB0
:1042C0001610E86007E00AF2C4410698082207F0D9
:1042D00081FCC4F30A14686920446861DAF80000BC
:1042E000816941F010018161069D07F06FFC04F0C7
:1042F0004EFF090340F1CA8007F047FC06464FF421
:1043000030644FF000084FF0000B0AF2C4400490F4
:10431000002E00F0B980F00700F0AF805FFA8BF953
:10432000DAF80000494607F049FC0746C00757D0B5
:10433000281901218160DAF800002118036C8A68CD
:10434000DAF80C50012D1FD115072AD495063BD45D
:10435000DA4DAB42069D01D9120428D40AEB0802BB
:10436000D2F89C3209696FF3DF41591AC2F89012F2
:10437000B4F5306F30D1D2F88C324BB3D2F888021A
:104380000844C2F8880227E0CC4D05F58075AB42A1
:1043900011D11004069D0AD490061DD520208860F6
:1043A0001AE0C648069D83421AD9100418D54FF466
:1043B0000040886014E0B4F5306F069D0CD1DAF847
:1043C0008C1249B9002104E020208860069D07E096
:1043D0000121049A07F0FAF950464946FFF724FEF6
:1043E000380720D528190821B44B8160DAF800106D
:1043F00060180A6C81689A4212D9090402D54FF4F8
:1044000000418160504600F084FBDAF80C0001287E
:1044100009D1DAF800000121049A07F0D7F902E087
:10442000504600F076FBF80602D52819102181606D
:10443000B80717D56869000604D50599486840F49F
:10444000806048600AEB080090F87F12012906D1CD
:10445000002180F87F125046494600F056FA28198C
:1044600002218160B80602D5281920218160B80494
:1044700003D528194FF40051816008F12408203435
:1044800076080BF1010B43E7DAF8000007F09EFB1A
:1044900004F07DFE490340F1BB8007F06FFB064648
:1044A00005F510690AF13C0800250AF2C4400290A3
:1044B000CDE90398002E00F0A880F00700F0A2805C
:1044C000EFB2DAF80000394607F066FB0446C00791
:1044D00025D0059A05F00F00012303FA00F0516B77
:1044E00021EA0000506309EB45108360DAF80C0004
:1044F000012810D105EBC50008EB8000D0E90212BD
:104500001144C1603DB9006928B9DAF80000012101
:10451000029A07F05BF950463946FFF77CFD200709
:1045200003D509EB451008218160E00603D509EBAE
:10453000451010218160600603D509EB451040212C
:104540008160A00715D50698294607F0E3FA05EB28
:10455000C50008EB800010F8031F012905D10021D8
:1045600001705046394600F0CCF909EB45100221A4
:104570008160200646D505EBC50008EB800BDBE922
:10458000040290423ED3DAF80040811ADBF808803A
:10459000414538BF884604EB451101F5106918E024
:1045A000801ADBE902819AF80C303A4600934045C4
:1045B00038BF80461FFA88F3204607F0DDFBDBE9B1
:1045C0000310DBF8142041444244CBF80C10CBF824
:1045D0001420D9F8183008F103019BB2B3EB910F06
:1045E00028BF9042DCD89042DDE903980AD805F054
:1045F0000F00012101FA00F0D4F8341821EA00007C
:10460000C4F834087608013554E7DAF80000069D4E
:1046100007F0DCFA002802D4DAF8000018E0059967
:10462000486820F0010048609AF8F404012807D196
:1046300000208AF8F40400215046FFF7C3FC02E092
:10464000504600F050FA04F07BFA01F0004141615D
:1046500007F0BCFA000502D4DAF800000BE0059878
:104660008068C00702D0504600F072FA04F068FA81
:1046700001F40061416107F0A9FA000116D504F0C8
:104680005FFA01F0006141619AF8F41419B15046E3
:1046900000F05EFA0AE001218AF8F414406DC0F3DC
:1046A0008300CAF8F8045046FFF78CFC04F0A0FB26
:1046B000C00405D4DAF8000055E000BF0A30544FBA
:1046C000D5F80408102120F00100C5F80408DAF834
:1046D000000007F01FFA05F51060DAF804104FF635
:1046E0007F32A9B182600139036823F400130360AB
:1046F000C0F80822D0F8003223F40013C0F80032CA
:10470000D0F8003243F00063C0F800322030E8E710
:10471000059D0B228423E86940F00110E861DAF876
:104720003010DAF80000002908BF42F22B0208BF5F
:104730001423EC582243EA504422002908BF1022D7
:10474000A95841F00B01A9500AF2C442296821F48A
:10475000FE6129609AF80C1007F038F804F0F0F9BF
:1047600001F48051416107F031FA04F010FD890431
:1047700019D506F0A1FEDAF8000007F0EFF9CAF843
:104780001000DAF8004001F02DF99AF810200146E7
:10479000204607F079FA504600F090F904F0D0F97D
:1047A00001F40051416107F011FA000702D4DAF870
:1047B000000007E0504600F09AF904F0C1F901F05A
:1047C0000801416107F002FA000606D404F010FB6C
:1047D000C00219D4DAF8000038E00699012440F24A
:1047E000A325886920F080008861DAF804008442FB
:1047F000ECD21AF80500012803D1E1B25046FFF7C8
:1048000021FC24350134F0E706980AF163040126FF
:10481000012700F51265DAF80400874211D22868F2
:104820006178012909D1B0F1FF3F06DC47F0800033
:104830002670C1B25046FFF705FC243420350137FD
:10484000E9E704F07DF901F480114161069C07F06D
:10485000BDF9800202D4DAF8000030E004F53261DC
:104860000AF52970DAF8042001230124944221D2A8
:104870000D680678012E14D1B5F1FF3F11DCDAF88E
:10488000FC6405F4803506F00106B54209D1069EA8
:10489000B56945F08005B56100F8013C75692D06E4
:1048A00003D5243020310134E0E70599486840F40D
:1048B0000070486004F044F901F40011416107F010
:1048C00085F9400002D4DAF8000007E05046FFF70F
:1048D0009EFB04F035F901F08041416107F076F963
:1048E00040077FF5ACACDAF800004468610704D5F6
:1048F0005046FFF7A3FBDAF800004168214341600E
:104900009DE4D0F8080506F042BAD0F8080506F094
:1049100053BA002852D02DE9F04F8BB004460568F9
:1049200090F8BD0428B9002084F8BC04204600F0AB
:1049300091F8032084F8BD04E86BC00501D4002081
:10494000E060206806F03CFF04F1040B04F1140E53
:1049500004F1240A20680A90D4E90C509BE80E0860
:104960009EE8C0509AE80007CDE90850CDE900B6AE
:1049700002A880E8805005A880E800070A9806F0A1
:10498000A9FD00284ED120680021002507F03DF93F
:1049900004F13C00616801220023DEB2B1420FD96C
:1049A00006EBC60700F8273000EB870701337E834C
:1049B0007A70C7E902553D613D71EEE7012070470D
:1049C00004F51F7000220023DDB2A9420CD905EBCB
:1049D000C50500F8253000EB85050133C5E9022245
:1049E0002A612A716A70EFE704F1140E04F1240AB7
:1049F000A0680A902268D4E9033BD4E90C509EE8F1
:104A0000C0509AE80007CDE90850CDE900B602A8E9
:104A100080E8805005A880E8000710460A9A06F052
:104A200011FE30B1022084F8BD0401200BB0BDE8B6
:104A3000F08F002084F83800012084F8BD04606AFB
:104A4000012802D12046FFF7A9FA206806F0EEFD02
:104A50000020EBE710B5B0B0044602A8B021083042
:104A6000FBF79AFC20681349884221D1002003906B
:104A70004FF4802002904FF44010239002A800F0E1
:104A8000C7FA08B1FCF7C3F900F09AF80A48002207
:104A9000016841F0007101600068052100F00070BC
:104AA000019001984D20FEF7EFFE4D20FEF7DCFE51
:104AB00030B010BD00000440D844025810B5044680
:104AC000006928B1022801D0FCF7A1F9012100E01A
:104AD0000021D4F8080506F0E0F9D4F80805BDE88F
:104AE000104006F093B9D0F8080506F0BDB9D0F82B
:104AF000080506F0C3B910B503F06FFF04BF02202C
:104B000010BD84F8381004F095FA07F0ADF804F001
:104B1000FDB9D0F8082500F2C441104606F0C9B925
:104B200010B503F05AFF04BF022010BD04F089FB4A
:104B300006D4A16A012903D1816B41F480318163DC
:104B400006F0C1FF206806F065FD04F0DFB9000043
:104B500010B50446D0F8080506F0EDF92068D0F845
:104B6000001E41F00101C0F8001E206A20B1034878
:104B7000016841F00601016010BD00BF10ED00E0CA
:104B8000B0B5124D2A682968520705D401F0070113
:104B9000081A18BF0120B0BD21F00701084303F037
:104BA000E6FF044655F8080C800406D4FEF7C6FD5F
:104BB00003F043FFF6D90120B0BD0020B0BD00BF17
:104BC0000248016841F08071016070470C4802584A
:104BD00080B500F007FF0249024A04F082B800BF26
:104BE000204402581CE40008B0B51F498B6A8A6A49
:104BF000CD6A4C6BC2F3051292B105F0010503F0CA
:104C000003036D4205EAD40404F053F80FD0012BDE
:104C10000AD013B90B689B060CD49FED161A13E04B
:104C20000021C0E900111DE09FED101A0CE09FED7E
:104C3000101A09E00B68104CC3F3C10324FA03F304
:104C400001EE103AB8EE411A0B6B9FED0C3A04F0EE
:104C5000FFFA0A6B03F0CDFE0A6B04F03EFA096B13
:104C600004F0F4F98160B0BD004402580024744A95
:104C7000001BB74B0024744C0090D0030000003997
:104C8000B0B51E498B6A8A6ACC6ACD6BC2F3053215
:104C9000D2B1E406ED0803F0030305EAE47404F07E
:104CA00008F815D0BBB90B689B0651BF9FED161ACB
:104CB0000B68C3F3C103154C42BF24FA03F301EEA2
:104CC000103AB8EE411A08E00021C0E9001112E0E4
:104CD0009FED0C1A01E09FED0A1A8B6B9FED0C3AC9
:104CE00004F0B6FA8A6B03F084FE8A6B04F0F5F9DF
:104CF000896B04F0ABF98160B0BD00BF004402587D
:104D00000024744A001BB74B0024744C0090D0035D
:104D100000000039B0B51E498B6A8A6ACC6A4D6CB6
:104D2000C2F30552D2B1E405ED0803F0030305EA2E
:104D3000E47403F0BEFF15D0BBB90B689B0651BFEE
:104D40009FED161A0B68C3F3C103154C42BF24FA3A
:104D500003F301EE103AB8EE411A08E00021C0E971
:104D6000001112E09FED0C1A01E09FED0A1A0B6C86
:104D70009FED0C3A04F06CFA0A6C03F03AFE0A6CF0
:104D800004F0ABF9096C04F061F98160B0BD00BFBB
:104D9000004402580024744A001BB74B0024744C92
:104DA0000090D00300000039F8B580F400220A43D7
:104DB0005CD080F480620A4300F0958080F4006249
:104DC0000A4300F0848080F480520A4324D080F4A7
:104DD00000520A433AD080F480420A4300F06780D0
:104DE00080F400420A4352D080F480320A4320D03B
:104DF00080F48070084340F0D5808049086D00F051
:104E00000702042A00F2CE808048DFE812F0780022
:104E100092009900CC007A007849086DC0F3023204
:104E2000042A00F2BF807948DFE802F069838ABD76
:104E30006B007248C16C0068C90340F1B180000189
:104E400040F1B08001A8FFF71BFFA6E06B48016DA1
:104E5000C1F30241052900F2A580DFE801F0037DDE
:104E6000918A8479BDE88F4000F0DABD6348816D96
:104E700001F44031B1F5003F00F09C80B1F5803F76
:104E800000F08580002940F08D80006852E05B488A
:104E9000016D01F04051B1F1005F00F05D80B1F1B2
:104EA000805F00F07C80002940F07C8050E0534817
:104EB000816DC1F30271052900F27480DFE801F011
:104EC000034C60595348BDE88F40FFF781BE4B4902
:104ED000886DC0F30262042A64D84C48DFE802F00F
:104EE0000F29306311004549886DC0F34252042AEE
:104EF00058D84648DFE802F0031D2457050008682B
:104F00004EE0C86C0B680A6800F040505B0701D5A2
:104F1000002857D0D20502D5B0F1805F5DD00022C5
:104F2000B0F1005F04BF43F20062C0F26E12086885
:104F30005EE00868000135D501A8FFF7A1FE05E095
:104F4000086880002ED501A8FFF7E4FE01982AE04A
:104F500000682B49800309E00068000122D501A800
:104F6000FFF78EFE24E000682649C00501EAE070E4
:104F700019E00168490715D50068C0F3C10023E0B6
:104F8000006880000ED501A8FFF7C4FE10E000689D
:104F9000800007D501A8FFF7BDFE039803E0006875
:104FA000800102D4002004B080BD01A8FFF71CFEE0
:104FB0000298F8E7C16C0368026801F040515B0792
:104FC00006D529B9C2F3C1000F4921FA00F0EAE77A
:104FD000D20504D5B1F1805F01D10A48E3E7002290
:104FE000B1F1005F04BF43F20062C0F26E120068CC
:104FF00010F4003018BF1046D5E700BF0044025837
:1050000000366E0100093D000090D0030080BB0017
:105010002DE9F0470446C078A54F00071AD5606E09
:105020004FEA305103292BD8DFE801F002070A0FBD
:10503000F96941F40031F96107E003F01AFE01E07B
:1050400003F0DEFE064630B9606E396C21F4401183
:105050000843386400266078BA46C00701D1354657
:1050600020E0A06D04282FD83546DFE800F0030EBD
:105070000B111100F869354640F40030F86107E083
:105080000126E8E703F0C9FD01E003F053FF054600
:105090002F4645B9A06D03F044FE21F007010843F7
:1050A000CAF8400037466078400723D5D4F8A400FA
:1050B0004FEA705005280DD8DFE800F0030F091201
:1050C000121203F045FD0BE001250127EBE703F089
:1050D000A4FD04E0012501260DE003F02BFF0546A9
:1050E0002E4645B9D4F8A40003F0DEFD21F460019A
:1050F00003F005FE3E466078000720D5D4F8A800EE
:105100004FEA306005280AD8DFE800F0030C060FEC
:105110000F0F03F01DFD08E003F07FFD04E0012503
:1051200001270DE003F006FF05462F4645B9D4F8E8
:10513000A80003F0B9FD21F0E06103F0E0FD37467F
:10514000E07880071AD5E06C4FEA3010032826D8A3
:10515000DFE800F00802050803F0FAFC02E003F0C3
:1051600088FD05462E4655B9E06CDAF83C1000255E
:10517000524621F030010843CAF83C003E466078B0
:10518000C0061FD5E06D4FEA303004282CD8DFE888
:1051900000F0030C090F0F0003F0DAFC08E0012512
:1051A0000126ECE703F039FD01E003F0C3FE0546FC
:1051B0002F4645B9E06D03F0B4FD21F4E04108430A
:1051C000CAF840003746607880061DD5206E4FEA49
:1051D0003040052800F2A782DFE800F00C03090C3C
:1051E0000C0C04F082F804E001250127EBE704F041
:1051F00059F805462E4645B9206E03F092FD21F47C
:10520000E0210843CAF840003E46607840061BD5BE
:10521000D4F8AC004FEA3070052800F28782DFE84E
:1052200000F009030609090904F05FF801E004F041
:1052300039F805462F4645B9D4F8AC0003F034FDE3
:1052400021F0E04103F05BFD37466078000617D59A
:10525000E06E58B1B0F1005F05D0B0F1805F23D1AE
:1052600003F076FC02E004F040F805462E4645B90E
:10527000E06E03F056FD21F040510843CAF84000AB
:105280003E46E078C00702D1B046574623E0A06C06
:10529000574603281CD8DFE800F010020D10F8690B
:1052A00040F40030F86108E001250126E9E700BF7D
:1052B0001044025803F0DDFC0546A8465DB9A06C19
:1052C000F96B0025B04621F003010843F86302E0C2
:1052D00001254FF00108A078400601D4474616E0AA
:1052E000D7F8F00340F48070C7F8F003FEF726FA11
:1052F0000646D7F8F003C00507D4FEF71FFA801B57
:105300006428F6D90325032701E02F4685B12078CC
:10531000C00744D0A06F4FEAF000052800F20982D0
:10532000DFE800F034033134343403F0DEFF2CE0E6
:10533000DAF86010D4F8B0005546414011F4407FCF
:105340000BD0296E2A6E42F480322A6621F4407115
:105350002A6E22F480322A662966B0F5807F40F0FA
:10536000FD81FEF7EBF9064641F288390327DAF8AA
:105370006000800700F1EF81FEF7E0F9801B032554
:105380004845F4D9C3E703F08DFF05462E463DB9E5
:10539000A06F03F0D9FC21F0380103F0EFFC3E468A
:1053A0002078800717D5606F052800F2C581DFE8F7
:1053B00000F009030609090903F097FF01E003F073
:1053C00071FF05462F463DB9606F03F0BDFC21F02B
:1053D000070103F0D3FC37462078400719D5D4F8ED
:1053E0009000052800F2AB81DFE800F00903060910
:1053F000090903F07AFF01E003F054FF05462E4649
:1054000045B9D4F8900003F04FFC21F0070103F0F8
:1054100076FC3E46207880061BD5D4F88C004FEAF7
:105420003070052800F28E81DFE800F009030609DC
:10543000090903F07FFD01E003F0E2FC05462F4679
:1054400045B9D4F88C0003F07FFC21F0E04103F073
:1054500095FC3746207840061BD5D4F898004FEAD3
:10546000B020052800F27181DFE800F00903060989
:10547000090903F05FFD01E003F0C2FC05462E467A
:1054800045B9D4F8980003F00FFC21F4E05103F083
:1054900036FC3E46207800061BD5D4F89C004FEA27
:1054A0007030052800F25481DFE800F00903060996
:1054B000090903F03FFD01E003F0A2FC05462F4679
:1054C00045B9D4F89C0003F0EFFB21F4604103F0F0
:1054D00016FC37462068010713D5D4F88000B0F5D4
:1054E000805F06D103F08CFC002818BF0127D4F898
:1054F0008000DAF84410524621F4405103F03EFC9B
:105500002068C10613D5D4F89400B0F5807F06D189
:1055100003F076FC002818BF0127D4F89400DAF8CD
:105520004810524621F4407103F0E9FB2068000363
:105530001AD5D4F8A000B0F5003F0BD0B0F5803FED
:1055400005D0002840F0E78003F0F4FC01E003F010
:1055500057FC05462E4645B9D4F8A00003F0A4FB3D
:1055600021F4403103F0CBFB3E46A07840071BD529
:10557000D4F88400B0F5401F0CD0B0F5001F06D061
:10558000B0F5801F40F0CA8003F0E2FA02E003F0B9
:1055900089FE05462F4645B9D4F8840003F0D4FBB4
:1055A00021F4401103F0EAFB3746A078C00701D18F
:1055B0003E4619E0206DB0F5803F03D090B903F06E
:1055C000C7FA02E003F055FB05462E4665B9206D8B
:1055D000DAF83C100025524621F480310843CAF81D
:1055E0003C00E5E7012501262168880001D46068B8
:1055F00006E003F005FC002818BF0126D4E90010DE
:105600008A031AD5E26F6FF0010303EB3223022BFA
:105610000BD34FEA322343B1012B40F08280DAF8FA
:105620001C3043F40033CAF81C303DB9DAF844307A
:1056300023F440731A43CAF844203546CA0207D5FA
:10564000226FDAF8403023F000431A43CAF84020B2
:105650008A0207D5A26EDAF8403023F080731A432D
:10566000CAF840204A000CD5DAF8002022F40042A3
:10567000CAF80020D4F8B420DAF800301A43CAF887
:105680000020CA0F07D0626DDAF83C3023F0405397
:105690001A43CAF83C20090208D5D4F88810DAF871
:1056A000442022F440021143CAF84410C10705D037
:1056B00003F040FC002818BF05466068810705D547
:1056C00003F013FE002818BF05466068410705D5A2
:1056D00003F0CFFA002818BF05466068010705D51A
:1056E00003F09BFA002818BF05466068C10605D57F
:1056F00003F0D8FD002818BF05466068800604D571
:1057000003F07EFB002818BF0125002D18BF0125DE
:105710002846BDE8F0870125012626E70125012757
:1057200043E701258AE7012501266EE501250127CA
:105730008BE50125012633E6012501274CE60125ED
:10574000012667E60125012784E601250126A1E659
:1057500001250127BEE65546D4F8B0002A6809495C
:1057600000F4407322F47C5201EA1011B3F5407F3B
:105770006FF31F3008BF0A432A60296E084328666A
:105780000025ABE5CFFFFF002DE9F843002800F02E
:10579000F980934D04468846286800F00F0088423F
:1057A0000BD2286820F00F0040EA08002860286823
:1057B00000F00F00404540F0E5802068734F41073E
:1057C00009D52169BA6803F017FB04D9BA6822F039
:1057D00070021143B960010709D56169FA6803F0E5
:1057E0000BFB04D9FA6822F070021143F960C1067C
:1057F0000AD5A169FA6802F4E062914204D9FA6814
:1058000022F4E0621143F960810609D5E1693A6941
:1058100003F0F2FA04D93A6922F0700211433961B7
:1058200010F002010AD0E268BB6803F00F039A424D
:1058300004D9BB6823F00F031A43BA60C20738D0FB
:10584000D4E90101BA6822F470621143B96057F8D3
:10585000101C012809D0032804D0022808D189038C
:1058600009D48FE0890106D48CE0C90503D489E00E
:10587000490740F187803968A94621F007010843AC
:105880003860FDF75BFF064641F28835606839688D
:1058900001F03801B1EBC00F07D0FDF74FFF801BBF
:1058A000A842F3D90320BDE8F88320684D4600F0F4
:1058B000020151B1E168BA6802F00F02914204D2CC
:1058C000BA6822F00F021143B960296801F00F0194
:1058D00041450AD9296821F00F0141EA08012960F0
:1058E000296801F00F0141454CD1410709D52169D3
:1058F000BA6803F081FA04D2BA6822F07002114348
:10590000B960010709D56169FA6803F075FA04D234
:10591000FA6822F070021143F960C1060AD5A16944
:10592000FA6802F4E062914204D2FA6822F4E0627A
:105930001143F96080060AD5E069396901F0700108
:10594000884204D2396921F070010843386100F0BF
:105950007FF8B9683D4A304BC1F30321515C01F037
:105960001F01C840B968186001F00F01515C01F0D7
:105970001F01C8402949086005480068BDE8F84390
:10598000FDF718BF0120BDE8F88300BF104402589E
:10599000100000243F2202601E4A52F8083C03F027
:1059A00007034360136803F470638360136803F0B4
:1059B0000F03C360136803F070030361536803F0BF
:1059C00070034361536803F4E0638361926802F0FB
:1059D0007002C2610248006800F00F000860704762
:1059E0000020005280B500F033F80A49174B0A68CE
:1059F000C2F303229A5C096801F00F0102F01F0252
:105A0000595CD040044A01F01F011060C8400349AE
:105A1000086080BD184402581400002418000024B7
:105A200080B5FFF7DFFF0849084A0968C1F3021192
:105A300003F07BBA80B5FFF7D5FF0349034A096835
:105A4000C1F3022103F071BA1C4402581CE400089F
:105A500010B535490869C0F3C20003280FD00228E9
:105A600004BF334810BD40B90868800634485AD591
:105A70000968C1F3C101C84010BD2C4810BD8A6A35
:105A8000886ACC6A4B6BC0F3051000B304F00104C4
:105A900002F00302644204EAD303022A6FF35F3385
:105AA00000EE103AB8EE400A13D0AAB90A6892067E
:105AB00051BF9FED221A0A68C2F3C102204B42BFB8
:105AC00023FA02F201EE102AB8EE411A06E0002095
:105AD00010BD9FED191A01E09FED161A0A6B9FED9C
