:020000040800F2
:1000000080CC0024A1030008DFD40008F9BA00085E
:10001000D1D40008950C0008051E0108000000005E
:10002000000000000000000000000000E1020008E5
:10003000A9130008000000003D030008B1DC00081F
:10004000BB030008BB030008BB030008BB03000898
:10005000BB030008BB030008BB030008BB03000888
:10006000BB030008BB030008BB0300082D0E0008FB
:10007000BB030008BB030008BB030008BB03000868
:10008000BB030008BB030008BB030008B113000852
:10009000D1130008C1130008E1130008BB030008D6
:1000A000BB030008BB030008BB030008BB03000838
:1000B000BB030008BB030008BB030008BB03000828
:1000C000BB030008BB030008BB030008BB03000818
:1000D000BB03000845F4000855F4000865F4000867
:1000E000BB030008BB03000800000000BB030008BE
:1000F000BB030008BB030008BB030008BB030008E8
:10010000BB030008BB030008BB030008BB030008D7
:10011000BB030008BB030008BB030008BB030008C7
:10012000BB030008BB030008BB030008BB030008B7
:10013000BB030008BB030008BB030008BB030008A7
:1001400000000000000000000000000000000000AF
:10015000BB030008BB030008BB030008BB03000887
:10016000BB030008BB030008BB030008BB03000877
:10017000BB03000819D60008BB03000800000000FC
:10018000BB030008BB03000811E30008BB03000821
:10019000BB030008BB030008BB030008BB03000847
:1001A000BB030008BB030008BB03000800000000FD
:1001B000BB030008BB030008BB030008BB03000827
:1001C000BB030008BB0300080000000000000000A3
:1001D0000000000000000000BB0300080000000059
:1001E000000000000000000000000000000000000F
:1001F0000000000000000000BB030008BB03000873
:10020000BB030008BB03000800000000BB0300089C
:10021000BB030008BB030008BB030008BB030008C6
:10022000BB03000800000000BB0300080000000042
:10023000BB030008BB03000800000000BB0300086C
:10024000BB030008BB030008BB030008BB03000896
:10025000BB030008BB030008BB030008BB03000886
:10026000BB030008BB030008BB030008BB03000876
:10027000BB030008BB030008BB030008000000002C
:10028000BB030008BB030008BB030008BB03000856
:1002900000000000BB030008BB03000800000000D2
:1002A00000000000BB030008BB030008BB030008FC
:1002B00035F40008BB030008BB030008F113000875
:1002C0000114000895DE0008BB030008DFF80CD01D
:1002D00000F0FAF8004800474D28010880CC0024BF
:1002E0002C4B19680868B0E8F04F80F30988BFF319
:1002F0006F8F4FF0000080F31188704700000000FE
:1003000008480068006880F308884FF0000080F318
:10031000148862B661B6BFF34F8FBFF36F8F00DFF3
:1003200000BF00BF08ED00E0DFF80C00016841F4F9
:1003300070010160704700BF88ED00E0EFF30980B5
:10034000BFF36F8F134B1A681EF0100F08BF20ED1C
:10035000108A20E9F04F106009B44FF0500080F38C
:100360001188BFF34F8FBFF36F8F13F033FC4FF043
:10037000000080F3118809BC19680868B0E8F04FE4
:100380001EF0100F08BFB0EC108A80F30988BFF38D
:100390006F8F704770010024EFF3058070470000F5
:1003A0000648804706480047FEE7FEE7FEE7FEE70F
:1003B000FEE7FEE7FEE7FEE7FEE7FEE7B5DD000845
:1003C000CD0200082DE9F05F0546002092469B46CD
:1003D00088460646814640241BE02846414647465B
:1003E000224600F060F853465A46C01A914110D395
:1003F00011461846224600F047F82D1A67EB01080F
:100400004F4622460120002100F03EF817EB00097C
:100410004E41201EA4F10104DFDC484631462A4645
:100420004346BDE8F09F40EA01039B0703D009E083
:1004300008C9121F08C0042AFAD203E011F8013BD0
:1004400000F8013B521EF9D27047D2B201E000F829
:10045000012B491EFBD270470022F6E710B5134668
:100460000A4604461946FFF7F0FF204610BD30B596
:1004700004460020034600E05B1C934203D2E05C8C
:10048000CD5C401BF8D030BD202A04DB203A00FAB6
:1004900002F1002070479140C2F1200320FA03F3DB
:1004A000194390407047202A04DB203A21FA02F0D9
:1004B0000021704721FA02F3D040C2F1200291409E
:1004C0000843194670470000064C074D06E0E068F7
:1004D00040F0010394E8070098471034AC42F6D38B
:1004E000FFF7F8FE24F9010844F9010870B58C18EB
:1004F00010F8015B15F0070301D110F8013B2A1138
:1005000006D110F8012B03E010F8016B01F8016B24
:100510005B1EF9D12B0705D40023521E0DD401F820
:10052000013BFAE710F8013BCB1A921C03E013F8E9
:10053000015B01F8015B521EF9D5A142D8D300201E
:1005400070BD000070B5044643492068884203D05E
:1005500042492068884208D14148006800F4403090
:1005600008B1012009E0002007E03E48006800F4DF
:10057000403008B1012000E00020B8B108F078FD5B
:1005800005466068B0F5803F06D0B0F5003F04D066
:10059000B0F5403F08D105E000BF6068000CB5FB36
:1005A000F0F502E0AD0800E000BF2BE04FF40020C2
:1005B000002107F05DF905466068C0F31101F9B943
:1005C00080140C281CD2DFE800F01B060708090A7B
:1005D0000B111315171900BF00BF00BF00BF00BFEC
:1005E0006068800C4000B5FBF0F50AE02D0908E0DA
:1005F0006D0906E0AD0904E0ED0902E02D0A00E016
:1006000000BF00BF6D081848854206D82068806882
:1006100020F44070216888601DE01448854208D8A5
:100620002068806820F4407040F480702168886001
:1006300011E00F48854208D82068806820F4407097
:1006400040F400702168886005E02068806840F40C
:1006500040702168886070BD002002400021024087
:100660000823024008630258105E5F0020BCBE00F1
:1006700040787D0170B50546AC6B206E00F05000EF
:1006800098BB206E40F4007020662068006800F07F
:100690000800A8B120680BF0C4FE10B32068C06841
:1006A00000F40050E8B9206E20F480702066206EBF
:1006B00000F48050A8B9206E40F00100206610E0E0
:1006C0002068C06800F0030058B9206E20F48070E4
:1006D0002066206E00F4805018B9206E40F00100B2
:1006E0002066204601F03AFE0CE0FFE7206E00F0A5
:1006F000100018B1204601F033FE03E0A06DC16C7C
:100700002846884770BD70B50546AC6B206E40F03A
:1007100040002066606E40F004006066204601F0F4
:100720001FFE70BD70B50446A56B284601F017FE8C
:1007300070BD000070B5044620680BF054FE0646FC
:1007400020680BF055FE98B396BB2068806800F0D7
:100750000D0001280AD1206881681A4A1140891CBD
:10076000816000BF03202168086009E0206E40F02E
:1007700010002066606E40F001006066012070BDD0
:1007800004F0C0FF054614E004F0BCFF401B022843
:100790000FD92068806800F0010050B1206E40F051
:1007A00010002066606E40F0010060660120E6E700
:1007B00005E02068806800F001000028E4D10020F6
:1007C000DDE70000C0FFFF7F70B5044620680BF036
:1007D0000FFE002851D1206880682949084048B19F
:1007E000206E40F010002066606E40F001006066F0
:1007F000012070BD20680BF0DBFD04F083FF05468F
:10080000204A2168914203D01F4A2168914201D1B8
:100810001E4900E01E4908460BF0D2FD06461A4963
:100820002068884201D1174800E02068216888428A
:1008300000D00EBB1AE020680BF0DAFD10B920687A
:100840000BF0B6FD04F05EFF401B02280ED92068B5
:10085000006800F0010048B9206E40F010002066EA
:10086000606E40F0010060660120C2E72068006809
:1008700000F001000028DED000BF0020B9E7000032
:100880003F0000800020024000210240002302407F
:1008900000630258B7EE000A80ED000A9FED060AD9
:1008A00080ED010A9FED040A80ED020A9FED020A25
:1008B00080ED030A7047000000000000FEB5064608
:1008C0000C46154694ED000A1948D0ED000A30EEAA
:1008D000600A8DED000A94ED010AD0ED010A30EEB8
:1008E000600A8DED010A94ED020AD0ED020A30EEA5
:1008F000600A8DED020A95ED023AF0EE432A95ED7D
:10090000013AB0EE432A95ED003AF0EE431A9DED20
:10091000023AB0EE431A9DED013AF0EE430A9DED26
:10092000003AB0EE430A30460CF056FCFEBD000023
:10093000B402002400BF012011F0CAFFFBE7000051
:1009400010B501221146024804F0D6FE10BD000089
:100950000008025810B500220121024804F0CCFE24
:1009600010BD0000000802587047000010B50122B9
:100970000821024804F0C0FE10BD00000008025823
:1009800010B500220821024804F0B6FE10BD000098
:1009900000080258704710B5044603E04FF47A701F
:1009A00000F006F8201EA4F101018CB2F6D110BDB2
:1009B00070B5034600BF00BF0020002200BF4FF00B
:1009C000E0267569C3EB031674014FF0E026B169A8
:1009D00010E04FF0E026B06988420BD0884202D286
:1009E0000E1A324402E02E1A0E4432440146A2424C
:1009F00000D300E0EDE700BF70BD10B50024FFF7A5
:100A0000B3FFFFF7C7FF11F0E5FC044311F076FDDB
:100A10000443204610BD00002DE9FC4105460E466A
:100A20001746002000900190FFF794FF922000F0FD
:100A3000D1F806226946122000F0ACF8FFF780FFDB
:100A40009DF80100000200B29DF8001040EA010488
:100A500000EE104AB8EEC00A4C48D0ED000A20EE75
:100A6000200A86ED000A9DF80300000200B29DF8FE
:100A7000021040EA010400EE104AB8EEC00A4348F2
:100A8000D0ED000A20EE200A86ED010A9DF805004F
:100A9000000200B29DF8041040EA010400EE104A82
:100AA000B8EEC00A3948D0ED000A20EE200A86EDE3
:100AB000020AFFF765FF08226946002000F06AF885
:100AC000FFF754FF9DF800000F2838D19DF8030070
:100AD000000200B29DF8021040EA010400EE104A44
:100AE000B8EEC00A2A48D0ED000A20EE200A85EDB3
:100AF000000A9DF80500000200B29DF8041040EACB
:100B0000010400EE104AB8EEC00A2148D0ED000AF8
:100B100020EE200A85ED010A9DF80700000200B2D0
:100B20009DF8061040EA010400EE104AB8EEC00A33
:100B30001748D0ED000A20EE200A85ED020AFFF7E3
:100B400009FFA22000F046F802226946222000F0A8
:100B500021F8FFF7F5FE9DF80000C0009DF8011098
:100B600040EA6114B4F5806F02DBA4F5006004B2C2
:100B700000EE104AF8EEC00AB4EE001AB3EE070A0F
:100B800000EE810A87ED000ABDE8FC811000002418
:100B90001400002470B506460C46154646F0800049
:100BA00000F018F806E0552000F014F82070641CDE
:100BB000681EC5B2002DF6D170BD70B504460D4655
:100BC00044F0800000F006F8552000F003F828708B
:100BD00070BD000001B582B04FF47A70012301AA04
:100BE00002A90090024809F065FB9DF804000EBDC3
:100BF000BC64002470B505460C462846FFF7EAFFA2
:100C00002046FFF7E7FF70BD10B5042101480AF048
:100C100019F910BDB066002470B504F073FD0546E7
:100C20004FF40041184804F05FFD0446174800786F
:100C300048B934B901201549087005F16400144918
:100C40000860002070BD1148007801280FD11048BD
:100C50000068854209D324B902200C49087001209C
:100C6000F0E7002009490870ECE70020EAE70748B0
:100C70000078022806D1012C02D100200349087017
:100C80000020DFE70020DDE700000258000000241C
:100C90000400002400BFFEE70346042B15D007DC48
:100CA0007BB1012B0ED0022B0DD0032B12D10BE008
:100CB000202B0BD0212B0AD0222B09D0232B09D19A
:100CC00007E008E007E006E005E004E003E002E0FA
:100CD00001E000E000BF00BF002070470020704727
:100CE00010B50022044905480EF05FFE0449034890
:100CF0000EF04CFE002010BD087700242C6A002462
:100D0000086F002438B504460D46214608480EF009
:100D10003DFE07480EF006FE00200090694605489B
:100D2000006813F0F3FA288803490880002038BDD2
:100D30002C6A0024980000243001002410B50346DA
:100D40000C460021084610BD2DE9F04104460D4631
:100D500000260A48D0F8BC72D7F8140210B101205E
:100D6000BDE8F0812A46214604480EF01EFE0348E5
:100D70000EF0CEFE06463046F2E700002C6A002454
:100D80003EB500200090019002904FF47A74002547
:100D900021E0224A22492348FFF73EFE9DED000A4A
:100DA0002048D0ED000A30EE200A8DED000A9DEDBE
:100DB000010AD0ED010A30EE200A8DED010A9DED09
:100DC000020AD0ED020A30EE200A8DED020A01205F
:100DD00011F07EFD6D1CA542DBDBDDED000A00EEAF
:100DE000104AB8EEC00A80EE801A0F4880ED001A53
:100DF000DDED010A00EE104AB8EEC00A80EE801A5E
:100E000080ED011ADDED020A00EE104AB8EEC00ACC
:100E100080EE801A80ED021A3EBD00005C000024C6
:100E20008C02002480020024B402002410B5024881
:100E300002F0C0F910BD0000806100240146374A6D
:100E40000868904249D0354A18320868904244D028
:100E5000324A3032086890423FD0304A48320868FF
:100E600090423AD02D4A60320868904235D02B4AE1
:100E700078320868904230D0284A90320868904210
:100E80002BD0264AA8320868904226D0244A086807
:100E9000904222D0224A1832086890421DD0204A3F
:100EA00030320868904218D01D4A48320868904293
:100EB00013D01B4A6032086890420ED0184A78322C
:100EC0000868904209D0164A90320868904204D0CF
:100ED000134AA8320868904201D1012000E00020A6
:100EE000B0B10A78103A1823B2FBF3F000F0070211
:100EF0000C4B9A5CCA65032805D90A686FF309028E
:100F0000121D8A6503E00A686FF309028A6503E02F
:100F1000086820F0FF008865886D70471000024067
:100F20001004024014F8010810B502682B4C036845
:100F3000A34222D0294C14340368A3421DD0274C6D
:100F400028340368A34218D0244C3C340368A342DD
:100F500013D0224C50340368A3420ED01F4C64348B
:100F60000368A34209D01D4C78340368A34204D01F
:100F70001A4C8C340368A34201D1012300E0002302
:100F80008BB10378083B1424B3FBF4F1144B03EB4F
:100F900081030366124B8033436601F01F04012373
:100FA000A340836618E00378103B1824B3FBF4F1E8
:100FB0000C4B9A4204D80B4BA83B9A4200D3083101
:100FC000094B03EB81030366074B8033436601F053
:100FD0001F040123A340836610BD0000085402587B
:100FE00000580258B8040240000802400179A9B331
:100FF000082940D8204B02689A4222D01E4B143355
:1010000002689A421DD01C4B283302689A4218D0BD
:10101000194B3C3302689A4213D0174B5033026885
:101020009A420ED0144B643302689A4209D0124B94
:10103000783302689A4204D00F4B8C3302689A428C
:1010400001D1012200E000224AB14A1E0B4B03EB02
:101050008202C266094A4032026708E00BE04A1E7B
:10106000074B03EB8202C266054A403202674A1E02
:1010700001239340436770470854025800590258AF
:1010800000090240014600208A69D2B98A6A32B159
:10109000012A0DD0022A03D0032A10D10EE000BF8E
:1010A000CA6A02F08072B2F1807F00D1012007E0AD
:1010B000CA6AB2F1C07F00D1012001E000E000BFA8
:1010C00036E08A69B2F5005F1BD18A6A32B1012A23
:1010D00007D0022A03D0032A11D10AE000BF012061
:1010E0000EE0CA6A02F08072B2F1807F00D1012066
:1010F00006E0CA6AB2F1C07F00D1012000E000BF63
:1011000016E08A6A32B1012A05D0022A04D0032AE5
:101110000CD103E000BF00BF012008E0CA6A02F062
:101120008072B2F1807F00D1012000E000BF00BFDB
:1011300070470000F0B5856D846D984F0668BE421B
:1011400070D0964F18370668BE426BD0934F303739
:101150000668BE4266D0914F48370668BE4261D0ED
:101160008E4F60370668BE425CD08C4F7837066879
:10117000BE4257D0894F90370668BE4252D0874F43
:10118000A8370668BE424DD0854F0668BE4249D09A
:10119000834F18370668BE4244D0814F3037066807
:1011A000BE423FD07E4F48370668BE423AD07C4FA1
:1011B00060370668BE4235D0794F78370668BE4240
:1011C00030D0774F90370668BE422BD0744FA83787
:1011D0000668BE4226D0734F0668BE4222D0714FC9
:1011E00014370668BE421DD06E4F28370668BE42CF
:1011F00018D06C4F3C370668BE4213D0694F503749
:101200000668BE420ED0674F64370668BE4209D0FA
:10121000644F78370668BE4204D0624F8C37066848
:10122000BE4201D1012600E000263EB1D0E9197688
:101230007E60C66E16B1D0E91C767E60574F066898
:10124000BE4249D0554F18370668BE4244D0534F6E
:1012500030370668BE423FD0504F48370668BE421E
:101260003AD04E4F60370668BE4235D04B4F783784
:101270000668BE4230D0494F90370668BE422BD038
:10128000464FA8370668BE4226D0454F0668BE4284
:1012900022D0434F18370668BE421DD0404F30372A
:1012A0000668BE4218D03E4F48370668BE4213D08B
:1012B0003B4F60370668BE420ED0394F783706681C
:1012C000BE4209D0364F90370668BE4204D0344F34
:1012D000A8370668BE4201D1012600E00026DEB133
:1012E00090F85C6006F01F073F26BE40AE600668BF
:1012F000366826F4802607683E6006687360866854
:10130000402E04D10668B2600668F16044E00668C9
:10131000B1600668F2603FE0224F0668BE4222D00C
:10132000204F14370668BE421DD01E4F283706686E
:10133000BE4218D01B4F3C370668BE4213D0194F2F
:1013400050370668BE420ED0164F64370668BE425C
:1013500009D0144F78370668BE4204D0114F8C373D
:101360000668BE4201D1012600E00026A6B190F831
:101370005C6006F01F070126BE4066600668736069
:101380008668402E04D10668B2600668F16003E00A
:101390000668B1600668F260F0BD0000100002400F
:1013A0001004024008540258704772B600BFFEE7AE
:1013B00010B5024803F02EFB10BD0000F8610024B8
:1013C00010B5024803F026FB10BD0000F8610024B0
:1013D00010B5024803F01EFB10BD00009862002407
:1013E00010B5024803F016FB10BD000098620024FF
:1013F00010B5024803F00EFB10BD00003863002456
:1014000010B5024803F006FB10BD0000386300244D
:1014100010B501464A6B0868D0F884004FF6FC749A
:10142000A04340EA82000C68C4F884000868D0F841
:10143000840020F47F04088F44EA00400C68C4F85C
:101440008400886B02440868D0F888004FF6FC746A
:10145000A04340EA82000C68C4F888000868D0F80D
:10146000880020F4FE04888F44EA00400C68C4F829
:101470008800C86B02EB40020868D0F8A0004FF665
:10148000FC74A04340EA82000C68C4F8A00008681D
:10149000D0F8A00020F4FE044020405A44EA004066
:1014A0000C68C4F8A000D1E9104004FB00220868D1
:1014B000D0F8B0004FF6FC74A04340EA82000C68FC
:1014C000C4F8B0000868D0F8B00020F4FE04B1F809
:1014D000480044EA00400C68C4F8B000D1E912406A
:1014E00004FB00220868D0F8AC004FF6FC74A0435F
:1014F00040EA82000C68C4F8AC00D1E9144004FB57
:1015000000220868D0F8F0004FF6FC74A04340EACF
:1015100082000C68C4F8F0000868D0F8F00020F4ED
:101520007C14B1F8580044EA00400C68C4F8F0009C
:10153000886D02EB40020868D0F8C0004FF6FC74DA
:10154000A04340EA82000C68C4F8C0000868D0F8E4
:10155000C00020F47C14B1F85C0044EA00400C6840
:10156000C4F8C0000868D0F8C00020F07C5491F89E
:10157000600044EA00600C68C4F8C0002A4C486B64
:1015800004EB8000C866CC6E886B04EB80040C67AB
:101590000C6FC86B04EBC0044C67D1E910046043C6
:1015A0004C6F04EB80048C67D1E9120460438C6FAC
:1015B00004EB8004CC67D1E914046043CC6F04EBE6
:1015C0008004802044504458886D04EBC00484207B
:1015D00044508C6EC86D60438424645804EB8004CE
:1015E000882044508C6E086E60438824645804EB55
:1015F00080049020445040580C4CA04209D99831A6
:10160000486840F020004860032001F89809012054
:1016100010BDCB6E02E0002018601B1D90204058CA
:101620009842F8D80020F3E700AC0040FCD300401B
:101630002DE9F041054614461E46D1F804C0BCF120
:10164000000F0AD1D1F810C0D1F808804CEA080C7C
:10165000B1F800804CEA88430BE0D1F810C04CF0A0
:10166000804CD1F808804CEA080CD1F800804CEA94
:10167000080391F82080D1F81CC04CEA086CD1F81E
:1016800018804CEA080CD1F814804CEA080CD1F808
:101690000C804CEA0807D5F868C00CFB06FCD5F8AE
:1016A000848008EB8C021360121D1760121D00204D
:1016B00019E000F1030C14F80CC04FEA0C6800F1BB
:1016C000020C14F80CC048EA0C4800F1010C14F8A4
:1016D0000CC048EA0C2C14F800804CEA080CC2F844
:1016E00000C0121D001DDFF81880D1F80CC008EBF7
:1016F0001C4C9CF800C08445DBD8BDE8F08100009C
:101700001CF8010810F074FF0522374937480AF029
:1017100015F90522364937480AF010F905223649ED
:1017200036480AF00BF90021354809F08BFB0821F7
:10173000334809F087FB0021324809F083FB082178
:10174000304809F07FFB41F288302F494863C86375
:101750004863C86300BF4FF6FF7309222BA12348DB
:101760000AF068F900202C4908704FF6FF7309222F
:101770002AA120480AF05EF900202B4908704FF694
:10178000FF730A2229A11D480AF054F94FF6FF738E
:101790000F2229A12C480AF04DF94FF6FF730F22B2
:1017A0002AA12E480AF046F908232D4A4FF4A461D5
:1017B0002C4810F08BFF012011F08AF80823284AEA
:1017C0004FF4A461284810F081FF012011F080F847
:1017D0000823234A4FF4A461244810F077FF40F215
:1017E000E63011F075F8B6E7700000249067002429
:1017F0007C000024FC660024820000244C69002444
:10180000CC650024186600240000014055312054A6
:10181000657374210A0000007500002455372054B8
:10182000657374210A0000008100002455313020C6
:1018300054657374210A000055325F5253343835B1
:101840002054657374210A002468002455335F52C4
:10185000533438352054657374210A00B868002465
:1018600088000024F8610024986200243863002472
:101870002DE9F04104460D4616461F4694ED001A28
:1018800021EE011AD4ED011A94ED012A01EE821A1B
:10189000F7EE001AB0EE002A52EE011AF0EE610ADD
:1018A00094ED001AD4ED031A21EE211AD4ED011A99
:1018B00094ED022A01EE821AF0EE001A21EE211AAE
:1018C000B0EE410A10F02EFCDFED2C0A20EE200ACB
:1018D000DFED2B0A80EE201A85ED001AD4ED010A07
:1018E00094ED031A60EE810A94ED001AD4ED021A09
:1018F00041EE610AB8EE001A60EE810AB0EE600AAD
:1019000010F074FBDFED1D0A20EE200ADFED1C0A4B
:1019100080EE201A86ED001A94ED001A21EE011ACD
:10192000D4ED031A94ED032A01EE821AF7EE001AA1
:10193000B0EE002A52EE011AF0EE610A94ED001AA0
:10194000D4ED011A21EE211AD4ED021A94ED032AE6
:1019500001EE821AF0EE001A21EE211AB0EE410AD1
:1019600010F0E0FBDFED050A20EE200ADFED040AAF
:1019700080EE201A87ED001ABDE8F08100003443A4
:10198000560E494070B50A480468001D0568001DE0
:101990000668344454B10822064920460AF076F914
:1019A00004220449103128460AF070F970BD000085
:1019B00000E8F11F16010024F8B504460D4616464E
:1019C0000020009000BF94F85C00012801D10220A3
:1019D000F8BD012084F85C0000BF2046FEF7AAFE97
:1019E0000746A7BB206E20F4885040F00200206616
:1019F000206805F4803141F0004106F08042114337
:101A00008268194B1A401143816000BF13E00098AF
:101A1000401C00901549009888420CD3206E20F09D
:101A2000020040F01000206600BF002084F85C0037
:101A300000BF0120CCE720688168C90F0029E6D1EA
:101A4000206E20F0020040F00100206604E0FFE775
:101A5000206E40F01000206600BF002084F85C007B
:101A600000BF3846B4E70000C0FFFE3F00F8C325C2
:101A70002DE9F0439DB004460E464FF00008306853
:101A800000B100BF00BF94F85C00012803D1022020
:101A90001DB0BDE8F083012084F85C0000BF002089
:101AA00019901A9046492068884202D14548019011
:101AB00001E000200190019850B9206E40F0200014
:101AC000206600BF002084F85C0000BF0120DFE733
:101AD00001980AF0A1FC074620680AF09DFC002846
:101AE00061D1002F5FD136492068884203D0354943
:101AF0002068884201D1344800E034480546306807
:101B000058B3A86820F4404071680843A8602C4985
:101B10002068884203D02B492068884201D12A4896
:101B200000E02A482849884209D125480AF065FC86
:101B3000814624480AF061FC49EA000002E024489A
:101B40000AF05BFC70BBB16830680843A96840F6D6
:101B50001F7291430843A8602BE0A86820F440401E
:101B6000A86017492068884203D016492068884237
:101B700001D1154800E015481349884209D11048A1
:101B80000AF03BFC81460F480AF037FC49EA0000A6
:101B900002E00F480AF031FC20B9A86840F61F7136
:101BA0008843A86005E0206E40F0200020664FF0DA
:101BB000010800BF002084F85C0000BF404667E7D2
:101BC000002002400021024000230240006302582E
:101BD000006002582DE9F84F04460D464FF0000A08
:101BE0000020009094F84400012800D105E0FE494F
:101BF0002068884200D100E000BFFC49E8688842C4
:101C000000D00EE0FA492068884200D100BFF949AF
:101C10002068884200D100BFF3492068884200D183
:101C200000BF00BF94F85C00012802D10220BDE88B
:101C3000F88F012084F85C0000BF20680AF0E7FB01
:101C4000002872D1E8492068884215D02068C1690F
:101C50002868C0F3130018B92868C0F3846004E052
:101C6000286890FAA0F0B0FA80F000F01F0201207E
:101C7000904001432068C1612168D5E9002001F14D
:101C8000300CC0F3012B0CEB8B03D3F800C000F039
:101C90001F0E4FF01F0B0BFA0EFB2CEA0B0C00F083
:101CA0001F0BC2F3846E0EFA0BFE4CEA0E0CC3F847
:101CB00000C000BF20680AF0AAFB814620680AF035
:101CC0008DFB0746B9F1000F7ED1002FFCD1AA6829
:101CD000296820680AF0B6FBC3492068884208D109
:101CE00068692168C968C1F3C101490000FA01F8B7
:101CF00025E0C148006800F07040B0F1805F07D176
:101D000068692168C968C1F382014900884015E00B
:101D10002068C06800F0100040B968692168C9688F
:101D2000C1F382014900884008E0F2E26869216855
:101D3000C96801F010018908490088408046286977
:101D400004287CD021684346D5F810C02A6801F1E8
:101D5000600B0BEB8C00DFF890B259450AD1D0F83C
:101D600000B002F0F84E4EF0004E4EEA030EC0F8FE
:101D700000E00BE0D0F800B00BF0004B02F0F84EA2
:101D80004EEA030E4BEA0E0BC0F800B000BF9649B6
:101D90002068884231D12068EA692969924B9842CB
:101DA0000CD100F1600C0CEB8103D3F800C02CF0D7
:101DB000807C4CEA020CC3F800C000BF00BF206862
:101DC00095F82020296900E0F5E0012A01D15206AA
:101DD00000E000221346844A90420CD100F1600CCE
:101DE0000CEB8102D2F800C02CF0007C4CEA030C12
:101DF000C2F800C000BF00BF21E1206895F8212093
:101E00002969012A01D1D20700E000221346764A4F
:101E100090420CD000F1600C0CEB8102D2F800C0B3
:101E20002CF0004C4CEA030CC2F800C000BF00BF0D
:101E300020682B7E2969012B02D1DB0201E00DE035
:101E400000231A46036923F4F04301F01F0C02FA41
:101E50000CFC43EA0C03036100BFF0E06249206818
:101E6000884271D1002120680AF0AFFAC0F3130054
:101E700030B9002120680AF0A8FAC0F3846007E0B6
:101E8000002120680AF0A1FA90FAA0F0B0FA80F0E0
:101E90002968C1F3130119B92968C1F3846104E009
:101EA000296891FAA1F1B1FA81F1884204D10022A6
:101EB000114620680AF0E0FA012120680AF085FA4C
:101EC000C0F3130030B9012120680AF07EFAC0F394
:101ED000846007E0012120680AF077FA90FAA0F008
:101EE000B0FA80F02968C1F3130119B92968C1F368
:101EF000846104E0296891FAA1F1B1FA81F1884284
:101F000004D10022012120680AF0B6FA02212068DB
:101F10000AF05BFAC0F3130030B9022120680AF01E
:101F200054FAC0F3846007E0022120680AF04DFAF9
:101F300090FAA0F0B0FA80F02968C1F3130121B93A
:101F40002968C1F3846105E036E0296891FAA1F1BE
:101F5000B1FA81F1884204D10022022120680AF0FE
:101F60008BFA032120680AF030FAC0F3130030B96D
:101F7000032120680AF029FAC0F3846007E00321F6
:101F800020680AF022FA90FAA0F0B0FA80F02968EE
:101F9000C1F3130119B92968C1F3846104E0296808
:101FA00091FAA1F1B1FA81F1884248D100220321CE
:101FB00020680AF061FA42E02068006E00F0F84004
:101FC0002978B0EB816F05D12068006E20F00040C9
:101FD000216808662068406E00F0F8402978B0EB70
:101FE000816F10D1206809E0006002580000FF47AF
:101FF00000200240002102400010005C406E20F0F2
:102000000040216848662068806E00F0F84029781A
:10201000B0EB816F05D12068806E20F00040216810
:1020200088662068C06E00F0F8402978B0EB816FB8
:1020300005D12068C06E20F000402168C866206885
:102040000AF0D6F900286FD12068EA682968B74BF2
:10205000984212D1D0F8B030C1F3130C23EA0C032C
:1020600002F0180BDFF8C8C22CFA0BFC0CEA010CCA
:1020700043EA0C03C0F8B03011E0D0F8C030C1F32F
:10208000130C23EA0C0302F0180BDFF8A4C22CFA9D
:102090000BFC0CEA010C43EA0C03C0F8C03000BF93
:1020A000A449E86888427DD12B68C3F313031BB9A8
:1020B0002B68C3F3846304E02B6893FAA3F3B3FAA9
:1020C00083F35B1C03F01F03092B3FD82B68C3F37A
:1020D00013031BB92B68C3F3846304E02B6893FAE2
:1020E000A3F3B3FA83F35B1C03F01F034FF0010C5F
:1020F0000CFA03FC2B68C3F313031BB92B68C3F35F
:10210000846304E02B6893FAA3F3B3FA83F35B1CB4
:1021100003F01F034CEA836C2B68C3F3130323B94A
:102120002B68C3F3846305E0B1E02B6893FAA3F353
:10213000B3FA83F35B1C03F01F0303EB43034FF07D
:10214000000B4BEA03534CEA030340E02B68C3F354
:1021500013031BB92B68C3F3846304E02B6893FA61
:10216000A3F3B3FA83F35B1C03F01F034FF0010CDE
:102170000CFA03FC2B68C3F313031BB92B68C3F3DE
:10218000846304E02B6893FAA3F3B3FA83F35B1C34
:1021900003F01F034CEA836C2B68C3F313032BB9C2
:1021A0002B6800E018E0C3F3846304E02B6893FA23
:1021B000A3F3B3FA83F35B1C03F01F030A3B03EBA7
:1021C00043034FF0007B4BEA03534CEA03031946E9
:1021D000AA6820680AF036F9286800F00040002854
:1021E00055D0554A2168914203D0544A2168914202
:1021F00001D1534900E053490846816801F0E07677
:1022000000BF4D492068884203D04C49206888426D
:1022100001D14B4800E04B484949884209D1464822
:102220000AF0E6F8834645480AF0E2F84BEA000077
:1022300002E03E480AF0DCF8F0BB434928688842D7
:1022400026D106F4000018BB38492068884266D1C0
:10225000394B22689A4203D0384B22689A4201D106
:10226000374A00E0374A104646F400010AF0FEF80B
:10227000364800683649B0FBF1F0401C4000009041
:1022800002E00098401E009000980028F9D146E036
:1022900030492868884219D106F08070B0B92349C6
:1022A000206888423BD1244B22689A4203D0234BBA
:1022B00022689A4203D100E024E0214A00E0214A4A
:1022C000104646F080710AF0D1F828E022492868CB
:1022D000884224D106F4800008BB14492068884253
:1022E0001DD1154B22689A4203D0144B22689A42A2
:1022F00001D1134A00E0134A104646F480010AF067
:10230000B5F80CE0206E40F0200020664FF0010A86
:1023100005E0206E40F0200020664FF0010A00BF6B
:10232000002084F85C0000BF504680E40060025842
:10233000FFFF0F000000FF47002002400021024085
:102340000023024000630258000052C768010024C5
:10235000400D0300000021C3000084CB704770478C
:10236000704700002DE9F84F04464FF000090020A7
:10237000009014B90120BDE8F88F206920B1202019
:10238000005D012800D100BF206E30B9204600F06A
:1023900089F90020606684F85C0020688168C1F3D8
:1023A000407131B120688168B24A1140816000BF3C
:1023B00000BF20680AF026F8A8B920688168AE4AF4
:1023C000114041F08051816000BFAC480068AC49C9
:1023D000B0FBF1F0401C009002E00098401E00901D
:1023E00000980028F9D120680AF00CF848B9206E4E
:1023F00040F010002066606E40F0010060664FF013
:10240000010920680AF003F80646206E00F010006B
:1024100000287DD1002EFCD1206E20F4807040F089
:1024200002002066206809F0E3FF78BB9549206828
:10243000884203D094492068884201D1934800E043
:1024400093489249884209D18E4809F0D1FF8246CB
:102450008D4809F0CDFF4AEA000002E08D4809F0FE
:10246000C7FF98B9874B22689A4203D0864B2268EF
:102470009A4201D1854A00E0854A10466168826827
:1024800022F47C120A43826000BF00BF81492068A9
:10249000884223D1607EE16B41EA4030E168084325
:1024A000A168082901D100210FE0A1680C2901D100
:1024B00004210AE0A1681C2901D1082105E0A168D6
:1024C000182901D11C2100E0002101F00C0140EA93
:1024D00041012020005D41EA004509E0607EE16B9A
:1024E00041EA4030A16808432021095D40EA0145E6
:1024F0002020005D012803D1A08C401E45EA404504
:10250000A06A38B1208D00F47870E16A084300E0D9
:10251000A7E005435F49206888420FD12068C06862
:102520005D49084028432168C8602068006920F0A0
:102530004060616B08432168086106E02068C0685C
:102540005649084028432168C860206809F05FFFA9
:102550008046206809F042FF0746B8F1000F66D1B7
:10256000002F64D14B492068884206D1207E810328
:1025700094F8380041EA400503E0207E216B41EAEF
:1025800080352068C06844F20301884328432168ED
:10259000C86094F84400012834D13E49206888423C
:1025A00000D100E000BFA06A08B1E06A00B900BF36
:1025B00038492068884210D1A06C40F00101E06CDD
:1025C0000843216D0843616D084321680969344A55
:1025D00011400843216808611AE0B4F84800401E21
:1025E000012141EA0041E06C0843216D0843616D1F
:1025F0000843216809692A4A521E1140084321688C
:10260000086105E02068006920F001002168086188
:102610002068006920F07040216C0843216808613F
:102620001C492068884202D02046FDF78BFF2069B4
:10263000012809D12068006B20F00F00E169491ED4
:1026400008432168086305E02068006B20F00F0054
:1026500021680863206E20F0020040F0010020662F
:1026600005E0206E40F0100020664FF0010948465A
:1026700081E60000C0FFFF5FC0FFFF7F680100240C
:10268000400D0300002002400021024000230240D0
:1026900000630258006002580740F0FF03C0F0FFDB
:1026A0001FF800FC10B5B6B00446142130A8FDF7A1
:1026B000D3FEB82102A8FDF7CFFE3F49206888422B
:1026C00077D14FF400210020CDE9021002200490C0
:1026D000102105910221069107910891C0210991CD
:1026E00000210A910B9100202A9002A805F096FC87
:1026F00008B1FEF75AFE00BF3048006840F02000E5
:102700002E4908600846006800F02000019000BFD4
:1027100000BF00BF29480830006840F00100274989
:10272000083108600846006800F00100019000BF11
:1027300000BF00BF0846006840F00400086008467B
:10274000006800F00400019000BF00BF202030901E
:10275000032031900020329030A9194802F0CCFEBD
:1027600010203090032031900020329030A915487D
:1027700002F0C2FE14481549086009204860002193
:1027800012488160C1604FF480610161490041617C
:10279000890081614911C16100210162416201F03A
:1027A00085FA08B1FEF701FE00BF0848A065846302
:1027B00000BF36B010BD000000200240D8440258CF
:1027C00000000258000802581000024080610024F6
:1027D0002DE9F04104460F469046514A2168914246
:1027E00003D0504A2168914201D14F4900E04F493E
:1027F000084609F0E5FD0646206809F008FE0028B5
:102800007CD100BF94F85C00012802D10220BDE811
:10281000F081012084F85C0000BF1EB1052E01D0BC
:10282000092E73D12046FDF7CFFF0546002D68D154
:10283000206E40F60161884340F48070206639497B
:102840002068884201D1364800E02068216888422B
:1028500000D01EB9206E20F480102066206E00F497
:10286000805020B1606E20F00600606601E000201C
:1028700060662F48A16DC8632E48A16D08642E487C
:10288000A16DC8641C202168086000BF002084F886
:102890005C0000BF2068406840F01000216848607C
:1028A00026492068884213D194F8382051002068C6
:1028B000224A904204D1C26822F003020A43C26055
:1028C00000BF2068C16841F00101C16000BF08E09D
:1028D000216B2068C26822F003020A43C26000BF75
:1028E00000BF226802F1400143463A46A06D01F064
:1028F00067FC0546206809F09DFD0EE00CE005E050
:10290000FFE700BF002084F85C0006E0012500BF5F
:10291000002084F85C0000E00225284677E70000EC
:1029200000200240002102400023024000630258C0
:102930007506000825070008070700080060025810
:102940002DE9F041044602F0DDFE804614B9012075
:10295000BDE8F08194F83500022808D08020606539
:1029600000BF002084F8340000BF0120F0E7FE49DA
:102970002068884249D0FC4918312068884244D0F8
:10298000F9493031206888423FD0F7494831206802
:1029900088423AD0F44960312068884235D0F24903
:1029A00078312068884230D0EF49903120688842E1
:1029B0002BD0ED49A8312068884226D0EB49206809
:1029C000884222D0E9491831206888421DD0E74961
:1029D00030312068884218D0E44948312068884264
:1029E00013D0E2496031206888420ED0DF49783147
:1029F0002068884209D0DD4990312068884204D09F
:102A0000DA49A8312068884201D1012000E0002085
:102A100068B12068006820F01E0021680860206806
:102A2000406920F0800021684861256806E0206840
:102A3000006820F00E00216808602568CA492068F7
:102A4000884270D0C8491831206888426BD0C64986
:102A500030312068884266D0C349483120688842B6
:102A600061D0C1496031206888425CD0BE4978316C
:102A70002068884257D0BC4990312068884252D0A3
:102A8000B949A831206888424DD0B84920688842A9
:102A900049D0B64918312068884244D0B349303112
:102AA000206888423FD0B1494831206888423AD0F6
:102AB000AE4960312068884235D0AC497831206811
:102AC000884230D0A9499031206888422BD0A7494C
:102AD000A8312068884226D0A5492068884222D0A3
:102AE000A3491431206888421DD0A14928312068AB
:102AF000884218D09E493C312068884213D09C49B6
:102B00005031206888420ED099496431206888424B
:102B100009D0974978312068884204D094498C3193
:102B20002068884201D1012000E0002028B1206EF9
:102B3000006820F48070216E08608B49206888420C
:102B400049D0894918312068884244D086493031BB
:102B5000206888423FD084494831206888423AD072
:102B6000814960312068884235D07F4978312068BA
:102B7000884230D07C499031206888422BD07A49F5
:102B8000A8312068884226D078492068884222D01F
:102B900076491831206888421DD074493031206848
:102BA000884218D0714948312068884213D06F4953
:102BB0006031206888420ED06C49783120688842A4
:102BC00009D06A4990312068884204D06749A83109
:102BD0002068884206D12068006820F00100216842
:102BE000086005E02068006820F0010021680860A6
:102BF00011E002F087FDA0EB080005280BD920208A
:102C00006065032084F8350000BF002084F834009C
:102C100000BF01209CE6286800F001000028E8D1F0
:102C200051492068884249D04F491831206888426C
:102C300044D04D493031206888423FD04A4948311C
:102C4000206888423AD0484960312068884235D0AF
:102C5000454978312068884230D043499031206816
:102C600088422BD04049A8312068884226D03F496D
:102C70002068884222D03D491831206888421DD002
:102C80003A4930312068884218D0384948312068A4
:102C9000884213D035496031206888420ED03349CC
:102CA00078312068884209D03049903120688842C4
:102CB00004D02E49A8312068884201D1012000E0CB
:102CC000002040B1A66D94F85C0000F01F013F2089
:102CD0008840B06007E0A76D94F85C0000F01F0129
:102CE00001208840786020492068884276D01E49BB
:102CF00018312068884271D01B49303120688842E1
:102D00006CD0194948312068884267D01649603133
:102D10002068884262D014497831206888425DD0AA
:102D2000114990312068884258D00F49A831206855
:102D3000884253D00D49206888424FD00B49183142
:102D4000206888424AD0094930312068884245D0FD
:102D5000064948312068884240D0044960312068E3
:102D600088423BD0014905E01000024010040240B7
:102D7000085402587831206888422FD025492068AD
:102D800088422BD0234918312068884226D0224916
:102D90002068884222D020491431206888421DD002
:102DA0001D4928312068884218D01B493C312068D1
:102DB000884213D018495031206888420ED01649F5
:102DC00064312068884209D01349783120688842EC
:102DD00004D011498C312068884201D1012000E0E3
:102DE000002068B1D4E919104860E06E40B1E06E8F
:102DF000006820F48070E16E0860D4E91C1048601F
:102E0000012084F8350000BF002084F8340000BFA2
:102E100000BF9DE5A00402400854025870B5044666
:102E20000CB9012070BD94F83500022803D0802031
:102E300060650120F6E7DC492068884249D0DA491C
:102E400018312068884244D0D74930312068884200
:102E50003FD0D5494831206888423AD0D2496031C4
:102E60002068884235D0D04978312068884230D0F7
:102E7000CD499031206888422BD0CB49A8312068B9
:102E8000884226D0C9492068884222D0C7491831D3
:102E9000206888421DD0C54930312068884218D04A
:102EA000C24948312068884213D0C0496031206847
:102EB00088420ED0BD4978312068884209D0BB498C
:102EC00090312068884204D0B849A83120688842EF
:102ED00001D1012000E00020F0B3042084F8350087
:102EE000B149206888424BD0AF49183120688842E8
:102EF00046D0AD4930312068884241D0AA49483196
:102F0000206888423CD0A84960312068884237D088
:102F1000A54978312068884232D0A3499031206891
:102F200088422DD0A049A8312068884228D09F49E6
:102F30002068884224D09D491831206888421FD0DB
:102F40009A493031206888421AD09849483120681F
:102F5000884215D0954900E020E060312068884221
:102F60000ED0924978312068884209D08F4990313B
:102F70002068884204D08D49A8312068884206D153
:102F80002068006820F001002168086009E12068DD
:102F9000006820F001002168086002E120680068F4
:102FA00020F00E00216808607F492068884249D0DF
:102FB0007D4918312068884244D07B4930312068EF
:102FC00088423FD078494831206888423AD07649D3
:102FD00060312068884235D0734978312068884252
:102FE00030D071499031206888422BD06E49A83189
:102FF0002068884226D06D492068884222D06B49DB
:103000001831206888421DD06849303120688842D4
:1030100018D0664948312068884213D0634960312E
:10302000206888420ED0614978312068884209D0F2
:103030005E4990312068884204D05C49A8312068FC
:10304000884206D12068006820F0010021680860ED
:1030500005E02068006820F00100216808605249FE
:103060002068884270D050491831206888426BD05F
:103070004D4930312068884266D04B49483120683C
:10308000884261D048496031206888425CD0464916
:1030900078312068884257D043499031206888426F
:1030A00052D04149A831206888424DD03F4920681C
:1030B000884249D03D4918312068884244D03B4974
:1030C0003031206888423FD03849483120688842F2
:1030D0003AD0364960312068884235D0334978315A
:1030E0002068884230D031499031206888422BD006
:1030F0002E49A8312068884226D02D492068884270
:1031000022D02B491431206888421DD0284928310B
:103110002068884218D026493C312068884213D064
:1031200023495031206888420ED0214964312068FB
:10313000884209D01E4978312068884204D01C4951
:103140008C312068884201D1012000E00020D8B1F4
:10315000206E006820F48070216E0860A56D94F8E0
:103160005C0000F01F01012088406860D4E919105C
:103170004860E06E40B1E06E006820F48070E16E5F
:103180000860D4E91C104860012084F8350000BFB5
:10319000002084F8340000BF206D10B12046216D5E
:1031A000884700203EE60000100002401004024064
:1031B000085402582DE9F84F044600200090FE48BC
:1031C00000684FF41651B0FBF1FAA66DD4F85880A0
:1031D0003768D8F80090F9492068884249D0F74903
:1031E00018312068884244D0F44930312068884240
:1031F0003FD0F2494831206888423AD0EF496031E7
:103200002068884235D0ED4978312068884230D036
:10321000EA499031206888422BD0E849A8312068DB
:10322000884226D0E6492068884222D0E4491831F5
:10323000206888421DD0E24930312068884218D089
:10324000DF4948312068884213D0DD496031206869
:1032500088420ED0DA4978312068884209D0D849AE
:1032600090312068884204D0D549A831206888422E
:1032700001D1012000E0002000287DD094F85C00FE
:1032800000F01F01082088403840002868D0CB4952
:103290002068884249D0C94918312068884244D002
:1032A000C6493031206888423FD0C449483120683F
:1032B00088423AD0C14960312068884235D0BF4940
:1032C00078312068884230D0BC49903120688842EB
:1032D0002BD0BA49A8312068884226D0B849206846
:1032E000884222D0B6491831206888421DD0B4499E
:1032F00030312068884218D0B1494831206888426E
:1033000013D0AF496031206888420ED0AC49783183
:103310002068884209D0AA4990312068884204D0A8
:10332000A749A8312068884204D12068006800F0CD
:10333000040003E02068006800F0080080B1206805
:10334000006820F004002168086094F85C0000F038
:103350001F0108208840B060606D40F0010060658A
:1033600094F85C0000F01F01012088403840E8B369
:1033700092492068884200E0B7E24BD08F4918316B
:103380002068884246D08D4930312068884241D03B
:103390008A494831206888423CD088496031206899
:1033A000884237D0854978312068884232D08349B5
:1033B0009031206888422DD08049A8312068884209
:1033C00028D07F492068884224D07D491831206860
:1033D00088421FD07A493031206888421AD0784913
:1033E00048312068884215D0754900E026E06031F8
:1033F000206888420ED0724978312068884209D00E
:103400006F4990312068884204D06D49A831206806
:10341000884204D12068406900F0800002E0206802
:103420000068002050B194F85C0000F01F010120FA
:103430008840B060606D40F00200606594F85C0008
:1034400000F01F01042088403840E8B35B49206841
:1034500088424BD0594918312068884246D0574994
:1034600030312068884241D0544948312068884230
:103470003CD0524960312068884237D04F4978317A
:103480002068884232D04D499031206888422DD042
:103490004A49A8312068884228D049492068884292
:1034A00024D047491831206888421FD04449303120
:1034B000206888421AD0424948312068884215D095
:1034C0003F496031206800E024E088420ED03C494A
:1034D00078312068884209D0394990312068884283
:1034E00004D03749A8312068884204D12068006898
:1034F00000F0020002E020680068002050B194F85B
:103500005C0000F01F0104208840B060606D40F056
:103510000400606594F85C0000F01F0110208840F2
:103520003840E8B325492068884251D023491831F2
:10353000206888424CD0214930312068884247D0E9
:103540001E4948312068884242D01C4960312068B9
:1035500088423DD0194978312068884238D01749CF
:1035600090312068884233D01449A83120688842BD
:103570002ED01349206888422AD01149183120687A
:10358000884225D00E4930312068884220D00C492D
:103590004831206888421BD009496031206800E02A
:1035A0004DE0884214D006497831206888420FD017
:1035B00003499031206805E06801002410000240B2
:1035C00010040240884203D0FE492068884204D19A
:1035D0002068006800F0080003E02068006800F040
:1035E000040060B394F85C0000F01F0110208840D4
:1035F000B0602068006800F4802080B12068006816
:1036000000F4002028B9206CC8B12046216C8847FE
:1036100015E0A06C98B12046A16C88470FE02068A7
:10362000006800F4807028B92068006820F0080065
:1036300021680860206C10B12046216C884794F8FE
:103640005C0000F01F0120208840384000287DD019
:10365000DD492068884249D0DB491831206888421A
:1036600044D0D9493031206888423FD0D6494831CA
:10367000206888423AD0D44960312068884235D0E9
:10368000D14978312068884230D0CF4990312068C4
:1036900088422BD0CC49A8312068884226D0C9491D
:1036A000A8392068884221D0C649903920688842CC
:1036B0001CD0C44978392068884217D0C149603984
:1036C0002068884212D0BF494839206888420DD00E
:1036D000BC4930392068884208D0BA491839206876
:1036E000884203D0B7492068884204D12068006826
:1036F00000F0100003E02068006800F0020028B32A
:1037000094F85C0000F01F0120208840B06094F81D
:10371000350004282DD12068006820F016002168AB
:1037200008602068406920F0800021684861206CB2
:1037300008B9A06C28B12068006820F00800216852
:10374000086094F85C0000F01F0100E03FE03F20BB
:103750008840B060012084F8350000BF002084F864
:10376000340000BF206D10B12046216D8847BDE8B0
:10377000F88F2068006800F4802080B1206800681D
:1037800000F4002028B9606C08B32046616C8847BB
:103790001DE0E06BD8B12046E16B884717E0206858
:1037A000006800F4807068B92068006820F010009C
:1037B00021680860012084F8350000BF002084F8EB
:1037C000340000BFE06B10B12046E16B8847606DAC
:1037D00000287AD0606D00F00100E8B3042084F87E
:1037E00035007949206888424BD0774918312068E4
:1037F000884246D0744930312068884241D07249AD
:103800004831206888423CD06F4960312068884246
:1038100037D06D4978312068884232D06A4990317A
:10382000206888422DD06849A8312068884228D075
:103830006449A8392068884223D0624990392068B9
:1038400088421ED05F4978392068884219D05D4986
:1038500060392068884200E040E012D05949483978
:10386000206888420DD0574930392068884208D0F6
:10387000544918392068884203D052492068884248
:1038800006D12068006820F001002168086005E08A
:103890002068006820F001002168086000BF0098DF
:1038A000401C0090504500D905E02068006800F0F9
:1038B00001000028F3D100BF2068006800F001007B
:1038C00020B1032084F8350003E00DE0012084F8E6
:1038D000350000BF002084F8340000BFE06C0028F1
:1038E00002D02046E16C8847D9E1384920688842F7
:1038F00022D036491431206888421DD033492831FE
:103900002068884218D031493C312068884213D061
:103910002E495031206888420ED02C4964312068ED
:10392000884209D0294978312068884204D0274943
:103930008C312068884201D1012000E0002000285D
:10394000D2D02068056894F85C0000F01F010420C4
:10395000884000EA0900D8B305F00400C0B394F829
:103960005C0000F01F0104208840C8F8040005F442
:10397000004080B105F4803030B9A06C0028B3D08D
:103980002046A16C88478AE1206C0028ACD02046F4
:10399000216C884783E105F02000E8BB0A492068D4
:1039A000884253D008491831206888424ED00649D1
:1039B00030312068884249D0034948312068884224
:1039C00044D006E0B80402401000024008540258F7
:1039D0004FE0B44960312068884237D0B14978312E
:1039E0002068884232D0AF499031206888422DD07B
:1039F000AC49A8312068884228D0AB492068884269
:103A000024D0A9491831206888421FD0A6493031F6
:103A1000206888421AD000E025E0A3494831206898
:103A2000884213D0A0496031206888420ED09E4958
:103A300078312068884209D09B49903120688842BB
:103A400004D09949A8312068884206D120680068CE
:103A500020F008002168086005E02068006820F078
:103A6000040021680860206C10B32046216C884750
:103A700015E194F85C0000F01F010220884000EA84
:103A80000900E8B305F00200D0B394F85C0000F040
:103A90001F0102208840C8F8040005F4004070B1FE
:103AA00005F4803028B9606C10B12046616C8847FD
:103AB000F5E0E06BF0B32046E16B8847EFE005F0FE
:103AC0002000C0BB7749206888424ED07549183124
:103AD0002068884249D0734930312068884244D0F8
:103AE00070494831206888423FD06E496031206873
:103AF00088423AD06B4978312068884235D000E05E
:103B00004EE068499031206888422ED06549A8313E
:103B10002068884229D064492068884225D06249BB
:103B200018312068884220D05F49303120688842AF
:103B30001BD001E06EE02DE05B49483120688842EF
:103B400013D059496031206888420ED056497831E7
:103B50002068884209D0544990312068884204D0B6
:103B60005149A8312068884206D12068006820F0B9
:103B700014002168086005E02068006820F00A0051
:103B800021680860012084F8350000BF002084F817
:103B9000340000BFE06BE8B32046E16B88477EE06D
:103BA00094F85C0000F01F010820884000EA09003A
:103BB00080B305F0080068B33A49206888424BD0CA
:103BC000384918312068884246D03649303120685B
:103BD000884241D033494831206888423CD031493D
:103BE00060312068884237D02E4978312068884279
:103BF00032D02C499031206888422DD02949A831F3
:103C00002068884228D028492068884224D0264944
:103C1000183100E043E0206888421DD0224930314D
:103C20002068884218D0204948312068884213D043
:103C30001D496031206888420ED01B4978312068C8
:103C4000884209D0184990312068884204D016492A
:103C5000A8312068884206D12068006820F01C0046
:103C60002168086005E02068006820F00E002168E7
:103C7000086094F85C0000F01F0101208840C8F83B
:103C800004000120606584F8350000BF002084F83E
:103C9000340000BFE06C10B12046E16C884700BFE3
:103CA00065E5000010000240100402402DE9F041DB
:103CB000044601F027FD804614B90120BDE8F081DB
:103CC000FE492068884249D0FC4918312068884262
:103CD00044D0FA493031206888423FD0F749483112
:103CE000206888423AD0F54960312068884235D052
:103CF000F24978312068884230D0F049903120680C
:103D000088422BD0ED49A8312068884226D0EC4962
:103D10002068884222D0EA491831206888421DD0A4
:103D2000E74930312068884218D0E5494831206899
:103D3000884213D0E2496031206888420ED0E049C1
:103D400078312068884209D0DD4990312068884266
:103D500004D0DB49A8312068884201D1012000E06D
:103D60000020002873D0606A00B100BF022084F8F0
:103D7000350000BF002084F8340000BFCF49206820
:103D8000884249D0CD4918312068884244D0CB4977
:103D90003031206888423FD0C84948312068884285
:103DA0003AD0C64960312068884235D0C34978315D
:103DB0002068884230D0C1499031206888422BD099
:103DC000BE49A8312068884226D0BD492068884273
:103DD00022D0BB491831206888421DD0B849303103
:103DE0002068884218D0B64948312068884213D0EC
:103DF000B3496031206888420ED0B14978312068DB
:103E0000884209D0AE4990312068884204D0AC493C
:103E1000A8312068884206D12068006820F001009F
:103E20002168086005E02068006820F00100216832
:103E300008600DE001F066FCA0EB0800052807D93A
:103E400020206065032084F83500012036E769E012
:103E50002068006800F001000028EBD120680568A8
:103E600098480540D4E90201084321690843616983
:103E70000843A1690843E1690843216A08430543EF
:103E8000606A042803D1D4E90B0108430543606844
:103E9000292802D360682E2817D960683F2802D3EA
:103EA0006068422811D96068472802D360684828B2
:103EB0000BD960684F2802D36068522805D9606822
:103EC000742804D36068772801D8012000E000201E
:103ED00008B145F48015206805602068456925F023
:103EE0000705606A0543606A04280DD1A06A05438E
:103EF000E06A48B12046FDF7C5F828B1402060656A
:103F0000012084F83500D9E6206845612046FCF799
:103F100095FF064694F85C0000F01F013F208840A2
:103F2000B0609EE068492068884222D0664914311A
:103F3000206888421DD0644928312068884218D002
:103F400061493C312068884213D05F495031206874
:103F500088420ED05C4964312068884209D05A49B1
:103F600078312068884204D057498C3120688842D3
:103F700001D1012000E00020E0B3534920688842CD
:103F800022D051491431206888421DD04E49283131
:103F90002068884218D04C493C312068884213D0B0
:103FA00049495031206888420ED047496431206821
:103FB000884209D0444978312068884204D0424977
:103FC0008C312068884201D1012000E0002000B13E
:103FD00000BF022084F8350000BF002084F83400C0
:103FE00000BF2068056839480540A068402802D114
:103FF000102106E02EE0A068802801D1C10100E078
:104000000021E06841EAD001206941EAD0016069FD
:1040100041EAD001A06941EAD001E06941EAD0015A
:10402000206A41EA1010054320680560264920688F
:10403000401A1421B0FBF1F08000E0652046FCF747
:10404000FDFE074694F85C0000F01F010120884047
:10405000786006E040206065032084F83500012088
:104060002CE61649206888427AD014491831206815
:10407000884275D0114930312068884270D00F498C
:104080004831206888426BD00C49603120688842F2
:1040900066D00A4978312068884261D0074990315A
:1040A000206888425CD00549A8312068884257D0F2
:1040B00003492068884253D0014909E010000240BA
:1040C000100402403F8010FE085402580F00FEFF0B
:1040D00018312068884243D03749206888423FD051
:1040E00035491831206888423AD033493031206848
:1040F000884235D0304948312068884230D02E4936
:104100006031206888422BD02B4978312068884262
:1041100026D02A492068884222D0284914312068B4
:1041200088421DD0254928312068884218D023496B
:104130003C312068884213D02049503120688842A1
:104140000ED01E4964312068884209D01B4978315D
:104150002068884204D019498C312068884201D1F6
:10416000012000E0002000B32046FCF7DDFEA0683F
:10417000802801D1002060602079216E0860D4E998
:1041800019104860606860B16068082809D8204646
:10419000FCF72CFF0020E16E0860D4E91C10486099
:1041A00003E00020E0662067606700206065012072
:1041B00084F83500002081E540040240085402588C
:1041C0002DE9F04104460D4616461F464FF0000803
:1041D00014B90120BDE8F08100BF94F83400012833
:1041E00001D10220F6E7012084F8340000BF94F8E2
:1041F000350001287ED1022084F83500002060655A
:10420000E4492068884249D0E24918312068884250
:1042100044D0E0493031206888423FD0DD49483100
:10422000206888423AD0DB4960312068884235D026
:10423000D84978312068884230D0D64990312068FA
:1042400088422BD0D349A8312068884226D0D24951
:104250002068884222D0D0491831206888421DD079
:10426000CD4930312068884218D0CB494831206888
:10427000884213D0C8496031206888420ED0C649B0
:1042800078312068884209D0C3499031206888423B
:1042900004D0C149A8312068884206D1206800684E
:1042A00020F001002168086005E02068006820F027
:1042B0000100216808603B46324629462046FCF74B
:1042C00039FFB449206888424BD0B2491831206880
:1042D000884246D0AF4930312068884241D0AD494C
:1042E0004831206888423CD0AA4960312068884221
:1042F00037D000E042E1A74978312068884230D0C9
:10430000A4499031206888422BD0A249A831206866
:10431000884226D0A0492068884222D09E49183180
:10432000206888421DD09C4930312068884218D0CE
:10433000994948312068884213D0974960312068F4
:1043400088420ED0944978312068884209D0924939
:1043500090312068884204D08F49A8312068884273
:1043600001D1012000E0002080B12068006820F029
:104370001E0040F0160021680860206CB0B1206873
:10438000006840F00800216808600FE020680068BD
:1043900020F00E0040F00A0021680860206C28B16F
:1043A0002068006840F004002168086079492068AE
:1043B000884270D077491831206888426BD075499F
:1043C00030312068884266D072494831206888427E
:1043D00061D070496031206888425CD06D49783185
:1043E0002068884257D06B4990312068884252D06B
:1043F0006849A831206888424DD0674920688842C2
:1044000049D0654918312068884244D0624930312A
:10441000206888423FD060494831206888423AD0BD
:104420005D4960312068884235D05B497831206829
:10443000884230D058499031206888422BD0564964
:10444000A8312068884226D054492068884222D06A
:1044500052491431206888421DD0504928312068C3
:10446000884218D04D493C312068884213D04B49CE
:104470005031206888420ED0484964312068884213
:1044800009D0464978312068884204D043498C31AC
:104490002068884201D1012000E0002090B1206E08
:1044A000006800F4803028B1206E006840F480700D
:1044B000216E0860E06E28B1E06E006840F4807004
:1044C000E16E086033492068884249D0314918318B
:1044D0002068884244D02F493031206888423FD03C
:1044E0002C494831206888423AD02A4960312068F6
:1044F000884235D0274978312068884230D0254914
:104500009031206888422BD02249A8312068884207
:1045100026D021492068884222D01F4918312068BE
:1045200088421DD01C4930312068884218D01A4971
:1045300048312068884213D017496031206888428A
:104540000ED0154978312068884209D0124990313F
:104550002068884204D01049A8312068884206D1DA
:104560002068006840F001002168086010E02068C1
:10457000006840F001002168086009E04FF4006025
:10458000606500BF002084F8340000BF4FF00108D0
:1045900040461FE610000240100402400854025832
:1045A00070B5044601F0AEF806462546681C10B109
:1045B00004480078054400BF01F0A4F8801BA8421D
:1045C000FAD370BD6401002430B5034693F89840D7
:1045D000012C01D0022C3ED11868806D084030B902
:1045E0001868C06D40F001001D68E8650EE01868AD
:1045F000806D0840884206D11868C06D40F0020006
:104600001D68E86502E003201D68E86501F400709C
:1046100030B11868D0F8E00010431D68C5F8E0001C
:1046200001F4806030B11868D0F8E40010431D68D0
:10463000C5F8E40000BF1868406D0B4D0D402843DD
:104640001D6868650948006840EA9170074D286058
:1046500000BF002030BDD3F89C0040F00200C3F83A
:104660009C000120F6E70000FFFFCF3F14A80040A8
:104670002DE9F04104460E461746706800B900E087
:1046800000BF94F89800022832D12068D0F8C0000A
:1046900000F07C5040B9D4F89C0040F02000C4F8F1
:1046A0009C000120BDE8F0812068D0F8C40000F42F
:1046B000001038B1D4F89C0040F40070C4F89C009D
:1046C0000120EFE72068D0F8C400C0F304452B4672
:1046D0003A4631462046FCF7ABFF0120A84021684E
:1046E000C1F8D0000120A840C4F894000020D9E708
:1046F000D4F89C0040F00800C4F89C000120D1E7E9
:10470000704710B5034601B900E000BF93F8980068
:10471000012824D151B91868D0F8F00020F07C505D
:1047200040EA02601C68C4F8F00016E001290AD1D2
:104730001868D0F8A00020F0FE4040EA02601C6833
:10474000C4F8A00009E01868D0F8B00020F0FE40DE
:1047500040EA02601C68C4F8B000002010BDD3F825
:104760009C0040F00400C3F89C000120F6E7F0B57F
:10477000024692F89860012E01D0022E43D1C868FB
:10478000072800D100BF086818BBC868072800D0F8
:1047900000BFC86807280BD1088A4FF0605747EA66
:1047A0000040CF6940EA07208F6940EA07040AE029
:1047B000087A80070F7B40EAC7600F8A40EA07400B
:1047C0004F6940EA0704D76E486807EB80031C6016
:1047D00017E0C868072800D000BF0F7B086940EACF
:1047E0004774C868072801D18D6903E00F7A4869CA
:1047F00040EA8775176F486807EBC0031C601B1DF4
:104800001D600020F0BDD2F89C0040F00200C2F80C
:104810009C000120F6E77047704700002DE9F04347
:1048200004460D469C46002394F89880B8F1020F88
:1048300074D1402D38D12068D0F8A00000F4FE00DB
:1048400040B9D4F89C0040F02000C4F89C0001203E
:10485000BDE8F0832068D0F8A40000F07F0038B9EC
:10486000D4F89C0040F48070C4F89C000120EFE76D
:104870002068D0F8A400C0F3006040B12068D0F8F0
:10488000A0004FF00049B9EBD07F00D10123206890
:10489000D0F8A400C0F305200344606C5843D4F85A
:1048A000749009EB80014BE0412D38D12068D0F89D
:1048B000B00000F4FE0038B9D4F89C0040F02000AD
:1048C000C4F89C000120C3E72068D0F8B40000F0D1
:1048D0007F0038B9D4F89C0040F48070C4F89C0084
:1048E0000120B5E72068D0F8B400C0F3006040B103
:1048F0002068D0F8B0004FF00049B9EBD07F00D16C
:1049000001232068D0F8B400C0F305200344E06C14
:104910005843D4F8789009EB800111E06EE0206DE7
:10492000A84207D8D4F89C0040F02000C4F89C00AE
:1049300001208DE7606D6843D4F87C9009EB80011D
:10494000086800F080405060506820B90868C0F3E3
:104950008A40106003E0086820F06040106008683A
:1049600000F000509060086800F000401061091DE0
:10497000088880B2D061086800F47020D0600868B0
:1049800000F480105061086800F40010906108681D
:10499000C0F3066010620868C00F5062091D0F4620
:1049A000002603E0B85D0CF80600761CDFF85C908A
:1049B000D06809EB10400078B042F3D8402D03D105
:1049C0002068C0F8A83017E0412D03D12068C0F856
:1049D000B83011E0202D06D20120A840D4F8009074
:1049E000C9F8980008E005F01F09012000FA09F055
:1049F000D4F80090C9F89C00002029E7D4F89C0066
:104A000040F00800C4F89C00012021E71CF80108D0
:104A1000704700002DE9F04F8DB00446EF48006864
:104A20008707EE48001D006807EA80772068006D60
:104A300000F470482068406D00EA08082068006DA6
:104A400000F00F092068406D00EA09092068006D38
:104A500000F0F00A2068406D00EA0A0A2068006D44
:104A600000F0715B2068406D00EA0B0B2068006D60
:104A700000F060700C902068406D0C9908400C901C
:104A80002068456D2068066DC5F3002070B1C6F33F
:104A9000002058B100BF4FF48070216808650020E5
:104AA000CE49086000BF2046FFF7B2FFC5F3802063
:104AB000C8B1C6F38020B0B12068D0F8DC000A90FD
:104AC0002068D0F8E4000A9908400A9000BF4FF42B
:104AD0008060216808650020C049086000BF20464A
:104AE0000A9900F04EFC67B100BFBD48384021680C
:104AF0000865B80FB949086000BF39462046FFF77E
:104B0000FFFDB8F1000F0ED000BFB54808EA000065
:104B1000216808654FEA9870B049086000BF4146B7
:104B2000204600F030FCB9F1000F0ED000BFAC48B9
:104B300009EA0000216808654FEA9970A7490860F2
:104B400000BF4946204600F0DFFBBAF1000F0ED04F
:104B500000BFA3480AEA0000216808654FEA9A707E
:104B60009E49086000BF5146204600F0E9FBC5F3AE
:104B7000C02070B1C6F3C02058B100BF4FF4006030
:104B80002168086500209549086000BF204600F0B4
:104B9000FBFBC5F34020C8B1C6F34020B0B120688C
:104BA000D0F8D8000B902068D0F8E0000B990840AE
:104BB0000B9000BF4FF40070216808650020874902
:104BC000086000BF20460B9900F0DCFBC5F3C04035
:104BD00070B1C6F3C04058B100BF4FF40020216847
:104BE000086500207D49086000BF204600F08AFB70
:104BF000C5F3004070B1C6F3004058B100BF4FF498
:104C000080302168086500207449086000BF204694
:104C100000F0B6FBC5F3804070B1C6F3804058B1D8
:104C200000BF4FF480202168086500206B490860B0
:104C300000BF204600F0A3FBC5F3404088B1C6F397
:104C4000404070B100BF4FF400302168086500207B
:104C50006249086000BFD4F89C0040F08000C4F8AE
:104C60009C000C9870B100BF5D490C980840216809
:104C700008650C98800F5949086000BF20460C99C0
:104C8000FFF7CAFDBBF1000F10D000BF54480BEA7C
:104C90000000216808654FEA9B705049086000BF1A
:104CA000D4F89C0040EA0B00C4F89C004D492068F1
:104CB00088427DD16068806800F00300002877D0CA
:104CC0006068006A00F00F0009906068406A099906
:104CD000084009906068006A00F030000890606841
:104CE000406A0899084008906068006A00F4C07043
:104CF00007906068406A0799084007906068006AFA
:104D000000F4FC4006906068406A069908400690EE
:104D10006068006A00F4F02005906068406A0599B8
:104D2000084005906068406A02906068006A0190DF
:104D3000099830B10998616808622046099900F025
:104D40001BFB089830B108986168086220460899F2
:104D500000F014FB0298C0F38010A0B10198C0F3DA
:104D6000801080B16068C06B000C04906068C06BFC
:104D700000F03F0003904020616808622046DDE9B2
:104D8000032100F0FAFA079830B1079861680862C9
:104D90002046079900F0EFFA069840B1069861683E
:104DA0000862D4F89C0006990843C4F89C0000E00F
:104DB0000AE0059840B1059861680862D4F89C0043
:104DC00005990843C4F89C00D4F89C0010B1204613
:104DD000FFF721FD0DB0BDE8F08F000010A80040E6
:104DE000FFFFCF3F00A0004070B594B004464C22B6
:104DF000B34901A8FBF717FB14B9012014B070BD2B
:104E0000B0492068884203D1206800F58070606056
:104E1000A068B0F5407F00D100BF206C00B100BF9A
:104E2000A06C00B100BF206D00B100BF206E00B1CA
:104E300000BFD4E91710084400B100BF94F89800EF
:104E400028B9002084F89900204600F03DF9206838
:104E5000806920F010002168886100F053FC05464D
:104E60000EE000F04FFC401B0A2809D99834606816
:104E700040F001006060032004F898090120BDE7BC
:104E80002068806900F008000828EAD0206880695E
:104E900040F001002168886100F034FC05460EE016
:104EA00000F030FC401B0A2809D99834606840F0B3
:104EB00001006060032004F8980901209EE7206843
:104EC000806900F001000028EAD02068806940F085
:104ED000020021688861207C012806D12068806951
:104EE00020F040002168886105E02068806940F07A
:104EF000400021688861607C012806D120688069B3
:104F000040F480402168886105E02068806920F4D1
:104F1000804021688861A07C012806D120688069D2
:104F200020F480502168886105E02068806940F4A1
:104F30008050216888612068806920F44070A168F1
:104F40000843216888612068806920F0A4002168F6
:104F500088612068006920F0100021680861E0681D
:104F6000012806D12068806940F00400216888612A
:104F700020E0E068F0B1E068022815D02068806980
:104F800040F08000216888612068006940F01000CE
:104F900021680861E06803280CD12068806940F02E
:104FA00020002168886105E02068806940F02000C9
:104FB00021688861207E401E4106E069401E41EA6A
:104FC0000020216A491E0843A18A491E40EA014087
:104FD0002168C861A068B0F5407F0FD1A06A401E6B
:104FE000E16A491E40EA0121206B401E41EA00119E
:104FF000A08C401E41EA00402168C860206E38B194
:105000002068D0F8C000616E08432168C1F8C00074
:10501000D4E91710084460B12068D0F8C80020F027
:10502000070001AAA16E52F8211008432168C1F8B7
:10503000C800206C60B12068D0F8BC0020F00700E8
:1050400001AA616C52F8211008432168C1F8BC0024
:10505000A06C68B12068D0F8BC0020F0700101AAF3
:10506000E06C52F8200041EA00102168C1F8BC0051
:10507000206D68B12068D0F8BC0020F4E06101AA7E
:10508000606D52F8200041EA00202168C1F8BC00A0
:105090000C492068884205D16068806820F00300D0
:1050A00061688860002044F8940FA060012020719E
:1050B000943C2046FCF7ACF9064630469EE60000DC
:1050C0002CF8010800A0004010B5B6B00446142129
:1050D00030A8FBF7C1F9B82102A8FBF7BDF9824956
:1050E0002068884251D14FF400410020CDE90210E0
:1050F00048031D9002A802F091FF08B1FCF755F992
:105100007A480068401C7949086008460068012810
:105110000DD100BF7648006840F480707449086083
:105120000846006800F48070019000BF00BF00BF17
:105130006F480C38006840F008006D490C39086071
:105140000846006800F00800019000BF00BF03207F
:10515000309002203190002032903390092034901A
:1051600030A9644800F0C8F900220521132000F09E
:1051700081FB132000F06AFB00220521152000F0BE
:1051800079FB152000F062FBABE05B4920688842A8
:1051900051D14FF400410020CDE9021048031D9089
:1051A00002A802F03BFF08B1FCF7FFF84F48006887
:1051B000401C4E4908600846006801280DD100BF18
:1051C0004B48006840F48070494908600846006810
:1051D00000F48070019000BF00BF00BF44480C384D
:1051E000006840F0020042490C3908600846006837
:1051F00000F00200019000BF00BF6020309002204C
:1052000031900020329033900920349030A93B48EF
:1052100000F072F900220521142000F02BFB14206D
:1052200000F014FB00220521162000F023FB1620BD
:1052300000F00CFB55E032492068884251D14FF410
:1052400000410020CDE9021048031D9002A802F0A1
:10525000E5FE08B1FCF7A9F824480068401C234982
:1052600008600846006801280DD100BF204800688A
:1052700040F480701E4908600846006800F48070A1
:10528000019000BF00BF00BF19480C38006840F013
:10529000080017490C3908600846006800F008004B
:1052A000019000BF00BF4FF4405030900220319079
:1052B0000020329033900520349030A90D4800F042
:1052C0001BF9002205219F2000F0D4FA9F2000F056
:1052D000BDFA00220521A02000F0CCFAA02000F0A9
:1052E000B5FA36B010BD000000A00040CC0000248C
:1052F000EC440258000C025800A40040000402587C
:1053000000D400407047000070B504460D4605F01B
:10531000010070B10748844201D10DF0A7F9064899
:10532000844201D10DF0ACF90448844201D10DF062
:10533000B1F970BDF861002498620024386300243C
:105340007047014691F8980001280CD1022081F89D
:1053500098000868806920F001000A6890610020C8
:10536000C1F89C007047D1F89C0040F00400C1F8DF
:105370009C000120F6E77047704770477047704700
:10538000704770477047704770470000F0B50C4693
:1053900000214E4B93E001268E4006EA0402002ACB
:1053A0007ED04B4E8F0856F827508E07370F0F26AA
:1053B000BE403540474EB04201D1002628E0464E5F
:1053C000B04201D1012623E0444EB04201D1022671
:1053D0001EE0434EB04201D1032619E0414EB042D7
:1053E00001D1042614E0404EB04201D105260FE061
:1053F0003E4EB04201D106260AE03D4EB04201D1F8
:10540000072605E03B4EB04201D1092600E00A26FE
:105410008F073F0FBE40AE421FD11E6896431E60ED
:105420005E6896435E604FF0B046766896434FF0F4
:10543000B0477E603E46366896433E608E07370F23
:105440000F2606FA07F5224E8F0856F82760AE435E
:105450001F4F4FEA910C47F82C6006684FEA410C49
:10546000032707FA0CF73E430660CF0800F1200639
:1054700056F827604F074FEAD76C0F2707FA0CF74B
:10548000BE434FEAD10C00F1200747F82C60C668F4
:105490004FEA410C032707FA0CF7BE43C66000E051
:1054A0000CE0476801268E40B743476086684FEAA4
:1054B000410C032707FA0CF7BE438660491C24FA07
:1054C00001F6002E7FF467AFF0BD000080000058A9
:1054D000080400580000025800040258000802584E
:1054E000000C02580010025800140258001802580C
:1054F000001C025800240258F8B502460B46002151
:105500006D4DD2E001278F401E6806EA0704002C8B
:1055100072D01E7906F00306012E04D01E7906F023
:105520000306022E13D190684F000326BE40B043FD
:105530004F00DE68BE4030439060506801268E40C8
:10554000B0431E79C6F300168E40304350601E797A
:1055500006F00306032E09D0D0684F000326BE4094
:10556000B0434F009E68BE403043D0601E7906F0C5
:105570000306022E13D1CF0802F1200656F82700A9
:105580004E07F70E0F26BE40B0434F07FF0E1E69B1
:10559000BE403043CF0802F1200646F827001068CD
:1055A0004F000326BE40B0431E7906F003064F00AD
:1055B000BE40304310605E6806F44036002E73D063
:1055C00000BF3E4E366846F002063C4F3E603E4607
:1055D000366806F00206009600BF00BF384E8F08FE
:1055E00056F827008E07370F0F26BE40B043354EC2
:1055F000B24202D1002629E056E0334EB24201D138
:10560000012623E0314EB24201D102261EE0304E87
:10561000B24201D1032619E02E4EB24201D1042636
:1056200014E02D4EB24201D105260FE02B4EB242BE
:1056300001D106260AE02A4EB24201D1072605E032
:10564000284EB24201D1092600E00A268F073F0FFB
:10565000BE4030431A4E8F0846F827004FF0B04640
:105660003068A0435E6806F4801606B120434FF010
:10567000B04630607068A0435E6806F4001606B15C
:1056800020434FF0B04670606868A0435E6806F43F
:10569000003606B1204368602868A0435E6806F4BF
:1056A000803606B120432860491C1E68CE40002E7B
:1056B0007FF428AFF8BD000080000058F444025881
:1056C000080400580000025800040258000802585C
:1056D000000C02580010025800140258001802581A
:1056E000001C025800240258024613690B400BB1FB
:1056F000012000E0002070470AB1816101E00B0445
:105700008361704701480068704700005C01002415
:105710000348006803490978084401490860704754
:105720005C0100246401002410B5032000F0E0F8BF
:1057300003F0E8FC10490968C1F303210F4A515CEA
:1057400001F01F0120FA01F40B48006800F00F007F
:105750001146085C00F01F0024FA00F008490860B8
:10576000084804600F2000F00FF808B1012010BDB8
:1057700000F054F80020FAE718440258A0F8010895
:105780006C0100246801002470B58AB00446102C16
:105790000AD200222146A12000F06CF8A12000F0DE
:1057A00055F81948046002E001200AB070BD00BF3E
:1057B0001648006840F08070144908600846006888
:1057C00000F08070009000BF00BF01A902A803F0A4
:1057D00019FC03F085FC45000D48B5FBF0F0461EB2
:1057E0000C480D49086040F2E7310B48C160466043
:1057F00000210161816004F0C7FF18B9064804F078
:10580000FBFFD2E70120D0E760010024EC440258FE
:1058100040420F0000E00040E069002408B500BFEE
:105820000948006840F0020007490860084600681F
:1058300000F00200009000BF00BF00220F21901E68
:1058400000F018F808BD0000F4440258014608466C
:1058500000280DDB00BF00BF00F01F0301229A40AB
:1058600043099B0003F1E023C3F8002100BF00BF00
:1058700000BF70472DE9F05F80460D4616460CF0DC
:1058800099FB074639462A46334601F00700C0F126
:10589000070ABAF1040F02D94FF0040A01E0C0F17F
:1058A000070AD14600F1040ABAF1070F02D24FF0FD
:1058B000000A01E0A0F1030AD4464FF0010A0AFAF7
:1058C00009FAAAF1010A0AEA020A0AFA0CFA4FF0E6
:1058D000010B0BFA0CFBABF1010B0BEA030B4AEAD1
:1058E0000B04214640460CF06DFBBDE8F09F000024
:1058F00000BF00F00702064B19684FF6FF0319407E
:10590000044B0B4343EA0221014B196000BF70476F
:105910000CED00E00000FA052DE9F04F8DB0814656
:105920000C4693464FF0000AD046FE49D9F80000D5
:10593000884202D10026012501E00126002500272A
:1059400010E007EB470201AB03EBC2017A1CD0B2B7
:1059500007F0C8FD20B14FF0010A0820C9F8540033
:10596000781CC7B2022FECD3BAF1000F7ED1ED48FC
:10597000006800F0010038B1EA48006820F001003A
:10598000E849086048F00108E748006800F00100B5
:1059900038B1E548006820F00100E349086048F0AC
:1059A0000208E24806EB460101AA02EBC101896840
:1059B000491E50F8210020F48072DC4806EB4601B5
:1059C00001AB03EBC1018968491E40F82120001F8B
:1059D000006800F0010000287FD0D448001F006854
:1059E00020F00100D149091F0860012D73D1081D65
:1059F00005EB450101AA52F83110491E50F821006B
:105A000040F00202C94805EB450153F83110491E28
:105A100040F8212005EB450001A901EBC0004068DA
:105A2000A0B1C24805EB450101AA02EBC1014968DA
:105A3000491E50F8210040F02002BC4805EB45010A
:105A400003EBC1014968491E40F8212005EB4500E0
:105A500001A901EBC000C068D8B1B44805EB45010D
:105A600001AA02EBC101097B491E00E0C6E201F078
:105A7000010150F8210040F48022AC4805EB4501BB
:105A800001AB03EBC101097B491E01F0010140F8A4
:105A9000212005EB450001A901EBC00000690028A9
:105AA00019D0A24805EB450101AA02EBC101097C0E
:105AB000491E01F0010150F8210040F080629B482E
:105AC00005EB450101AB03EBC101097C491E01F067
:105AD000010140F8212079E0FFE706EB460001A92B
