:020000040800F2
:10000000907E01205D020008DDC500082D940008E7
:10001000D9B60008E92600089D320108000000005A
:100020000000000000000000000000009D0100082A
:10003000C344000800000000F9010008A51F0108E2
:1000400077020008770200087702000877020008AC
:10005000770200087702000877020008770200089C
:10006000770200087702000877020008770200088C
:100070007702000877020008770200089943000819
:10008000770200087702000877020008770200086C
:10009000770200087702000877020008770200085C
:1000A00077020008A52001087702000877020008FF
:1000B000770200087702000877020008770200083C
:1000C000770200087702000877020008770200082C
:1000D000770200086D3101087D3101088D3101087A
:1000E000770200087702000877020008770200080C
:1000F000D5200108BD20010877020008770200081A
:1001000077020008770200087702000877020008EB
:100110005D2C0108770200087702000877020008CA
:10012000770200087702000877020008A943000858
:1001300077020008770200087702000877020008BB
:1001400077020008770200087702000877020008AB
:10015000770200087702000877020008770200089B
:10016000770200087702000877020008770200088B
:1001700077020008770200087702000800000000FC
:100180007702000877020008DFF80CD000F068FF63
:1001900000480047E5E10308907E01202C4B1968D8
:1001A0000868B0E8F04F80F30988BFF36F8F4FF015
:1001B000000080F3118870470000000008480068C4
:1001C000006880F308884FF0000080F3148862B65E
:1001D00061B6BFF34F8FBFF36F8F00DF00BF00BF6B
:1001E00008ED00E0DFF80C00016841F470010160E7
:1001F000704700BF88ED00E0EFF30980BFF36F8F19
:10020000134B1A681EF0100F08BF20ED108A20E96A
:10021000F04F106009B44FF0500080F31188BFF325
:100220004F8FBFF36F8F46F055FB4FF0000080F308
:10023000118809BC19680868B0E8F04F1EF0100F6B
:1002400008BFB0EC108A80F30988BFF36F8F704746
:10025000D4040020EFF30580704700000648804773
:1002600006480047FEE7FEE7FEE7FEE7FEE7FEE79B
:10027000FEE7FEE7FEE7FEE791200108890100089E
:100280002DE9F05F0546002092469B4688460646CB
:10029000814640241BE0284641464746224600F05E
:1002A0001CFD53465A46C01A914110D311461846B8
:1002B000224600F003FD2D1A67EB01084F46224647
:1002C0000120002100F0FAFC17EB00094E41201E2E
:1002D000A4F10104DFDC484631462A464346BDE826
:1002E000F09FA0F14101192900D82030704710B5C6
:1002F000431A934209D28318881803E010F8011DAD
:1003000003F8011D521EF9D210BD40EA01039B07FC
:1003100003D009E008C9121F08C0042AFAD203E07A
:1003200011F8013B00F8013B521EF9D210BDD2B2C8
:1003300001E000F8012B491EFBD270470022F6E7CE
:1003400010B513460A4604461946FFF7F0FF20464B
:1003500010BD421C10F8011B0029FBD1801A704708
:1003600010B5002200E0521C835C8C5CA34201D1DA
:10037000002BF8D1D8B2E1B2401A10BD034611F8F3
:10038000012B00F8012B002AF9D11846704730B52F
:1003900005460020034600E05B1C934205D2EC5C5E
:1003A000C85C201A01D1002CF6D130BD70B50F4DBC
:1003B00000B92868002412E00A4602E09E4203D0F9
:1003C000521C1378002BF9D1DAB2224305D02BB19D
:1003D00024B1002100F8011B04E00446401C06780B
:1003E000002EE9D12860204670BD00005405002091
:1003F0000FB400B58DB010A909900B9000914FF08B
:10040000FF300A9000200C900548069005480790A0
:100410006A4609A80F9900F089FC0DB05DF814FB3D
:10042000490D0008670D00082DE9FF4F087883B0DB
:100430009946FF2805D0491C2D2804D0002400200F
:1004400008E000200BE00124F9E700EB800003EB5B
:100450004000491C0B78FF2BF7D104B14042002328
:100460000293147819461D462D2C01D02B2C04D153
:10047000521C2D2C13D000240294AA461478FF2C71
:100480000FD00A25A3FB057801FB05814FF0000C76
:1004900003FB0C11521CE3194AEB0101EEE70124A6
:1004A000EAE7814453EA010002D019F5C87F06DA71
:1004B00003980021C0E9001107B0BDE8F08F0025C6
:1004C000AE4E2F46DFF8B882184600F010FBCDE99B
:1004D0000001B9F1000002DAC9F1000400E00446AD
:1004E0000023A74A1AEB030B42EB045A12E0E00781
:1004F00007D02A4633463846414600F0F9F9074608
:1005000088462A4633461046194600F0F1F905465A
:100510000E466410002CEAD1DDE90001B9F1000FAC
:100520005A46534606DA00F055FA3A46434600F07A
:1005300051FA05E000F0DCF93A46434600F0D8F9FC
:10054000029A0AB181F00041039AC2E90001B3E7BF
:100550002DE9FF4F1F468DB0D7E901464FF0FF3818
:100560002E2045464FF000090B90B9696D1C0E987E
:100570008847396A824688470028F6D1BAF1FF3F9A
:100580000AD024F4D064002E11DDBAF12B0F08D06C
:10059000BAF12D0F0BD102E0404611B08DE744F4C3
:1005A0008064B9696D1C0E9888478246761E69463C
:1005B000600501D52D2000E02B208DF8000001F111
:1005C000010B0DF1200809E0B9696D1C0E988847F0
:1005D00082460F9844F40074761E0560002E02DDFA
:1005E000BAF1300FF0D00B998A453ED144F0800427
:1005F00006E00F99681CA9F1010944F40074086031
:10060000B9696D1C761E0E98884782463028F0D056
:100610002BE00B998A4505D1200603D444F08004D1
:10062000761E18E0504614F0F4FC08B30DF11301E7
:10063000761E44F400748B4508D2AAF130000BF802
:10064000010B200607D5A9F1010003E0200602D422
:1006500009F101008146A00502D50F99681C0860C8
:10066000B9696D1C0E9888478246002ED1DC53E094
:10067000002E51DDBAF1650F02D0BAF1450F4BD112
:10068000A00549D5B9696D1C24F44074761E0E98F6
:1006900088478246002E0CDD2B2804D0BAF12D0F9E
:1006A00007D144F48074B9696D1C0E98884782465E
:1006B000761EE00501D52D2100E02B2108F8011B55
:1006C000CDF82C8021E00DF12901761E44F4007450
:1006D00088450CD2AAF1300010F0FF0088F8000025
:1006E00002D10B99884509D908F1010806E0E00517
:1006F00001D5244801E042F20F708146B9696D1CB2
:100700000E98884782460F980560002E04DD5046FB
:1007100014F07FFC0028D6D1F9690E988847FF2095
:100720008BF8000088F800000020069007904B46E8
:100730006A4608A906A8FFF777FEA00502D46FF065
:1007400001002AE714F0240F0AD0E00714D1DDE9F4
:1007500006123868031D3B600068C0E900120BE018
:10076000DDE9060100F078FA0146E00704D13868B7
:10077000021D3A600068016028460EE70000144040
:100780000000F03FF1D8FFFF70B5064613F078FA8D
:10079000046805460A220021304600F043FB2C6025
:1007A00070BD2DE9FE4F804681EA0300C00F0C4664
:1007B000009021F0004123F00045B8EB0200A94170
:1007C00005D24046214690461C460B46024623F081
:1007D0000040104347D0270DC7F30A00C3F30A5166
:1007E0000290401A019040286BDAC3F3130040F4E2
:1007F000801B0098924620B10023D2EB030A63EBE2
:100800000B0B01985946C0F14002504600F056FAD1
:1008100006460D4650465946019A00F06EFA10EB16
:1008200008006141002487EA115284EAE7731A4301
:1008300040D0009A62B3019A012A4FEA075215DCB0
:10084000001B61EB02014FF0004202EA0752CDE9C2
:100850000042001C41F5801132462B4600F060FB3F
:1008600003B0BDE8F08F40462146F9E7001B61EB7D
:100870000201001C41F5801300185B412018A2F50D
:10088000001747EB030140EAD570B6196D4111E03E
:100890006D084FEA360645EAC0754FEA0752001B5D
:1008A00061EB0201001C41F5801149084FEA30005C
:1008B0000019514132462B4603B0BDE8F04F00F01D
:1008C00020BB0098012240000023D0EB020263EB22
:1008D000E073009821464FEAE074B8EB000061EB4A
:1008E0000401E9E783F000435BE781F0004158E74A
:1008F0002DE9FE4F81EA030404F0004421F0004199
:1009000000944FF0000B23F0004350EA01045ED046
:1009100052EA03045BD0C3F30A54C1F30A552C44D2
:10092000A4F2F3340194A0FB0254C1F3130141F487
:100930008011C3F3130343F4801301FB024400FB53
:10094000034E840A970A44EA815447EA8357A4FB7A
:10095000076802958D0A05FB07854FEA932C04FB77
:100960000C542705029D4FEA065847EA1637B5EBA7
:1009700008056EEB070C870E920E47EA811742EAD4
:100980008312A7FB0201B6EB0B0164EB00042B0DF5
:1009900043EA0C335E1844EB1C50DA465146E7FB41
:1009A0000201C5F313044FEA0B3343EA14534FEA31
:1009B0000432019C43EA0603A4F10C040294009C57
:1009C000CDE900B400F0ACFA03B0BDE8F08F002030
:1009D0000146F9E72DE9F04D81EA030404F0004BEC
:1009E00021F0004514464FF0000A23F0004150EA80
:1009F000050220D054EA01021DD0C5F30A57024671
:100A0000C5F31303C1F31300C1F30A5640F4801574
:100A100043F48013A7EB0608101BD64608F2FD38F6
:100A200073EB050002D308F1010801E092185B4165
:100A3000B8F1000F03DA00200146BDE8F08D002078
:100A40004FF48011064684460EE0171B73EB050732
:100A500005D3121B63EB050306434CEA010C49085E
:100A60004FEA300092185B4150EA0107EDD152EA9B
:100A7000030012D082EA040083EA0501084305D08E
:100A8000101BAB4106D20122002306E000224FF0EA
:100A9000004302E06FF0010253101AEB06004CEB2A
:100AA000085110EB0A0041EB0B01BDE8F04D00F0DE
:100AB00028BA0EB5C10F80EAE0700844CA070021C9
:100AC00040F233438DE80E000A460B4600F028FA48
:100AD00003B000BD0EB540F2334102910021CDE9D3
:100AE00000110A460B4600F01BFA03B000BD0EB51C
:100AF00040F2334202920022CDE90022134600F078
:100B00000FFA03B000BD20F00040C20DC0F3160084
:100B100040F400007F2A02DA0020014670470021DD
:100B2000962A03DCC2F19602D0407047963A00F054
:100B3000C5B870B5C1F30A5201F000450024C1F3F5
:100B4000130140F2FF3341F480119A4201DA002090
:100B500070BD40F233439A42A2F2334203DC524268
:100B600000F0BBF800E090402C43F1D0404270BD53
:100B7000C1F30A5210B5C1F3130140F2FF3341F43F
:100B800080119A4201DA002010BD40F233439A42AC
:100B9000A2F2334203DC524200F09FF810BD9040B5
:100BA00010BDC1F30A52C1F3130140F2FF3341F407
:100BB00080119A4202DA00200146704740F2334326
:100BC0009A42A2F2334202DC524200F086B800F0B0
:100BD00075B800F0004230F000400AD0C10D01F5B8
:100BE0006071C0F3160042EA0151C2084007114388
:100BF000704700200146704730B5041E71F10004B3
:100C000004DB4FF00044404264EB0101141E73F119
:100C1000000405DB1C464FF00043524263EB040323
:100C20008B4208BF824230BD30B5041E71F1000412
:100C300004DB4FF00044404264EB0101141E73F1E9
:100C4000000405DB1C464FF00043524263EB0403F3
:100C5000994208BF904230BD01F0004330B421F00A
:100C6000004150EA010206D00A0DA2F56072C1F3FC
:100C70001301002A02DC30BC00207047440F44EA14
:100C8000C104C100E01830BC00EBC25000F002B952
:100C900030B50B46014600202022012409E021FA4C
:100CA00002F59D4205D303FA02F5491B04FA02F549
:100CB0002844151EA2F10102F1DC30BD202A04DB1C
:100CC000203A00FA02F1002070479140C2F120035F
:100CD00020FA03F3194390407047202A04DB203A9E
:100CE00021FA02F00021704721FA02F3D040C2F14C
:100CF00020029140084319467047202A06DBCB1793
:100D0000203A41FA02F043EAE07306E041FA02F3C6
:100D1000D040C2F1200291400843194670470000BC
:100D2000026811441378016018467047D160044985
:100D300051610449116200211161114600F0B0B9FE
:100D4000210D00088D100008426842B1016811F8B9
:100D5000013B23B1521EC0E9001218467047012121
:100D6000C160881E704742685AB1C368016843B9C0
:100D700083688B4205D0491E521CC0E90012002036
:100D800070474FF0FF3070470FB4002300B589B0B3
:100D90000CA900910B996FF00042CB601E4B06939B
:100DA0001E4B07930423CDE901321D4A08920246E7
:100DB0006B460020FFF7CCFB09B05DF814FB70B563
:100DC00086B006464FF0FF300091CDE901010020CA
:100DD00015460C4604903246694604A8FFF7D4FF36
:100DE00002460498211825B108B1084600E02046C3
:100DF0002860049800280DD0002A02DD009888425F
:100E000008D0081B0094CDE901043246694604A8C5
:100E1000FFF7BAFF06B070BD490D0008670D000866
:100E20008D1000082DE9F04791460F468046044694
:100E3000002614F8015B2DB100F024F90068405D34
:100E4000C007F6D12B2D02D02D2D18D0641E4A4696
:100E50003946204600F0BAFA27B13968A14201D1DB
:100E6000C7F8008071054FF002040BD540420028FE
:100E700003DD12F005FF0460A007BDE8F08746F42B
:100E80008066E4E70028F8DA12F0FAFE04606FF0FA
:100E90000040F2E70029A8BF7047401C490008BF86
:100EA00020F00100704710B4B0FA80FC00FA0CF09A
:100EB00050EA010404BF10BC704749B1CCF12004D2
:100EC00021FA04F411FA0CF118BF0121214308435F
:100ED000A3EB0C01CB1D4FEA00614FEA102042BF8B
:100EE000002010BC704700EBC35010440029A4BF81
:100EF00010BC7047401C490008BF20F0010010BC26
:100F0000704710B5141E73F1000408DA401C41F15B
:100F1000000192185B411A4301D120F0010010BD7D
:100F20002DE9F04D92469B4611B1B1FA81F202E0F3
:100F3000B0FA80F220329046FFF7C0FE04460F461A
:100F400040EA0A0041EA0B0153465A46084313D0CF
:100F5000114653EA010019D0C8F140025046FFF78C
:100F6000BCFE05460E46504659464246FFF7A6FED1
:100F7000084305D0012004E020463946BDE8F08D45
:100F80000020054346EAE0762C4337430A98630580
:100F9000E40AA0EB08000022FD0A44EA47540A30A4
:100FA00002D500200146E9E7010510196941DDE994
:100FB000084500196941BDE8F04DA2E72DE9F04D63
:100FC00000231A461B1A8A4103DB00200146BDE8B4
:100FD000F08DC1F30A52C1F3130141F480154FF0B3
:100FE000000BD10702D100186D41521E00270446A4
:100FF00040F2FF11384601EB620A3E468046024647
:1010000000204FF48011FFF768FEC2197141BB1830
:1010100046EB0100B4EB030C75EB000C04D3E41AAF
:1010200065EB000517460E46241908F101006D41D5
:1010300080463428E3DDF91946EB0600091BA84178
:1010400003D24FF0FF32134601E0002213461BEBA0
:10105000070046EB0A51BDE8F04DFFF752BF000014
:10106000064C074D06E0E06840F0010394E80700F5
:1010700098471034AC42F6D3FFF78AF878710B0822
:1010800098710B08004870471C680B0810B504469F
:10109000FFF7F8FF0068005D00F0010010BD0000E0
:1010A0002DE9F34F8BB04FF0000801F10C000C4616
:1010B0004FF0010B46460DF1080A019062690121CB
:1010C00001989047051E2DD0252D2CD0216A8847E8
:1010D000C0B16269012101989047216A88470028C0
:1010E000F7D1411E62690198904700E0761CA16922
:1010F0000B988847216A88470028F7D1E1690B9847
:101100008847DBE7A1690B9888470746A84201D1C9
:10111000761CD3E7E1690B9888477F1C02D1B8F1B0
:10112000000F6FD046E1002762693D4639460198BD
:1011300090472A2804D1626901210198904701252E
:10114000DFF884926269012101989047A0F1300193
:101150000A290AD24F45E5DC07EB870100EB41077E
:10116000303FDFD445F01005ECE7E90601D46FF01D
:1011700000476C280AD04C2814D0682815D06A285B
:101180000DD074281CD07A281AD01DE06269012184
:10119000019890476C2802D045F0040514E045F012
:1011A00002050DE045F020050AE062690121019881
:1011B0009047682802D045F0080505E045F4006531
:1011C0006269012101989047C4E9015765283DD023
:1011D00019DC58287AD00CDC452837D004DC2528C7
:1011E00026D0412831D131E046282FD047282CD1B4
:1011F0002CE05B2877D0612828D063287CD0642835
:1012000023D15AE0D0E06F2848D008DC66281DD0F2
:1012100067281BD0692821D06E2816D127E07028B6
:1012200045D0732868D0752847D078280DD14DE077
:10123000A1690B988847054625283FF469AFE16905
:101240000B9888476D1C3FF46AAFB3E023466A46AB
:101250006FF001000B99FFF77BF99EE045F040002D
:101260006060A80723464FF0000236D43EE0E8074E
:101270007FF447AF2068011D21600068290501D572
:1012800006701BE7290701D5068017E7A90703D5D4
:10129000F117C0E9006111E706600FE745F0400073
:1012A0006060A80723464FF0080216D41EE040F6FF
:1012B0000E0125EA0100606016E045F04000606024
:1012C000A80723464FF00A0207D40FE045F040007C
:1012D0006060A80708D5234610226FF001000B9923
:1012E000AFF3008059E007E0234610226FF00100C1
:1012F0000B99AFF3008050E04FF000094F464B468A
:10130000632802D05B2806D040E0E80601D4012023
:10131000A06001273AE062690121019890475E28A8
:1013200005D14FF00109626949460198904721694A
:1013300039B900210A46534643F82120491C08299F
:10134000FADBB0B3216969B9C11700EBD16253115F
:101350000AEB830122F01F02821A01200B689040E1
:1013600003430B6062690121019890475D28E8D131
:10137000B9F1000F09D00020514651F82020D24386
:1013800041F82020401C0828F7DB02AB22460097DA
:101390006FF001000B99AFF3008000280CDA401CBD
:1013A00008D1BBF1000F05D04FF0FF300DB0BDE804
:1013B000F08FFFE74046F9E7E90701D108F101089E
:1013C00006444FF0000B79E6CCCCCC0C2DE9F05F55
:1013D00082460078002715468B460AF10104B9467B
:1013E000302801D09DB113E014F8010B01277828B3
:1013F00003D0582801D045B10AE00DB1102D07D116
:101400000027102514F8010B02E0082500E00A254A
:101410000026B0460EE005FB080005FB06F101279B
:1014200001EB10461FFA80F8B6F5803F00D3B946AD
:1014300014F8010B294600F018F80028EBDABBF18C
:10144000000F05D00FB1641E00E05446CBF80040F9
:10145000B9F1000F06D012F013FC02210160C81E82
:10146000BDE8F09F48EA0640FAE73A2800D2303853
:1014700020F02002412A01D3A2F13700884201D393
:101480004FF0FF30704770B58C1810F8015B15F005
:10149000070301D110F8013B2A1106D110F8012BE6
:1014A00003E010F8016B01F8016B5B1EF9D12B070B
:1014B00005D40023521E0DD401F8013BFAE710F8C1
:1014C000013BCB1A921C03E013F8015B01F8015BAE
:1014D000521EF9D5A142D8D3002070BD55494A68A3
:1014E00022F440324A604A6843681A434A600268FC
:1014F000526822F4807203685A6002685368026975
:1015000043EA022203685A600268526822F040727D
:1015100003685A600268526883681A4303685A6015
:101520000268926822F4006203689A600268926816
:10153000C3681A4303689A603F4B826A9A4218D084
:101540000268926822F0706203689A60026892688A
:10155000836A1A4303689A600268926822F04052D4
:1015600003689A6002689268C36A1A4303689A60C3
:101570000BE00268926822F0706203689A60026869
:10158000926822F0405203689A600268926822F0E2
:10159000020203689A6002689368027E43EA42028C
:1015A00003689A602022125CA2B10268526842F479
:1015B000006203685A600268526822F4604203685D
:1015C0005A6002685368426A521E43EA4232036814
:1015D0005A6005E00268526822F4006203685A60AB
:1015E0000268D26A22F470020368DA620268D36A7F
:1015F000828B521E43EA02520368DA6202689268E2
:1016000022F4007203689A600268936890F83020B0
:1016100043EA422203689A600268926822F4806278
:1016200003689A6002689368426943EA8222036809
:101630009A607047002301400100000F2DE9F0413E
:101640002DED048B0546B0EE408AF0EE608AB0EED8
:10165000419A0E4617462D4850F825406CBB202075
:1016600013F086FB294941F8250018EE100AFFF710
:10167000B0FA264A52F8252003C218EE900AFFF766
:10168000A8FA224A52F82520C2E9020119EE100AEE
:10169000FFF79FFA1D4A52F82520C2E904011B48B2
:1016A00050F825000676194850F8250047760020A6
:1016B000164951F82510C86123E000E0E469E069AB
:1016C0000028FBD1202013F053FBE06118EE100A34
:1016D000FFF77FFAE26903C218EE900AFFF779FA82
:1016E000E269C2E9020119EE100AFFF772FAE26933
:1016F000C2E90401E0690676E06947760020E16905
:10170000C861BDEC048BBDE8F0810000001A002028
:1017100080ED000B80ED021B80ED042B80ED063B7D
:1017200080ED084B7047000070B52DED068B054627
:10173000B0EE408AF0EE608AB0EE419AF0EE619A27
:10174000B0EE42AAF0EE62AA0E462C682868B8B93C
:10175000202013F00DFB28601648006880ED008BF8
:101760001448006880ED029B1248006880ED04ABCD
:1017700010480068067600200E490968C86116E026
:1017800000E0E469E0690028FBD1202013F0F0FAC2
:10179000E061E06980ED008BE06980ED029BE0692B
:1017A00080ED04ABE06906760020E169C861BDEC1C
:1017B000068B70BDBC01002010B5044608480068C7
:1017C000204407490860084600680A21B0FBF1F28E
:1017D00001FB120010B9034805F064FA10BD0000C7
:1017E000200000205C08002010B52DED068B04467B
:1017F00008F0B4FB58B17848007840B90120764928
:10180000087004F053FC754880ED070A05E008F005
:10181000A5FB10B9BDEC068B10BD04F047FC6F486A
:1018200080ED080A90ED050AD0ED040A30EE200A9A
:1018300080ED050A90ED070AD0ED080A30EE600A47
:1018400080ED040A90ED040ADFED650AB4EEE00ACB
:10185000F1EE10FA08DB90ED040ADFED620A30EEDB
:10186000600A80ED040A11E05C4890ED040ADFEDA7
:101870005E0AB4EEE00AF1EE10FA07D890ED040A21
:10188000DFED580A30EE200A80ED040A534890ED4F
:101890000B0A10EE101A0846FFF79BF941EC1A0BE1
:1018A000B0EE4A0AF0EE6A0A12F0B6FDB0EE408AD7
:1018B000F0EE608A494890ED040A10EE101A0846CE
:1018C000FFF787F941EC1A0BB0EE4A0AF0EE6A0A0C
:1018D00012F0A2FDB0EE409AF0EE609A53EC182B95
:1018E00051EC190BFFF788F93CD2404890ED0B0AF8
:1018F00010EE101A0846FFF76CF941EC1A0BB0EE27
:101900004A0AF0EE6A0A12F087FDB0EE409AF0EE55
:10191000609A364890ED040A10EE101A0846FFF758
:1019200058F941EC1A0BB0EE4A0AF0EE6A0A12F0CE
:1019300073FDB0EE408AF0EE608A53EC192B51EC47
:10194000180BFFF759F90DD29FED290A234880EDB6
:10195000090A9FED270A80ED050A9FED250A80ED13
:10196000060A16E01D4890ED060AD0ED040A30EE96
:10197000200A80ED060A90ED010AD0ED040A20EE5F
:10198000200AD0ED020A90ED061A00EE810A80EDE1
:10199000090A124890ED090AD0ED0A0AB4EEE00AED
:1019A000F1EE10FA04DD90ED0A0A80ED090A11E06B
:1019B0000A4890ED090AD0ED0A0AF1EE600AB4EE89
:1019C000E00AF1EE10FA05D290ED0A0AB1EE400AF3
:1019D00080ED090A00BF1DE766000020DC0F002033
:1019E000000034430000B443000034C3900F0020D3
:1019F0000000000010B52DED028B0446D4ED040A62
:101A0000B0EE600A10F094F994ED050ADFED1A0AC1
:101A100030EEC00A10EE101A0846FFF7DAF841EC73
:101A2000180BB0EE480AF0EE680A00200EF02EFD0A
:101A300094ED060ADFED110A30EE200A10EE101ABE
:101A40000846FFF7C6F841EC180BB0EE480AF0EE76
:101A5000680A01200EF01AFD207F28B99FED080BBF
:101A600002200EF013FD04E09FED070B02200EF0A4
:101A70000DFDBDEC028B10BD000088430000AA42A2
:101A80000000000000005E400000000000A0634075
:101A90002DE9F0412DED048B86B080460E4670682E
:101AA000FEF772FEC5B24D4850F82500C0B900BF20
:101AB00000BF4FF0FF314A48006845F0B7FC49A02D
:101AC00012F054F800231A4619464548006845F0BC
:101AD000D1F900BF00BF06B0BDEC048BBDE8F081BA
:101AE00000BF4FF0FF313E48006845F09FFC29469B
:101AF00048A012F03BF800231A46194638480068FF
:101B000045F0B8F900BF354850F8254000275EE0A1
:101B100000BF4FF0FF313248006845F087FC607E1F
:101B2000217ECDE9041094ED040B8DED020B94EDB4
:101B3000020B8DED000B94ED001BB0EE410AF0EEB0
:101B4000610A53EC102B394637A012F00FF800232E
:101B50001A4619462248006845F08CF900BF94EDFA
:101B6000041BB0EE410AF0EE610A51EC100BFFF7D6
:101B700073F808EE100A94ED021BB0EE410AF0EE85
:101B8000610A51EC100BFFF767F808EE900A94ED2C
:101B9000001BB0EE410AF0EE610A51EC100BFFF7AA
:101BA0005BF809EE100A207EB0EE481AF0EE680AE3
:101BB000B0EE490A0EF008FAE46902E00A2044F0A7
:101BC000A7FB07F097FE0028F8D1781CC7B2002CBD
:101BD0009ED1204612F058F800BF7CE7001A002082
:101BE000980000201B5B33336D0D0A57205B617238
:101BF0006D5D20616374696F6E2061727220696E21
:101C000064657820697320696E76616C69641B5B1A
:101C1000306D0000616374696F6E206172725B25C4
:101C2000645D3A0D0A0000002020706F735B25642C
:101C30005D3A20785B252E31665D20795B252E315B
:101C4000665D207A5B252E31665D20746F6E675B62
:101C500025645D20686F6C6465725B25645D0D0AA8
:101C60000000000070B52DED0C8B86B006460C46CA
:101C7000052E17D000BF00BF4FF0FF314E4800685F
:101C800045F0D4FB4DA011F071FF00231A46194610
:101C90004948006845F0EEF800BF00BF06B0BDEC53
:101CA0000C8B70BD606812F037FBB0EE408AF0EE2E
:101CB000608AA06812F030FBB0EE409AF0EE609AB5
:101CC000E06812F029FBB0EE40AAF0EE60AA2069AD
:101CD000FEF75AFDC5B200BF00BF4FF0FF313648D6
:101CE000006845F0A3FB04958DED02AB8DED009BE4
:101CF00053EC182B3CA011F039FF00231A4619466B
:101D00002D48006845F0B6F800BF00BF51EC1A0B33
:101D1000FEF7A2FF0BEE100A51EC190BFEF79CFF29
:101D20000BEE900A51EC180BFEF796FF0CEE100A22
:101D30002846B0EE4B1AF0EE6B0AB0EE4C0A0EF0ED
:101D400043F900BF00BF4FF0FF311B48006845F06A
:101D50006DFB324890ED060A10EE101A0846FEF7A9
:101D600038FF41EC1B0B2D4890ED050A10EE101AC0
:101D70000846FEF72EFF41EC1C0B284890ED040AA4
:101D800010EE101A0846FEF724FF41EC1D0B8DEDF6
:101D900002BB8DED00CB53EC1D2B21A011F0E6FE14
:101DA00000231A4619460448006845F063F800BF4E
:101DB00000BF00BF72E70000980000201B5B3333B8
:101DC0006D0D0A57205B61726D5D20636D6420703C
:101DD0006172616D206E756D20696E76616C6964EB
:101DE0001B5B306D000000001B5B33326D0D0A4938
:101DF000205B61726D5D20785B252E31665D2079F8
:101E00005B252E31665D207A5B252E31665D207460
:101E10006F6E675B25645D1B5B306D00281B0020C7
:101E20001B5B33326D0D0A49205B61726D5D204A88
:101E3000315B252E31665D204A325B252E31665D91
:101E4000204A335B252E31665D1B5B306D00000040
:101E50002DE9F0432DED048B8BB005462A4695A164
:101E600003A811F093FE012203A9944820F026FA5A
:101E70009349087008460078F0B100BF00BF4FF0EA
:101E8000FF319048006845F0D1FA29468EA011F044
:101E90006DFE00231A4619468A48006844F0EAFF9E
:101EA00000BF00BF8648007803F06EF800200BB03A
:101EB000BDEC048BBDE8F0838048C0688C490860A5
:101EC0000846006812F054FF8A490860884B18469B
:101ED000026808460168794820F011FB78490870CB
:101EE0008448006817F05CFE8349086081480068F8
:101EF00011F0CAFE714820F085F97F480068B0B93A
:101F000000BF00BF4FF0FF316E48006845F08EFA09
:101F100029467AA011F02AFE00231A46194669487C
:101F2000006844F0A7FF00BF00BF0020BFE77C4867
:101F300007787148006817F00FFE7949097808445E
:101F40007749087000BF00BF4FF0FF315D4800685F
:101F500045F06CFA12227248017872A011F006FE68
:101F600000231A4619465748006844F083FF00BF13
:101F700000BF3C4692E00A2C12DB0A2094FBF0F1F1
:101F800000FB114000F130060A2094FBF0F000F154
:101F9000300933464A4673A101A811F0F7FD05E068
:101FA00004F1300271A101A811F0F0FD01A952481D
:101FB000006817F0DFFD6E4908600846006817F0FA
:101FC000CBFD00F0FF08002664E031466848006859
:101FD00017F0B6FD6749086000216648006817F0F1
:101FE000AFFD6549086001216248006817F0A8FD4F
:101FF0006249086002215F48006817F0A1FD60494E
:10200000086003215B48006817F09AFD5D4908608D
:1020100004215848006817F093FD5B490860584850
:10202000006890ED061BB0EE410AF0EE610A51EC3B
:10203000100BFEF711FE08EE100A5048006890EDF4
:10204000061BB0EE410AF0EE610A51EC100BFEF7F0
:1020500003FE08EE900A4848006890ED061BB0EEBB
:10206000410AF0EE610A51EC100BFEF7F5FD09EEA6
:10207000100A45480068027D42480068017DB0EEC4
:10208000481AF0EE680AB0EE490A2046FFF7D6FA81
:10209000701CC6B2464598DB601CC4B2204800786C
:1020A0008442FFF668AF1448006817F01DFD012058
:1020B000FDE60000303A25730000000030170020D4
:1020C00078010020980000201B5B33336D0D0A5708
:1020D000205B66617466735D206F70656E2025738A
:1020E0002066696C65206572726F721B5B306D00D3
:1020F000800100207C010020D80100201B5B3333CD
:102100006D0D0A57205B636A736F6E5D2025732027
:102110007061727365206661696C1B5B306D0000D5
:10212000F40100201B5B33326D0D0A49205B6172A4
:102130006D2066696C655D20616374696F6E206EE9
:10214000756D5B25645D202D2D207072656465665C
:10215000696E6564206E756D5B25645D1B5B306D1B
:1021600000000000256325630000000025630000D7
:1021700084010020DC010020E0010020E4010020B7
:10218000E8010020EC010020F001002010B5B2EEC3
:102190000E0A094880ED000AB2EE0C0A80ED010A31
:1021A000B2EE0C0A80ED020AB1EE0C0A80ED030AD1
:1021B0000FF04AFE10BD0000281B0020F0B52DEDE9
:1021C000068B89B00746544800683AF0A2FC0646E0
:1021D000304612F0A1F8B0EE408AF0EE608A51EC81
:1021E000180BFEF739FD06904C4800683AF091FC58
:1021F0000646304612F090F8B0EE408AF0EE608A63
:1022000051EC180BFEF728FD0790454800683AF09E
:1022100080FC0646304612F07FF8B0EE408AF0EEC1
:10222000608A51EC180BFEF717FD089001213D481C
:10223000006835F070F804463B4800682CF0B0F9AF
:10224000054600BF4FF0FF313848006845F0EEF812
:102250009DED080A10EE101A0846FEF7BAFC41EC94
:10226000180B9DED070A10EE101A0846FEF7B1FC98
:1022700041EC190B9DED060A10EE101A0846FEF708
:10228000A8FC41EC1A0BCDE904458DED028B8DEDD8
:10229000009B53EC1A2B26A011F068FC00231A4671
:1022A00019462248006844F0E5FD00BFDDED081A3C
:1022B000B0EE611ADDED071AF0EE610ADDED061AE7
:1022C000B0EE610A20460DF07FFE35B1012D0AD037
:1022D000022D0ED0032D18D111E09FED220B03200B
:1022E0000EF0D4F812E09FED210B03200EF0CEF893
:1022F0000CE09FED200B03200EF0C8F806E09FEDE8
:102300001F0B03200EF0C2F800E000BF00BF09B0B1
:10231000BDEC068BF0BD00009C020020A002002056
:10232000A4020020B402002098020020980000209F
:102330000D0A61726D2D3E585B252E31665D205968
:102340005B252E31665D205A5B252E31665D20743B
:102350006F6E675B25645D20686F6C6465725B25DA
:10236000645D00000000000000005C400000000010
:1023700000E060400000000000E06F40000000004E
:1023800000002E40FFF702FF054A06A10EA00EF046
:1023900003FB03E04FF0FF3043F0BAFFFAE7000021
:1023A000651C00086374726C2061726D2C20706172
:1023B00072616D3A5B785D205B795D205B7A5D20B0
:1023C0005B746F6E675D000061726D0010B5024650
:1023D000054B03EBC203587921B10023024C04EBF7
:1023E000C204637110BD00002C0E002010B504461D
:1023F0002146024805F026FA10BD000068080020BA
:1024000010B5044805F031FA042801D0012010BDB0
:102410000020FCE76808002010B5002400F00CF84C
:10242000012801D0012010BD024805F030FA044611
:102430002046F8E768080020012070472DE9F041A8
:1024400004460D461646002733462A4621460448D0
:1024500005F028FB00B101273846BDE8F0810000F7
:102460006808002010B500220121024800683CF0F5
:1024700055FC10BD400500202DE9F04104460D46F5
:102480001646002733462A462146044805F0B8FB85
:1024900000B101273846BDE8F0810000680800203F
:1024A00070B505460C462DB922460221034804F0BA
:1024B000EDFB00E000BF00BF70BD00000010024057
:1024C000434A44A14EA00EF067FA4FF496720321DE
:1024D00000200DF0D5FD79E0002472E004EB44000B
:1024E000494911F8200020B900212046FFF7D8FF04
:1024F00065E004EB4400444911F82000012804D1B0
:1025000001212046FFF7CCFF59E004EB44003E498F
:1025100011F82000022832D103F0D4FC04EB44016E
:10252000394A02EB81014968401A04EB440102EB8D
:1025300081014988884242D903F0C4FC04EB44017C
:10254000314A02EB8101486004EB4400114601EB83
:102550008000007A08B9012000E0002000F00100AE
:1025600004EB4401284A02EB8101087204EB4400A9
:1025700002EB8000017A2046FFF792FF1FE004EB98
:102580004400214911F82000032818D103F09AFCD7
:1025900004EB44011C4A02EB81014968401A04EB38
:1025A000440102EB81014988884204D2012120467E
:1025B000FFF776FF03E000212046FFF771FF601C64
:1025C000C4B2002C8AD0142043F0A2FE84E700009D
:1025D0000D2600086265657020746573742C206C8C
:1025E000696B653A3230302C2062656570206F6E01
:1025F00020666F7220323030207469636B73000084
:102600006265657000000000881E002070B50646F7
:102610000C466068FEF7B8F885B200BF00BF4FF007
:10262000FF310B48006844F001FF294609A011F072
:102630009DFA00231A4619460548006844F01AFC22
:1026400000BF00BF2A46032100200DF019FD70BD18
:10265000980000201B5B33326D0D0A49205B6265D8
:1026600065705D2062656570206F6E20666F7220F8
:102670002564207469636B731B5B306D0000000080
:1026800070B504460125A52C06D10020124908701A
:102690000120124908701DE05A2C08D100200F4972
:1026A000087000210E48006844F036FD12E00B4827
:1026B000007870B1084800780C2801DB002070BD5C
:1026C000054801780078401C034A107005484454BE
:1026D00000E000252846F2E7080300200903002057
:1026E00004030020701B002000BFFEE742E000242E
:1026F0003BE0204603F0BCFB78B91F4800EBC40068
:10270000007910BB01201C4901EBC401087103F0E2
:10271000D9FB194941F8340025E0174800EBC40003
:10272000007990B10020144901EBC401087103F055
:10273000C9FB114951F83410401AB0F52F7F05D963
:1027400002200D4901EBC40148710CE003F0BAFB13
:10275000094951F83410401A142804D901200649B7
:1027600001EBC4014871601CC4B2032CC1D3052025
:1027700043F0CEFDBBE700002C0E002010B5044650
:1027800000BF4FF0FF310A48006844F04FFE09A037
:1027900011F0ECF900231A4619460548006844F088
:1027A00069FB00BF9FED070B03F086FC10BD000026
:1027B000980000200D0A6578656375746520746162
:1027C000736B00000000000000000000F8B5074631
:1027D0000C4657A0006800906068FDF7D5FFC6B2B0
:1027E000A068FDF7D1FFC0B28DF80000E068FDF7EA
:1027F000CBFFC0B28DF8010002226946304600F0DE
:1028000079FE00BF00BF4FF0FF314A48006844F036
:102810000DFE9DF801309DF80020314646A011F0D4
:10282000A5F900231A4619464248006844F022FBE5
:1028300000BF00BF2EE000BF00BF4FF0FF313D489A
:10284000006844F0F3FD46A011F090F900231A4609
:1028500019463848006844F00DFB00BF00BF00BFB8
:102860004FF0FF313348006844F0E0FD48484188AC
:10287000001D00F0BBF805464548C1892A4645A021
:1028800011F074F900231A4619462A48006844F0EA
:10289000F1FA00BF4FF47A714348006844F0C6FD76
:1028A0000128C8D100BF00BF811E2248006844F043
:1028B000BDFD3748428801783CA011F057F900234C
:1028C0001A4619461B48006844F0D4FA00BF00BFFE
:1028D000002516E000BF4FF0FF311648006844F0B5
:1028E000A5FD2B48001D415D3DA011F03FF90023DF
:1028F0001A4619460F48006844F0BCFA00BF681C2D
:10290000C5B223484088A842E4DC00BF4FF0FF3145
:102910000848006844F08AFD33A011F027F900232D
:102920001A4619460348006844F0A4FA00BFF8BDEF
:1029300008090000980000201B5B33326D0D0A4926
:10294000205B636F6D5D207472616E733A20696401
:102950005B25645D2025642025641B5B306D0000D1
:102960001B5B33336D0D0A57205B636F6D5D204E2B
:102970006F20696E666F726D6174696F6E2077612A
:1029800073206F627461696E65641B5B306D00005B
:10299000541B00206372632D3E205B2530785D2D33
:1029A0005B2530785D0D0A00F40200201B5B33329A
:1029B0006D0D0A49205B636F6D5D207265766569F8
:1029C000766520696E666F2D3E69645B25645D20C7
:1029D0006C656E5B25645D3A1B5B306D000000002A
:1029E00020253078000000000D0A000070B5024676
:1029F0000B464FF6FF70002110E0565C704000243B
:102A000008E000F00105401015B14AF201067040DF
:102A1000661CF4B2082CF4DB4E1CF1B29942ECDBDC
:102A200070BD00002DE9F0412DED068B82B0074608
:102A30000C4682A06168FDF793FC00285AD100BFC4
:102A400000BF411E7E48006844F0F0FC7D4890EDD8
:102A5000090A10EE101A0846FEF7BBF841EC190BF4
:102A6000B0EE490AF0EE690A11F0D6FCB0EE408AE9
:102A7000F0EE608A9FED740B53EC102B51EC180BA9
:102A8000FEF7BAF801D2012000E0002005467048A8
:102A900090ED090A10EE101A0846FEF79AF841EC7C
:102AA000190BB0EE490AF0EE690A11F0B5FCB0EE70
:102AB000408AF0EE608A9FED640B53EC102B51ECD2
:102AC000180BFEF799F801D2012000E0002006461D
:102AD00006F094FF80462B46324641465D4811F091
:102AE00045F800231A4619465548006844F0C2F9D3
:102AF00000BF9EE058A06168FDF732FCB0BBA06843
:102B000011F00AFCB0EE409AF0EE609A51EC190B0D
:102B1000FEF7A2F808EE100A012007F0F1F800BF56
:102B200000BF4FF0FF314648006844F07FFC454845
:102B300090ED070A30EE080A10EE101A0846FEF76C
:102B400048F841EC190B53EC192B44A011F00EF886
:102B500000231A4619463A48006844F08BF900BF32
:102B600000BFB0EE480A0DF0ABFA62E0FFE744A008
:102B70006168FDF7F5FB002847D1A06811F0CCFB98
:102B8000B0EE409AF0EE609A51EC190BFEF764F843
:102B900008EE100AE06811F0BFFBB0EE409AF0EECC
:102BA000609A51EC190BFEF757F808EE900A0120D5
:102BB00007F0E0F800BF00BF4FF0FF312048006889
:102BC00044F034FC18EE900AFEF703F841EC190BC0
:102BD00018EE100AFDF7FDFF41EC1A0B8DED009B7E
:102BE00053EC1A2B27A010F0C1FF00231A461946F8
:102BF0001348006844F03EF900BF00BFF0EE680AD9
:102C0000B0EE480A0DF08EFB13E000BF00BF4FF09E
:102C1000FF310B48006844F009FC24A010F0A6FF27
:102C200000231A4619460648006844F023F900BFFD
:102C300000BF02B0BDEC068BBDE8F0812D73000033
:102C400098000020DC0F0020FCA9F1D24D62503F1B
:102C5000900F002070680B082D6100001B5B333261
:102C60006D0D0A49205B6361725D206361722061B2
:102C70006E676C652D3E252E31661B5B306D000046
:102C80002D6D00001B5B33326D0D0A49205B6361C3
:102C9000725D20636172206D6F76652D3E252E3149
:102CA000662C20252E31661B5B306D001B5B333399
:102CB0006D0D0A57205B6361725D20636D6420694E
:102CC0006420696E76616C69641B5B306D00000086
:102CD00010B52DED068B07F0CDF8002842D14FF44A
:102CE000FA7043F015FB07F0C5F800283AD19FEDC4
:102CF0009C2AF1EE001A9FED9B1ADFED9B0A9FEDD7
:102D00009A0A0DF00FFA9FED992AF0EE001A9FED46
:102D1000961ADFED950A9FED960A0DF047F99FEDA3
:102D2000922ADFED941A9FED901ADFED910AB0EE32
:102D3000040A0DF073FB00BF00BF4FF0FF318E4857
:102D4000006844F073FB8DA010F010FF00231A46BA
:102D500019468948006844F08DF800BF00BFBDECFB
:102D6000068B10BD904890ED121BB0EE410AF0EEBC
:102D7000610A51EC100BFDF76FFF08EE100A8A484C
:102D800090ED101BB0EE410AF0EE610A51EC100B11
:102D9000FDF762FF08EE900A834890ED0E1BB0EE3F
:102DA000410AF0EE610A51EC100BFDF755FF09EEF8
:102DB000100A7D4890ED0C1BB0EE410AF0EE610A5E
:102DC00051EC100BFDF748FF09EE900A764890EDA4
:102DD0000A1BB0EE410AF0EE610A51EC100BFDF750
:102DE0003BFF0AEE100AB0EE482AF0EE681AB0EE89
:102DF000491AF0EE690AB0EE4A0A0DF093F96A48F2
:102E000090ED1C1BB0EE410AF0EE610A51EC100B84
:102E1000FDF722FF08EE100A634890ED1A1BB0EE92
:102E2000410AF0EE610A51EC100BFDF715FF08EEB8
:102E3000900A5D4890ED181BB0EE410AF0EE610A71
:102E400051EC100BFDF708FF09EE100A564890ED03
:102E5000161BB0EE410AF0EE610A51EC100BFDF7C3
:102E6000FBFE09EE900A504890ED141BB0EE410AAB
:102E7000F0EE610A51EC100BFDF7EEFE0AEE100ABF
:102E8000B0EE482AF0EE681AB0EE491AF0EE690A80
:102E9000B0EE4A0A0DF08AF8434890ED261BB0EEDA
:102EA000410AF0EE610A51EC100BFDF7D5FE08EE79
:102EB000100A3D4890ED241BB0EE410AF0EE610A85
:102EC00051EC100BFDF7C8FE08EE900A364890ED65
:102ED000221BB0EE410AF0EE610A51EC100BFDF737
:102EE000BBFE09EE100A304890ED201BB0EE410AFF
:102EF000F0EE610A51EC100BFDF7AEFE09EE900A00
:102F0000294890ED1E1BB0EE410AF0EE610A51EC2B
:102F1000100BFDF7A1FE0AEE100AB0EE482AF0EE03
:102F2000681AB0EE491AF0EE690AB0EE4A0A0DF0DE
:102F300075FA00BF00BF4FF0FF310F48006844F042
:102F400075FA1AA010F012FE00231A4619460A4814
:102F5000006843F08FFF00BF00BF00BFFFE6000026
:102F6000CDCC4C3DCDCC2C4000000000CDCC4C3E17
:102F7000CDCCCC3D9A99993E980000201B5B333212
:102F80006D0D0A49205B6361725D206C6F61642086
:102F900064656661756C742070696420706172612B
:102FA0006D1B5B306D000000601900201B5B33322D
:102FB0006D0D0A49205B6361725D206C6F61642056
:102FC000706172616D2066726F6D2066696C651B41
:102FD0005B306D0010B504461248D0ED000AB0EE2B
:102FE000600A214601200DF075F90E48D0ED010A66
:102FF000B0EE600A214602200DF06CF90948D0EDD0
:10300000020AB0EE600A214603200DF063F905487C
:10301000D0ED030AB0EE600A214604200DF05AF903
:1030200010BD00005010002070EE601A71EEC11A41
:103030000A48C0ED001A70EE201A71EEC11AC0EDF8
:10304000011A70EE601A71EE811AC0ED021A70EE6C
:10305000201A71EE811AC0ED031A7047501000203B
:1030600086B0FFF735FE00F0A9F891E002F02AFFE4
:1030700048490968441A02F025FF46490860464855
:10308000007818B1A0B200F079FA04E09FED430A8D
:10309000434880ED090A4348007818B1A0B2FEF712
:1030A000A3FB04E09FED3D0A3F4880ED090A3E483E
:1030B000D0ED091AB0EE611A3948D0ED121AF0EECF
:1030C000610AD0ED111AB0EE610AFFF7ADFF374883
:1030D000007810B1A0B209F0FDFE2F48007828B9A1
:1030E0003048007810B93148007810B10120FFF75E
:1030F00071FF2F480078E8B1294890ED0D0A8DED59
:10310000000A90ED0F0A8DED010A90ED110A8DED88
:10311000020A90ED0E0A8DED030A90ED100A8DED76
:10312000040A90ED120A8DED050A6946062010F09A
:10313000B7F829E01F480078A8B11B4890ED080AAD
:103140008DED020A90ED070A8DED030A90ED040A59
:103150008DED040A90ED090A8DED050A02A90420FF
:1031600010F09EF810E01448007868B10E4890ED19
:10317000040A8DED020A90ED090A8DED030A02A9F9
:10318000022010F08DF800BF142043F0C1F800BFFA
:103190006CE70000680000206000002000000000D4
:1031A000900F002061000020DC0F00206200002052
:1031B00063000020640000206500002010B5084A6C
:1031C00008A116A00DF0E8FB154A16A11EA00DF0EF
:1031D000E3FB1F4A1FA12AA00DF0DEFB10BD00007B
:1031E000252A0008636172206374726C2C20706160
:1031F00072616D3A5B222D73225D206F72205B221B
:103200002D61225D5B616E676C655D206F72205B76
:10321000222D6D225D5B785D5B795D0063617200DC
:103220001D990008656E62616C6520636172207093
:1032300069642C20706172616D3A5B442F415D209E
:103240005B656E5D000000006361725F7069640021
:10325000959A0008656E61626C65206361722070EA
:103260006964207472616E732C20706172616D3AB2
:103270005B442F412F505D205B656E5D00000000B8
:103280006361725F7473660070B52DED028B00246C
:1032900000250BE0114803F08DF8032043F038F8C7
:1032A0000E4803F00FF80444681C85B2102DF1DBC2
:1032B000200900EE100AB8EE400A9FED091AC0EE90
:1032C000010A9FED080A20EE800AF1EE080A20EEBE
:1032D000208AB0EE480ABDEC028B70BDC407002006
:1032E00000008045333353409FED060A411E01EB39
:1032F000410202EB0111044A02EB810181ED050A52
:1033000070470000000000005C0E002010B5064A67
:1033100006A10BA00DF040FB03220021012043F089
:10332000C0FC0949086010BD4D33000851522063AC
:103330006F6465207363616E2074657374000000B0
:10334000636F6465000000001C03002070B5044634
:103350000D460FF0E5FB70BD10B5032200210120E2
:1033600043F09FFC06490860064A07A112A00DF031
:1033700013FB134A13A11AA00DF00EFB10BD0000A1
:10338000F4020020CD270008636F6D6D756E6963D0
:103390006174696F6E20746573743A207061726134
:1033A0006D3A5B69645D205B64617461315D205BD3
:1033B00064617461325D0000636F6D5F747400005E
:1033C000E1C5000873656E64206F7620636F6D2021
:1033D00069643A20706172616D3A5B69645D0000F6
:1033E000636F6D5F6F76000010B50446A52C06D1A3
:1033F00001203C49087000203B49087010BD394845
:10340000007807286AD2DFE800F069041018274224
:103410004A005A2C05D133480078401C31490870C5
:1034200002E000202F49087059E0304844802D48C0
:103430000078401C2B49087051E02C480470294842
:103440000078401C274908702848408818B9084669
:103450000078401C087042E02448408822490978DE
:10346000884213DD204801780078401C1E4A107005
:103470001E48001D4454001F4088114609788842A8
:1034800004DC18480078401C1649087027E01748EB
:10349000C48114480078401C124908701FE013488A
:1034A000C0894FF6FF7101EA00201049C881084623
:1034B000C0892043C88108464188001DFFF796FA5D
:1034C0000A49C989884205D100210948006843F0AA
:1034D00023FE02E000200349087000E000BF00BFA7
:1034E00000BF8BE7F8020020F9020020541B0020E7
:1034F000F40200202DE9FF4107460E461546002044
:10350000009001900290039000248046A52221465D
:10351000641C0DF801205A222146641C0DF801207C
:10352000EAB22146641C0DF801202146641C0DF806
:10353000017000BF07E0335C2146621CD4B20DF875
:103540000130411C88B2A842F5DB29463046FFF71E
:103550004DFA80464FEA28222046611CCCB20DF875
:10356000002008F0FF022046611CCCB20DF80020BC
:10357000214668460FF0D8F8BDE8FF8170B52DED03
:103580000A8B044608F0B0F8FE4890ED0F0A20EED2
:10359000000AD0ED100A90ED101A00EE810A10EE2C
:1035A000101A0846FDF715FB41EC1B0BB0EE4B0A59
:1035B000F0EE6B0A10F0A0FFB0EE40AAF0EE60AAA9
:1035C00051EC1A0BFDF748FBEE490862084690EDF6
:1035D0000D0AD0ED0F0A30EE600AF0EE408A90ED51
:1035E0000E0AD0ED100A30EE600AB0EE408A28EEE6
:1035F000A80A08EE080A10EE101A0846FDF7E9FAC4
:1036000041EC1B0BB0EE4B0AF0EE6B0A10F074FFAE
:10361000B0EE40AAF0EE60AA51EC1A0BFDF71CFBCD
:10362000D8490861084690ED050AD0ED040A30EE4D
:10363000200A80ED050A90ED0B0A10EE101A0846DC
:10364000FDF7C7FA41EC1C0BB0EE4C0AF0EE6C0A29
:1036500010F0E2FEB0EE40AAF0EE60AAC94890ED8C
:10366000040A10EE101A0846FDF7B3FA41EC1C0BE1
:10367000B0EE4C0AF0EE6C0A10F0CEFEB0EE40BA9E
:10368000F0EE60BA53EC1A2B51EC1B0BFDF7B4FAB9
:1036900009D29FEDBD0ABB4880ED090A9FEDBA0A29
:1036A00080ED050AEBE1B74890ED0C0AF0EE000A58
:1036B00020EE200A10EE101A0846FDF78AFA41ECB7
:1036C0001A0BB04890ED070A10EE101A0846FDF7E5
:1036D00080FA41EC1C0BB0EE4C0AF0EE6C0A10F0D4
:1036E0009BFEB0EE40BAF0EE60BA53EC1A2B51ECF0
:1036F0001B0BFDF781FA7CD2A24890ED070AF0EE91
:10370000000A80EE201A11EE105A2846FDF761FAE1
:1037100041EC1A0B9B4890ED080A10EE101A08466F
:10372000FDF757FA41EC1C0BB0EE4C0AF0EE6C0AB8
:1037300010F072FEB0EE40BAF0EE60BA53EC1A2B05
:1037400051EC1B0BFDF758FA2BD28E4890ED040A72
:10375000B5EEC00AF1EE10FA0CDDD0ED030A00EE72
:10376000104AB8EE400A60EE800A9FED881A80EE9B
:10377000810A0EE0834890ED030AF1EE400A00EE64
:10378000104AB8EE400A60EE800A9FED801A80EE83
:10379000810A7C48D0ED090A30EE200A80ED090A42
:1037A0006DE1784890ED040AB5EEC00AF1EE10FA2A
:1037B0000CDDD0ED030A00EE104AB8EE400A60EED0
:1037C000800A9FED721A80EE810A0EE06D4890ED3E
:1037D000030AF1EE400A00EE104AB8EE400A60EE2D
:1037E000800A9FED6A1A80EE810A6648D0ED090AC8
:1037F00000E050E030EEC00A80ED090A90ED040AC6
:10380000B5EEC00AF1EE10FA1CDD90ED090AD0ED1C
:10381000020AB4EEE00AF1EE10FA13D290ED040AB7
:10382000D0ED020AB4EEE00AF1EE10FA01D2012066
:1038300000E0002000EE100AB8EEC00A514880ED0A
:10384000090A1CE14F4890ED040AB5EEC00AF1EEFA
:1038500010FAA5D290ED090AD0ED020AF1EE600A45
:10386000B4EEE00AF1EE10FA9ADD90ED040AB1EE42
:10387000400AD0ED020AB4EEE00AF1EE10FA01D2ED
:10388000012000E0002000EE100AB8EEC00A3D481A
:1038900080ED090AF3E03B4890ED0C0A10EE101A97
:1038A0000846FDF796F941EC1A0B364890ED080AE8
:1038B00010EE101A0846FDF78CF941EC1C0BB0EE27
:1038C0004C0AF0EE6C0A10F0A7FDB0EE40BAF0EE34
:1038D00060BA53EC1A2B51EC1B0BFDF78DF92BD270
:1038E000284890ED040AB5EEC00AF1EE10FA0CDD9E
:1038F000D0ED030A00EE104AB8EE400A60EE800AEE
:103900009FED221A80EE810A0EE01E4890ED030A18
:10391000F1EE400A00EE104AB8EE400A60EE800A6E
:103920009FED1A1A80EE810A1648D0ED090A30EE92
:10393000200A80ED090AA2E0124890ED0C0A10EE70
:10394000101A0846FDF745F941EC1A0B0D4890EDA9
:10395000040A10EE101A0846FDF73BF941EC1C0B67
:10396000B0EE4C0AF0EE6C0A10F056FDB0EE40BA24
:10397000F0EE60BA53EC1A2B51EC1B0BFDF73CF93F
:103980007DD205E0900F00200000000000007A4486
:10399000914890ED040AB5EEC00AF1EE10FA0CDD84
:1039A000D0ED030A00EE104AB8EE400A60EE800A3D
:1039B0001FED0A1A80EE810A0EE0874890ED030A97
:1039C000F1EE400A00EE104AB8EE400A60EE800ABE
:1039D0001FED121A80EE810A7F48D0ED090A30EE01
:1039E000C00A80ED090A90ED040AB5EEC00AF1EEB6
:1039F00010FA1CDD90ED090AD0ED020AB4EEE00ADF
:103A0000F1EE10FA13D290ED040AD0ED020AB4EEF2
:103A1000E00AF1EE10FA01D2012000E0002000EEF1
:103A2000100AB8EEC00A6C4880ED090A27E06A481F
:103A300090ED040AB5EEC00AF1EE10FA1FD290ED37
:103A4000090AD0ED020AF1EE600AB4EEE00AF1EEE6
:103A500010FA14DD90ED040AB1EE400AD0ED020A2E
:103A6000B4EEE00AF1EE10FA01D2012000E00020ED
:103A700000EE100AB8EEC00A574880ED090A564811
:103A800090ED090AD0ED0A0AB4EEE00AF1EE10FA60
:103A900004DD90ED0A0A80ED090A11E04E4890ED30
:103AA000090AD0ED0A0AF1EE600AB4EEE00AF1EE7E
:103AB00010FA05D290ED0A0AB1EE400A80ED090A2B
:103AC000F5EEC08AF1EE10FA0AD1B5EEC08AF1EE39
:103AD00010FA02DD9FED419B3EE09FED429B3BE0F3
:103AE00088EE280A10EE105A2846FDF772F841ECCD
:103AF0001A0BB0EE4A0AF0EE6A0A10F0A1FAB0EE24
:103B0000409AF0EE609AF5EEC08AF1EE10FA0FD20C
:103B1000B5EEC08AF1EE10FA0ADB9FED340B53ECE0
:103B2000102B51EC190BFCF73CFE41EC190B13E088
:103B3000F5EEC08AF1EE10FA0ED2B5EEC08AF1EEC3
:103B400010FA09D29FED290B53EC102B51EC190BF5
:103B5000FCF7C8FE41EC190BB0EE490AF0EE690A19
:103B600010F0F6FBB0EE40BAF0EE60BA1A4890EDF5
:103B7000090A10EE101A0846FDF72BF841EC1C0B51
:103B800053EC1B2BFCF7B4FE41EC1A0BFDF764F869
:103B900011494864B0EE490AF0EE690A10F048FC99
:103BA000B0EE40BAF0EE60BA0B4890ED090A10EEA4
:103BB000101A0846FDF70DF841EC1C0B53EC1B2BBB
:103BC000FCF796FE41EC1A0BFDF746F802498864B3
:103BD000BDEC0A8B70BD0000900F0020000000407B
:103BE000FB21F93F00000040FB21F9BF000000402D
:103BF000FB2109402DE9F84F07460C4690464FF04F
:103C00000009CA4600250026A346A01D00900425F1
:103C1000A7F1500010283AD2DFE800F01608190F7B
:103C20001E2326292C2F3239393939354FF03409E2
:103C300003254FF0400A01262BE04FF03D090325F4
:103C40004FF02E0A012624E04FF0300921E04FF01A
:103C500037094FF003081CE04FF03A094FF0030812
:103C600017E04FF0410914E04FF0450911E04FF023
:103C700049090EE04FF04D090BE04FF0510908E003
:103C80004FF0550905E01448D0F8009001E0BDE878
:103C9000F88F00BFB8F1030F01D1032500265DB1F5
:103CA0006A000E4901EB49005946FCF720FB294602
:103CB00048460B4A126890475EB17200074901EB13
:103CC0004A000099FCF713FB31465046044A12683B
:103CD000904700BFDBE7000090000020601100204B
:103CE0007C0000207CB5054606F036FF42F0F4F972
:103CF00008F03AFC0020012103464A02CDE90010F9
:103D0000DBA1DE4843F0B4FC0446012C13D000BF15
:103D100000BF4FF0FF31DA48006843F087FBD9A0BD
:103D20000FF024FF00231A461946D548006843F0D7
:103D3000A1F800BF00BF0020062103464FF4007227
:103D4000CDE90010DAA1DD4843F092FC0446012CD5
:103D500013D000BF00BF4FF0FF31C948006843F0E7
:103D600065FBD7A00FF002FF00231A461946C4488E
:103D7000006843F07FF800BF00BF00200121034628
:103D80004022CDE90010D9A1DB4843F071FC044684
:103D9000012C13D000BF00BF4FF0FF31B8480068BE
:103DA00043F044FBD5A00FF0E1FE00231A4619466C
:103DB000B348006843F05EF800BF00BF0020022156
:103DC00003468022CDE90010D7A1DA4843F050FC29
:103DD0000446012C13D000BF00BF4FF0FF31A848AC
:103DE000006843F023FBD4A00FF0C0FE00231A4666
:103DF0001946A348006843F03DF800BF00BF00200B
:103E0000052103468022CDE90010D6A1D84843F011
:103E10002FFC0446012C13D000BF00BF4FF0FF3130
:103E20009748006843F002FBD2A00FF09FFE0023EA
:103E30001A4619469248006843F01CF800BF00BFBC
:103E40000020062103464FF40072CDE90010D5A1F1
:103E5000D74843F00DFC0446012C13D000BF00BF2F
:103E60004FF0FF318648006843F0E0FAD1A00FF030
:103E70007DFE00231A4619468148006842F0FAFF89
:103E800000BF00BF0020022103464A02CDE9001016
:103E9000D4A1D74843F0ECFB0446012C13D000BF5B
:103EA00000BF4FF0FF317648006843F0BFFAD1A061
:103EB0000FF05CFE00231A4619467148006842F074
:103EC000D9FF00BF00BF0020032103464FF48072DA
:103ED000CDE90010D2A1D54843F0CAFB0446012C1D
:103EE00013D000BF00BF4FF0FF316548006843F0BA
:103EF0009DFACFA00FF03AFE00231A4619466048FB
:103F0000006842F0B7FF00BF00BF00200321034656
:103F10004FF48072CDE90010D1A1D44843F0A8FB42
:103F20000446012C13D000BF00BF4FF0FF315448AE
:103F3000006843F07BFACEA00FF018FE00231A466B
:103F400019464F48006842F095FF00BF00BF0020AF
:103F5000042103468A01CDE90010D1A1D34843F0E2
:103F600087FB0446012C13D000BF00BF4FF0FF3188
:103F70004348006843F05AFACDA00FF0F7FD002344
:103F80001A4619463E48006842F074FF00BF00BF61
:103F90000020032103464FF48072CDE90010D0A128
:103FA000D24843F065FB0446012C13D000BF00BF8C
:103FB0004FF0FF313248006843F038FACCA00FF0E0
:103FC000D5FD00231A4619462D48006842F052FFDD
:103FD00000BF00BF0020052103464FF40072CDE969
:103FE0000010CEA1D04843F043FB0446012C13D06F
:103FF00000BF00BF4FF0FF312148006843F016FAC0
:10400000CAA00FF0B3FD00231A4619461C480068E9
:1040100042F030FF00BF00BF0020052103464FF4EF
:104020008072CDE90010CDA1CF4843F021FB0446BA
:10403000012C13D000BF00BF4FF0FF3110480068C3
:1040400043F0F4F9C9A00FF091FD00231A46194678
:104050000B48006842F00EFF00BF00BFFFF77CF97D
:10406000FFF754F9002042F081F942F05FF87CBD7F
:1040700074657374207461736B000000052401087B
:10408000980000201B5B33316D0D0A45205B727474
:104090006F735D2074657374207461736B20637239
:1040A00065617465206661696C65641B5B306D00D9
:1040B00066696C65207461736B000000115800081C
:1040C0001B5B33316D0D0A45205B72746F735D208D
:1040D00066696C65207461736B20637265617465D9
:1040E000206661696C65641B5B306D006C656420E3
:1040F0007461736B000000009DAA00081B5B3331E4
:104100006D0D0A45205B72746F735D206C656420D1
:104110007461736B20637265617465206661696C9C
:1041200065641B5B306D00006265657020746173AF
:104130006B000000C12400081B5B33316D0D0A4584
:10414000205B72746F735D206265657020746173AB
:104150006B20637265617465206661696C65641BC0
:104160005B306D00627574746F6E207461736B00E8
:10417000ED2600081B5B33316D0D0A45205B727420
:104180006F735D20627574746F6E207461736B2041
:10419000637265617465206661696C65641B5B3080
:1041A0006D0000007368656C6C207461736B0000B7
:1041B000810B01081B5B33316D0D0A45205B727466
:1041C0006F735D207368656C6C207461736B206322
:1041D0007265617465206661696C65641B5B306D36
:1041E00000000000677569207461736B00000000B7
:1041F000D55D00081B5B33316D0D0A45205B727481
:104200006F735D20677569207461736B20637265DD
:10421000617465206661696C65641B5B306D0000CC
:104220006D6F746F72207461736B00006DC4000851
:104230001B5B33316D0D0A45205B72746F735D201B
:104240006D6F746F72207461736B2063726561743B
:1042500065206661696C65641B5B306D0000000061
:104260007374656572207461736B0000211B010813
:104270001B5B33316D0D0A45205B72746F735D20DB
:104280007374656572207461736B20637265617409
:1042900065206661696C65641B5B306D0000000021
:1042A0006A79393031207461736B0000FD9F00081A
:1042B0001B5B33316D0D0A45205B72746F735D209B
:1042C0006A79393031207461736B2063726561746F
:1042D00065206661696C65641B5B306D00000000E1
:1042E000636172207461736B00000000613000082C
:1042F0001B5B33316D0D0A45205B72746F735D205B
:10430000636172207461736B2063726561746520F0
:104310006661696C65641B5B306D0000726F75745B
:1043200065207461736B0000A9DD00081B5B3331ED
:104330006D0D0A45205B72746F735D20726F75742A
:1043400065207461736B20637265617465206661BA
:10435000696C65641B5B306D0000000061726D204C
:104360007461736B00000000852300081B5B333110
:104370006D0D0A45205B72746F735D2061726D2054
:104380007461736B20637265617465206661696C2A
:1043900065641B5B306D000010B5024802F01EF929
:1043A00010BD0000A409002010B5024802F016F963
:1043B00010BD0000EC0800200146087810381823D2
:1043C000B0FBF3F20848805CC865032A05D9086889
:1043D0006FF30900001D886503E008686FF30900AA
:1043E0008865886D70470000F47C04080146002051
:1043F0008A6A8B69CBB932B1012A0DD0022A03D067
:10440000032A10D10EE000BFCB6A03F08073B3F132
:10441000807F00D1012007E0CB6AB3F1C07F00D1DB
:10442000012001E000E000BF34E08B69B3F5005FDC
:104430001AD132B1012A07D0022A03D0032A11D19E
:104440000AE000BF01200EE0CB6A03F08073B3F1F5
:10445000807F00D1012006E0CB6AB3F1C07F00D19C
:10446000012000E000BF15E032B1012A05D0022A88
:1044700004D0032A0CD103E000BF00BF012008E0F4
:10448000CB6A03F08073B3F1807F00D1012000E09C
:1044900000BF00BF704730B50468246824F480244E
:1044A00005682C60046863608468402C04D104684B
:1044B000A2600468E16003E00468A1600468E2604F
:1044C00030BD704770B52DED088B8AB09FED990A0D
:1044D000B0EE408A9FED970AF0EE408A9FED950A74
:1044E000B0EE409A9FED930AB0EE408A9FED910A9C
:1044F000F0EE408A9FED8F0AB0EE409A002005F062
:1045000049FEFEF7C1FE10EE104A2046FCF761FBA3
:1045100041EC1A0B53EC1A2B87A102A80FF036FBC3
:1045200000204FF6FF7102AB1822CDE900100146C2
:1045300005F0F6FEFCE08548007818B10AB0BDEC45
:10454000088B70BD002454E00020814E651C009053
:1045500056F825506D1E05EB45057E4E06EB85058C
:1045600095ED010ADFED7C0A30EE200ABCEEC00AB0
:1045700010EE105AABB2764E651C56F825506D1EE3
:1045800005EB4505734E06EB850595ED000ADFED5D
:10459000730A30EE200ABCEEC00A10EE105AAAB21E
:1045A0006B4D55F824506D1E05EB450506EB850552
:1045B00095ED010ADFED680A30EE200ABCEEC00A74
:1045C00010EE105AA9B2624D55F824506D1E05EB3D
:1045D000450506EB850595ED000ADFED600A30EE36
:1045E000200ABCEEC00A10EE105AA8B205F0BEFEBA
:1045F000A41C182CA8DB18EE100AFCF7EAFA41EC10
:104600001B0B9FED570B53EC102BFCF7CAF841EC3A
:104610001A0BFCF721FB08EE100A18EE900AFCF7C3
:10462000D8FA41EC1B0B9FED4E0B53EC102BFCF713
:10463000B8F841EC1A0BFCF70FFB08EE900A19EEE4
:10464000100AFCF7C6FA41EC1B0B9FED470B53EC2D
:10465000102BFCF7A6F841EC1A0BFCF7FDFA09EE5B
:10466000100A3C49B0EE491AF0EE680AB0EE480A6A
:104670003F483CF0C1FE002455E04FF6FF70344E39
:10468000651C009056F825506D1E05EB4505314E12
:1046900006EB850595ED010ADFED2F0A30EE200AC5
:1046A000BCEEC00A10EE105AABB2294E651C56F88B
:1046B00025506D1E05EB4505264E06EB850595ED4F
:1046C000000ADFED260A30EE200ABCEEC00A10EE2A
:1046D000105AAAB21E4D55F824506D1E05EB450523
:1046E00006EB850595ED010ADFED1B0A30EE200A89
:1046F000BCEEC00A10EE105AA9B2154D55F8245060
:104700006D1E05EB450506EB850595ED000ADFED11
:10471000130A30EE200ABCEEC00A10EE105AA8B2FE
:1047200005F024FEA41C182CA7DB0A2041F0F0FDA4
:1047300001E700000000000062617420766F6C7475
:104740006167653A252E3166000000009C0000205C
:1047500000010020981400200000F04200002043D7
:104760009A9999999999A93F7B14AE47E17A843F28
:10477000A000002072B600BFFEE7000010B504469E
:1047800000BF00BF4FF0FF310A48006842F04EFE04
:1047900009A00FF0EBF900231A46194605480068F6
:1047A00042F068FB00BF00BF002211460620FEF762
:1047B000A1FE10BD980000201B5B33326D0D0A492D
:1047C000205B75695D2062746E20311B5B306D006B
:1047D00010B5044600BF00BF4FF0FF310A48006823
:1047E00042F024FE09A00FF0C1F900231A46194631
:1047F0000548006842F03EFB00BF00BF00221146A2
:104800000720FEF777FE10BD980000201B5B3332B7
:104810006D0D0A49205B75695D2062746E20321B44
:104820005B306D0010B5044600BF00BF4FF0FF3194
:104830000A48006842F0FAFD09A00FF097F900233A
:104840001A4619460548006842F014FB00BF00BF35
:10485000002211460B20FEF74DFE10BD98000020EF
:104860001B5B33326D0D0A49205B75695D206274F4
:104870006E20331B5B306D0010B5044600BF00BFD7
:104880004FF0FF310A48006842F0D0FD09A00FF058
:104890006DF900231A4619460548006842F0EAFA05
:1048A00000BF00BF002211460C20FEF723FE10BD02
:1048B000980000201B5B33326D0D0A49205B75693F
:1048C0005D2062746E20341B5B306D0010B50446B1
:1048D0001148007808B9012000E000200E49087056
:1048E00001220920FEF706FE00BF00BF4FF0FF3196
:1048F0000A48006842F09AFD0748017808A00FF0C6
:1049000035F900231A4619460448006842F0B2FA05
:1049100000BF00BF10BD0000100200209800002062
:104920001B5B33326D0D0A49205B6F765D206F761D
:1049300020646973706C6179207374613A25641B1B
:104940005B306D007047000038B5054612480068BE
:1049500038F0DFF804462046FBF716FFC0B200909F
:10496000012269460D20FEF7C5FD00BF00BF4FF0D4
:10497000FF310A48006842F059FD9DF8001008A078
:104980000FF0F4F800231A4619460448006842F074
:1049900071FA00BF00BF38BD7402002098000020EB
:1049A0001B5B33326D0D0A49205B6F765D207365AA
:1049B0006E6420706172616D5B25645D1B5B306DA0
:1049C0000000000070B52DED048B0546324850F80C
:1049D0002500B8B900BF00BF4FF0FF312F48006875
:1049E00042F024FD29462EA00FF0C0F800231A46FD
:1049F00019462A48006842F03DFA00BF00BFBDECEE
:104A0000048B70BD244850F8254000263CE0607EB1
:104A100040B102E00A2041F07BFC032005F0CAFA15
:104A20000028F7D10EF04EFC94ED041BB0EE410AC5
:104A3000F0EE610A51EC100BFCF70EF908EE100ACB
:104A400094ED021BB0EE410AF0EE610A51EC100B3E
:104A5000FCF702F908EE900A94ED001BB0EE410A53
:104A6000F0EE610A51EC100BFCF7F6F809EE100AB3
:104A7000207EB0EE481AF0EE680AB0EE490A0BF05C
:104A8000A3FAE469701CC6B2002CC0D120460FF016
:104A9000FBF800BFB3E70000001A002098000020D8
:104AA0001B5B33336D0D0A57205B61726D5D2061B6
:104AB0006374696F6E2069645B25645D206973208F
:104AC000696E76616C69641B5B306D00F0B52DED2D
:104AD000028B83B006460F46002505F0CBF9B0B92E
:104AE00000BF00BF691E5748006842F09FFC56A0F7
:104AF0000FF03CF800231A4619465248006842F06D
:104B0000B9F900BF00BF03B0BDEC028BF0BD0120BE
:104B100005F030F9012005F0F3F8554804688CE001
:104B20002846691CCDB2B04200DA86E0781C854286
:104B300000DDE8E700BF00BF4FF0FF3141480068EB
:104B400042F074FC94ED020B8DED000B94ED001B14
:104B5000B0EE410AF0EE610A691E53EC102B45A03D
:104B60000FF004F800231A4619463648006842F050
:104B700081F900BF00BF94ED021BB0EE410AF0EED8
:104B8000610A51EC100BFCF767F808EE100A94ED7F
:104B9000001BB0EE410AF0EE610A51EC100BFCF77D
:104BA0005BF808EE900AF0EE480AB0EE680A0BF0E7
:104BB000B9FB1E2041F0ACFB02E01E2041F0A8FB37
:104BC00004F01CFF0028F8D000BF00BF4FF0FF31F9
:104BD0001C48006842F02AFC94ED041BB0EE410A28
:104BE000F0EE610A53EC102B2EA00EF0BFFF002355
:104BF0001A4619461348006842F03CF900BF00BF4E
:104C000094ED041BB0EE410AF0EE610A51EC100B7A
:104C1000FCF722F808EE100AB0EE480A0BF050FA42
:104C20001E2041F075FB02E01E2041F071FB04F0F4
:104C3000E5FE0028F8D0E46900BF002C7FF470AFD7
:104C400000BF60E7980000201B5B33316D0D0A4503
:104C5000205B726F7574655D2066696C6520697391
:104C6000206E6F74652072656164791B5B306D0026
:104C7000BC0100201B5B33326D0D0A49205B726F53
:104C80007574655D205B25645D20636F6F72643AA7
:104C900028252E31662C20252E3166291B5B306D90
:104CA000000000001B5B33326D0D0A49205B726F00
:104CB0007574655D20636172207475726E5B252E5C
:104CC00031665D1B5B306D0010B52DED028B82B03F
:104CD00005F0D0F8B8B900BF00BF4FF0FF318248EF
:104CE000006842F0A3FB81A00EF040FF00231A46AB
:104CF00019467D48006842F0BDF800BF00BF02B011
:104D0000BDEC028B10BD83480468E8E000BF00BF23
:104D10004FF0FF317448006842F088FB94ED020BBD
:104D20008DED000B94ED001BB0EE410AF0EE610A30
:104D300053EC102B78A00EF019FF00231A461946E9
:104D40006948006842F096F800BF00BF94ED021B6E
:104D5000B0EE410AF0EE610A51EC100BFBF77CFF5C
:104D600008EE100A94ED001BB0EE410AF0EE610A65
:104D700051EC100BFBF770FF08EE900AF0EE480ABA
:104D8000B0EE680A0BF0CEFA1E2041F0C1FA02E044
:104D90001E2041F0BDFA04F087FF0028F8D000BFC4
:104DA00000BF4FF0FF315048006842F03FFB94EDE8
:104DB000041BB0EE410AF0EE610A53EC102B60A028
:104DC0000EF0D4FE00231A4619464748006842F008
:104DD00051F800BF00BF94ED041BB0EE410AF0EEA5
:104DE000610A51EC100BFBF737FF08EE100AB0EE2A
:104DF000480A0BF065F91E2041F08AFA02E01E20F5
:104E000041F086FA04F02EFD0028F8D000BF00BF64
:104E10004FF0FF313448006842F008FB217E51A07A
:104E20000EF0A4FE00231A4619462F48006842F0EF
:104E300021F800BF00BF207E0A284ED2DFE800F034
:104E40004D050D151D252D353D45642203210020FE
:104E50000BF016F909F06AF93FE064220321002003
:104E60000BF00EF909F014FC37E064220321002056
:104E70000BF006F909F056FF2FE064220321002011
:104E80000BF0FEF809F080F927E0642203210020EE
:104E90000BF0F6F809F0BAFA1FE0642203210020B3
:104EA0000BF0EEF80AF022F917E06422032100204B
:104EB0000BF0E6F809F0D6F80FE064220321002099
:104EC0000BF0DEF809F094FD07E0642203210020D6
:104ED0000BF0D6F809F018FC00BF00BFE469002C05
:104EE0007FF414AF00BF0AE7980000201B5B33314A
:104EF0006D0D0A45205B726F7574655D2066696C87
:104F000065206973206E6F74652072656164791B1A
:104F10005B306D00BC0100201B5B33326D0D0A4914
:104F2000205B726F7574655D20636F6F72643A28E1
:104F3000252E31662C20252E3166291B5B306D0015
:104F40001B5B33326D0D0A49205B726F7574655DB2
:104F500020636172207475726E5B252E31665D1B55
:104F60005B306D001B5B33326D0D0A49205B726F45
:104F70007574655D20636172206576656E745B256E
:104F8000645D1B5B306D000010B50446142C74D2B8
:104F9000DFE804F0730A1F34495E74899EB3C8DDEC
:104FA000FBECEBEAE9E8E7E600BF00BF4FF0FF31BA
:104FB000D548006842F03AFAD4480EF0D7FD0023F5
:104FC0001A461946D048006841F054FF00BF00BFA0
:104FD00098E100BF00BF4FF0FF31CB48006842F0BE
:104FE00025FACBA00EF0C2FD00231A461946C6488A
:104FF000006841F03FFF00BF00BF83E100BF00BF7A
:105000004FF0FF31C048006842F010FACAA00EF01D
:10501000ADFD00231A461946BB48006841F02AFF3F
:1050200000BF00BF6EE100BF00BF4FF0FF31B648C8
:10503000006842F0FBF9CDA00EF098FD00231A465F
:105040001946B148006841F015FF00BF00BF59E1A3
:1050500000BF00BF4FF0FF31AB48006842F0E6F9F7
:10506000CEA00EF083FD00231A461946A64800681C
:1050700041F000FF00BF00BF44E12EE100BF00BFD0
:105080004FF0FF31A048006842F0D0F9CFA00EF0F9
:105090006DFD00231A4619469B48006841F0EAFE60
:1050A00000BF00BF2EE100BF00BF4FF0FF319648A8
:1050B000006842F0BBF9D3480EF058FD00231A46B1
:1050C00019469148006841F0D5FE00BF00BF19E1C4
:1050D00000BF00BF4FF0FF318B48006842F0A6F9D7
:1050E000C9A00EF043FD00231A4619468648006801
:1050F00041F0C0FE00BF00BF04E100BF00BF4FF0A1
:10510000FF318148006842F091F9CEA00EF02EFDEB
:1051100000231A4619467C48006841F0ABFE00BFE8
:1051200000BFEFE000BF00BF4FF0FF3176480068DE
:1051300042F07CF9D2A00EF019FD00231A46194660
:105140007148006841F096FE00BF00BFDAE000BF82
:1051500000BF4FF0FF316C48006842F067F907E08C
:10516000A6E090E07AE064E04EE038E022E00CE077
:10517000D2A00EF0FBFC00231A46194662480068D4
:1051800041F078FE00BF00BFBCE000BF00BF4FF0A1
:10519000FF315D48006842F049F9D7A00EF0E6FC07
:1051A00000231A4619465848006841F063FE00BFC4
:1051B00000BFA7E000BF00BF4FF0FF3152480068BA
:1051C00042F034F9D9A00EF0D1FC00231A4619465A
:1051D0004D48006841F04EFE00BF00BF92E000BFA6
:1051E00000BF4FF0FF314848006842F01FF9DCA0D3
:1051F0000EF0BCFC00231A4619464348006841F0F3
:1052000039FE00BF00BF7DE000BF00BF4FF0FF319F
:105210003D48006842F00AF9E1480EF0A7FC00237F
:105220001A4619463848006841F024FE00BF00BF06
:1052300068E000BF00BF4FF0FF313348006842F024
:10524000F5F8D8480EF092FC00231A4619462E486D
:10525000006841F00FFE00BF00BF53E000BF00BF79
:105260004FF0FF312848006842F0E0F8CEA00EF081
:105270007DFC00231A4619462348006841F0FAFDD8
:1052800000BF00BF3EE000BF00BF4FF0FF311E482F
:10529000006842F0CBF8D4A00EF068FC00231A4658
:1052A00019461948006841F0E5FD00BF00BF29E03C
:1052B00000BF00BF4FF0FF311348006842F0B6F85E
:1052C000D7A00EF053FC00231A4619460E4800687A
:1052D00041F0D0FD00BF00BF14E000BF00BF4FF0A1
:1052E000FF310948006842F0A1F8D9A00EF03EFC59
:1052F00000231A4619460448006841F0BBFD00BF70
:1053000000BF00BF00BF10BD98000020E8690B0877
:105310001B5B33316D0D0A45205B66617466735DFE
:1053200020417373657274696F6E206661696C6584
:10533000641B5B306D0000001B5B33316D0D0A4553
:10534000205B66617466735D2054686520706879BF
:10535000736963616C2064726976652063616E6E47
:105360006F7420776F726B1B5B306D001B5B33318A
:105370006D0D0A45205B66617466735D20436F7531
:105380006C64206E6F742066696E6420746865209A
:1053900066696C651B5B306D000000001B5B333180
:1053A0006D0D0A45205B66617466735D20436F7501
:1053B0006C64206E6F742066696E6420746865206A
:1053C000706174681B5B306D000000001B5B333143
:1053D0006D0D0A45205B66617466735D20546865D7
:1053E0002070617468206E616D6520666F726D61FA
:1053F0007420697320696E76616C69641B5B306D23
:105400000000000040690B081B5B33316D0D0A453D
:10541000205B66617466735D20416363657373200E
:1054200064656E6965642064756520746F207072B0
:105430006F68696269746564206163636573731B77
:105440005B306D001B5B33316D0D0A45205B66617F
:105450007466735D205468652066696C652F6469A5
:10546000726563746F7279206F626A656374206914
:105470007320696E76616C69641B5B306D0000009F
:105480001B5B33316D0D0A45205B66617466735D8D
:105490002054686520706879736963616C20647258
:1054A0006976652069732077726974652070726F00
:1054B0007465637465641B5B306D00001B5B333186
:1054C0006D0D0A45205B66617466735D20546865E6
:1054D000206C6F676963616C206472697665206E09
:1054E000756D62657220697320696E76616C69649E
:1054F0001B5B306D000000001B5B33316D0D0A45F6
:10550000205B66617466735D2054686520766F6CFD
:10551000756D6520686173206E6F20776F726B20E8
:10552000617265611B5B306D000000001B5B3331F5
:105530006D0D0A45205B66617466735D2054686575
:105540007265206973206E6F2076616C69642046F5
:10555000415420766F6C756D651B5B306D000000EB
:105560001B5B33316D0D0A45205B66617466735DAC
:105570002054686520665F6D6B6673282920616220
:105580006F727465642064756520746F20616E7934
:105590002070726F626C656D1B5B306D00000000E7
:1055A00090690B08346A0B081B5B33316D0D0A459B
:1055B000205B66617466735D204C464E20776F7287
:1055C0006B696E672062756666657220636F756CC5
:1055D00064206E6F7420626520616C6C6F6361740F
:1055E00065641B5B306D00001B5B33316D0D0A453C
:1055F000205B66617466735D204E756D6265722016
:105600006F66206F70656E2066696C6573203E2042
:105610005F46535F4C4F434B1B5B306D00000000F7
:105620001B5B33316D0D0A45205B66617466735DEB
:1056300020476976656E20706172616D6574657270
:1056400020697320696E76616C69641B5B306D0044
:105650001B5B33316D0D0A45205B66617466735DBB
:10566000206E6F74206120696E76616C69642065BC
:1056700072726F72206E756D6265721B5B306D00A9
:1056800030B504460D4600222946204600F002F8B7
:1056900030BD0000F0B50346012500241148407AD2
:1056A00001281CDA00200F4E767A0E4FB855384686
:1056B000467A001D40F82630001F467A0830825591
:1056C0003E46707A461C7E72044604F13000087033
:1056D0003A2048702F2088700020C8700025284686
:1056E000F0BD000084F9002070B50446B3F5804F8A
:1056F00013D1D1E9000540EA05108D6840EA052084
:105700008D6928438D8940EA054054F82250064EA1
:105710003540284344F8220003E06FF0704044F81D
:105720002200002070BD00000000F0CF70B50246DE
:10573000086852F8200020F001000E6842F82600A8
:105740008868082801D1402300E0002348681843F6
:105750008E683043CE6830430E6930434E69304323
:10576000CE6930430E6A30434E6A30438E6A30430E
:10577000CE6A30430E6B40EA060488690443C86B66
:105780000443074D45F4806545F4E025086852F868
:105790002000A84320430E6842F82600002070BD78
:1057A0007FFB080010B50346D1E9000440EA04106D
:1057B0008C6840EA04208C8940EA0444088A401E30
:1057C00044EA0054087D801E44EA00608C6920434E
:1057D000541C53F8244004F040442043541C43F824
:1057E0002400002010BD000070B5084804680025A2
:1057F00005E0E56920460EF047FA00242C46002C0F
:10580000F7D100200149086070BD0000BC010020F4
:10581000002108460DF0ECFC114A12A118A00BF073
:10582000BBF81A4A1AA120A00BF0B6F8214A22A10F
:1058300027A00BF0B1F8284A28A138A00BF0ACF84B
:10584000384A39A142A00BF0A7F8434A43A149A026
:105850000BF0A2F803E04FF0FF3040F059FDFAE7FB
:10586000FD11010873686F772066696C6520726F9F
:1058700075746520706F696E74206C6973740000B4
:10588000666C5F706F696E7400000000510F010854
:1058900073686F772066696C652070696420706139
:1058A00072616D7300000000666C5F706172616D03
:1058B00000000000B10D010873686F772066696C05
:1058C000652061726D20616374696F6E7300000002
:1058D000666C5F61726D00008513010873686F77F5
:1058E0002F736176652066696C6520726762207629
:1058F000616C75652C20706172616D3A6E756C6CAF
:10590000286A7573742073686F7729206F72205B23
:10591000222D73225D28736176652900666C5F72A3
:1059200067620000F1310108757064617465207070
:105930006172616D732066726F6D2066696C65209F
:10594000746F20636F6E74726F6C6C657200000010
:105950007570646174650000190B01086C6F6164F7
:105960002073706563696C20726F75746520706F49
:10597000696E7400666C5F73706C000010B5012472
:1059800001229BA19B481CF057FC9B4908700846CC
:105990000078B8B100BF00BFA11E9848006841F070
:1059A00045FD97A00EF0E2F800231A4619469348E9
:1059B000006841F05FFA00BF00BF8F480078FFF732
:1059C000E3FA0024012297A19B481CF077FC8A4946
:1059D000087008460078C0B100BF00BF4FF0FF312B
:1059E0008648006841F022FD94A00EF0BFF8002325
:1059F0001A4619468148006841F03CFA00BF00BFD2
:105A00007D480078FFF7C0FA00248B48C0689749AA
:105A10000860084600680FF0ABF995490860934BA1
:105A2000184602680846016883481CF068FD724900
:105A300008708F48006814F0B3F88E4908608C48ED
:105A400000680EF021F97C481CF0DCFB8AA1894833
:105A5000006814F08FF88A49086008460068A8B901
:105A600000BF00BF4FF0FF316448006841F0DEFC2A
:105A700084A00EF07BF800231A4619465F480068A0
:105A800041F0F8F900BF00BF002404E07C49096838
:105A9000086907F005FF86A17648006814F06AF8E7
:105AA0007749086008460068A8B900BF00BF4FF0FA
:105AB000FF315248006841F0B9FC7FA00EF056F863
:105AC00000231A4619464D48006841F0D3F900BF3B
:105AD00000BF002404E06A490968086906F078FEFE
